:100000000C94FC150C942D160C942D160C942D1696
:100010000C942D160C942D160C942D160C942D1654
:100020000C942D160C942D160C942D160C942D1644
:100030000C942D160C942D160C942D160C942D1634
:100040000C942D160C945F3D0C942D160C942D16CB
:100050000C942D160C942D160C94EBD60C9421B800
:100060000C942D160C94DC3C0C942D160C942D162F
:100070000C942D160C942D160C942D160C942D16F4
:100080000C942D160C942D160C942D160C942D16E4
:100090000C942D160C942D160C942D160C942D16D4
:1000A0000C942D160C942D160C942D160C942D16C4
:1000B0000C942D160C942D160C942D160C942D16B4
:1000C0000C942D160C942D160C942D160C942D16A4
:1000D0000C942D160C942D160C942D160C942D1694
:1000E0000C942D169A7BA37BAD7BB67BBF7BDA7B12
:1000F000E77BF07BC87BD17B0EB611B600B604B6A9
:100100000AB648B615B619B61FB623B627B62DB629
:1001100031B635B648B63BB63FB643B63DB742B743
:1001200047B751B75BB7D4B765B76DB775B77FB78A
:1001300089B793B7A2B7ACB7D4B7B6B7C0B7CAB789
:10014000084AD73B3BCE016E84BCBFFDC12F3D6C3E
:1001500074319ABD56833DDA3D00C77F11BED9E4A4
:10016000BB4C3E916BAAAABE000000803F05A84C84
:10017000CDB2D44EB93836A9020C50B99186880850
:100180003CA6AAAA2ABE000000803F004E414E496C
:100190004E495459494E46CDCCCC3D0AD7233C1745
:1001A000B7D13877CC2B329595E6241FB14F0A0092
:1001B0000020410000C84200401C4620BCBE4CCA82
:1001C0001B0E5AAEC59D74434F4D4D554E4943418C
:1001D00054494F4E0044525952554E004552524FC9
:1001E000525300494E464F004543484F0020746F1C
:1001F0006F206C6F6E6720657874727573696F6EAF
:100200002070726576656E7465640A0020636F6C99
:100210006420657874727573696F6E20707265768C
:10022000656E7465640A0054454D5020544F4F204C
:100230004C4F57210047322F4733206261642070B2
:100240006172616D65746572730A00536C656570E7
:100250002E2E2E00526573756D696E67207072695F
:100260006E740041313054205072696E7465722092
:1002700072656164792E00436C69636B20746F2032
:10028000726573756D652E2E2E004E6F206D6F7624
:10029000652E00456E642066696C65206C69737418
:1002A0000A00426567696E2066696C65206C697337
:1002B000740A0046696C652064656C657465643A0F
:1002C0000044656C6574696F6E206661696C656475
:1002D0002C2046696C653A20006F70656E2066615F
:1002E000696C65642C2046696C653A200025697349
:1002F0000025696D20256973002569682025696DD1
:100300002025697300256964202569682025696DA9
:10031000202569730025697920256964202569688D
:100320002025696D20256973005072696E742074F0
:10033000696D653A200050726F746563746564205E
:1003400050696E0A004525692025730041313054FB
:10035000205072696E7465722072656164792E0036
:10036000E801E301DC01D501C7016F666600444581
:100370004255473A004B494C4C45442E20004D31E4
:1003800031332053006F6B0048656174696E6720DC
:10039000646F6E652E0020573A004525692025734D
:1003A0000041313054205072696E7465722072655C
:1003B0006164792E0042656420646F6E652E0020B2
:1003C000573A004265642048656174696E672E0083
:1003D00041313054205072696E746572204F6666E8
:1003E0002E00454D455247454E43595F50415253AB
:1003F000455200434153455F4C494748545F425280
:10040000494748544E45535300544F47474C455F66
:100410004C494748545300534F4654574152455F47
:10042000504F574552004255494C445F5045524346
:10043000454E54004C4556454C494E475F44415447
:1004400041005A5F50524F4245004155544F4C4570
:1004500056454C005052494E545F4A4F420050524C
:100460004F4752455353004155544F5245504F52F8
:10047000545F54454D5000564F4C554D45545249CC
:100480004300454550524F4D0053455249414C5F42
:10049000584F4E5F584F4646004649524D574152BD
:1004A000455F4E414D453A4D61726C696E20312E6B
:1004B000312E3820284769746875622920534F55BA
:1004C0005243455F434F44455F55524C3A687474FC
:1004D00070733A2F2F6769746875622E636F6D2F82
:1004E0004D61726C696E4669726D776172652F4DF0
:1004F00061726C696E2050524F544F434F4C5F569F
:10050000455253494F4E3A312E30204D41434849D0
:100510004E455F545950453A41313054205072692C
:100520006E7465722045585452554445525F434F8E
:10053000554E543A3120555549443A636564653205
:100540006132662D343161322D343734382D3962C1
:1005500031322D6335356336326633363766660A97
:10056000002F2F20007A5F6D696E3A2000795F6D51
:10057000696E3A2000785F6D696E3A2000526570AE
:100580006F7274696E6720656E6473746F70207328
:1005900074617475730A004D31343520533C696EB3
:1005A0006465783E206F7574206F662072616E6797
:1005B000652028302D31290A005761726E696E67F7
:1005C0003A204D697820666163746F7273206D758F
:1005D00073742061646420757020746F20312E3034
:1005E0002E205363616C696E672E0A002529002551
:1005F0007C00202800252920746F205A00257C00CB
:100600002028004F4E2066726F6D205A004F4646DC
:10061000004772616469656E74204D6978200053EB
:10062000657474696E672054726176656C204163ED
:1006300063656C65726174696F6E3A20005365740E
:1006400074696E67205265747261637420416363DC
:10065000656C65726174696F6E3A200053657474DD
:10066000696E67205072696E7420416363656C65C2
:10067000726174696F6E3A200053657474696E67B5
:10068000205072696E7420616E64205472617665C8
:100690006C20416363656C65726174696F6E3A20AA
:1006A00000205A00205900580020204D61783A203F
:1006B00000205A00205900580020204D696E3A2031
:1006C000004F6E20004F666600536F667420656EA3
:1006D0006473746F70733A2000000125272318FF9C
:1006E0001F211D1CFF19171B1EFFFF0C0409FFFF14
:1006F000FF2E2C0CFFFF312F302B2D2904400AFF39
:1007000041FFFFFFFFFFFF43617365206C6967686E
:10071000743A2000290A0046697865642070617285
:10072000616D657465722062797465733B206372D4
:10073000632000466978656420706172616D65743C
:10074000657220280048565F7365745F6F6B0A00FE
:10075000556E6B6E6F776E20636F6D6D616E643A70
:100760002022004C696E65204E756D6265722069AD
:1007700073206E6F74204C617374204C696E652019
:100780004E756D6265722B312C204C617374204C58
:10079000696E653A20004B494C4C45442E2000536D
:1007A000544F505045442E20005072696E7465724B
:1007B0002073746F707065642064756520746F2099
:1007C0006572726F72732E20466978207468652096
:1007D0006572726F7220616E6420757365204D3989
:1007E000393920746F20726573746172742E2028F9
:1007F00054656D70657261747572652069732072DD
:10080000657365742E205365742069742061667465
:1008100065722072657374617274696E67290A006B
:100820004E6F20436865636B73756D2077697468DC
:10083000206C696E65206E756D6265722C204C614E
:100840007374204C696E653A2000636865636B734E
:10085000756D206D69736D617463682C204C6173D4
:1008600074204C696E653A20004D313130004D33B3
:100870003100473120463130303020583020593255
:100880003130004732382058590053442072656196
:1008900064206572726F720A00446F6E6520707218
:1008A000696E74696E672066696C650A0020496E1E
:1008B00076616C6964206578747275646572200075
:1008C0004D31323500205A3A0020593A0020436F0A
:1008D000756E7420583A0020453A00205A3A00209C
:1008E000593A00583A003A004361703A00200D46E8
:1008F0006978656420706172616D65746572206EDF
:1009000062797465733B20637263206572726F72E3
:100910002000200D0A466978656420706172616D5F
:10092000657465722062797465733B20637263201D
:100930006572726F722000290A00206279746573F3
:100940003B206372632000466978656420706172A1
:10095000616D65746572202800206861726477613A
:1009600072652076657273696F6E3A004B494C4C24
:1009700045442E2000202D20496E76616C6964204C
:100980006578747275646572206E756D626572202B
:10099000210A002D2D2D2D2D2D007C4D61726C69AD
:1009A0006E7C002D2D2D2D2D2D00687474703A2F26
:1009B0002F6D61726C696E66772E6F726700687456
:1009C00074703A2F2F6D61726C696E66772E6F723C
:1009D000670020312E312E38002020506C616E6E61
:1009E000657242756666657242797465733A200075
:1009F0002046726565204D656D6F72793A2000431F
:100A00006F6D70696C65643A204E6F7620323320CA
:100A1000323031390A00207C20417574686F723A97
:100A200020286E6F6E652C2064656661756C74207D
:100A3000636F6E666967290A00323031372D3132B3
:100A40002D32352031323A303000204C6173742021
:100A5000557064617465643A2000312E312E380A75
:100A6000004D61726C696E0020536F66747761721D
:100A7000652052657365740A002057617463686469
:100A80006F672052657365740A002042726F776E3B
:100A9000206F75742052657365740A002045787460
:100AA00065726E616C2052657365740A00506F77D1
:100AB000657255700A0073746172740A006572720F
:100AC0006F722077726974696E6720746F2066692F
:100AD0006C650A00456E6473746F70732025632023
:100AE000256320256320256300205A3A0020593AC7
:100AF0000020583A00656E6473746F7073206869E3
:100B0000743A200047323820580066696C616D6580
:100B10006E74206F75740A004D33322053256C7546
:100B200020212573004D33322053256C7520212F51
:100B300025732F2573004730204631303030205A3E
:100B400025752E2575004732382059004732382048
:100B500058004D313036202053323535004D31307C
:100B60003920543020532575004D3139302053251C
:100B70007500446F6E6520736176696E67206669E3
:100B80006C652E0A004D32390024F4D43050C38EE7
:100B900020C2A24017828B7011127A910D816CD9FC
:100BA0000AA861E108C7586607615143061E4B5DFC
:100BB00005C145A7041A411104093D980371393153
:100BC000034036DB0265339102D4305402802E1D7F
:100BD00002632CEE01752AC501B028A001102781FF
:100BE000018F2564012B244B01E0223401AC211F2D
:100BF000018D200D01801FFC00841EED00971DDF7C
:100C000000B81CD200E61BC600201BBC00641AB250
:100C100000B219A8000A19A0006A189900D117910A
:100C20000040178B00B516840031167E00B315798D
:100C3000003A157300C7146F0058146A00EE13666B
:100C4000008813630025135E00C7125B006C125707
:100C50000015125400C111510070114F0021114BA9
:100C600000D61049008D1047004610440002104283
:100C700000C00F4000800F3E00420F3C00060F3BBB
:100C800000CB0E3800930E37005C0E3500270E3473
:100C900000F30D3200C10D3100900D3000600D2EBB
:100CA00000320D2D00050D2C00D90C2B00AE0C29A7
:100CB00000850C29005C0C2700350C27000E0C2643
:100CC00000E80B2400C40B2400A00B23007D0B23A1
:100CD000005A0B2100390B2100180B2000F80A1FC5
:100CE00000D90A1E00BB0A1E009D0A1D00800A1DB5
:100CF00000630A1C00470A1B002C0A1B00110A1A79
:100D000000F7091A00DD091900C4091900AB091917
:100D100000920917007B091800630917004C091697
:100D20000036091600200916000A091500F50815F5
:100D300000E0081400CC081400B8081400A408143B
:100D400000900813007D0812006B08130058081269
:100D5000004608120034081100230811001208117F
:100D60000001081100F0071000E0071000D0071084
:100D700000C0071000B0070F00A107100091070E78
:100D80000083070F0074070F0065070E0057070E5A
:100D90000049070E003B070D002E070E0020070D2F
:100DA0000013070D0006070D00F9060C00ED060DF7
:100DB00000E0060C00D4060C00C8060C00BC060CB3
:100DC00000B0060C00A4060B0099060C008D060B63
:100DD0000082060B0077060B006C060B0061060A0A
:100DE0000057060B004C060A0042060A0038060AA5
:100DF000002E060A0024060A001A060A0010060938
:100E00000007060A00FD050900F4050900EB0509C5
:100E100000E2050900D9050900D0050900C7050948
:100E200000BE050900B5050800AD050800A50509C7
:100E3000009C050800940508008C0508008405083E
:100E4000007C050800740508006C050700650508AE
:100E5000005D050700560508004E05070047050719
:100E6000004005080038050700310507002A05077E
:100E700000230507001C050600160507000F0507DF
:100E8000000805060002050700FB040600F504073C
:100E900000EE040600E8040600E2040700DB040696
:100EA00000D5040600CF040600C9040600C30406EA
:100EB00000BD040600B7040600B1040500AC04063A
:100EC00000A6040600A00405009B04060095040586
:100ED00000900406008A04050085040500800406CD
:100EE000007A04050075040500700405006B040514
:100EF0000066040500610405005C04050057040554
:100F000000520405004D0405004804050043040593
:100F1000003E0404003A04050035040500300404D2
:100F2000002C04050027040400230405001E04040B
:100F3000001A04040016040500110404000D040442
:100F400000090405000404040000040400FC030478
:100F500000F8030400F4030400F0030400EC0304AD
:100F600000E8030400E4030400E0030400DC0304DD
:100F700000D8030400D4030400D0030400CC03040D
:100F800000C8030300C503030024F404D9201BC4D4
:100F90000C5C0E9804C4095F0265077101F405F941
:100FA00000FB04B30048048700C1036900580355DF
:100FB0000003034500BE023A008402310053022AB6
:100FC000002902250004022000E4011C00C80119C8
:100FD00000AF011700980114008401130071011083
:100FE000006101100051010E0043010D0036010B9C
:100FF000002B010B0020010B00150109000C010959
:101000000003010800FB000800F3000800EB0007E4
:1010100000E4000600DE000600D8000600D200064C
:1010200000CC000500C7000500C2000500BD00049B
:1010300000B9000400B5000400B1000400AD0004D4
:1010400000A9000400A5000300A20003009F000403
:10105000009B00030098000300950002009300032A
:1010600000900003008D0002008B00030088000246
:10107000008600020084000300810002007F00025D
:10108000007D0002007B0002007900020077000171
:10109000007600020074000200720001007100027C
:1010A000006F0002006D0001006C0002006A000188
:1010B0000069000200670001006600010065000190
:1010C0000064000200620001006100010060000194
:1010D000005F0002005D0001005C0001005B000198
:1010E000005A00010059000100580001005700019A
:1010F000005600010055000100540001005300009B
:101100000053000100520001005100010050000195
:10111000004F0001004E0000004E0001004D000194
:10112000004C0001004B0000004B0001004A000190
:10113000004900010048000000480001004700018C
:101140000046000000460001004500000045000187
:101150000044000100430000004300010042000081
:101160000042000100410000004100010040000178
:10117000003F0000003F0001003E0000003E000173
:10118000003D0000003D0001003C0000003C00006C
:10119000003C0001003B0000003B0001003A000061
:1011A000003A000100390000003900010038000059
:1011B000003800000038000100370000003700014F
:1011C0000036000000360000003600010035000047
:1011D000003500000035000100340000003400003C
:1011E0000034000100330000003300000033000130
:1011F0000032000000320000003200010031000027
:10120000003100000031000100300000003000001B
:1012100000300001002F0000002F0000002F000010
:10122000002F0001002E0000002E0000002E000103
:10123000002D0000002D0000002D0000002D0001F9
:10124000002C0000002C0000002C0000002C0001ED
:10125000002B0000002B0000002B0000002B0001E1
:10126000002A0000002A0000002A0000002A0001D5
:1012700000290000002900000029000000290000CA
:1012800000290001002800000028000000280000BC
:1012900000280000002800010027000000270000AF
:1012A00000270000002700000027000100260000A2
:1012B0000026000000260000002600000026000195
:1012C000002500000025000000250000002500008A
:1012D000002500000025000100240000002400007B
:1012E000002400000024000000240001002300006E
:1012F0000023000000230000002300000023000062
:101300000023000000230001002200000022000052
:101310000022000000220000002200000022000144
:101320000021000000210000002100000021000039
:101330000021000000210000002100010020000029
:10134000002000000020000000200000002000001D
:10135000002000000020000000200001001F00000D
:10136000001F0000001F0000001F0000001F000001
:10137000001F0000001F0001001E0000001E0000F2
:10138000001E0000001E0000004D38342058205977
:10139000205A2045005A25752C45256C752C502562
:1013A0006C752C5425752C4225752C004131305418
:1013B000205072696E7465722072656164792E00C6
:1013C00041313054205072696E74657220726561CB
:1013D00064792E004572723A4E6F2046696C616DD9
:1013E000656E7400285A203C3D2025642E25642912
:1013F000005374617274206D69783A202533642536
:101400002520253364252500285A203E3D202564CB
:101410002E256429002020456E64206D69783A20CD
:1014200025336425252025336425250046756C6CFD
:10143000206772616469656E74002533643B2533EF
:10144000642525002020456E64206D69783A0025CA
:1014500033643B2533642525005374617274206D19
:1014600069783A004772616469656E740025346476
:101470002E2564206D6D002020456E64205A3A00B0
:101480002534642E2564206D6D00537461727420C0
:101490005A3A004772616469656E74206D6978001C
:1014A0004D69786572004D69783A25336425253B8E
:1014B00025336425253B2533642525004772616467
:1014C00069656E7400546F67676C65206D6978009C
:1014D0003A2533643B2533643B2533642525004D91
:1014E0006978004D61696E005072696E7420706198
:1014F00075736564004D31323500002573004D323F
:1015000034005072696E742061626F727465640099
:10151000473238205859004739300047312046318A
:10152000303030205A323000473931004E6F20536E
:10153000442063617264005072696E742066726F39
:101540006D2053440053746F70207072696E740084
:10155000526573756D65207072696E7400506175A7
:101560007365207072696E740041626F75742050EB
:1015700072696E746572004D6978657200436F6EB2
:1015800074726F6C00507265706172650054756E94
:101590006500496E666F2073637265656E00426117
:1015A000627973746570205A004D363030204230B5
:1015B000004368616E67652066696C616D656E7475
:1015C000004261627973746570205A00466C6F77CF
:1015D00000466C6F770046616E207370656564002D
:1015E00046616E2073706565640042656400426503
:1015F00064004E6F7A7A6C65004E6F7A7A6C650083
:101600005370656564005370656564004D61696E73
:10161000005072656865617420504C4120456E64CD
:10162000005072656865617420504C4120426564C9
:10163000005072656865617420504C4100507265BD
:101640007061726500507265686561742041425333
:1016500020456E6400507265686561742041425394
:101660002042656400507265686561742041425390
:101670000050726570617265004261636B004E6577
:10168000787420636F726E65720050726568656170
:101690007420504C4100436F6F6C646F776E005044
:1016A00072656865617420414253004368616E67EA
:1016B000652066696C616D656E7400446973616272
:1016C0006C65207374657070657273004D383400FA
:1016D0004C6576656C20636F726E65727300417540
:1016E000746F20686F6D6500473238004D6F766506
:1016F0002061786973004D61696E007C3C3E5E2B11
:101700003D3F2F5B5D3B2C2A225C004572726F725D
:101710002077726974696E6720746F204545505256
:101720004F4D210A00001C1F11111F000000061957
:101730001803130C00040E1F041C000000001010FE
:1017400010101010000014141414141400001515B7
:101750001515151500000E1315110E00001C10189C
:101760001705060500040A0A0A0A11110E0C1212C6
:101770000C00000000001F1511151F0000000000E4
:1017800000010204040000001C1C0C0404040201FB
:10179000000000000004081000000000004D31307F
:1017A00034205325750047393220452575004739C7
:1017B00032205A25752E2575004D35303000436195
:1017C0006E63656C207072696E7400526573756D1E
:1017D00065207072696E7400506F776572206F7546
:1017E000746167650025753A253032750025303201
:1017F000753A25303275002D2D2D005344005A00C6
:101800004D7825643B25643B2564252520004D78D3
:1018100025643B25643B25642525200053746172B3
:1018200074205A3A202534642E2564206D6D0020E2
:1018300020456E64205A3A202534642E2564206D9C
:101840006D00544845524D414C2052554E41574130
:101850005900546865726D616C2052756E617761D4
:10186000790043616E6E6F74206F70656E207375C2
:10187000626469722000656E7175657565696E6771
:101880002022006563686F3A00457874727564655C
:1018900072733A203100687474703A2F2F6D617240
:1018A0006C696E66772E6F7267004131305420503C
:1018B00072696E74657200323031372D31322D32DB
:1018C000352031323A303000312E312E38004D6122
:1018D000726C696E00546865726D6973746F7273AF
:1018E00000426F61726420496E666F005072696ECB
:1018F00074657220496E666F004D61696E0020202C
:101900004E6F7A7A6C653A20004261636B004D69D4
:101910006E696D756D2054656D7020697320313767
:10192000302E0048656174696E67206661696C6578
:10193000640045787472756465206D6F726500523D
:101940006573756D65207072696E740052455355EC
:101950004D45204F5054494F4E533A0020204E6F72
:101960007A7A6C653A20006368616E6765006F661D
:10197000207468652066696C616D656E74005761DE
:10198000697420666F7220737461727400505249DA
:101990004E54205041555345440020204E6F7A7AD2
:1019A0006C653A200066696C616D656E7420756EB9
:1019B0006C6F6164005761697420666F72005052E9
:1019C000494E54205041555345440020204E6F7AD3
:1019D0007A6C653A2000506C6561736520776169A7
:1019E000742E2E2E0048656174696E67206E6F7AC2
:1019F0007A6C65005052494E54205041555345442D
:101A00000020204E6F7A7A6C653A20006865617418
:101A1000206E6F7A7A6C652E005072657373206247
:101A20007574746F6E20746F005052494E5420507C
:101A300041555345440020204E6F7A7A6C653A2018
:101A400000746F20636F6E74696E75652E2E2E00A4
:101A5000616E6420707265737320627574746F6E4A
:101A600000496E736572742066696C616D656E7491
:101A7000005052494E5420504155534544002020B7
:101A80004E6F7A7A6C653A200066696C616D656E9E
:101A900074206C6F6164005761697420666F720016
:101AA0005052494E54205041555345440020204E39
:101AB0006F7A7A6C653A200066696C616D656E7448
:101AC0002065787472756465005761697420666F6B
:101AD00072005052494E54205041555345440074B1
:101AE0006F20726573756D65005761697420666F4C
:101AF00072207072696E74005052494E54205041E9
:101B00005553454400496E697469616C697A652072
:101B1000454550524F4D00436F6E74726F6C0052CA
:101B20006573746F7265206661696C7361666500C8
:101B30004C6F61642073657474696E677300496EDD
:101B4000697469616C697A6520454550524F4D0052
:101B500053746F72652073657474696E67730046A1
:101B6000696C616D656E74004D6F74696F6E0054C1
:101B7000656D7065726174757265004D61696E00A6
:101B80004D333033205531204525692053256900D8
:101B9000507265686561742041425320636F6E66C0
:101BA000005072656865617420504C4120636F6E0F
:101BB0006600504944204175746F74756E6500501D
:101BC0004944204175746F74756E65005049442D09
:101BD00044005049442D44005049442D4900504987
:101BE000442D49005049442D50005049442D500087
:101BF0002002204661637400200220466163740065
:101C00002002204D6178002002204D6178002002E2
:101C1000204D6178002002204D696E002002204D89
:101C2000696E002002204D696E004F6666004F6E9F
:101C300020004175746F74656D700046616E20738D
:101C4000706565640046616E20737065656400426E
:101C5000656400426564004E6F7A7A6C65004E6F71
:101C60007A7A6C6500436F6E74726F6C0053746F98
:101C700072652073657474696E67730042656400F1
:101C8000426564004E6F7A7A6C65004E6F7A7A6CAA
:101C9000650046616E2073706565640046616E2064
:101CA00073706565640054656D70657261747572FA
:101CB0006500290A002062797465733B20637263B2
:101CC000200053657474696E67732053746F726576
:101CD00064202800290A57726974652066696C655A
:101CE000206E616D653A20002062797465733B2037
:101CF0006372632000506F7765726F66662053745D
:101D00006F72656420280020213D200063726320EB
:101D10006572726F723A20000A72656164206669AA
:101D20006C65206E616D653A2000290A72656164F8
:101D30002066696C65206469723A200020627974BB
:101D400065733B206372632000706F7765726F6606
:101D5000662073746F7265642073657474696E674E
:101D60007320726574726965766564202800202886
:101D700063616C63756C6174656429210A002021BC
:101D80003D2000454550524F4D20435243206D6940
:101D9000736D61746368202D202873746F7265649D
:101DA000292000290A002062797465733B20637240
:101DB0006320002073746F726564207365747469A6
:101DC0006E67732072657472696576656420280099
:101DD000204D61726C696E3D56313231290A0028FE
:101DE000454550524F4D3D00454550524F4D207690
:101DF000657273696F6E206D69736D6174636820BD
:101E0000004573746570732F6D6D00457374657054
:101E1000732F6D6D005A73746570732F6D6D005A5A
:101E200073746570732F6D6D005973746570732FC3
:101E30006D6D005973746570732F6D6D00587374F8
:101E40006570732F6D6D005873746570732F6D6DB1
:101E5000004D6F74696F6E0053746570732F6D6DF4
:101E6000004A65726B00416363656C6572617469F9
:101E70006F6E0056656C6F6369747900436F6E74A2
:101E8000726F6C004F6E200052756E6F7574207308
:101E9000656E736F72730046696C2E204469612E03
:101EA0000046696C2E204469612E004F6666004F23
:101EB0006E20004520696E206D6D33004F66660010
:101EC000436F6E74726F6C0043616E6E6F74206549
:101ED0006E746572207375626469723A2000052E13
:101EE0002E004D61696E004D61782054656D703A29
:101EF00020313235004D696E2054656D703A2035C1
:101F000000544265643A4550434F53203130304BC2
:101F1000004D61782054656D703A20323635004DA1
:101F2000696E2054656D703A20350054303A204572
:101F300050434F53203130304B005053553A2047D7
:101F4000656E657269630050726F746F636F6C3A8F
:101F500020312E3000202020204857205665723A2C
:101F60002056004657205665723A2056312E3600CC
:101F7000426175643A203235303030300047543297
:101F80003536302056342E3000534420636172645D
:101F9000206F6B0A006F70656E526F6F7420666100
:101FA000696C65640A00766F6C756D652E696E6983
:101FB00074206661696C65640A00534420696E6927
:101FC00074206661696C0A006175746F25692E67FB
:101FD000004D3234004D323320257300577269743E
:101FE000696E6720746F2066696C653A20006F70B7
:101FF000656E206661696C65642C2046696C653A83
:1020000020006F70656E206661696C65642C2046E7
:10201000696C653A200046696C652073656C656380
:102020007465640A002053697A653A200046696C39
:1020300065206F70656E65643A20006F70656E2074
:102040006661696C65642C2046696C653A200020E5
:1020500066696C653A2000646F696E670066726538
:102060007368004E6F772000454E4420535542520E
:102070004F5554494E450A002220706F73002220AC
:10208000706172656E743A2200535542524F555436
:10209000494E452043414C4C207461726765743A47
:1020A00022004B494C4C45442E2000747279696ED5
:1020B0006720746F2063616C6C207375622D676399
:1020C0006F64652066696C65732077697468207435
:1020D0006F6F206D616E79206C6576656C732E2054
:1020E0004D4158206C6576656C2069733A004572E5
:1020F000726F723A0020746F6F206C6F6E6720658C
:102100007874727573696F6E2070726576656E741F
:1021100065640A0020636F6C64206578747275735F
:10212000696F6E2070726576656E7465640A002052
:10213000643A0020693A0020703A0020643A002096
:10214000693A0020703A0043290A0061626C6564B4
:1021500020286D696E2074656D702000436F6C647B
:102160002065787472756465732061726520004B18
:1021700064200023646566696E65202044454641FD
:10218000554C545F004B69200023646566696E6599
:10219000202044454641554C545F004B702000239D
:1021A000646566696E65202044454641554C545F20
:1021B00000504944204175746F74756E65206669DE
:1021C0006E69736865642120507574207468652099
:1021D0006C617374204B702C204B6920616E6420FD
:1021E0004B6420636F6E7374616E74732066726FDC
:1021F0006D2062656C6F7720696E746F20436F6E1F
:1022000066696775726174696F6E2E680A0050495D
:1022100044204175746F74756E65206661696C65E4
:1022200064212074696D656F75740A0054484552C5
:102230004D414C2052554E415741590054686572EA
:102240006D616C2052756E617761790048656174CB
:10225000696E67206661696C6564004865617469D0
:102260006E67206661696C65640050494420417561
:10227000746F74756E65206661696C6564212054A5
:10228000656D706572617475726520746F6F20681A
:102290006967680A00204B643A2000204B693A20A5
:1022A00000204B703A20000A20436C61737369630D
:1022B00020504944200A002054753A2000204B75D4
:1022C0003A2000206D61783A2000206D696E3A2036
:1022D0000020643A200020626961733A2000000007
:1022E0002100240027002A002D00300033000101C6
:1022F0000000040107010A01000022002500280057
:102300002B002E00310034000201000005010801FD
:102310000B01000020002300260029002C002F00C4
:102320003200000100000301060109010505050551
:10233000070508080808020202020A0A080804043D
:10234000040401010101010101010303030303036B
:102350000303040707070C0C0C0C0C0C0C0C0202FA
:10236000020206060606060606060B0B0B0B0B0BF7
:102370000B0B010210202008081020401020408084
:102380000201020108040201010204081020408039
:1023900080402010080402018004020180402010C7
:1023A0000804020108040201010204081020408010
:1023B000010204081020408000000A0B02090C0DE5
:1023C0000E080703040100000000000000000000E8
:1023D00000000000000000000000000000000000FD
:1023E00000000000121110000000000000000000BA
:1023F0000000000000000000000000000000506C21
:1024000065617365207265736574005052494E545E
:1024100045522048414C544544005072696E7465E1
:10242000722068616C7465642E206B696C6C28295D
:102430002063616C6C6564210A00000070C10000BB
:1024400000C1000000000000C8420000C8420000B7
:10245000A041000000005761726E696E673A204823
:102460006F6D696E672042756D702044697669737F
:102470006F72203C20310A000202040000A04000DC
:1024800000A0400000004000006B430000644300D7
:10249000008243FFFFFF4D36303020486F74656E79
:1024A0006420746F6F20636F6C6420746F206368A6
:1024B000616E67652066696C616D656E740A0043C4
:1024C0006172642072656D6F766564004361726449
:1024D00020696E736572746564005654726176206B
:1024E0006D696E005654726176206D696E005654A7
:1024F000726176206D696E00566D696E00566D6969
:102500006E00566D696E00566D6178204500566DFF
:102510006178204500566D6178204500566D6178E0
:10252000205A00566D6178205A00566D6178205A05
:1025300000566D6178205900566D6178205900561B
:102540006D6178205900566D6178205800566D6194
:1025500078205800566D61782058004D6F74696F6F
:102560006E00416D6178204500416D617820450025
:10257000416D6178205A00416D6178205A00416DAB
:102580006178205900416D6178205900416D617872
:10259000205800416D6178205800412D7472617699
:1025A000656C00412D74726176656C00412D726519
:1025B000747261637400412D72657472616374009A
:1025C000416363656C00416363656C004D6F7469C2
:1025D0006F6E0056652D6A65726B0056652D6A65D3
:1025E000726B0056652D6A65726B00567A2D6A65AE
:1025F000726B00567A2D6A65726B0056792D6A658A
:10260000726B0056792D6A65726B0056792D6A657A
:10261000726B0056782D6A65726B0056782D6A656C
:10262000726B0056782D6A65726B004D6F74696F1E
:102630006E0048617264636F64656420446566611E
:10264000756C742053657474696E6773204C6F6188
:102650006465640A00B80B0000B80B000064000059
:10266000001027000000009643000096430000A0E1
:10267000410000C8419A99A0429A99A0420000C81E
:10268000430080C54320440020490020204D3330C2
:102690003420500020440020490020204D333031A8
:1026A0002050005049442073657474696E67733A12
:1026B0000A0020460020420020480020204D3134EE
:1026C000352053004D6174657269616C20686561E5
:1026D00074757020706172616D65746572733A0A09
:1026E00000204500205A00205900205800204200B8
:1026F00020540020204D3230352053004164766153
:102700006E6365643A20533C6D696E5F666565640F
:10271000726174653E20543C6D696E5F74726176BF
:10272000656C5F66656564726174653E20423C6DF0
:10273000696E5F7365676D656E745F74696D655F03
:1027400075733E20583C6D61785F78795F6A657279
:102750006B3E205A3C6D61785F7A5F6A65726B3EB2
:1027600020453C6D61785F655F6A65726B3E0A006B
:1027700020540020520020204D323034205000419F
:102780006363656C65726174696F6E2028756E692C
:1027900074732F7332293A20503C7072696E745FE3
:1027A000616363656C3E20523C7265747261637450
:1027B0005F616363656C3E20543C74726176656C46
:1027C0005F616363656C3E0A00204500205A00206B
:1027D000590020204D3230312058004D6178696D0C
:1027E000756D20416363656C65726174696F6E20FD
:1027F00028756E6974732F7332293A0A00204500D8
:10280000205A0020590020204D3230332058004DEE
:102810006178696D756D2066656564726174657354
:102820002028756E6974732F73293A0A00204500B9
:10283000205A0020590020204D393220580053746E
:102840006570732070657220756E69743A0A002095
:10285000204D3230302044300A0020204D323030BC
:102860002044002044697361626C65640A00466913
:102870006C616D656E742073657474696E67733A0C
:102880000020204D3134392043203B20556E69749F
:102890007320696E2043656C736975730A0020208C
:1028A000473231202020203B20556E697473206907
:1028B0006E206D6D0A0070012C0190012701B0019E
:1028C0002201C0011D01F0011801100213013002A4
:1028D0000E016002090190020401C002FF00000322
:1028E000FA004003F5008003F000D003EB00200461
:1028F000E6007004E100E004DC004005D700C005FC
:10290000D2004006CD00D006C8008007C3003008C2
:10291000BE00F008B900C009B400B00AAF00B00BA7
:10292000AA00D00CA500000EA000500F9B00C01004
:1029300096005012910000148C00C0158700B0174B
:102940008200B0197D00D01B7800001E730040206B
:102950006E0090226900F024640040275F009029F7
:102960005A00E02B5500102E500020304B00103242
:102970004600E033410090353C0010373700703896
:102980003200A0392D00B03A2800A03B2300603C63
:102990001E00103D1900903D1400103E0F00703EC7
:1029A0000A00C03E0500003F0000403FFBFF803FA3
:1029B000F6FFC03FF1FF4572723A204D494E544533
:1029C0004D5020424544004572723A204D494E54C4
:1029D000454D50004D494E54454D50207472696725
:1029E0006765726564004572723A204D41585445DE
:1029F0004D5020424544004572723A204D41585492
:102A0000454D50004D415854454D502074726967F2
:102A1000676572656400202F002042403A00204024
:102A20003A00526573656E643A20006F6B00627500
:102A300073793A2070617573656420666F722069DE
:102A40006E7075740A00627573793A2070617573DF
:102A5000656420666F7220757365720A0062757313
:102A6000793A2070726F63657373696E670A004B01
:102A7000494C4C45442E20004B494C4C2063617519
:102A800073656420627920746F6F206D75636820B0
:102A9000696E6163746976652074696D65202D20A7
:102AA00063757272656E7420636F6D6D616E643AEA
:102AB00020005344207072696E74696E67206279D9
:102AC000746520004E6F74205344207072696E74D8
:102AD000696E670A00486F6D65202573257325733D
:102AE000206669727374002066697273740A005AF2
:102AF0000059005800486F6D6520004D6F766520C5
:102B000058004D6F76652059004D6F7665205A004C
:102B10004578747275646572004D6F766520302E4D
:102B2000316D6D004D6F766520316D6D004D6F76A6
:102B3000652031306D6D004D6F7665206178697369
:102B400000486F74656E6420746F6F20636F6C64EF
:102B5000004578747275646572004D6F7665205A11
:102B6000004D6F76652059004D6F76652058004501
:102B700078747275646572004D6F7665205A004DE9
:102B80006F76652059004D6F76652058005072654C
:102B900070617265006265640A002C207379737439
:102BA000656D2073746F7070656421204865617471
:102BB00065725F49443A200048656174696E672018
:102BC0006661696C65640048656174696E6720665A
:102BD00061696C65640048656174696E672066614F
:102BE000696C65640048656174696E672066616937
:102BF0006C656400E0F65AF811241FBECFEFD1E2F5
:102C0000DEBFCDBF00E00CBF13E0A0E0B2E0E0ED1E
:102C1000FFE002E00BBF02C007900D92A03CB1079D
:102C2000D9F727E1A0ECB3E001C01D92AE35B207A1
:102C3000E1F715E1CBEFD5E100E006C021970109EE
:102C4000802FFE010F944007CA3FD10780E008079C
:102C5000A9F70E94A2ED0D94D7070C9400002F92C3
:102C60003F924F925F926F927F928F929F92AF921C
:102C7000BF92CF92DF92EF92FF920F931F93CF9369
:102C8000DF93CDB7DEB7C657D1090FB6F894DEBFD4
:102C90000FBECDBF81E090E09093401580933F152B
:102CA00080910A168D3409F482C6843511F40C948F
:102CB000AE2C873411F00C94042D8091081690915D
:102CC00009168430910509F4B1C554F497FF02C088
:102CD0000C941E2D20919102823091057CF529C023
:102CE0008A35910509F415C66CF48B31910509F408
:102CF000E4C54C9711F00C941E2D80E00E94263BF9
:102D00000C941E2D8B35910509F407C68C35910561
:102D100011F00C941E2D0E9414EAF2E92F2EF2E01D
:102D20003F2EA5EDEA2EA6E1FA2E00E0D12C10E010
:102D30001EC621110C94252D0C941E2D222311F456
:102D40000C941E2D11E0029709F010E00E948035CE
:102D500082E50E947435882309F45CC10E94123513
:102D60006B017C014090D5165090D6166090D71616
:102D70007090D8162091D9163091DA164091DB1652
:102D80005091DC1623962CAF3DAF4EAF5FAF23972B
:102D900080912F1590913015A0913115B091321579
:102DA00027968CAF9DAFAEAFBFAF2797209133155D
:102DB00030913415409135155091361563962CAFEE
:102DC0003DAF4EAF5FAF639720E030E0A901C70190
:102DD000B6010F942200882309F40EC5A3019201C5
:102DE00027966CAD7DAD8EAD9FAD27970F942200D9
:102DF000811111C023962CAD3DAD4EAD5FAD239733
:102E000063966CAD7DAD8EAD9FAD63970F94220040
:102E1000882309F4F1C420E030E0A901C701B6011C
:102E20000F942200881F8827881F18130BC080E08A
:102E300090E0A0E8BFE36B968CAF9DAFAEAFBFAFA5
:102E40006B970AC020E030E040E85FEB6B962CAF58
:102E50003DAF4EAF5FAF6B97A301920127966CAD6C
:102E60007DAD8EAD9FAD27970F9438042F966CAF34
:102E70007DAF8EAF9FAF2F9723962CAD3DAD4EAD5E
:102E80005FAD239763966CAD7DAD8EAD9FAD6397BF
:102E90000F94380467966CAF7DAF8EAF9FAF679786
:102EA0002F962CAD3DAD4EAD5FAD2F97CA01B90148
:102EB0000F9487004B015C0167962CAD3DAD4EAD84
:102EC0005FAD6797CA01B9010F9487009B01AC0100
:102ED000C501B4010F9439040F94A4062B966CAF6E
:102EE0007DAF8EAF9FAF2B9720E030E040E05FE3F7
:102EF0000F9487004B015C01A7019601C701B60141
:102F00000F9487006B017C01A5019401C501B401F8
:102F10000F9487009B01AC01C701B6010F943804E0
:102F20000F94A4069B01AC016B966CAD7DAD8EAD8C
:102F30009FAD6B970F9487004B015C0127962CADDA
:102F40003DAD4EAD5FAD2797C301B2010F9439047B
:102F500020E030E040E05FE30F9487006B017C01EC
:102F600067966CAD7DAD8EAD9FAD679790582B96F3
:102F70002CAD3DAD4EAD5FAD2B970F9415059B016C
:102F8000AC01C501B4010F9487009B01AC01C701DE
:102F9000B6010F943904A30192010F9438046B0118
:102FA0007C0163962CAD3DAD4EAD5FAD639723962E
:102FB0006CAD7DAD8EAD9FAD23970F94390420E0AD
:102FC00030E040E05FE30F9487002B013C012B963B
:102FD0002CAD3DAD4EAD5FAD2B972F966CAD7DAD5D
:102FE0008EAD9FAD2F970F9415059B01AC01C501C8
:102FF000B4010F9487009B01AC01C301B2010F948F
:10300000390423962CAD3DAD4EAD5FAD23970F94A3
:10301000380414C089E40E947435882329F00E9482
:1030200012356B017C0103C0C12CD12C76018AE4DE
:103030000E9474358823F9F00E94123563966CAFB4
:103040007DAF8EAF9FAF639720E030E0A901C7014D
:10305000B6010F94220081111EC020E030E0A901CA
:1030600063966CAD7DAD8EAD9FAD63970F942200DE
:10307000811111C0C1C320E030E0A901C701B60130
:103080000F942200882309F4B7C363961CAE1DAECB
:103090001EAE1FAE6397D701C601B05823968CAF02
:1030A0009DAFAEAFBFAF239763962CAD3DAD4EAD98
:1030B0005FAD6397505827962CAF3DAF4EAF5FAFD3
:1030C00027979C01AD01BC01CD010F9487004B01F6
:1030D0005C0127962CAD3DAD4EAD5FAD2797CA0183
:1030E000B9010F9487009B01AC01C501B4010F9495
:1030F00039040F94A406AB966CAF7DAF8EAF9FAF33
:10310000AB978091D5169091D616A091D716B09115
:10311000D8162B968CAF9DAFAEAFBFAF2B97A70144
:103120009601BC01CD010F9439046B966CAF7DAF55
:103130008EAF9FAF6B972091D9163091DA164091E0
:10314000DB165091DC1667962CAF3DAF4EAF5FAFEC
:10315000679763962CAD3DAD4EAD5FAD63976796B7
:103160006CAD7DAD8EAD9FAD67970F9439046F96B2
:103170006CAF7DAF8EAF9FAF6F9780912F15909101
:103180003015A0913115B0913215A3968CAF9DAF3B
:10319000AEAFBFAFA3976B962CAD3DAD4EAD5FAD5F
:1031A0006B97BC01CD010F9438046B017C01209119
:1031B0003315309134154091351550913615A79639
:1031C0002CAF3DAF4EAF5FAFA7976F962CAD3DAD27
:1031D0004EAD5FAD6F97A7966CAD7DAD8EAD9FADDB
:1031E000A7970F9438044B015C018091DD169091F4
:1031F000DE16A091DF16B091E016E3968CAF9DAF7E
:10320000AEAFBFAFE3979C01AD01609137157091F0
:1032100038158091391590913A150F9438042F96EE
:103220006CAF7DAF8EAF9FAF2F9720913B15309144
:103230003C1540913D1550913E15AF962CAF3DAFDA
:103240004EAF5FAFAF978091E1169091E216A091DB
:10325000E316B091E416E7968CAF9DAFAEAFBFAF6B
:10326000E797A701960123966CAD7DAD8EAD9FAD1E
:1032700023970F9487002B013C01A5019401279609
:103280006CAD7DAD8EAD9FAD27970F9487009B01F0
:10329000AC01C301B2010F9439042B013C01A5011B
:1032A000940123966CAD7DAD8EAD9FAD23970F94A9
:1032B00087004B015C01A701960127966CAD7DAD9F
:1032C0008EAD9FAD27970F9487009B01AC01C50180
:1032D000B4010F943804A30192010F94AC046B0164
:1032E0007C0120E030E0A9010F94220087FF0AC092
:1032F0002BED3FE049EC50E4C701B6010F943904CF
:103300006B017C01112351F02BED3FE049EC50E4BF
:10331000C701B6010F9438046B017C0120E030E056
:10332000A901C701B6010F942200811128C0A396FC
:103330002CAD3DAD4EAD5FADA3972B966CAD7DAD85
:103340008EAD9FAD2B970F942200811118C0A796C8
:103350002CAD3DAD4EAD5FADA79767966CAD7DAD25
:103360008EAD9FAD67970F942200811108C01BEDB1
:10337000C12E1FE0D12E19ECE12E10E4F12EAB96F8
:103380002CAD3DAD4EAD5FADAB97C701B6010F940F
:1033900087009B01AC010F9487004B015C012F96C5
:1033A0002CAD3DAD4EAD5FAD2F97CA01B9010F9465
:1033B00087009B01AC01C501B4010F9439040F943F
:1033C000A4064B015C012FE632E143E85AE30F9477
:1033D000220087FD0DC2C501B4010F94AE050F9404
:1033E00082051B01672B19F422242394312CB1018F
:1033F00080E090E00F9426004B015C019B01AC0142
:10340000C701B6010F9415052B966CAF7DAF8EAF3B
:103410009FAF2B97A50194012F966CAD7DAD8EAD1E
:103420009FAD2F970F941505AB966CAF7DAF8EAF08
:103430009FAFAB97E7962CAD3DAD4EAD5FADE79737
:10344000AF966CAD7DAD8EAD9FADAF970F94380448
:10345000A50194010F941505AF966CAF7DAF8EAFAB
:103460009FAFAF972B962CAD3DAD4EAD5FAD2B977B
:10347000CA01B9010F94870020E030E040E05FE32B
:103480000F9487009B01AC0160E070E080E89FE34F
:103490000F943804A3966CAF7DAF8EAF9FAFA39708
:1034A000E3962CAD3DAD4EAD5FADE39729873A87EE
:1034B0004B875C87E7968CAD9DADAEADBFADE79712
:1034C0008D879E87AF87B88B6091330270913402ED
:1034D000072E000C880B990B0F94280020910002F6
:1034E0003091010240910202509103020F94870033
:1034F0002AE037ED43E25CE30F94870068A379A3E9
:103500008AA39BA30E9415B89B01AC0128533F4F8F
:103510004F4F5F4FA7962CAF3DAF4EAF5FAFA79712
:103520004FAC21965FAC219722966FAC22972396E1
:103530007FAC239741E050E065965FAF4EAF659753
:1035400059E12C965FAF2C976596AEADBFAD6597F0
:10355000A215B30509F43CC10E948DE80E9415B87C
:10356000DC01CB01A7962CAD3DAD4EAD5FADA7976D
:10357000821B930BA40BB50BB7FD11C00E9415B8AD
:103580009B01AC0128533F4F4F4F5F4FA7962CAF85
:103590003DAF4EAF5FAFA79780E00E947AD92C96DF
:1035A0003FAD2C9731502C963FAF2C97332309F425
:1035B0004BC0A3962CAD3DAD4EAD5FADA397279606
:1035C0006CAD7DAD8EAD9FAD27970F9487006B01DD
:1035D0007C012B962CAD3DAD4EAD5FAD2B97B2016E
:1035E000C3010F948700A70196010F9439046B0162
:1035F0007C01A3962CAD3DAD4EAD5FADA397B2015E
:10360000C3010F9487004B015C012B962CAD3DAD9F
:103610004EAD5FAD2B9727966CAD7DAD8EAD9FAD5A
:1036200027970F9487009B01AC01C501B4010F944B
:1036300038042B013C01C601D70127968CAF9DAF02
:10364000AEAFBFAF279761C065964EAD5FAD6597D2
:10365000BA0180E090E00F9426002B962CAD3DAD92
:103660004EAD5FAD2B970F9487004B015C010F941B
:1036700012056B017C01C501B4010F949A064B0140
:103680005C01A701960123966CAD7DAD8EAD9FAD1B
:1036900023970F9487002B013C01A50194016396A9
:1036A0006CAD7DAD8EAD9FAD63970F9487009B0190
:1036B000AC01C301B2010F9439042B013C01A501F7
:1036C000940123966CAD7DAD8EAD9FAD23970F9485
:1036D00087004B015C01A701960163966CAD7DAD3F
:1036E0008EAD9FAD63970F9487009B01AC01C50120
:1036F000B4010F94380427966CAF7DAF8EAF9FAFA7
:10370000279759E12C965FAF2C979201A3016B96F6
:103710006CAD7DAD8EAD9FAD6B970F943904698311
:103720007A838B839C8327962CAD3DAD4EAD5FADE8
:1037300027976F966CAD7DAD8EAD9FAD6F970F9453
:1037400039046D837E838F839887AB962CAD3DAD16
:103750004EAD5FADAB9769857A858B859C850F945F
:10376000390469877A878B879C87AF962CAD3DADEE
:103770004EAD5FADAF976D857E858F8598890F942F
:1037800039046D877E878F87988B8091900288237C
:1037900021F0CE0101960E947ABFE12C8E01005EDD
:1037A0001F4F9E01235F3F4FAE01475F5F4FBE013A
:1037B0006B5F7F4FCE0101960E94DDAB65968EADAB
:1037C0009FAD6597019665969FAF8EAF6597BCCE0E
:1037D000E12C8E01005E1F4F2BE335E147E355E1FD
:1037E00063E375E18FE295E10E94DDAB0E9439361B
:1037F0000E9443360C941E2DEEEEF0E284918F0170
:103800000F5F1F4F882321F00E944E36F801F6CF3C
:10381000E5E3F2E084918F010F5F1F4F882311F4DD
:103820000C941E2D0E944E36F801F4CF80E50E94C4
:103830007435882329F00E94D2346B017C0103C0C7
:10384000C12CD12C760183E50E947435882361F068
:103850000E94123520E030E04AE754E40F948700DC
:103860000F9482056B017C010E9414EA809135025D
:10387000811105C060E08BE492E00E9496BC0E943A
:1038800043368091941690919516A0919616B0911A
:103890009716C80ED91EEA1EFB1E0E9415B8DC0141
:1038A000CB018C199D09AE09BF09B7FD02C00C946C
:1038B0001E2D80E00E947AD9F0CF0E94AFDD8111E9
:1038C0000C941E2D80E090E0A0E4B0E489839A83FC
:1038D000AB83BC838D839E83AF83B88780E090E009
:1038E000A0E2B1E489879A87AB87BC8780E50E9414
:1038F0007435882319F00E94E23401C060E068A3A7
:10390000BE016F5F7F4FCE0180960E946AEC0C94DF
:103910001E2D1092C4030C941E2D81E08093C403CD
:103920000C941E2D0E9412352B013C01D7012D91C4
:103930003D914D915C910F9438044B015C012DEB4E
:1039400037E346E855EB0F945F0687FD18C02DEB73
:1039500037E346E855E3C501B4010F942200181679
:1039600074F01F5FF4E0EF0EF11C1430A1F0F101D0
:1039700081911F010E947435882399F3D3CF1330AE
:1039800019F0DD24D39401C001E0F7014082518297
:1039900062827382E6CFDD2019F00E945E3403C09C
:1039A00001110E944DDE0E94673A0C941E2D8091F9
:1039B0000816909109168637910511F40C94DC25B0
:1039C0000CF0DEC08D34910509F467C50CF053C0CE
:1039D0008931910509F408C31CF58431910509F476
:1039E00084C27CF48131910509F46BC22CF40297F6
:1039F00008F4D3C10C941E2D429709F4B4C70C945B
:103A00001E2D8631910509F4B9C20CF4B3C2873179
:103A1000910509F4B9C2489709F4CCC20C941E2D43
:103A20008F31910509F44FC47CF48B31910509F471
:103A3000EDC20CF4DDC28C31910509F4EBC24E9756
:103A400009F4F2C20C941E2D8A32910509F4E1C4E6
:103A50002CF4809709F4EDC30C941E2D8B34910542
:103A600009F417C58C34910511F00C941E2D0E9499
:103A70008BDE0C941E2D8B36910509F4E2C60CF0FA
:103A800052C08535910509F4A5C77CF582359105AD
:103A900009F460C704F58135910511F00C941E2DD1
:103AA0000E942CD90E9414EA0E94EADB1092BC16F4
:103AB0001092BB1668EE73E080E090E00E94F1BBCC
:103AC0000E9414EA0E94DB3360E080ED93E00E94E4
:103AD00096BC0C941E2D8335910509F43FC784359F
:103AE000910509F440C70C941E2D8836910509F400
:103AF000D8C47CF48C35910511F00C941E2D22E96C
:103B0000C22E22E0D22E35EEE32E36E1F32E10E067
:103B10007CC78936910509F4F1C58A36910509F407
:103B20006BC60C941E2D8037910509F499C584F459
:103B30008D36910509F426C60CF48EC58E36910596
:103B400009F406C58F36910509F415C50C941E2D90
:103B50008237910509F4D8C70CF486C583379105DF
:103B600009F4D7C78537910511F00C941E2D60E03C
:103B700080910616909107160E94B9BC0C941E2DD8
:103B8000823E910511F40C947F2B0CF076C0863A9E
:103B9000910511F40C94522884F58C38910509F4A0
:103BA0008FC59CF48837910511F40C947F2614F48A
:103BB0000C941B268937910511F40C9485268D37BA
:103BC000910509F450C60C941E2D8B39910509F40A
:103BD000B2C53CF48139910511F40C948A260C94F9
:103BE0001E2D833A910511F40C940027843A910517
:103BF00011F40C9477270C941E2D8C3C910511F434
:103C00000C94D9290CF5883C910511F40C945D298C
:103C100034F48E3B910509F4D3C50C941E2D893CD8
:103C2000910511F40C94A3298B3C910511F00C948F
:103C30001E2D44E8E42E45E1F42E02E912E054E0A2
:103C4000D52ED00E0C94CA29833D910511F40C9405
:103C5000AE2A3CF48D3C910511F40C94432A0C944B
:103C60001E2D8C3D910511F40C942B2B8D3D91054F
:103C700011F40C94382B0C941E2D893921E09207F5
:103C800011F40C94DA2B0CF046C08F3241E094070B
:103C900011F40C94D42BFCF48C32A1E09A0711F4AB
:103CA0000C94A82B4CF48232914011F00C941E2DF0
:103CB0000E947FB50C941E2D8D32F1E09F0711F408
:103CC0000C94D12B8E32914011F00C941E2D0E9439
:103CD0000DB40C941E2D833631E0930711F40C942F
:103CE000EF2B4CF48033914011F00C941E2D0E9468
:103CF00063B40C941E2D8039A1E09A0711F40C9442
:103D0000D72B8839914011F00C941E2D81E08093BF
:103D10009A120C941E2D873FE1E09E0711F40C943B
:103D2000E32BFCF4843F21E0920711F40C94DD2B8B
:103D30004CF48A39914011F00C941E2D0E944AAE29
:103D40000C941E2D853F51E0950711F40C94E02B47
:103D5000863F914011F00C941E2D0E944DD40C947E
:103D60001E2D803AB3E09B0709F4A0C24CF48835BD
:103D7000924011F00C941E2D0E9418AD0C941E2D33
:103D8000873E23E0920711F40C942F2C893D974035
:103D900011F40C94442C0C941E2DA0900616B09097
:103DA000071680E50E947435882359F00E94D234AA
:103DB0006B017C0111E0672B682B692B31F410E05B
:103DC00004C010E0C12CD12C760183E50E9474352B
:103DD0008823F1F00E94123520E030E04AE754E4F5
:103DE0000F9487000F9482056B017C01111112C0A2
:103DF000672B682B692B71F4A114B10459F0D5011C
:103E00008C91882339F061E0C5010E94B9BC0FC0D4
:103E1000112391F360E087E792E00E9496BC109234
:103E2000631510926415109265151092661583E063
:103E300090E09093401580933F1581E08093621548
:103E40000E9414EA0E944336C114D104E104F10433
:103E5000F1F08091941690919516A0919616B091DC
:103E60009716C80ED91EEA1EFB1E0E9415B8DC016B
:103E7000CB018C199D09AE09BF09B7FF1EC0809107
:103E800062158823D1F080E00E947AD9EECF80912C
:103E90006215882321F080E00E947AD9F8CF8091C2
:103EA000950F9091960F60E0029719F483E692E0E7
:103EB00002C084E592E00E9496BC109262150C94B8
:103EC0001E2D60E08AE892E00E9496BC4298179806
:103ED00015982E989FB7F89480910B018D7F809351
:103EE0000B019FBFA0980C941E2DE2EAF2E0849192
:103EF0008F010F5F1F4F882321F00E944E36F8017B
:103F0000F6CF109255121092541240E050E0BA01D0
:103F10008EED9FE00E949B5B8BE1EEEDFFE0DE010A
:103F2000159601900D928A95E1F78091DC0F9091A2
:103F3000DD0F9C838B838AE992E09A83898340E03A
:103F400050E0BE016F5F7F4F83E793E00E94B06C4B
:103F5000CE0101960E94BFC2E3E9F2E084918F0195
:103F60000F5F1F4F882311F40C941E2D0E944E36B4
:103F7000F801F4CF0E94709A0C941E2D1092A50F98
:103F80001092A60F0C941E2DE0910616F0910716C4
:103F90008081882329F0803209F410823196F8CF8D
:103FA00040E061E080910616909107160E943197DB
:103FB0000C941E2D19821A821B821C8218A219A22F
:103FC0001AA21BA280914115882341F040E0BE0156
:103FD0006F5F7F4FCE0180960E94B3C10E94AA728C
:103FE0000E94459C0C941E2D0E9453340C941E2D4F
:103FF0008091A60F882311F40C941E2D83E50E9456
:10400000743581110C94FC2D0C941E2D0E94A5DE9C
:104010000C941E2D40E060E08091061690910716EA
:104020000E9431970C941E2D8091A60F882311F4C5
:104030000C941E2D82EA91E10E94695B82EA91E173
:104040000E94CCBC1092A40F1092A30FE090061611
:10405000F09007168091A60F882311F40C941E2D62
:104060000E947070FE0131966F01CF010E9470595D
:104070008AED9FE09093FA0F8093F90FD7018C910E
:104080008F3209F060C06FE270E0C7010F949407AF
:104090008C010F5F1F4F09F45CC06FE270E0C80134
:1040A0000F9494075C01009709F454C0081719078E
:1040B00008F050C04C01801A910AA401B801CE0149
:1040C00080960F94BD07E0E2F0E0EC0FFD1FE80DD5
:1040D000F91D10828E01005E1F4FF80181918F0142
:1040E000882319F00E944E36F8CF8AE00E944E369F
:1040F0006091F90F7091FA0F6115710511F06C5F05
:104100007F4F21E0AE01405E5F4FCE0105960E94D9
:104110007E61811112C0BE01605E7F4F89ED92E029
:104120000E949F468EE20E944E368AE00E944E36E2
:10413000C6010E94BFC20C941E2DD092FA0FC092ED
:10414000F90F8501A6CF8BEF9FE09093FA0F809334
:10415000F90F87016091F90F7091FA0F61157105E0
:1041600011F06C5F7F4F18A21BA222E0A801CE01C4
:1041700080960E947E61811102C0F12C14C0CE0194
:1041800080960E941E6C8823C1F361E0CE01809668
:104190000E94D5BC009789F325EEDC012C931BA26D
:1041A0000E947A59F82ECE0180960E94EF35FF20AA
:1041B00019F1E3EBF2E084917F01BFEFEB1AFB0A08
:1041C000882321F00E944E36F701F5CFF801819146
:1041D0008F01882319F00E944E36F8CF8AE00E94A2
:1041E0004E361092D60F1092D70F1092D80F109211
:1041F000D90F0E94366F18C0E1ECF2E084917F0184
:104200002FEFE21AF20A882321F00E944E36F701BE
:10421000F5CFD8018D918D01882319F00E944E367B
:10422000F8CF8EE20E944E36C6010E94BFC20C94A7
:104230001E2D8091A50F81110E9414EA8091A60F76
:10424000882311F40C941E2D80E50E947435882378
:1042500019F00E94033503C080E50E944535182FF0
:10426000482F61E080910616909107160E943197C1
:1042700083E50E947435882381F00E94E234AB010B
:10428000BC014093D60F5093D70F6093D80F709313
:10429000D90F82EA91E10E949B5B0E94AA721111E0
:1042A0000C941E2D0E94459C0C941E2D8091061688
:1042B0009091071621E02093A40F40E060E00E9457
:1042C00031970C941E2D0E947472ECE3CE2ED12CEB
:1042D000E12CF12CA70196010F94FD03762E672E99
:1042E000CA01B901A70196010F94FD036B017C017E
:1042F000CA01B90128E130E040E050E00F94FD032D
:104300004B015C01C9016DE671E00F94FD068E0161
:104310000F5F1F4F6115710599F06F927F92DF92C9
:10432000CF929F928F929F938F937F936F9385E10C
:1043300093E09F938F931F930F930E94BBFF12C034
:104340000097B1F06F927F92DF92CF929F928F92FF
:104350009F938F9385E093E09F938F931F930F9389
:104360000E94BBFF0FB6F894DEBF0FBECDBF36C0B4
:1043700081149104A104B10479F06F927F92DF92CD
:10438000CF929F928F9289EF92E09F938F931F938A
:104390000F930E94BBFFE6CFC114D104E104F104E6
:1043A00069F06F927F92DF92CF9281EF92E09F93BC
:1043B0008F931F930F930E94BBFFD4CF6F927F9276
:1043C0008DEE92E09F938F931F930F930E94BBFFFC
:1043D0000F900F900F900F900F900F9060E0C8011A
:1043E0000E94B9BCE3E8F8E184917F019FEFE91AEC
:1043F000F90A882321F00E944E36F701F5CFB80163
:1044000089E293E00E949F468AE00E944E360C9417
:104410001E2D83E50E947435882311F40C941E2D03
:104420000E94F234E82E80E50E947435882341F022
:104430000E94E2348B0177FF02C00C941E2D02C053
:1044400006E010E0902FE9EDF6E08EE28E0F249169
:10445000921729F031968E13FACF0C940C2EEEEEB3
:10446000F0E284918F010F5F1F4F882321F00E949B
:104470004E36F801F6CFE6E3F3E084918F010F5F4B
:104480001F4F882311F40C941E2D0E944E36F80104
:10449000F4CF0E94459C0C941E2D0E947B700C94BE
:1044A0001E2D88E690E00E94633981110C941E2D28
:1044B0008091FB0E83FF02C00C941E2D83E50E94A9
:1044C0007435882309F440C00E9412350F947D058D
:1044D0007093BA166093B91680E00E94E1D80E94EA
:1044E000123520E030E04AEA52E40F942200181618
:1044F0003CF00E947B7060E08CE493E00E9496BCEC
:104500000E941235209120153091211540912215DD
:10451000509123150F945F061816B4F483E193E0CD
:104520009F938F938091D31590E001969F938F93E3
:1045300085E493E09F938F931F920E942C9C0FB66B
:10454000F894DEBF0FBECDBF0E94C3F70C941E2DA2
:104550008EE40E947435882311F40C941E2D0E9461
:10456000E2346093A9127093AA128093AB129093D5
:10457000AC120C941E2D83E50E944535882359F01A
:1045800083E50E947435882319F00E94F23401C03B
:1045900080E08093FB0EE3E8F8E184918F010F5FE8
:1045A0001F4F882321F00E944E36F801F6CFEEE629
:1045B000F3E084918F010F5F1F4F882321F00E9449
:1045C0004E36F801F6CF8091FB0E8823A1F160E60C
:1045D000C62E63E0D62EE12CF12C20E08091FB0E5C
:1045E00090E00E2C02C0959587950A94E2F780FF23
:1045F00017C0BB24B394B20E222319F08CE20E94A0
:104600004E36F60125913491F901849189010F5FAD
:104610001F4F882321F00E944E369801F5CF2B2D95
:10462000FFEFEF1AFF0A32E0C30ED11C45E0E4169B
:10463000F104A1F60CC0EAE6F3E084918F010F5F6C
:104640001F4F882321F00E944E36F801F6CF8AE0F2
:104650000E944E360C941E2D10922C020C941E2D8E
:1046600085E793E00E94C7C283E50E9474358823E2
:1046700069F00E94F2348D3320F4809388020C9408
:104680001E2D8CE3809388020C941E2DE3E8F8E144
:1046900084918F010F5F1F4F882321F00E944E36B7
:1046A000F801F6CF4091880250E060E070E08EE7BC
:1046B00093E00E942F468AE00E944E360C941E2DF5
:1046C0008091FB0E83FF02C00C941E2D83E50E9497
:1046D0007435882311F40C941E2D0E9412350F940A
:1046E0007D056E37710514F06DE770E07093B816B4
:1046F0006093B7160E9496D80C941E2D89E690E020
:104700000E946339811111C0E5E8F3E084918F01C3
:104710000F5F1F4F882321F00E944E36F801F6CF1D
:104720000E945FD68AE00E944E3610924015109289
:104730003F150C94553183E50E947435882311F49C
:104740000C941E2D0E94F234182F8D3308F01CE3B8
:10475000109391160E9415B86B017C01212F30E057
:10476000A8EEB3E00F942904C60ED71EE81EF91E6A
:10477000C0928D16D0928E16E0928F16F0929016FF
:104780000C941E2D8DE690E00E94633981110C94EB
:104790001E2D8091FB0E83FF02C00C941E2D83E51D
:1047A0000E94743560968FAF609781110C94222E11
:1047B00082E50E94743581110C94222E0C941E2DDA
:1047C0008091FB0E83FF02C00C941E2D60E083ECF1
:1047D00093E00E9496BC83E50E94743560968FAF8B
:1047E000609781110C94AE2F82E50E94743581117F
:1047F0000C94AE2F0C941E2D80E50E94743581110F
:1048000008C083E50E947435811109C03FEF20E0A4
:104810000AC00E94F23481110C941E2DF2CF0E9426
:10482000E234362F272F832F922F8F3F910519F0D7
:1048300010F08FEF90E09093BC168093BB160C9411
:104840001E2D80E50E947435811106C01092BC16A1
:104850001092BB160C941E2D0E94E234672B11F0AF
:104860000C941E2DF3CF8CE40E944535882319F05B
:104870000E94123504C060E070E080E090EC6BAF05
:104880007CAF8DAF9EAF80E090E0A0E4B0E4898380
:104890009A83AB83BC838D839E83AF83B88780E08C
:1048A00090E0A0E2B1E489879A87AB87BC8788E56E
:1048B0000E947435882379F088E50E947435882336
:1048C00019F00E94123503C060E070E0CB016983EB
:1048D0007A838B839C8389E50E947435882379F0E1
:1048E00089E50E947435882319F00E94123503C0AF
:1048F00060E070E0CB016D837E838F8398878AE5CB
:104900000E947435882379F08AE50E9474358823E3
:1049100019F00E94123503C060E070E0CB01698796
:104920007A878B879C8718A219A21AA21BA2809152
:10493000411581110C941E2D00E020E0AE01405E77
:104940005F4FBE016F5F7F4FCE01CB960E94D7C0F5
:104950000C941E2D1092C3030C941E2D81E08093A5
:10496000C3030C941E2D83E50E9474358823A1F0A7
:104970000E94123520E030E04AE754E40F948700AB
:104980000F9482056093890270938A0280938B0250
:1049900090938C020C941E2D88E50E944535811160
:1049A0000C940D3189E50E94453581110C940D312F
:1049B0008AE50E94453581110C940D3185E40E94F1
:1049C000453581110C940D310E9414EA0E94EADBF6
:1049D0000C941E2D83E50E944535882311F40C9418
:1049E0001E2D0E94123520E030E04AE754E40F9477
:1049F00087000F94820560939816709399168093A0
:104A00009A1690939B160C941E2DD6018D916D01D4
:104A10000E944535882309F46DC0133009F063C046
:104A20000E9412354B015C0120E030E040EA51E485
:104A30000F94220087FF4EC0A50194016091F116EA
:104A40007091F2168091F3169091F4160F9415055B
:104A50002B013C019B01AC016091BC157091BD150F
:104A60008091BE159091BF150F9487006093BC157F
:104A70007093BD158093BE159093BF15A30192014D
:104A80006091901570919115809192159091931568
:104A90000F948700609390157093911580939215F1
:104AA00090939315609101157091021580910315F3
:104AB000909104150F942600A30192010F94870092
:104AC0000F9482056093011570930215809303156E
:104AD000909304158092F1169092F216A092F3161C
:104AE000B092F41607C00E941235F70160837183FB
:104AF000828393831F5FF4E0EF0EF11C143009F002
:104B000084CF0E94B3AB9AC70E9414EA0E94673A0E
:104B100095C7E9E9F4E084918F010F5F1F4F882367
:104B200021F00E944E36F801F6CF60E089E894E06B
:104B30000E94B73961E082E894E00E94B73961E0F1
:104B400087E794E00E94B73961E087E694E00E942D
:104B5000B73960E08EE594E00E94B73961E084E502
:104B600094E00E94B73960E08AE494E00E94B7398B
:104B700060E082E494E00E94B73960E084E394E06E
:104B80000E94B73960E086E294E00E94B73960E0A5
:104B900087E194E00E94B73961E089E094E00E94E7
:104BA000B73961E083EF93E00E94B73960E082EEAD
:104BB00093E00E94B73942C785E40E947435882388
:104BC00019F00E94033503C085E40E94453588230F
:104BD00061F0E3E8F8E184918F010F5F1F4F8823B4
:104BE00021F00E944E36F801F6CF81E40E94743520
:104BF000882319F00E94033503C081E40E944535E3
:104C0000882361F0E1E6F5E084918F010F5F1F4F8B
:104C1000882321F00E944E36F801F6CF0091061647
:104C200010910716D8018D918D01882309F40FCDBD
:104C30000E944E36F7CFEDE7F5E084918F010F5FCC
:104C40001F4F882321F00E944E36F801F6CFE5E78A
:104C5000F5E084918F010F5F1F4F882321F00E94A0
:104C60004E36F801F6CF029B03C004E013E002C009
:104C700009E013E0F80181918F01882319F00E9467
:104C80004E36F8CF8AE00E944E36EDE6F5E084918C
:104C90008F010F5F1F4F882321F00E944E36F801CD
:104CA000F6CF069B03C004E013E002C009E013E066
:104CB000D8018D918D01882319F00E944E36F8CFCE
:104CC0008AE00E944E36E5E6F5E084918F010F5FA1
:104CD0001F4F882321F00E944E36F801F6CF379BF4
:104CE00003C004E013E002C009E013E0F801819181
:104CF0008F01882309F4ABCC0E944E36F7CF81E0B8
:104D00008093760F8093750F99C61092760F10924C
:104D1000750F94C683E50E947435882319F00E94AC
:104D2000E23402C060E070E08B011127023011050F
:104D3000CCF0EEEEF0E284918F010F5F1F4F8823DD
:104D400021F00E944E36F801F6CFE7E9F5E08491B4
:104D50008F010F5F1F4F882309F470C60E944E36E3
:104D6000F801F5CF88E40E9474358823A1F00E94F1
:104D7000E2346A3A710534F06B3F71052CF06AEF4A
:104D800070E002C06AEA70E0F801EE0FFF1FEB5717
:104D9000FD4E7183608386E40E9474358823A9F0F8
:104DA0000E94E234F801EE0FFF1FE757FD4E7183BA
:104DB00060836F3F710519F014F06FEF70E077FFBB
:104DC00002C060E070E07183608382E40E94743509
:104DD000882309F433C60E94E2346530710534F04B
:104DE0006F3671052CF06EE670E002C065E070E091
:104DF000000F111FF801EF57FD4E718360831EC62F
:104E000083E50E947435882341F00E94E2348B01CF
:104E1000633071050CF012C602C000E010E080E5BE
:104E20000E947435882341F10E9412356B017C0188
:104E300020E030E0A9010F94220087FD1DC02DEB7A
:104E400037E346E855EBC701B6010F945F0687FDCF
:104E50000AC02DEB37E346E855E3C701B6010F94CE
:104E6000220018167CF4A701960160E070E080E84B
:104E70009FE30F94150509C0C12CD12C7601C70101
:104E8000B60103C060E070E0CB01F801EE0FFF1F38
:104E9000EE0FFF1FE55DFA4F60837183828393837A
:104EA0000115110581F420E030E048EC52E4C7011F
:104EB000B6010F9487000F94820570E07093E4149C
:104EC0006093E314BBC50130110509F0B7C520E0BC
:104ED00030E048EC52E4C701B6010F9487000F940C
:104EE000820570E07093E6146093E514A7C583E52E
:104EF0000E947435882341F00E94E2348B016031B6
:104F000071050CF09BC502C000E010E0EBE2AE2E94
:104F1000E5E0BE2EC12CD12C7601D5014D905D90DF
:104F20006D907D905D012DEB37E346E855EBC301B5
:104F3000B2010F945F0687FD0AC02DEB37E346E808
:104F400055E3C301B2010F94220018165CF4A301CB
:104F5000920160E070E080E89FE30F9415059B01EB
:104F6000AC0103C020E030E0A901C701B6010F94F5
:104F700039046B017C01B7E3AB16B5E0BB0669F6FB
:104F800020E030E040E85FE30F9438044B015C011F
:104F90002DEB37E346E855EB0F945F0687FF03C020
:104FA000E9EBF5E037C02DEB37E346E855E3C50103
:104FB000B4010F94220018169CF38CE0809FF0013E
:104FC000819FF00D1124E15CFB4F80912B059091A6
:104FD0002C05A0912D05B0912E0580839183A2838D
:104FE000B38380912F0590913005A0913105B09148
:104FF000320584839583A683B7838091330590918E
:105000003405A0913505B091360580879187A28738
:10501000B38714C584915F012FEFA21AB20A8823C7
:1050200021F00E944E36F501F5CFA701960160915F
:105030002B0570912C0580912D0590912E050F94D4
:10504000870060932B0570932C0580932D0590931A
:105050002E05A701960160912F0570913005809172
:105060003105909132050F94870060932F0570935E
:1050700030058093310590933205A7019601609128
:1050800033057091340580913505909136050F9464
:1050900087006093330570933405809335059093B2
:1050A00036058BCF83E50E944535882321F00E9489
:1050B0000335182F02C01091260281E40E94743536
:1050C000882351F00E94123560931C0270931D02D8
:1050D00080931E0290931F028AE50E9474358823F4
:1050E00051F00E9412356093200270932102809348
:1050F00022029093230280E50E947435882389F070
:105100000E94E23477FD08C00E94E23465367105E2
:105110002CF40E94E23403C060E001C064E66093B6
:10512000240281E50E947435882389F00E94E234CC
:1051300077FD08C00E94E234653671052CF40E94A8
:10514000E23403C060E001C064E660932502F090A1
:10515000240200912502F016A1F020912002309146
:105160002102409122025091230260911C02709111
:105170001D0280911E0290911F020F942200811146
:1051800001C010E081E0809326028EE690E09093CB
:10519000E4148093E314F092E7140093E8148091F0
:1051A0001C0290911D02A0911E02B0911F028093DB
:1051B000E9149093EA14A093EB14B093EC1480914B
:1051C000200290912102A0912202B09123028093AB
:1051D000ED149093EE14A093EF14B093F014E1E16A
:1051E000F6E084917F013FEFE31AF30A882321F070
:1051F0000E944E36F701F5CF10932602112309F4D1
:105200004FC040911C0250911D0260911E0270918E
:105210001F0283E096E00E94694660912402062EF8
:10522000000C770B80E096E00E9486468091240275
:1052300004E610E0B801681B710987FD73958DEFD6
:1052400095E00E9486464091200250912102609193
:1052500022027091230285EF95E00E9469466091D9
:105260002502062E000C770B82EF95E00E94864601
:1052700080912502B801681B710987FD73958FEE37
:1052800095E00E948646ECEEF5E084918F010F5F79
:105290001F4F882309F4DBC90E944E36F801F5CF71
:1052A000EDE0F6E084918F010F5F1F4F882309F432
:1052B000CEC90E944E36F801F5CF88EC90E00E94EE
:1052C00063398111BBC384E40E9445358823C1F151
:1052D0000E94123511E020E030E0A9010F94220075
:1052E000811101C010E010939F12112349F10E9417
:1052F0001235E091D31544E0E49FF0011124E55606
:10530000FD4E608371838283938320E030E0A901A6
:1053100060919B1270919C1280919D1290919E12AF
:105320000F94220081110CC080E090E0A0EEBFE35A
:1053300080939B1290939C12A0939D12B0939E1207
:105340000E94859C7BC364E9E62E65E1F62E02E9A6
:1053500012E074E0D72ED00ED8018D918D010E94FD
:105360004535882349F00E9412350F948205F701D4
:105370006083718382839383F4E0EF0EF11CD0127B
:10538000EBCF0E9486AA5AC3F4E0EF0EF11CD016B0
:1053900009F454C3D8018D918D010E9445358823AD
:1053A00099F30E941235F70160837183828393839E
:1053B000EBCF83E50E9445358823D9F00E94123552
:1053C000AB01BC014093AC155093AD156093AE1585
:1053D0007093AF154093A4155093A5156093A6152F
:1053E0007093A71589E796E00E9469468AE00E94BB
:1053F0004E3680E50E944535882399F00E9412358B
:10540000AB01BC014093AC155093AD156093AE1544
:105410007093AF158CE596E00E9469468AE00E9481
:105420004E3682E50E944535882399F00E94123558
:10543000AB01BC014093A8155093A9156093AA1520
:105440007093AB158DE396E00E9469468AE00E9456
:105450004E3684E50E944535882309F4EFC20E9448
:105460001235AB01BC014093A4155093A515609370
:10547000A6157093A7158FE196E00E9469468AE011
:105480000E944E36DBC283E50E944535882351F0E9
:105490000E94123560938015709381158093821558
:1054A0009093831584E50E944535882351F00E942E
:1054B000123560937C1570937D1580937E159093C3
:1054C0007F1582E40E944535882351F00E94D23432
:1054D0006093F1147093F2148093F3149093F41486
:1054E00088E50E944535882351F00E94123560936B
:1054F000B0157093B1158093B2159093B31589E5EB
:105500000E944535882351F00E9412356093B415EE
:105510007093B5158093B6159093B7158AE50E94E0
:105520004535882351F00E9412356093B815709369
:10553000B9158093BA159093BB1585E40E94453543
:10554000882309F47BC20E9412356093BC157093C6
:10555000BD158093BE159093BF1570C2E3E8F8E1C6
:1055600084918F010F5F1F4F882321F00E944E36D8
:10557000F801F6CF83E50E944535882321F00E948B
:10558000033580939002E9ECF6E084918F010F5F80
:105590001F4F882321F00E944E36F801F6CF8091EC
:1055A0009002811103C0E5ECF6E002C0E1ECF6E008
:1055B00084918F010F5F1F4F882321F00E944E3688
:1055C000F801F6CFE9EBF6E084918F010F5F1F4FF2
:1055D000882321F00E944E36F801F6CF40E050E0DB
:1055E000BA0187EB96E00E94694640E050E0BA01BC
:1055F00084EB96E00E94694640E050E0BA0181EBFE
:1056000096E00E946946E9EAF6E084918F010F5F17
:105610001F4F882321F00E944E36F801F6CF40E05C
:1056200050E06CE573E487EA96E00E94694640E04A
:1056300050E06CE573E484EA96E00E94694640E03D
:1056400050E062E873E481EA96E00E9469468AE0ED
:105650000E944E36F3C183E50E947435882309F415
:10566000EDC10E94E2347093340260933302E6C1CC
:105670008DED90E00E9463398111E0C183E50E94C5
:105680007435882309F4DAC10091D31510E00E9423
:10569000E234000F111FF801EF5CFD4F718360834E
:1056A0008091D31590E08C01000F111F000F111F86
:1056B0009801235D3D4F7901880F991FFC01EF5C34
:1056C000FD4F60817181072E000C880B990B0F94A0
:1056D00028002AE037ED43E25CE30F948700F801ED
:1056E000E450F14F20813181428153810F94870032
:1056F000D7016D937D938D939C9313979FC180E504
:105700000E944535882309F499C10E94E2346B0157
:105710007C0183E50E947435882321F00E94E234E5
:105720008B0102C00FEF1FEFC8010196039708F02D
:1057300085C1D7FC83C19C2DE9EDF6E08EE28E0F8A
:105740002491921709F47AC131968E13F9CF84C54A
:1057500083E50E947435882319F00E94E23402C068
:1057600064E071E079A368A380E50E947435882322
:1057700039F00E94E2346938B3E17B0730F402C0AB
:1057800068EE73E07A83698304C088E893E19A83C2
:105790008983BE01605E7F4FCE0101960E94F89B17
:1057A0004DC10E94E2B44AC10E94A9AE47C10E9405
:1057B00014EA44C110929A1241C10E94C7833EC1AB
:1057C0000E9490883BC183E50E944535882321F0E3
:1057D0000E94033591E089270E94C1D02FC180E546
:1057E0000E947435882331F00E94F2348093FF04C4
:1057F00011E001C010E083E50E947435882329F090
:105800000E9403358093000501C011110E9407AD6D
:10581000E3E8F8E184918F010F5F1F4F882321F0A7
:105820000E944E36F801F6CF8091000581110CC020
:105830000EE113E0F80181918F01882311F40C949B
:1058400027230E944E36F6CF6091FF0470E087E078
:1058500097E00E9486468AE00E944E36EFC081E0C3
:10586000809391021092A61283E50E9474358823DA
:1058700019F00E94033503C083E50E94453581116C
:10588000DDC00E9412DCDAC086E50E94453588231F
:1058900051F00E94123560930402709305028093C8
:1058A0000602909307021CAE1BAE82E793E099A319
:1058B00088A39E01255C3F4F44E050E064E072E025
:1058C000CE0180960E946C588BAD9CAD9A838983E3
:1058D000E8A0F9A080E793E099A388A39E01255C46
:1058E0003F4F42E050E0BE016F5F7F4FCE01809698
:1058F0000E946C58E3E8F8E184918F010F5F1F4F1D
:10590000882321F00E944E36F801F6CFB701605788
:10591000734083E397E00E94864649815A8160E0A4
:1059200070E087E197E00E942F46E4E1F7E0849180
:105930008F010F5F1F4F882321F00E944E36F80120
:10594000F6CFE5E4F7E084918F010F5F1F4F8823C6
:1059500009F474C00E944E36F801F5CFE0910816A4
:10596000FE2EFFE0FE1758F12CE0E29FF00111241B
:10597000E15CFB4F80819181A281B38180932B05F3
:1059800090932C05A0932D05B0932E0584819581CD
:10599000A681B78180932F0590933005A0933105A0
:1059A000B093320580859185A285B38580933305B8
:1059B00090933405A0933505B09336053FC0E3E8D6
:1059C000F8E184918F010F5F1F4F882321F00E941F
:1059D0004E36F801F6CF84E50E944E366F2D70E00A
:1059E00080E090E04AE00E94FD3880E20E944E365E
:1059F0000EE213E0D8018D918D01882311F40C94EF
:105A000027230E944E36F6CFE3E8F8E184918F0118
:105A10000F5F1F4F882321F00E944E36F801F6CF0A
:105A2000609192167091931680E597E00E949F46D0
:105A300082E20E944E368AE00E944E361092401555
:105A400010923F150E94F3DB30C40E9480352091F4
:105A5000E1163091E2164091E3165091E416609100
:105A60003B1570913C1580913D1590913E150F941A
:105A700038042AE037ED43E25CE30F945F06181622
:105A80006CF48091B9169091BA16803A910534F46D
:105A90000AD760E087E292E00E9496BC8091900273
:105AA000882321F08FE295E10E947ABF0E9443365D
:105AB0008091FB0E83FD82C0C0903B15D0903C15B9
:105AC000E0903D15F0903E152091E1163091E216E0
:105AD0004091E3165091E416C701B6010F942200DD
