:100000000C9496190C94C7190C94C7190C94C71921
:100010000C94C7190C94C7190C94C7190C94C719E0
:100020000C94C7190C94C7190C94C7190C94C719D0
:100030000C94C7190C94C7190C94C7190C94C719C0
:100040000C94C7190C9405610C94C7190C94C7192A
:100050000C94C7190C94C7190C944FD00C9474438A
:100060000C94C7190C947D400C94C7190C94C719B3
:100070000C94C7190C94C7190C94C7190C94C71980
:100080000C94C7190C94C7190C94C7190C94C71970
:100090000C94C7190C94C7190C94C7190C94C71960
:1000A0000C94C7190C94C7190C94C7190C94C71950
:1000B0000C94C7190C94C7190C94C7190C94C71940
:1000C0000C94C7190C94C7190C94C7190C94C71930
:1000D0000C94C7190C94C7190C94C7190C94C71920
:1000E0000C94C719EC40EF40DE40E240E840264166
:1000F000F340F740FD40014105410B410F411341E1
:10010000264119411D412141904295429A42A44203
:10011000AE422743B842C042C842D242DC42E64225
:10012000F542FF422743094313431D4313731C73D6
:1001300026732F73387353736073697341734A73F3
:10014000084AD73B3BCE016E84BCBFFDC12F3D6C3E
:1001500074319ABD56833DDA3D00C77F11BED9E4A4
:10016000BB4C3E916BAAAABE000000803F05A84C84
:10017000CDB2D44EB93836A9020C50B99186880850
:100180003CA6AAAA2ABE000000803F000D94C0032E
:100190000D94FC024E414E494E495459494E46CDAC
:1001A000CCCC3D0AD7233C17B7D13877CC2B32952E
:1001B00095E6241FB14F0A000020410000C842000C
:1001C000401C4620BCBE4CCA1B0E5AAEC59D744393
:1001D0004F4D4D554E49434154494F4E004452599D
:1001E00052554E004552524F525300494E464F0011
:1001F0004543484F0020746F6F206C6F6E67206519
:100200007874727573696F6E2070726576656E743E
:1002100065640A0020636F6C64206578747275737E
:10022000696F6E2070726576656E7465640A00543D
:10023000454D5020544F4F204C4F57210047322FEF
:1002400047332062616420706172616D657465720C
:10025000730A00536C6565702E2E2E0052657375FF
:100260006D696E67207072696E740041323054207F
:100270005072696E7465722072656164792E0043F4
:100280006C69636B20746F20726573756D652E2EBB
:100290002E004E6F206D6F76652E00456E642066D1
:1002A000696C65206C6973740A00426567696E2029
:1002B00066696C65206C6973740A0046696C652018
:1002C00064656C657465643A0044656C6574696F57
:1002D0006E206661696C65642C2046696C653A2005
:1002E000006F70656E206661696C65642C204669DC
:1002F0006C653A20002569730025696D20256973B6
:10030000002569682025696D2025697300256964C9
:10031000202569682025696D202569730025697984
:1003200020256964202569682025696D2025697369
:10033000005072696E742074696D653A2000000186
:1003400025272318FF1F211D1CFF19171B1EFFFF48
:100350000C0409FFFFFF2E2C0CFFFF312F302B2D3B
:100360002904400AFF41FFFFFFFFFFFF50726F7437
:1003700065637465642050696E0A0045256920250F
:10038000730041323054205072696E74657220726D
:10039000656164792E00F001EB01E401DD01CF011C
:1003A0006F66660044454255473A004B494C4C4500
:1003B000442E20004D3131332053006F6B004865CF
:1003C0006174696E6720646F6E652E0020573A0075
:1003D0004525692025730041323054205072696EE2
:1003E0007465722072656164792E004265642064D0
:1003F0006F6E652E0020573A0042656420486561A3
:1004000074696E672E0041323054205072696E74E8
:100410006572204F66662E00454D455247454E4356
:10042000595F50415253455200434153455F4C4937
:100430004748545F4252494748544E45535300542D
:100440004F47474C455F4C494748545300534F462C
:1004500054574152455F504F574552004255494C01
:10046000445F50455243454E54004C4556454C4917
:100470004E475F44415441005A5F50524F4245003D
:100480004155544F4C4556454C005052494E545FCF
:100490004A4F420050524F47524553530041555422
:1004A0004F5245504F52545F54454D5000564F4C9B
:1004B000554D455452494300454550524F4D005308
:1004C000455249414C5F584F4E5F584F4646004693
:1004D00049524D574152455F4E414D453A4D61722B
:1004E0006C696E20312E312E38202847697468756A
:1004F000622920534F555243455F434F44455F5552
:10050000524C3A68747470733A2F2F676974687527
:10051000622E636F6D2F4D61726C696E4669726DEC
:10052000776172652F4D61726C696E2050524F5425
:100530004F434F4C5F56455253494F4E3A312E3040
:10054000204D414348494E455F545950453A413248
:100550003054205072696E7465722045585452555B
:100560004445525F434F554E543A31205555494406
:100570003A63656465326132662D343161322D34FF
:100580003734382D396231322D6335356336326672
:1005900033363766660A002F2F20007A5F6D696E4A
:1005A0003A2000795F6D696E3A2000785F6D696E60
:1005B0003A20005265706F7274696E6720656E64D0
:1005C00073746F70207374617475730A004D3134E5
:1005D0003520533C696E6465783E206F7574206FDA
:1005E000662072616E67652028302D31290A005718
:1005F00061726E696E673A204D6978206661637436
:100600006F7273206D75737420616464207570203F
:10061000746F20312E302E205363616C696E672E0B
:100620000A00252900257C00202800252920746F38
:10063000205A00257C002028004F4E2066726F6DE6
:10064000205A004F4646004772616469656E742007
:100650004D6978200053657474696E672054726127
:1006600076656C20416363656C65726174696F6E59
:100670003A200053657474696E6720526574726124
:10068000637420416363656C65726174696F6E3A6F
:10069000200053657474696E67205072696E74200F
:1006A000416363656C65726174696F6E3A200053D3
:1006B000657474696E67205072696E7420616E642F
:1006C0002054726176656C20416363656C6572616C
:1006D00074696F6E3A200043617365206C696768C6
:1006E000743A2000290A00466978656420706172B6
:1006F000616D657465722062797465733B20637205
:10070000632000466978656420706172616D65746C
:10071000657220280048565F7365745F6F6B0A002E
:10072000556E6B6E6F776E20636F6D6D616E643AA0
:100730002022004C696E65204E756D6265722069DD
:1007400073206E6F74204C617374204C696E652049
:100750004E756D6265722B312C204C617374204C88
:10076000696E653A20004B494C4C45442E2000539D
:10077000544F505045442E20005072696E7465727B
:100780002073746F707065642064756520746F20C9
:100790006572726F72732E204669782074686520C6
:1007A0006572726F7220616E6420757365204D39B9
:1007B000393920746F20726573746172742E202829
:1007C00054656D706572617475726520697320720D
:1007D000657365742E205365742069742061667496
:1007E00065722072657374617274696E67290A009C
:1007F0004E6F20436865636B73756D20776974680D
:10080000206C696E65206E756D6265722C204C617E
:100810007374204C696E653A2000636865636B737E
:10082000756D206D69736D617463682C204C617304
:1008300074204C696E653A20004D313130004D33E3
:1008400031004731204631303030205932313000CC
:10085000473238205859005344207265616420653E
:1008600072726F720A00446F6E65207072696E74E6
:10087000696E672066696C650A0020496E76616C56
:10088000696420657874727564657220004D313238
:100890003500205A3A0020593A0020436F756E7493
:1008A00020583A0020453A00205A3A0020593A0090
:1008B000583A003A004361703A00200D4669786565
:1008C0006420706172616D65746572206E62797406
:1008D00065733B20637263206572726F7220002023
:1008E0000D0A466978656420706172616D65746592
:1008F000722062797465733B206372632065727243
:100900006F722000290A002062797465733B2063AE
:1009100072632000466978656420706172616D655C
:1009200074657220280020686172647761726520A6
:1009300076657273696F6E3A004B494C4C45442E94
:100940002000202D20496E76616C696420657874E2
:100950007275646572206E756D62657220210A0081
:100960001FFFFFFFFFFFFF600000000001FF4000CE
:1009700000000000FF8000000000007F83CF000027
:100980000C303F87FF80000C301F867980000C0000
:100990000F8C30C7838C30E78C30CFC7CC31F38CD1
:1009A00030DCECEC33B98C30D86C6C33198C30D033
:1009B0006C0C33198C30D86C0C33198C30DC6C0E09
:1009C0003B198C30CF7C079F198C30C77C038F1963
:1009D00040000000000002600000000000061FFF51
:1009E000FFFFFFFFF82020506C616E6E657242754C
:1009F0006666657242797465733A200020467265B6
:100A000065204D656D6F72793A2000436F6D706996
:100A10006C65643A204E6F762032332032303139A3
:100A20000A00207C20417574686F723A20286E6F2E
:100A30006E652C2064656661756C7420636F6E66EC
:100A40006967290A00323031372D31322D32352095
:100A500031323A303000204C61737420557064613B
:100A60007465643A2000312E312E380A004D6172CF
:100A70006C696E0020536F667477617265205265F1
:100A80007365740A00205761746368646F6720524D
:100A9000657365740A002042726F776E206F7574FB
:100AA0002052657365740A002045787465726E6122
:100AB0006C2052657365740A00506F7765725570CB
:100AC0000A0073746172740A006572726F72207723
:100AD000726974696E6720746F2066696C650A00BC
:100AE000456E6473746F7073202563202563202521
:100AF0006320256300205A3A0020593A0020583AD2
:100B000000656E6473746F7073206869743A2000B6
:100B100047323820580066696C616D656E74206FCD
:100B200075740A004D33322053256C7520212573CE
:100B3000004D33322053256C7520212F25732F252E
:100B400073004730204631303030205A25752E252D
:100B500075004732382059004732382058004D314F
:100B60003036202053323535004D31303920543065
:100B700020532575004D3139302053257500446FC1
:100B80006E6520736176696E672066696C652E0AF2
:100B9000004D32390000002100240027002A002DDA
:100BA000003000330001010000040107010A0100C8
:100BB000002200250028002B002E00310034000206
:100BC000010000050108010B0100002000230026A0
:100BD0000029002C002F0032000001000003010654
:100BE00001090105050505070508080808020202B4
:100BF000020A0A08080404040401010101010101B8
:100C0000010303030303030303040707070C0C0C8E
:100C10000C0C0C0C0C020202020606060606060666
:100C2000060B0B0B0B0B0B0B0B0102102020080803
:100C3000102040102040800201020108040201013E
:100C40000204081020408080402010080402018027
:100C5000040201804020100804020108040201017E
:100C60000204081020408001020408102040800087
:100C7000000A0B02090C0D0E080703040100000016
:100C80000000000000000000000000000000000064
:100C90000000000000000000000000121110000021
:100CA0000000000000000000000000000000000044
:100CB000000000000070012C0190012701B001220A
:100CC00001C0011D01F00118011002130130020ED4
:100CD000016002090190020401C002FF000003FA52
:100CE000004003F5008003F000D003EB002004E691
:100CF000007004E100E004DC004005D700C005D22C
:100D0000004006CD00D006C8008007C3003008BEF2
:100D100000F008B900C009B400B00AAF00B00BAAD7
:100D200000D00CA500000EA000500F9B00C0109634
:100D3000005012910000148C00C0158700B017827B
:100D400000B0197D00D01B7800001E730040206E9B
:100D50000090226900F024640040275F0090295A27
:100D600000E02B5500102E500020304B0010324672
:100D700000E033410090353C0010373700703832C6
:100D800000A0392D00B03A2800A03B2300603C1E93
:100D900000103D1900903D1400103E0F00703E0AF7
:100DA00000C03E0500003F0000403FFBFF803FF6D3
:100DB000FFC03FF1FF202F002042403A0020403A80
:100DC00000436172642072656D6F766564004361F3
:100DD000726420696E7365727465640000060900B0
:100DE000FE0701920321207FFF07FF07FF0000009D
:100DF00006000001070706020080808080800080D6
:100E0000030202060105A0A00507070600005050D6
:100E1000F850F850500507070600002078A0702809
:100E2000F020050707060000C0C8102040981805EC
:100E300007070600006090A040A890680203030620
:100E40000104C04080030707060100204080808025
:100E50004020030707060100804020202040800535
:100E6000050506000120A870A8200505050600015B
:100E70002020F820200203030602FFC04080050165
:100E800001060003F8020202060200C0C0050505C3
:100E90000600010810204080050707060000708842
:100EA000888888887003070706010040C0404040DA
:100EB00040E0050707060000708808708080F8058C
:100EC0000707060000F81020100808F005070706BD
:100ED000000010305090F81010050707060000F8C9
:100EE00080F008088870050707060000708080F011
:100EF000888870050707060000F8081020202020C9
:100F00000507070600007088887088887005070745
:100F1000060000708888780808700205050602003F
:100F2000C0C000C0C00206060602FFC0C000C0402C
:100F300080040707060000102040804020100503B1
:100F400003060002F800F8040707060100804020AD
:100F50001020408005070706000070880810200058
:100F60002005070706000070880868A8A870050714
:100F700007060000708888F888888805070706003B
:100F800000F08888F08888F0050707060000708860
:100F90008080808870050707060000F088888888B0
:100FA00088F0050707060000F88080F08080F805CB
:100FB0000707060000F88080F0808080050707069C
:100FC0000000708880B888887005070706000088D0
:100FD0008888F8888888010707060200808080805A
:100FE0008080800507070600003810101010906000
:100FF0000507070600008890A0C0A0908805070795
:10100000060000808080808080F8050707060000C9
:1010100088D8A8888888880507070600008888C8B7
:10102000A89888880507070600007088888888883F
:1010300070050707060000F08888F08080800507AB
:101040000706000070888888A890680507070600D2
:1010500000F08888F0A090880507070600007880D7
:1010600080700808F0050707060000F820202020FF
:101070002020050707060000888888888888700572
:10108000070706000088888888885020050707061B
:1010900000008888888888A850050707060000880F
:1010A00088502050888805070706000088888850E7
:1010B000202020050707060000F80810204080F8CF
:1010C000030707060100E08080808080E0050505B9
:1010D0000600018040201008030707060100E020F9
:1010E00020202020E005030306000420508805018D
:1010F00001060000F802020206020580400505050F
:1011000006000070087888780507070600008080D0
:10111000B0C88888F00505050600007080808870DA
:1011200005070706000008086898888878050505FF
:101130000600007088F88070050707060000304838
:10114000E0404040400506060600FF7088887808A9
:10115000700507070600008080B0C88888880107EE
:101160000706020080008080808080030808060156
:10117000FF200020202020A0400407070600008058
:101180008090A0C0A090030707060100C040404027
:101190004040E0050505060000D0A8A8A8A8050560
:1011A00005060000B0C8888888050505060000709F
:1011B000888888700506060600FFF08888F0808021
:1011C0000506060600FF78888878080805050506E4
:1011D0000000B0C8808080050505060000708070A2
:1011E00008F00407070600004040E040404030059A
:1011F0000505060000888888986805050506000032
:1012000088888850200505050600008888A8A85011
:1012100005050506000088502050880506060600D2
:10122000FF888888780870050505060000F81020FA
:1012300040F803070706010020404080404020019D
:1012400007070602008080808080808003070706F1
:1012500001008040402040408005020206000268F4
:10126000900000000600004573746570732F6D6D6B
:10127000004573746570732F6D6D005A73746570DB
:10128000732F6D6D005A73746570732F6D6D0059F7
:1012900073746570732F6D6D005973746570732F5F
:1012A0006D6D005873746570732F6D6D0058737495
:1012B0006570732F6D6D004D6F74696F6E005374A0
:1012C0006570732F6D6D004A65726B0041636365D5
:1012D0006C65726174696F6E0056656C6F636974DA
:1012E0007900436F6E74726F6C004F6E2000527500
:1012F0006E6F75742073656E736F7273004F6666E0
:101300000046696C2E204469612E0046696C2E20CF
:101310004469612E004F6666004F6E2000452069CB
:101320006E206D6D3300436F6E74726F6C0043619D
:101330006E6E6F7420656E74657220737562646979
:10134000723A2000022E2E004D61696E004D6178C8
:101350002054656D703A20313235004D696E20544D
:10136000656D703A203500544265643A4550434FEC
:1013700053203130304B004D61782054656D703A08
:1013800020323635004D696E2054656D703A203537
:101390000054303A204550434F53203130304B00F9
:1013A0005053553A2047656E657269630050726FFD
:1013B000746F636F6C3A20312E300020202020485B
:1013C00057205665723A2056004657205665723AA5
:1013D0002056312E3500426175643A203235303066
:1013E0003030004754323536302056342E300045E8
:1013F00078747275646572733A2031006874747021
:101400003A2F2F6D61726C696E66772E6F7267006E
:1014100041323054205072696E746572003230313E
:10142000372D31322D32352031323A303000312EE5
:10143000312E38004D61726C696E0024F4D4305046
:10144000C38E20C2A24017828B7011127A910D8137
:101450006CD90AA861E108C7586607615143061EA6
:101460004B5D05C145A7041A411104093D9803715C
:101470003931034036DB0265339102D430540280A7
:101480002E1D02632CEE01752AC501B028A00110A3
:101490002781018F2564012B244B01E0223401AC0C
:1014A000211F018D200D01801FFC00841EED00977F
:1014B0001DDF00B81CD200E61BC600201BBC006468
:1014C0001AB200B219A8000A19A0006A189900D12E
:1014D00017910040178B00B516840031167E00B3BB
:1014E0001579003A157300C7146F0058146A00EE9E
:1014F0001366008813630025135E00C7125B006C3F
:1015000012570015125400C111510070114F0021E3
:10151000114B00D61049008D1047004610440002C0
:10152000104200C00F4000800F3E00420F3C0006FA
:101530000F3B00CB0E3800930E37005C0E350027B2
:101540000E3400F30D3200C10D3100900D300060FB
:101550000D2E00320D2D00050D2C00D90C2B00AEE8
:101560000C2900850C29005C0C2700350C27000E87
:101570000C2600E80B2400C40B2400A00B23007DE4
:101580000B23005A0B2100390B2100180B2000F807
:101590000A1F00D90A1E00BB0A1E009D0A1D0080FA
:1015A0000A1D00630A1C00470A1B002C0A1B0011BD
:1015B0000A1A00F7091A00DD091900C4091900AB5D
:1015C000091900920917007B091800630917004CDC
:1015D00009160036091600200916000A091500F53B
:1015E000081500E0081400CC081400B8081400A482
:1015F000081400900813007D0812006B08130058AF
:1016000008120046081200340811002308110012C5
:1016100008110001081100F0071000E0071000D0C9
:10162000071000C0071000B0070F00A107100091BD
:10163000070E0083070F0074070F0065070E0057A1
:10164000070E0049070E003B070D002E070E002075
:10165000070D0013070D0006070D00F9060C00ED3D
:10166000060D00E0060C00D4060C00C8060C00BCF9
:10167000060C00B0060C00A4060B0099060C008DA9
:10168000060B0082060B0077060B006C060B006150
:10169000060A0057060B004C060A0042060A0038EC
:1016A000060A002E060A0024060A001A060A00107E
:1016B00006090007060A00FD050900F4050900EB0C
:1016C000050900E2050900D9050900D0050900C790
:1016D000050900BE050900B5050800AD050800A50F
:1016E0000509009C050800940508008C0508008485
:1016F0000508007C050800740508006C05070065F6
:101700000508005D050700560508004E050700475F
:101710000507004005080038050700310507002AC5
:10172000050700230507001C050600160507000F26
:101730000507000805060002050700FB040600F582
:10174000040700EE040600E8040600E2040700DBDC
:10175000040600D5040600CF040600C9040600C331
:10176000040600BD040600B7040600B1040500AC81
:10177000040600A6040600A00405009B04060095CC
:10178000040500900406008A040500850405008015
:101790000406007A04050075040500700405006B5A
:1017A00004050066040500610405005C040500579B
:1017B000040500520405004D0405004804050043DB
:1017C0000405003E0404003A040500350405003019
:1017D0000404002C04050027040400230405001E53
:1017E0000404001A04040016040500110404000D8A
:1017F000040400090405000404040000040400FCBF
:10180000030400F8030400F4030400F0030400ECF4
:10181000030400E8030400E4030400E0030400DC24
:10182000030400D8030400D4030400D0030400CC54
:10183000030400C8030300C503030024F404D920F3
:101840001BC40C5C0E9804C4095F0265077101F4A7
:1018500005F900FB04B30048048700C10369005880
:1018600003550003034500BE023A008402310053D1
:10187000022A002902250004022000E4011C00C8FD
:10188000011900AF011700980114008401130071C1
:101890000110006101100051010E0043010D0036DE
:1018A000010B002B010B0020010B00150109000C9E
:1018B00001090003010800FB000800F3000800EB29
:1018C000000700E4000600DE000600D8000600D293
:1018D000000600CC000500C7000500C2000500BDE1
:1018E000000400B9000400B5000400B1000400AD1C
:1018F000000400A9000400A5000300A20003009F4B
:101900000004009B00030098000300950002009370
:10191000000300900003008D0002008B000300888C
:101920000002008600020084000300810002007FA4
:101930000002007D0002007B0002007900020077B7
:1019400000010076000200740002007200010071C4
:101950000002006F0002006D0001006C0002006ACE
:1019600000010069000200670001006600010065D7
:1019700000010064000200620001006100010060DB
:101980000001005F0002005D0001005C0001005BDF
:101990000001005A000100590001005800010057E1
:1019A00000010056000100550001005400010053E1
:1019B00000000053000100520001005100010050DE
:1019C0000001004F0001004E0000004E0001004DDC
:1019D0000001004C0001004B0000004B0001004AD8
:1019E00000010049000100480000004800010047D4
:1019F00000010046000000460001004500000045CF
:101A000000010044000100430000004300010042C7
:101A100000000042000100410000004100010040C0
:101A20000001003F0000003F0001003E0000003EBA
:101A30000001003D0000003D0001003C0000003CB2
:101A40000000003C0001003B0000003B0001003AA8
:101A50000000003A000100390000003900010038A0
:101A60000000003800000038000100370000003797
:101A7000000100360000003600000036000100358D
:101A80000000003500000035000100340000003483
:101A90000000003400010033000000330000003378
:101AA000000100320000003200000032000100316D
:101AB0000000003100000031000100300000003063
:101AC000000000300001002F0000002F0000002F58
:101AD0000000002F0001002E0000002E0000002E4C
:101AE0000001002D0000002D0000002D0000002D41
:101AF0000001002C0000002C0000002C0000002C35
:101B00000001002B0000002B0000002B0000002B28
:101B10000001002A0000002A0000002A0000002A1C
:101B20000001002900000029000000290000002910
:101B30000000002900010028000000280000002803
:101B400000000028000000280001002700000027F6
:101B500000000027000000270000002700010026E9
:101B600000000026000000260000002600000026DD
:101B700000010025000000250000002500000025D0
:101B800000000025000000250001002400000024C2
:101B900000000024000000240000002400010023B5
:101BA00000000023000000230000002300000023A9
:101BB000000000230000002300010022000000229A
:101BC000000000220000002200000022000000228D
:101BD0000001002100000021000000210000002180
:101BE0000000002100000021000000210001002071
:101BF0000000002000000020000000200000002065
:101C00000000002000000020000000200001001F54
:101C10000000001F0000001F0000001F0000001F48
:101C20000000001F0000001F0001001E0000001E39
:101C30000000001E0000001E0000004D3834205837
:101C40002059205A2045005A25752C45256C752CA5
:101C500050256C752C5425752C4225752C0041326D
:101C60003054205072696E746572207265616479B7
:101C70002E0041323054205072696E7465722072A9
:101C8000656164792E004572723A4E6F2046696C28
:101C9000616D656E7400546865726D6973746F72FE
:101CA0007300426F61726420496E666F0050726902
:101CB0006E74657220496E666F004D61696E00201A
:101CC000204E6F7A7A6C653A200020004261636B87
:101CD000004D696E696D756D2054656D7020697376
:101CE000203137302E0048656174696E6720666167
:101CF000696C65640045787472756465206D6F72F7
:101D00006500526573756D65207072696E7400525E
:101D10004553554D45204F5054494F4E533A00209E
:101D2000204E6F7A7A6C653A20006368616E676551
:101D3000006F66207468652066696C616D656E74FD
:101D4000005761697420666F722073746172740049
:101D50005052494E54205041555345440020204E86
:101D60006F7A7A6C653A2000200066696C616D6557
:101D70006E7420756E6C6F616400576169742066C3
:101D80006F72005052494E54205041555345440003
:101D900020204E6F7A7A6C653A20002000506C65E6
:101DA00061736520776169742E2E2E004865617419
:101DB000696E67206E6F7A7A6C65005052494E5496
:101DC000205041555345440020204E6F7A7A6C656F
:101DD0003A2000200068656174206E6F7A7A6C6525
:101DE0002E00507265737320627574746F6E207468
:101DF0006F005052494E54205041555345440020E5
:101E0000204E6F7A7A6C653A2000746F20636F6E93
:101E100074696E75652E2E2E00616E642070726579
:101E2000737320627574746F6E00496E736572749B
:101E30002066696C616D656E74005052494E542085
:101E40005041555345440020204E6F7A7A6C653AD4
:101E50002000200066696C616D656E74206C6F6196
:101E600064005761697420666F72005052494E5485
:101E7000205041555345440020204E6F7A7A6C65BE
:101E80003A2000200066696C616D656E742065788B
:101E90007472756465005761697420666F720050D2
:101EA00052494E542050415553454400746F20729E
:101EB0006573756D65005761697420666F72207077
:101EC00072696E74005052494E542050415553452A
:101ED0004400496E697469616C697A6520454550B2
:101EE000524F4D00436F6E74726F6C005265737485
:101EF0006F7265206661696C73616665004C6F6125
:101F0000642073657474696E677300496E697469DF
:101F1000616C697A6520454550524F4D0053746F8E
:101F200072652073657474696E67730046696C61CD
:101F30006D656E74004D6F74696F6E0054656D70E1
:101F400065726174757265004D61696E004D333064
:101F5000332055312045256920532569005072658D
:101F6000686561742041425320636F6E6600507251
:101F7000656865617420504C4120636F6E66005047
:101F80004944204175746F74756E65005049442052
:101F90004175746F74756E65005049442D4400504E
:101FA00049442D44005049442D49005049442D498D
:101FB000005049442D50005049442D500020082025
:101FC0004661637400200820466163740020082085
:101FD0004D6178002008204D6178002008204D6177
:101FE00078002008204D696E002008204D696E00A1
:101FF0002008204D696E004F6666004F6E2000413C
:1020000075746F74656D700046616E2073706565E0
:10201000640046616E20737065656400426564000B
:10202000426564004E6F7A7A6C65004E6F7A7A6C06
:102030006500436F6E74726F6C0053746F7265202D
:1020400073657474696E6773004265640042656409
:10205000004E6F7A7A6C65004E6F7A7A6C65004636
:10206000616E2073706565640046616E20737065F3
:1020700065640054656D70657261747572650054B5
:102080004845524D414C2052554E415741590054FC
:102090006865726D616C2052756E6177617900437D
:1020A000616E6E6F74206F70656E20737562646907
:1020B000722000656E7175657565696E6720220016
:1020C0006563686F3A004D31303420532575004701
:1020D00039322045257500473932205A25752E257D
:1020E00075004D3530300043616E63656C20707251
:1020F000696E7400526573756D65207072696E74D7
:1021000000506F776572206F757461676500257583
:102110003A2530327500253032753A253032750057
:1021200025756420253032753A25303275005A0005
:102130004D7825643B25643B2564252520004D789A
:1021400025643B25643B25642525200009200000EB
:1021500000000000000000000000007FFFE0000021
:10216000000000000000000000007000E00000001F
:1021700000000000000000000061F86000000000A6
:10218000000000000000000041F8200000000000F6
:102190000000000000000040F020000000000000EF
:1021A000000000000000406020000000000000006F
:1021B00000000000005801A07F8000000000000027
:1021C000004104005C63A0FFC000000000000000AC
:1021D0002082005EF7A0FFC0000000000000002089
:1021E00082005EF7A0FFC000000000000000410474
:1021F000005C63A07F8000000000000000820800F7
:102200005801A07F80000000000000010410004081
:102210006020FFC00000000000000104100040F03A
:1022200020FFC00000000000000082080041F820EC
:10223000FFC00000000000000041040061F8603FA2
:1022400000000000000000000000007000E01E0020
:1022500000000000000001FFFF807FFFE00C000095
:10226000000000000001FFFF8000000000000000EF
:1022700000000000000000007FFFE0000000000000
:10228000000000000000007000E0000000000000FE
:10229000000000000000630C60000000000000006F
:1022A0000000000000470E200000000000000000B9
:1022B000000000004F0F20000000000000000000A0
:1022C0000000005F0FA00000000000000000000000
:1022D00000005E07A07F80000000000000004104B5
:1022E00000406020FFC000000000000000208200CD
:1022F00040F020FFC00000000000000020820040ED
:10230000F020FFC000000000000000410400406019
:10231000207F80000000000000008208005E07A00F
:102320007F80000000000000010410005F0FA0FF8C
:10233000C0000000000000010410004F0F20FFC08B
:1023400000000000000000820800470E20FFC000CF
:10235000000000000000410400630C603F0000002A
:1023600000000000000000007000E01E00000000FF
:1023700000000001FFFF807FFFE00C000000000074
:10238000000001FFFF8000000000060900FE0000C1
:1023900000000001090008FE000005080806000012
:1023A00040F0C88888987810050808060000C0F832
:1023B0008888888888F80505050600012030F830EF
:1023C000200508080600002070F820202020E005E5
:1023D00009090600FF2070A8A8B8888870200509A0
:1023E000090600FFE080C0B0A828302828050909A8
:1023F0000600FFF8A88888888888A8F8050A0A06D1
:1024000000FE205050505088A8A88870030303068F
:10241000000340A0404572726F7220777269746940
:102420006E6720746F20454550524F4D210A002998
:102430000A002062797465733B2063726320005345
:10244000657474696E67732053746F7265642028B5
:10245000004D69783A25336425253B2533642525CD
:102460003B2533642525004772616469656E7400FD
:10247000546F67676C65206D6978003A2533643B5B
:102480002533643B2533642525004D6978004D6173
:10249000696E005072696E742070617573656400B6
:1024A0004D31323500002573004D323400507269D1
:1024B0006E742061626F7274656400473238205810
:1024C0005900473930004731204631303030205AEA
:1024D000323000473931004E6F205344206361721F
:1024E00064005072696E742066726F6D20534400F0
:1024F00053746F70207072696E740041626F7574EE
:10250000205072696E74657200526573756D652036
:102510007072696E74005061757365207072696EB7
:1025200074004D6978657200436F6E74726F6C0051
:10253000507265706172650054756E6500496E6613
:102540006F2073637265656E0042616279737465B2
:1025500070205A004D363030204230004368616EA2
:1025600067652066696C616D656E740042616279B1
:1025700073746570205A00466C6F7700466C6F77F5
:102580000046616E2073706565640046616E20735D
:10259000706565640042656400426564004E6F7A50
:1025A0007A6C65004E6F7A7A6C650053706565646D
:1025B000005370656564004D61696E00205A00200B
:1025C0005900580020204D61783A2000205A002000
:1025D0005900580020204D696E3A20004F6E2000AF
:1025E0004F666600536F667420656E6473746F7017
:1025F000733A200020643A0020693A0020703A00C3
:1026000020643A0020693A0020703A0043290A0009
:1026100061626C656420286D696E2074656D702040
:1026200000436F6C64206578747275646573206113
:10263000726520004B64200023646566696E652026
:102640002044454641554C545F004B6920002364AB
:102650006566696E65202044454641554C545F00CF
:102660004B70200023646566696E652020444546F2
:1026700041554C545F00504944204175746F747546
:102680006E652066696E6973686564212050757493
:1026900020746865206C617374204B702C204B692A
:1026A00020616E64204B6420636F6E7374616E747E
:1026B000732066726F6D2062656C6F7720696E742F
:1026C0006F20436F6E66696775726174696F6E2EF5
:1026D000680A00504944204175746F74756E652016
:1026E0006661696C6564212074696D656F75740A33
:1026F00000544845524D414C2052554E4157415986
:1027000000546865726D616C2052756E61776179F5
:102710000048656174696E67206661696C65640074
:1027200048656174696E67206661696C6564005014
:102730004944204175746F74756E65206661696CDB
:102740006564212054656D706572617475726520D1
:10275000746F6F20686967680A00204B643A200034
:10276000204B693A2000204B703A20000A20436C2D
:10277000617373696320504944200A002054753AFC
:102780002000204B753A2000206D61783A2000200F
:102790006D696E3A200020643A20002062696173FE
:1027A0003A200053442063617264206F6B0A006F0B
:1027B00070656E526F6F74206661696C65640A00A3
:1027C000766F6C756D652E696E6974206661696CD3
:1027D00065640A00534420696E6974206661696CFF
:1027E0000A006175746F25692E67004D3234004D03
:1027F00032332025730057726974696E6720746FD5
:102800002066696C653A20006F70656E20666169AC
:102810006C65642C2046696C653A20006F70656EAB
:10282000206661696C65642C2046696C653A2000FD
:1028300046696C652073656C65637465640A002085
:1028400053697A653A200046696C65206F70656E41
:1028500065643A20006F70656E206661696C65641E
:102860002C2046696C653A20002066696C653A2028
:1028700000646F696E67006672657368004E6F77FB
:102880002000454E4420535542524F5554494E4521
:102890000A002220706F73002220706172656E74CE
:1028A0003A2200535542524F5554494E4520434118
:1028B0004C4C207461726765743A22004B494C4C51
:1028C00045442E2000747279696E6720746F20630E
:1028D000616C6C207375622D67636F646520666937
:1028E0006C6573207769746820746F6F206D616EFA
:1028F00079206C6576656C732E204D4158206C658F
:1029000076656C2069733A004572726F723A007C8A
:102910003C3E5E2B3D3F2F5B5D3B2C2A225C002022
:10292000440020490020204D333034205000204402
:102930000020490020204D333031205000504944C0
:102940002073657474696E67733A0A00204600202C
:10295000420020480020204D3134352053004D6185
:1029600074657269616C206865617475702070614E
:1029700072616D65746572733A0A00204500205AD1
:102980000020590020580020420020540020204DF3
:10299000323035205300416476616E6365643A20BD
:1029A000533C6D696E5F66656564726174653E2057
:1029B000543C6D696E5F74726176656C5F666565C7
:1029C00064726174653E20423C6D696E5F73656739
:1029D0006D656E745F74696D655F75733E20583CFC
:1029E0006D61785F78795F6A65726B3E205A3C6DE5
:1029F00061785F7A5F6A65726B3E20453C6D6178F5
:102A00005F655F6A65726B3E0A00205400205200C9
:102A100020204D323034205000416363656C657274
:102A20006174696F6E2028756E6974732F73322913
:102A30003A20503C7072696E745F616363656C3EEE
:102A400020523C726574726163745F616363656C8C
:102A50003E20543C74726176656C5F616363656CA3
:102A60003E0A00204500205A0020590020204D3207
:102A700030312058004D6178696D756D2041636378
:102A8000656C65726174696F6E2028756E69747308
:102A90002F7332293A0A00204500205A002059009D
:102AA00020204D3230332058004D6178696D756DAE
:102AB000206665656472617465732028756E69743B
:102AC000732F73293A0A00204500205A002059002C
:102AD00020204D3932205800537465707320706582
:102AE0007220756E69743A0A0020204D3230302011
:102AF00044300A0020204D32303020440020446908
:102B00007361626C65640A0046696C616D656E7420
:102B10002073657474696E67733A0020204D3134F8
:102B2000392043203B20556E69747320696E204321
:102B3000656C736975730A002020473231202020AC
:102B4000203B20556E69747320696E206D6D0A00FC
:102B5000526573656E643A20006F6B00627573791D
:102B60003A2070617573656420666F7220696E70BB
:102B700075740A00627573793A20706175736564C3
:102B800020666F7220757365720A00627573793AF8
:102B90002070726F63657373696E670A004B494CEE
:102BA0004C45442E20004B494C4C206361757365A5
:102BB0006420627920746F6F206D75636820696E80
:102BC0006163746976652074696D65202D20637575
:102BD0007272656E7420636F6D6D616E643A200071
:102BE000506C65617365207265736574005052495D
:102BF0004E5445522048414C544544005072696E31
:102C00007465722068616C7465642E206B696C6CED
:102C100028292063616C6C6564210A00000020C1D2
:102C20000000A0C0000000000000C8420000C84230
:102C30000000A041000000005761726E696E673AA3
:102C400020486F6D696E672042756D70204469760B
:102C500069736F72203C20310A000202040000A058
:102C6000400000A040000000400000824300007FC0
:102C70004300007A43FFFFFF4D36303020486F7429
:102C8000656E6420746F6F20636F6C6420746F20B6
:102C90006368616E67652066696C616D656E740A54
:102CA0000020746F6F206C6F6E672065787472758A
:102CB00073696F6E2070726576656E7465640A0064
:102CC00020636F6C6420657874727573696F6E2011
:102CD00070726576656E7465640A006265640A00E8
:102CE0002C2073797374656D2073746F70706564D4
:102CF00021204865617465725F49443A2000486547
:102D00006174696E67206661696C6564004865611D
:102D100074696E67206661696C65640048656174FA
:102D2000696E67206661696C6564004865617469F5
:102D30006E67206661696C6564004572723A204D69
:102D4000494E54454D5020424544004572723A2048
:102D50004D494E54454D50004D494E54454D50201F
:102D6000747269676765726564004572723A204DD6
:102D7000415854454D5020424544004572723A2016
:102D80004D415854454D50004D415854454D5020EB
:102D900074726967676572656400290A577269749D
:102DA000652066696C65206E616D653A2000206261
:102DB000797465733B206372632000506F7765728E
:102DC0006F66662053746F72656420280020213D71
:102DD0002000637263206572726F723A20000A727B
:102DE0006561642066696C65206E616D653A2000DE
:102DF000290A726561642066696C65206469723AAB
:102E000020002062797465733B2063726320007038
:102E10006F7765726F66662073746F726564207376
:102E2000657474696E67732072657472696576651E
:102E300064202800202863616C63756C617465648C
:102E400029210A0020213D2000454550524F4D20A8
:102E5000435243206D69736D61746368202D20288F
:102E600073746F726564292000290A0020627974E6
:102E700065733B2063726320002073746F72656416
:102E80002073657474696E67732072657472696506
:102E9000766564202800204D61726C696E3D563461
:102EA0003032290A0028454550524F4D3D004545D6
:102EB00050524F4D2076657273696F6E206D697345
:102EC0006D61746368200048617264636F64656457
:102ED0002044656661756C742053657474696E670F
:102EE00073204C6F616465640A00B80B0000B80B76
:102EF000000032000000B80B000000009643000004
:102F000096430000A0410000C8419A99A0429A99B6
:102F1000A1420000C8430080C543507265686561E6
:102F20007420504C4120456E6400507265686561A4
:102F30007420504C412042656400507265686561A0
:102F40007420504C4100507265706172650050727F
:102F500065686561742041425320456E640050727B
:102F60006568656174204142532042656400507277
:102F700065686561742041425300507265706172EA
:102F800065004261636B004E65787420636F726EFA
:102F90006572005072656865617420504C41004351
:102FA0006F6F6C646F776E00507265686561742036
:102FB000414253004368616E67652066696C616DCC
:102FC000656E740044697361626C6520737465702A
:102FD00070657273004D3834004C6576656C206303
:102FE0006F726E657273004175746F20686F6D65E6
:102FF00000473238004D6F76652061786973004D67
:1030000061696E005654726176206D696E00565487
:10301000726176206D696E005654726176206D691A
:103020006E00566D696E00566D696E00566D696E64
:1030300000566D6178204500566D61782045005638
:103040006D6178204500566D6178205A00566D619B
:1030500078205A00566D6178205A00566D617820AC
:103060005900566D6178205900566D6178205900DD
:10307000566D6178205800566D6178205800566D65
:1030800061782058004D6F74696F6E00416D6178F2
:10309000204500416D6178204500416D6178205ADE
:1030A00000416D6178205A00416D617820590041DE
:1030B0006D6178205900416D6178205800416D6143
:1030C00078205800412D74726176656C00412D7432
:1030D000726176656C00412D726574726163740073
:1030E000412D7265747261637400416363656C00A5
:1030F000416363656C004D6F74696F6E0056652D9A
:103100006A65726B0056652D6A65726B0056652D97
:103110006A65726B00567A2D6A65726B00567A2D5D
:103120006A65726B0056792D6A65726B0056792D4F
:103130006A65726B0056792D6A65726B0056782D40
:103140006A65726B0056782D6A65726B0056782D31
:103150006A65726B004D6F74696F6E005344207026
:1031600072696E74696E67206279746520004E6FB3
:1031700074205344207072696E74696E670A004847
:103180006F6D6520257325732573206669727374CE
:10319000002066697273740A005A0059005800488A
:1031A0006F6D6520005374617274205A3A20253483
:1031B000642E2564206D6D002020456E64205A3AEF
:1031C000202534642E2564206D6D00285A203C3D56
:1031D0002025642E256429005374617274206D6962
:1031E000783A2025336425252025336425250028B9
:1031F0005A203E3D2025642E256429002020456E5E
:1032000064206D69783A20253364252520253364B0
:1032100025250046756C6C206772616469656E7463
:10322000002533643B2533642525002020456E644A
:10323000206D69783A002533643B253364252500E9
:103240005374617274206D69783A004772616469E1
:10325000656E74002534642E2564206D6D00202079
:10326000456E64205A3A002534642E2564206D6D25
:10327000005374617274205A3A0047726164696540
:103280006E74206D6978004D69786572004D6F76B7
:10329000652058004D6F76652059004D6F7665208A
:1032A0005A004578747275646572004D6F766520BA
:1032B000302E316D6D004D6F766520316D6D004D96
:1032C0006F76652031306D6D004D6F7665206178C9
:1032D000697300486F74656E6420746F6F20636F4C
:1032E0006C64004578747275646572004D6F766524
:1032F000205A004D6F76652059004D6F7665205835
:10330000004578747275646572004D6F7665205A59
:10331000004D6F76652059004D6F7665205800503E
:103320007265706172650000C800C60011241FBE7E
:10333000CFEFD1E2DEBFCDBF00E00CBF13E0A0E0D5
:10334000B2E0E6E3F5E202E00BBF02C007900D92A7
:10335000A63FB107D9F728E1A6EFB3E001C01D925F
:10336000A83CB207E1F719E1C5E9D9E100E006C0E0
:1033700021970109802FFE010F94F311C439D10761
:1033800080E00807A9F70E9437F90D948A120C947F
:1033900000002F923F924F925F926F927F928F9296
:1033A0009F92AF92BF92CF92DF92EF92FF920F93D4
:1033B0001F93CF93DF93CDB7DEB7CE57D1090FB6AA
:1033C000F894DEBF0FBECDBF81E090E0909341172F
:1033D000809340178091C1188D3409F484C68435D8
:1033E00011F40C946C30873411F00C94C23080913D
:1033F000BF189091C0188430910509F4B3C554F4F6
:1034000097FF02C00C94DC3020919D028230910520
:103410007CF529C08A35910509F417C66CF48B3107
:10342000910509F4E6C54C9711F00C94DC3080E06E
:103430000E94C73E0C94DC308B35910509F409C617
:103440008C35910511F00C94DC300E949C6046EAAA
:10345000242E42E0342E5DE5E52E58E1F52E00E005
:10346000D12C10E020C621110C94E3300C94DC30F8
:10347000222311F40C94DC3011E0029709F010E0E3
:103480000E94213982E50E941539882309F45CC124
:103490000E94B3386B017C0140905D1850905E181B
:1034A00060905F18709060182091611830916218D8
:1034B00040916318509164182B962CAF3DAF4EAFDE
:1034C0005FAF2B978091301790913117A0913217F1
:1034D000B09133172F968CAF9DAFAEAFBFAF2F9784
:1034E0002091341730913517409136175091371786
:1034F0006B962CAF3DAF4EAF5FAF6B9720E030E0E7
:10350000A901C701B6010F94D50A882309F410C593
:10351000A30192012F966CAD7DAD8EAD9FAD2F971F
:103520000F94D50A811111C02B962CAD3DAD4EAD37
:103530005FAD2B976B966CAD7DAD8EAD9FAD6B97F0
:103540000F94D50A882309F4F3C420E030E0A901E0
:10355000C701B6010F94D50A881F8827881F181342
:103560000BC080E090E0A0E8BFE3A3968CAF9DAFD6
:10357000AEAFBFAFA3970AC020E030E040E85FEBFA
:10358000A3962CAF3DAF4EAF5FAFA397A3019201BF
:103590002F966CAD7DAD8EAD9FAD2F970F94EB0E3A
:1035A00067966CAF7DAF8EAF9FAF67972B962CADB4
:1035B0003DAD4EAD5FAD2B976B966CAD7DAD8EADD9
:1035C0009FAD6B970F94EB0E6F966CAF7DAF8EAF88
:1035D0009FAF6F9767962CAD3DAD4EAD5FAD6797D2
:1035E000CA01B9010F943A0B4B015C016F962CADE7
:1035F0003DAD4EAD5FAD6F97CA01B9010F943A0B67
:103600009B01AC01C501B4010F94EC0E0F9457114E
:1036100063966CAF7DAF8EAF9FAF639720E030E0D5
:1036200040E05FE30F943A0B4B015C01A701960168
:10363000C701B6010F943A0B6B017C01A5019401FF
:10364000C501B4010F943A0B9B01AC01C701B6014F
:103650000F94EB0E0F9457119B01AC01A3966CAD28
:103660007DAD8EAD9FADA3970F943A0B4B015C01DE
:103670002F962CAD3DAD4EAD5FAD2F97C301B2017E
:103680000F94EC0E20E030E040E05FE30F943A0B43
:103690006B017C016F966CAD7DAD8EAD9FAD6F976C
:1036A000905863962CAD3DAD4EAD5FAD63970F94D2
:1036B000C80F9B01AC01C501B4010F943A0B9B01EB
:1036C000AC01C701B6010F94EC0EA30192010F9457
:1036D000EB0E6B017C016B962CAD3DAD4EAD5FAD3D
:1036E0006B972B966CAD7DAD8EAD9FAD2B970F94E8
:1036F000EC0E20E030E040E05FE30F943A0B2B014A
:103700003C0163962CAD3DAD4EAD5FAD63976796C2
:103710006CAD7DAD8EAD9FAD67970F94C80F9B01CB
:10372000AC01C501B4010F943A0B9B01AC01C3017C
:10373000B2010F94EC0E2B962CAD3DAD4EAD5FADAE
:103740002B970F94EB0E14C089E40E94153988233F
:1037500029F00E94B3386B017C0103C0C12CD12C2D
:1037600076018AE40E9415398823F9F00E94B33863
:103770006B966CAF7DAF8EAF9FAF6B9720E030E064
:10378000A901C701B6010F94D50A81111EC020E01E
:1037900030E0A9016B966CAD7DAD8EAD9FAD6B97A2
:1037A0000F94D50A811111C0C3C320E030E0A901F4
:1037B000C701B6010F94D50A882309F4B9C36B96E3
:1037C0001CAE1DAE1EAE1FAE6B97D701C601B05822
:1037D0002B968CAF9DAFAEAFBFAF2B976B962CAD3A
:1037E0003DAD4EAD5FAD6B9750582F962CAF3DAFB2
:1037F0004EAF5FAF2F979C01AD01BC01CD010F947F
:103800003A0B4B015C012F962CAD3DAD4EAD5FAD3B
:103810002F97CA01B9010F943A0B9B01AC01C50166
:10382000B4010F94EC0E0F945711E3966CAF7DAF7B
:103830008EAF9FAFE39780915D1890915E18A09135
:103840005F18B091601863968CAF9DAFAEAFBFAFFD
:103850006397A7019601BC01CD010F94EC0EA396CE
:103860006CAF7DAF8EAF9FAFA39720916118309161
:10387000621840916318509164186F962CAF3DAF59
:103880004EAF5FAF6F976B962CAD3DAD4EAD5FAD5C
:103890006B976F966CAD7DAD8EAD9FAD6F970F94AE
:1038A000EC0EA7966CAF7DAF8EAF9FAFA7978091C0
:1038B000301790913117A0913217B0913317AB9612
:1038C0008CAF9DAFAEAFBFAFAB97A3962CAD3DAD68
:1038D0004EAD5FADA397BC01CD010F94EB0E6B0114
:1038E0007C01209134173091351740913617509153
:1038F0003717AF962CAF3DAF4EAF5FAFAF97A796E0
:103900002CAD3DAD4EAD5FADA797AF966CAD7DAD27
:103910008EAD9FADAF970F94EB0E4B015C01809184
:10392000651890916618A0916718B0916818EB9689
:103930008CAF9DAFAEAFBFAFEB979C01AD01609177
:1039400038177091391780913A1790913B170F945F
:10395000EB0E67966CAF7DAF8EAF9FAF67972091F0
:103960003C1730913D1740913E1750913F17E79615
:103970002CAF3DAF4EAF5FAFE79780916918909144
:103980006A18A0916B18B0916C18EF968CAF9DAF30
:10399000AEAFBFAFEF97A70196012B966CAD7DAD93
:1039A0008EAD9FAD2B970F943A0B2B013C01A501D7
:1039B00094012F966CAD7DAD8EAD9FAD2F970F947A
:1039C0003A0B9B01AC01C301B2010F94EC0E2B0129
:1039D0003C01A50194012B966CAD7DAD8EAD9FADE4
:1039E0002B970F943A0B4B015C01A70196012F9680
:1039F0006CAD7DAD8EAD9FAD2F970F943A0B9B01B3
:103A0000AC01C501B4010F94EB0EA30192010F9418
:103A10005F0F6B017C0120E030E0A9010F94D50A13
:103A200087FF0AC02BED3FE049EC50E4C701B60127
:103A30000F94EC0E6B017C01112351F02BED3FE054
:103A400049EC50E4C701B6010F94EB0E6B017C0109
:103A500020E030E0A901C701B6010F94D50A811119
:103A600028C0AB962CAD3DAD4EAD5FADAB97639628
:103A70006CAD7DAD8EAD9FAD63970F94D50A81116E
:103A800018C0AF962CAD3DAD4EAD5FADAF976F9604
:103A90006CAD7DAD8EAD9FAD6F970F94D50A811142
:103AA00008C07BEDC72E7FE0D72E79ECE72E70E4BF
:103AB000F72EE3962CAD3DAD4EAD5FADE397C7015C
:103AC000B6010F943A0B9B01AC010F943A0B4B01DA
:103AD0005C0167962CAD3DAD4EAD5FAD6797CA01F9
:103AE000B9010F943A0B9B01AC01C501B4010F94CD
:103AF000EC0E0F9457114B015C012FE632E143E8C5
:103B00005AE30F94D50A87FD0FC2C501B4010F9483
:103B100061100F9435101B01672B19F42224239494
:103B2000312CB10180E090E00F94D90A4B015C0187
:103B30009B01AC01C701B6010F94C80F63966CAF2F
:103B40007DAF8EAF9FAF6397A501940167966CAD73
:103B50007DAD8EAD9FAD67970F94C80FE3966CAFA8
:103B60007DAF8EAF9FAFE397EF962CAD3DAD4EADE1
:103B70005FADEF97E7966CAD7DAD8EAD9FADE797EE
:103B80000F94EB0EA50194010F94C80FE7966CAF4C
:103B90007DAF8EAF9FAFE79763962CAD3DAD4EAD39
:103BA0005FAD6397CA01B9010F943A0B20E030E092
:103BB00040E05FE30F943A0B9B01AC0160E070E0E2
:103BC00080E89FE30F94EB0EAB966CAF7DAF8EAFAA
:103BD0009FAFAB97EB962CAD3DAD4EAD5FADEB9788
:103BE00029873A874B875C87EF968CAD9DADAEAD4C
:103BF000BFADEF978D879E87AF87B88B6091960298
:103C000070919702072E000C880B990B0F94DB0A1A
:103C10002091000230910102409102025091030272
:103C20000F943A0B2AE037ED43E25CE30F943A0B32
:103C300068A379A38AA39BA30E9468439B01AC015C
:103C400028533F4F4F4F5F4FAF962CAF3DAF4EAF16
:103C50005FAFAF9728964FAC289729965FAC29970E
:103C60002A966FAC2A972B967FAC2B9741E050E0B9
:103C70006D965FAF4EAF6D9759E164965FAF6497F5
:103C80006D96AEADBFAD6D97A215B30509F43CC1FD
:103C90000E94F6D10E946843DC01CB01AF962CADA7
:103CA0003DAD4EAD5FADAF97821B930BA40BB50B33
:103CB000B7FD11C00E9468439B01AC0128533F4FE0
:103CC0004F4F5F4FAF962CAF3DAF4EAF5FAFAF974B
:103CD00080E00E942BB964963FAD649731506496A2
:103CE0003FAF6497332309F44BC0AB962CAD3DAD89
:103CF0004EAD5FADAB972F966CAD7DAD8EAD9FADEC
:103D00002F970F943A0B6B017C0163962CAD3DAD60
:103D10004EAD5FAD6397B201C3010F943A0BA7019B
:103D200096010F94EC0E6B017C01AB962CAD3DAD72
:103D30004EAD5FADAB97B201C3010F943A0B4B018F
:103D40005C0163962CAD3DAD4EAD5FAD63972F9694
:103D50006CAD7DAD8EAD9FAD2F970F943A0B9B014F
:103D6000AC01C501B4010F94EB0E2B013C01C6015F
:103D7000D7012F968CAF9DAFAEAFBFAF2F9761C06D
:103D80006D964EAD5FAD6D97BA0180E090E00F94F7
:103D9000D90A63962CAD3DAD4EAD5FAD63970F94E0
:103DA0003A0B4B015C010F94C50F6B017C01C501FF
:103DB000B4010F944D114B015C01A70196012B96A4
:103DC0006CAD7DAD8EAD9FAD2B970F943A0B2B0153
:103DD0003C01A50194016B966CAD7DAD8EAD9FADA0
:103DE0006B970F943A0B9B01AC01C301B2010F9486
:103DF000EC0E2B013C01A50194012B966CAD7DAD21
:103E00008EAD9FAD2B970F943A0B4B015C01A70130
:103E100096016B966CAD7DAD8EAD9FAD6B970F949B
:103E20003A0B9B01AC01C501B4010F94EB0E2F9628
:103E30006CAF7DAF8EAF9FAF2F9759E164965FAFA8
:103E400064979201A301A3966CAD7DAD8EAD9FAD3D
:103E5000A3970F94EC0E69837A838B839C832F96B0
:103E60002CAD3DAD4EAD5FAD2F97A7966CAD7DAD42
:103E70008EAD9FADA7970F94EC0E6D837E838F83DD
:103E80009887E3962CAD3DAD4EAD5FADE397698568
:103E90007A858B859C850F94EC0E69877A878B8752
:103EA0009C87E7962CAD3DAD4EAD5FADE7976D8538
:103EB0007E858F8598890F94EC0E6D877E878F871E
:103EC000988B8091A502882321F0CE0101960E9453
:103ED00048B7E12C8E01005E1F4F9E01235F3F4FCC
:103EE000AE01475F5F4FBE016B5F7F4FCE01019612
:103EF0000E949AF66D968EAD9FAD6D9701966D9668
:103F00009FAF8EAF6D97BCCEE12C8E01005E1F4F30
:103F10002CE337E148E357E164E377E180E397E19D
:103F20000E949AF60E94DA390E94E4390C94DC303F
:103F3000E8E0F9E284918F010F5F1F4F882321F0A1
:103F40000E94EF39F801F6CFEDE3F2E084918F01A2
:103F50000F5F1F4F882311F40C94DC300E94EF395F
:103F6000F801F4CF80E50E941539882329F00E94DA
:103F700073386B017C0103C0C12CD12C760183E521
:103F80000E941539882361F00E94B33820E030E0A8
:103F90004AE754E40F943A0B0F9435106B017C01FF
:103FA0000E949C6080914C02811105C060E083E515
:103FB00092E00E94B7540E94E439809128179091B2
:103FC0002917A0912A17B0912B17C80ED91EEA1EE7
:103FD000FB1E0E946843DC01CB018C199D09AE09D0
:103FE000BF09B7FD02C00C94DC3080E00E942BB901
:103FF000F0CF0E94D6E581110C94DC3080E090E097
:10400000A0E4B0E489839A83AB83BC838D839E83D1
:10401000AF83B88780E090E0A0E2B1E489879A8717
:10402000AB87BC8780E50E941539882319F00E9470
:10403000833801C060E068A3BE016F5F7F4FCE018F
:1040400080960E947AB20C94DC301092FA030C94A1
:10405000DC3081E08093FA030C94DC300E94B338AA
:104060002B013C01D7012D913D914D915C910F9415
:10407000EB0E4B015C012DEB37E346E855EB0F945B
:10408000121187FD18C02DEB37E346E855E3C50153
:10409000B4010F94D50A181674F01F5FF4E0EF0E08
:1040A000F11C1430A1F0F10181911F010E9415391A
:1040B000882399F3D3CF133019F0DD24D39401C0B2
:1040C00001E0F7014082518262827382E6CFDD20F7
:1040D00019F00E94FF3703C001110E9473E60E948D
:1040E000083E0C94DC308091BF189091C018863740
:1040F000910511F40C9470290CF0DEC08D349105FB
:1041000009F45FC50CF053C08931910509F400C36F
:104110001CF58431910509F47CC27CF48131910550
:1041200009F463C22CF4029708F4D3C10C94DC3078
:10413000429709F4ACC70C94DC308631910509F440
:10414000B1C20CF4ABC28731910509F4B1C24897F2
:1041500009F4C4C20C94DC308F31910509F447C4D2
:104160007CF48B31910509F4E5C20CF4D5C28C3195
:10417000910509F4E3C24E9709F4EAC20C94DC30CD
:104180008A32910509F4D9C42CF4809709F4E5C367
:104190000C94DC308B34910509F40FC58C349105F7
:1041A00011F00C94DC300E94B1E60C94DC308B36BC
:1041B000910509F4DAC60CF052C08535910509F471
:1041C0009DC77CF58235910509F458C704F5813502
:1041D000910511F00C94DC300E9401CF0E949C608C
:1041E0000E94B8B8109242181092411868EE73E01D
:1041F00080E090E00E94A7530E949C600E947C3760
:1042000060E086E094E00E94B7540C94DC30833583
:10421000910509F437C78435910509F438C70C9422
:10422000DC308836910509F4D0C47CF48C359105D6
:1042300011F00C94DC3016EAC12E12E0D12E0DE6FE
:10424000E02E08E1F02E10E074C78936910509F4DC
:10425000E9C58A36910509F463C60C94DC308037D1
:10426000910509F491C584F48D36910509F41EC6B3
:104270000CF486C58E36910509F4FEC48F3691057F
:1042800009F40DC50C94DC308237910509F4D0C7D0
:104290000CF47EC58337910509F4CFC785379105A6
:1042A00011F00C94DC3060E08091BD189091BE1844
:1042B0000E94D5540C94DC30823E910511F40C948C
:1042C000482E0CF078C0863A910511F40C94E62B38
:1042D00084F58C38910509F487C59CF488379105DD
:1042E00011F40C94132A14F40C94AF298937910516
:1042F00011F40C94192A8D37910509F448C60C94D1
:10430000DC308B39910509F4AAC53CF4813991055B
:1043100011F40C941E2A0C94DC30833A910511F4AC
:104320000C94942A843A910511F40C940B2B0C9460
:10433000DC308C3C910511F40C946D2D0CF5883C0F
:10434000910511F40C94F12C34F48E3B910509F491
:10435000CBC50C94DC30893C910511F40C94372DBD
:104360008B3C910511F00C94DC308BEEE82E87E14C
:10437000F82E06EA12E094E0D92ED00E0C945E2DB1
:10438000833D910511F40C94422E3CF48D3C910533
:1043900011F40C94D72D0C94DC308C3D910511F464
:1043A0000C94452E8D3D910511F00C94DC300E944B
:1043B000B0A10C94DC30893921E0920711F40C94FF
:1043C0007D2E0CF046C08F3241E0940711F40C941E
:1043D000772EFCF48C32A1E09A0711F40C944B2E4A
:1043E0004CF48232914011F00C94DC300E940BA10D
:1043F0000C94DC308D32F1E09F0711F40C94742E94
:104400008E32914011F00C94DC300E94999F0C94F4
:10441000DC30833631E0930711F40C94AD2F4CF46B
:104420008033914011F00C94DC300E94EF9F0C948B
:10443000DC308039A1E09A0711F40C947A2E883987
:10444000914011F00C94DC3081E08093A00A0C9430
:10445000DC30873FE1E09E0711F40C94862EFCF4DB
:10446000843F21E0920711F40C94802E4CF48A3999
:10447000914011F00C94DC300E94109A0C94DC30C6
:10448000853F51E0950711F40C94832E863F9140AF
:1044900011F00C94DC300E945CD30C94DC30803A38
:1044A000B3E09B0709F496C23CF48835924011F4BE
:1044B0000C94922E0C94DC30873E23E0920711F48A
:1044C0000C94ED2F893D974011F40C9402300C941C
:1044D000DC30A090BD18B090BE1880E50E94153960
:1044E000882359F00E9473386B017C0111E0672B1F
:1044F000682B692B31F410E004C010E0C12CD12CE2
:10450000760183E50E9415398823F1F00E94B338C3
:1045100020E030E04AE754E40F943A0B0F94351052
:104520006B017C01111112C0672B682B692B71F490
:10453000A114B10459F0D5018C91882339F061E0C0
:10454000C5010E94D55407C0112391F360E08FE7A5
:1045500092E00E94B75483E090E0909341178093DB
:10456000401781E08093810A0E949C600E94E43998
:10457000C114D104E104F104F1F080912817909165
:104580002917A0912A17B0912B17C80ED91EEA1E21
:10459000FB1E0E946843DC01CB018C199D09AE090A
:1045A000BF09B7FF1EC08091810A8823D1F080E047
:1045B0000E942BB9EECF8091810A882321F080E000
:1045C0000E942BB9F8CF80912A1190912B1160E0B5
:1045D000029719F48BE692E002C08CE592E00E940B
:1045E000B7541092810A0C94DC3060E082E992E0CA
:1045F0000E94B7544298179815982E989FB7F89430
:1046000080910B018D7F80930B019FBFA0980C942C
:10461000DC30EAEAF2E084918F010F5F1F4F8823BC
:1046200021F00E94EF39F801F6CF1092EA131092B0
:10463000E91340E050E0BA0183E791E10E94B7A896
:104640008BE1E3E7F1E1DE01159601900D928A9589
:10465000E1F780917111909172119C838B8386EDAB
:1046600092E09A83898340E050E0BE016F5F7F4F04
:104670008BE993E00E94937BCE0101960E94A5B83E
:10468000EBE9F2E084918F010F5F1F4F882311F453
:104690000C94DC300E94EF39F801F4CF0E941FA780
:1046A0000C94DC3010923A1110923B110C94DC30D7
:1046B000E091BD18F091BE188081882329F08032E6
:1046C00009F410823196F8CF40E061E08091BD1886
:1046D0009091BE180E94E1A30C94DC3019821A82DA
:1046E0001B821C8218A219A21AA21BA28091421737
:1046F000882341F040E0BE016F5F7F4FCE0180967E
:104700000E9476BC0E9492810E9496E50C94DC3057
:104710000E94F4370C94DC3080913B11882311F413
:104720000C94DC3083E50E94153981110C94BA3168
:104730000C94DC300E94CBE60C94DC3040E060E06E
:104740008091BD189091BE180E94E1A30C94DC30BA
:1047500080913B11882311F40C94DC3087E393E1C2
:104760000E94AC9087E393E10E94A0A910923911B6
:1047700010923811E090BD18F090BE1880913B1156
:10478000882311F40C94DC300E94537FFE01319693
:104790006F01CF010E94518E8FE691E190938F11AE
:1047A00080938E11D7018C918F3209F060C06FE237
:1047B00070E0C7010F9447128C010F5F1F4F09F47F
:1047C0005CC06FE270E0C8010F9447125C01009773
:1047D00009F454C00817190708F050C04C01801A9A
:1047E000910AA401B801CE0180960F947012E0E204
:1047F000F0E0EC0FFD1FE80DF91D10828E01005E48
:104800001F4FF80181918F01882319F00E94EF3921
:10481000F8CF8AE00E94EF3960918E1170918F116C
:104820006115710511F06C5F7F4F21E0AE01405EB4
:104830005F4FCE0105960E9445AF811112C0BE01A7
:10484000605E7F4F81EE92E00E941BF58EE20E9437
:10485000EF398AE00E94EF39C6010E94A5B80C9496
:10486000DC30D0928F11C0928E118501A6CF80E9E5
:1048700091E190938F1180938E11870160918E1139
:1048800070918F116115710511F06C5F7F4F18A247
:104890001BA222E0A801CE0180960E9445AF8111A3
:1048A00002C0F12C14C0CE0180960E94017B8823A7
:1048B000C1F361E0CE0180960E94A9A9009789F317
:1048C00025EEDC012C931BA20E945B8EF82ECE01FC
:1048D00080960E949039FF2019F1EBEBF2E0849171
:1048E0007F01BFEFEB1AFB0A882321F00E94EF390A
:1048F000F701F5CFF80181918F01882319F00E940B
:10490000EF39F8CF8AE00E94EF3910926B111092C4
:104910006C1110926D1110926E110E94197E18C0C8
:10492000E9ECF2E084917F012FEFE21AF20A88238A
:1049300021F00E94EF39F701F5CFD8018D918D015B
:10494000882319F00E94EF39F8CF8EE20E94EF39E8
:10495000C6010E94A5B80C94DC3080913A118111F7
:104960000E949C6080913B11882311F40C94DC30F0
:1049700080E50E941539882319F00E94A43803C0ED
:1049800080E50E94E638182F482F61E08091BD181D
:104990009091BE180E94E1A383E50E9415398823F7
:1049A00081F00E948338AB01BC0140936B1150939E
:1049B0006C1160936D1170936E1187E393E10E9407
:1049C000B7A80E94928111110C94DC300E9496E5E8
:1049D0000C94DC308091BD189091BE1821E020939A
:1049E000391140E060E00E94E1A30C94DC300E94A9
:1049F0005C813CE3C32ED12CE12CF12CA701960164
:104A00000F94B00E762E672ECA01B901A701960148
:104A10000F94B00E6B017C01CA01B90128E130E0AE
:104A200040E050E00F94B00E4B015C01C9016DE60F
:104A300071E00F94B0118E010F5F1F4F611571056A
:104A400099F06F927F92DF92CF929F928F929F9375
:104A50008F937F936F938DE193E09F938F931F9339
:104A60000F930F946E0A12C00097B1F06F927F926D
:104A7000DF92CF929F928F929F938F938DE093E0DE
:104A80009F938F931F930F930F946E0A0FB6F89412
:104A9000DEBF0FBECDBF36C081149104A104B104A6
:104AA00079F06F927F92DF92CF929F928F9281E006
:104AB00093E09F938F931F930F930F946E0AE6CF0B
:104AC000C114D104E104F10469F06F927F92DF9286
:104AD000CF9289EF92E09F938F931F930F930F9440
:104AE0006E0AD4CF6F927F9285EF92E09F938F935F
:104AF0001F930F930F946E0A0F900F900F900F90CB
:104B00000F900F9060E0C8010E94D554E0ECF0E2F5
:104B100084917F019FEFE91AF90A882321F00E940E
:104B2000EF39F701F5CFB80181E393E00E941BF55F
:104B30008AE00E94EF390C94DC3083E50E9415393D
:104B4000882311F40C94DC300E949338E82E80E521
:104B50000E941539882341F00E9483388B0177FF2A
:104B600002C00C94DC3002C006E010E0902FEEE3AF
:104B7000F3E08EE28E0F2491921729F031968E1376
:104B8000FACF0C94CA31E8E0F9E284918F010F5F0B
:104B90001F4F882321F00E94EF39F801F6CFECE691
:104BA000F3E084918F010F5F1F4F882311F40C9461
:104BB000DC300E94EF39F801F4CF0E9496E50C94A6
:104BC000DC300E945E7F0C94DC3088E690E00E942E
:104BD000043D81110C94DC3080913B1483FF02C0B2
:104BE0000C94DC3083E50E941539882309F440C019
:104BF0000E94B3380F9430107093401860933F18A0
:104C000080E00E94B6CE0E94B33820E030E04AEA4D
:104C100052E40F94D50A18163CF00E945E7F60E0C3
:104C200082E893E00E94B7540E94B3382091820A30
:104C30003091830A4091840A5091850A0F94121191
:104C40001816B4F483E393E09F938F9380916C09DB
:104C500090E001969F938F938BE793E09F938F93C0
:104C60001F920E947BE50FB6F894DEBF0FBECDBF4A
:104C70000F9433060C94DC308EE40E94153988239F
:104C800011F40C94DC300E948338609355147093B7
:104C9000561480935714909358140C94DC3083E589
:104CA0000E94E638882359F083E50E94153988234D
:104CB00019F00E94933801C080E080933B14E0EC2F
:104CC000F0E284918F010F5F1F4F882321F00E9433
:104CD000EF39F801F6CFE4EAF3E084918F010F5F3A
:104CE0001F4F882321F00E94EF39F801F6CF809101
:104CF0003B148823A1F126E9C22E23E0D22EE12C19
:104D0000F12C20E080913B1490E00E2C02C0959590
:104D100087950A94E2F780FF17C0BB24B394B20EC4
:104D2000222319F08CE20E94EF39F601259134918B
:104D3000F901849189010F5F1F4F882321F00E94A0
:104D4000EF399801F5CF2B2DFFEFEF1AFF0A32E074
:104D5000C30ED11C45E0E416F104A1F60CC0E0EA54
:104D6000F3E084918F010F5F1F4F882321F00E9491
:104D7000EF39F801F6CF8AE00E94EF390C94DC306D
:104D800010928F020C94DC308BEA93E00E94C1B841
:104D900083E50E941539882369F00E9493388D338A
:104DA00020F4809398020C94DC308CE3809398027A
:104DB0000C94DC30E0ECF0E284918F010F5F1F4F28
:104DC000882321F00E94EF39F801F6CF4091980234
:104DD00050E060E070E084EB93E00E94D9698AE0E3
:104DE0000E94EF390C94DC3080913B1483FF02C0A9
:104DF0000C94DC3083E50E941539882311F40C945F
:104E0000DC300E94B3380F9430106E37710514F007
:104E10006DE770E070933E1860933D180E946BCE72
:104E20000C94DC3089E690E00E94043D811111C0B1
:104E3000EBEBF3E084918F010F5F1F4F882321F08C
:104E40000E94EF39F801F6CF0E944A4D8AE00E9495
:104E5000EF3910924117109240170C94F63483E505
:104E60000E941539882311F40C94DC300E94933889
:104E7000182F8D3308F01CE3109325170E94684308
:104E80006B017C01212F30E0A8EEB3E00F94DC0E23
:104E9000C60ED71EE81EF91EC0922117D092221707
:104EA000E0922317F09224170C94DC308DE690E00A
:104EB0000E94043D81110C94DC3080913B1483FFEF
:104EC00002C00C94DC3083E50E94153968968FAFE0
:104ED000689781110C94E03182E50E9415398111A7
:104EE0000C94E0310C94DC3080913B1483FF02C0C1
:104EF0000C94DC3060E089EF93E00E94B75483E5C6
:104F00000E94153968968FAF689781110C9472339F
:104F100082E50E94153981110C9472330C94DC30B7
:104F200080E50E941539811108C083E50E9415397A
:104F3000811109C03FEF20E00AC00E94933881111F
:104F40000C94DC30F2CF0E948338362F272F832F2A
:104F5000922F8F3F910519F010F08FEF90E0909312
:104F60004218809341180C94DC3080E50E9415397A
:104F7000811106C010924218109241180C94DC3036
:104F80000E948338672B11F00C94DC30F3CF8CE453
:104F90000E94E638882319F00E94B33804C060E00C
:104FA00070E080E090EC6BAF7CAF8DAF9EAF80E0A7
:104FB00090E0A0E4B0E489839A83AB83BC838D83C3
:104FC0009E83AF83B88780E090E0A0E2B1E4898758
:104FD0009A87AB87BC8788E50E941539882379F0CA
:104FE00088E50E941539882319F00E94B33803C060
:104FF00060E070E0CB0169837A838B839C8389E5D1
:105000000E941539882379F089E50E941539882393
:1050100019F00E94B33803C060E070E0CB016D83EB
:105020007E838F8398878AE50E941539882379F0DB
:105030008AE50E941539882319F00E94B33803C00D
:1050400060E070E0CB0169877A878B879C8718A224
:1050500019A21AA21BA28091421781110C94DC3074
:1050600000E020E0AE01405E5F4FBE016F5F7F4F0A
:10507000CE01CB960E949CBB0C94DC301092F903BD
:105080000C94DC3081E08093F9030C94DC3083E5F0
:105090000E9415398823A1F00E94B33820E030E047
:1050A0004AE754E40F943A0B0F9435106093990239
:1050B00070939A0280939B0290939C020C94DC3034
:1050C00088E50E94E63881110C94D73489E50E9466
:1050D000E63881110C94D7348AE50E94E6388111B4
:1050E0000C94D73485E40E94E63881110C94D734AF
:1050F0000E949C600E94B8B80C94DC3083E50E944A
:10510000E638882311F40C94DC300E94B33820E098
:1051100030E04AE754E40F943A0B0F943510609353
:105120002C1770932D1780932E1790932F170C9494
:10513000DC30D6018D916D010E94E638882309F498
:105140006DC0133009F063C00E94B3384B015C019D
:1051500020E030E040EA51E40F94D50A87FF4EC0CA
:10516000A50194016091791870917A1880917B184B
:1051700090917C180F94C80F2B013C019B01AC014E
:105180006091231870912418809125189091261809
:105190000F943A0B6093231870932418809325186A
:1051A00090932618A30192016091F7177091F81758
:1051B0008091F9179091FA170F943A0B6093F717B3
:1051C0007093F8178093F9179093FA1760919B18D2
:1051D00070919C1880919D1890919E180F94D90AF7
:1051E000A30192010F943A0B0F94351060939B1812
:1051F00070939C1880939D1890939E1880927918B4
:1052000090927A18A0927B18B0927C1807C00E94E6
:10521000B338F70160837183828393831F5FF4E067
:10522000EF0EF11C143009F084CF0E9470F6C4C751
:105230000E949C600E94083EBFC7EFECF4E084919E
:105240008F010F5F1F4F882321F00E94EF39F80173
:10525000F6CF60E08FEB94E00E94583D61E088EB70
:1052600094E00E94583D61E08DEA94E00E94583D30
:1052700061E08DE994E00E94583D60E084E994E0AB
:105280000E94583D61E08AE894E00E94583D60E049
:1052900080E894E00E94583D60E088E794E00E9436
:1052A000583D60E08AE694E00E94583D60E08CE55D
:1052B00094E00E94583D60E08DE494E00E94583DE7
:1052C00061E08FE394E00E94583D61E089E294E060
:1052D0000E94583D60E088E194E00E94583D6CC710
:1052E00085E40E941539882319F00E94A43803C070
:1052F00085E40E94E638882361F0E0ECF0E28491D6
:105300008F010F5F1F4F882321F00E94EF39F801B2
:10531000F6CF81E40E941539882319F00E94A43841
:1053200003C081E40E94E638882361F0E7E9F5E0F4
:1053300084918F010F5F1F4F882321F00E94EF3966
:10534000F801F6CF0091BD181091BE18D8018D91CB
:105350008D01882309F40FCD0E94EF39F7CFE3EBDD
:10536000F5E084918F010F5F1F4F882321F00E9489
:10537000EF39F801F6CFEBEAF5E084918F010F5F8A
:105380001F4F882321F00E94EF39F801F6CF029BCE
:1053900003C004E213E002C009E213E0F8018191C6
:1053A0008F01882319F00E94EF39F8CF8AE00E941C
:1053B000EF39E3EAF5E084918F010F5F1F4F8823F7
:1053C00021F00E94EF39F801F6CF069B03C004E2FA
:1053D00013E002C009E213E0D8018D918D0188230A
:1053E00019F00E94EF39F8CF8AE00E94EF39EBE91B
:1053F000F5E084918F010F5F1F4F882321F00E94F9
:10540000EF39F801F6CF379B03C004E213E002C086
:1054100009E213E0F80181918F01882309F4ABCCF4
:105420000E94EF39F7CF81E080930B1180930A112E
:10543000C3C610920B1110920A11BEC683E50E94DA
:105440001539882319F00E94833802C060E070E0AB
:105450008B01112702301105CCF0E8E0F9E28491CC
:105460008F010F5F1F4F882321F00E94EF39F80151
:10547000F6CFEDECF5E084918F010F5F1F4F88238D
:1054800009F49AC60E94EF39F801F5CF88E40E942A
:1054900015398823A1F00E9483386A3A710534F0E7
:1054A0006B3F71052CF06AEF70E002C06AEA70E0B1
:1054B000F801EE0FFF1FE257FF4E7183608386E411
:1054C0000E9415398823A9F00E948338F801EE0F55
:1054D000FF1FEE56FF4E718360836F3F710519F019
:1054E00014F06FEF70E077FF02C060E070E071834E
:1054F000608382E40E941539882309F45DC60E9406
:1055000083386530710534F06F3671052CF06EE626
:1055100070E002C065E070E0000F111FF801E6576F
:10552000FF4E7183608348C683E50E941539882346
:1055300041F00E9483388B01633071050CF03CC64A
:1055400002C000E010E080E50E941539882341F197
:105550000E94B3386B017C0120E030E0A9010F9478
:10556000D50A87FD1DC02DEB37E346E855EBC70193
:10557000B6010F94121187FD0AC02DEB37E346E800
:1055800055E3C701B6010F94D50A18167CF4A7019C
:10559000960160E070E080E89FE30F94C80F09C0B7
:1055A000C12CD12C7601C701B60103C060E070E0C8
:1055B000CB01F801EE0FFF1FEE0FFF1FEF59FA4F5F
:1055C00060837183828393830115110581F420E048
:1055D00030E048EC52E4C701B6010F943A0B0F9447
:1055E000351070E07093901660938F16E5C501300A
:1055F000110509F0E1C520E030E048EC52E4C701B4
:10560000B6010F943A0B0F94351070E07093921618
:1056100060939116D1C583E50E941539882341F026
:105620000E9483388B01603171050CF0C5C502C042
:1056300000E010E041E6A42E45E0B42EC12CD12CB0
:105640007601D5014D905D906D907D905D012DEBC3
:1056500037E346E855EBC301B2010F94121187FD01
:105660000AC02DEB37E346E855E3C301B2010F94BE
:10567000D50A18165CF4A301920160E070E080E89E
:105680009FE30F94C80F9B01AC0103C020E030E002
:10569000A901C701B6010F94EC0E6B017C01BDE6B8
:1056A000AB16B5E0BB0669F620E030E040E85FE30A
:1056B0000F94EB0E4B015C012DEB37E346E855EB05
:1056C0000F94121187FF03C0EFEEF5E037C02DEB0A
:1056D00037E346E855E3C501B4010F94D50A18161F
:1056E0009CF38CE0809FF001819FF00D1124EB581A
:1056F000FB4F8091610590916205A0916305B09187
:10570000640580839183A283B38380916505909122
:105710006605A0916705B091680584839583A6838B
:10572000B7838091690590916A05A0916B05B0914E
:105730006C0580879187A287B3873EC584915F01FE
:105740002FEFA21AB20A882321F00E94EF39F50147
:10575000F5CFA70196016091610570916205809176
:105760006305909164050F943A0B60936105709303
:1057700062058093630590936405A701960160918B
:1057800065057091660580916705909168050F9495
:105790003A0B609365057093660580936705909357
:1057A0006805A70196016091690570916A0580916D
:1057B0006B0590916C050F943A0B6093690570939B
:1057C0006A0580936B0590936C058BCF83E50E94EF
:1057D000E638882321F00E94A438182F02C01091C7
:1057E000260281E40E941539882351F00E94B338C3
:1057F00060931C0270931D0280931E0290931F02FF
:105800008AE50E941539882351F00E94B3386093CD
:10581000200270932102809322029093230280E55C
:105820000E941539882389F00E94833877FD08C0CB
:105830000E948338653671052CF40E94833803C0BA
:1058400060E001C064E66093240281E50E9415399E
:10585000882389F00E94833877FD08C00E9483382E
:10586000653671052CF40E94833803C060E001C0E6
:1058700064E660932502F090240200912502F01660
:10588000A1F02091200230912102409122025091FA
:10589000230260911C0270911D0280911E02909162
:1058A0001F020F94D50A811101C010E081E080939E
:1058B00026028EE690E09093901680938F16F092D9
:1058C00093160093941680911C0290911D02A09152
:1058D0001E02B0911F028093951690939616A09386
:1058E0009716B09398168091200290912102A09172
:1058F0002202B09123028093991690939A16A09356
:105900009B16B0939C16E7E4F6E084917F013FEF8D
:10591000E31AF30A882321F00E94EF39F701F5CF4B
:1059200010932602112309F44FC040911C0250919C
:105930001D0260911E0270911F0289E396E00E9491
:10594000136A60912402062E000C770B86E396E022
:105950000E9402F58091240204E610E0B801681B61
:10596000710987FD739583E396E00E9402F54091EB
:1059700020025091210260912202709123028BE259
:1059800096E00E94136A60912502062E000C770BA8
:1059900088E296E00E9402F580912502B801681B1A
:1059A000710987FD739585E296E00E9402F5E2E2B7
:1059B000F6E084918F010F5F1F4F882309F4DBC944
:1059C0000E94EF39F801F5CFE3E4F6E084918F010E
:1059D0000F5F1F4F882309F4CEC90E94EF39F801E9
:1059E000F5CF88EC90E00E94043D8111E5C384E48A
:1059F0000E94E6388823C1F10E94B33811E020E00C
:105A000030E0A9010F94D50A811101C010E0109374
:105A1000A50A112349F10E94B338E0916C0944E0D2
:105A2000E49FF0011124EF55F54F60837183828369
:105A3000938320E030E0A9016091A10A7091A20A4D
:105A40008091A30A9091A40A0F94D50A81110CC0E9
:105A500080E090E0A0EEBFE38093A10A9093A20AB9
:105A6000A093A30AB093A40A0E94C9BDA5C32BEFBB
:105A7000E22E27E1F22E06EA12E034E0D32ED00E19
:105A8000D8018D918D010E94E638882349F00E944B
:105A9000B3380F943510F701608371838283938349
:105AA000F4E0EF0EF11CD012EBCF0E9443F584C35B
:105AB000F4E0EF0EF11CD01609F47EC3D8018D91ED
:105AC0008D010E94E638882399F30E94B338F701CC
:105AD0006083718382839383EBCF83E50E94E638F2
