:100000000C94CF180C9400190C9400190C9400193E
:100010000C9400190C9400190C9400190C940019FC
:100020000C9400190C9400190C9400190C940019EC
:100030000C9400190C9400190C9400190C940019DC
:100040000C9400190C94CD830C9400190C94001995
:100050000C9400190C9400190C94B9B60D942A084C
:100060000C9400190C940B310C9400190C94001989
:100070000C9400190C9400190C9400190C9400199C
:100080000C94F58C0C9400190C9400190C94001924
:100090000C9400190C9400190C9400190C9400197C
:1000A0000C9400190C9400190C94C78C0C94001932
:1000B0000C9400190C9400190C9400190C94998C50
:1000C0000C9400190C9400190C9400190C9400194C
:1000D0000C9400190C9400190C9400190C9400193C
:1000E0000C940019EE00DC00CA00BC00F000C8004F
:1000F000EA00F800C400C600EC00E000DA00FA00F4
:10010000C8000201CC00D000FC00E400F200BE00F8
:100110000001C000F400D400E600D800FE00F600A4
:10012000DE00D600C000E800E200C200084AD73B6B
:100130003BCE016E84BCBFFDC12F3D6C74319ABDB6
:1001400056833DDA3D00C77F11BED9E4BB4C3E91DA
:100150006BAAAABE000000803F05A84CCDB2D44EC9
:10016000B93836A9020C50B9918688083CA6AAAACB
:100170002ABE000000803F000D949D060D945A0792
:100180000D94DD070D94D3070D94B8060D94BC06AD
:100190000D94E1060D9499060D94D8060D9457150B
:1001A0000D94DC060D943E180D9476070D94B5075A
:1001B0000D9488070D94CA060D94AA060D94AB07FA
:1001C0000D94C6060D94C9070D944B070D947E0738
:1001D0000D94BF070D94AE060D94C0060D94A706AE
:1001E0000D94A3060D9450070D946E070D949C0773
:1001F0000D94B2060D94CE060D9446070D94920709
:100200000D9464070D94D4064E414E494E495459FD
:10021000494E46CDCCCC3D0AD7233C17B7D13877D1
:10022000CC2B329595E6241FB14F0A0000204100E7
:1002300000C84200401C4620BCBE4CCA1B0E5AAE31
:10024000C59D74434F4D4D554E49434154494F4E02
:100250000044525952554E004552524F5253004994
:100260004E464F004543484F0047322F47332062E8
:10027000616420706172616D65746572730A005308
:100280006C6565702E2E2E00473238205A20466F3E
:100290007262696464656E0A00473238205A2046EB
:1002A0006F7262696464656E00205A3A20002059BA
:1002B0003A200042656420583A20004D657368205A
:1002C000706F696E742063616E6E6F74206265205A
:1002D0007265736F6C7665640A004E6F206D6F7681
:1002E000652E00456E642066696C65206C697374C8
:1002F0000A00426567696E2066696C65206C6973E7
:10030000740A002569730025696D2025697300252D
:1003100069682025696D2025697300256964202599
:1003200069682025696D2025697300256979202574
:100330006964202569682025696D2025697300504E
:1003400072696E742074696D653A200050726F7422
:1003500065637465642050696E0A006F6E2E0A0032
:100360006F66662E0A004732362044656275672044
:100370000045256920257300413130207265616494
:10038000792E0064025F025802510243026F6666D2
:100390000044454255473A004B494C4C45442E20B9
:1003A000004D3131332053006F6B00413130204F0D
:1003B00066662E00454D455247454E43595F5041B4
:1003C0005253455200434153455F4C494748545F9F
:1003D0004252494748544E45535300544F47474CA7
:1003E000455F4C494748545300534F465457415278
:1003F000455F504F574552004255494C445F504568
:100400005243454E54004C4556454C494E475F4477
:10041000415441005A5F50524F4245004155544F9C
:100420004C4556454C005052494E545F4A4F42008D
:1004300050524F4752455353004155544F52455027
:100440004F52545F54454D5000564F4C554D4554F6
:1004500052494300454550524F4D00534552494182
:100460004C5F584F4E5F584F4646004649524D57D5
:100470004152455F4E414D453A4D61726C696E2067
:10048000312E312E3820284769746875622920532F
:100490004F555243455F434F44455F55524C3A6870
:1004A000747470733A2F2F6769746875622E636F66
:1004B0006D2F4D61726C696E4669726D7761726500
:1004C0002F4D61726C696E2050524F544F434F4C08
:1004D0005F56455253494F4E3A312E30204D4143DD
:1004E00048494E455F545950453A413130204558AE
:1004F0005452554445525F434F554E543A3120555E
:100500005549443A63656465326132662D34316120
:10051000322D343734382D396231322D633535631D
:1005200036326633363766660A002F2F20004D318B
:10053000343520533C696E6465783E206F757420B5
:100540006F662072616E67652028302D31290A00A0
:1005500053657474696E672054726176656C2041CE
:100560006363656C65726174696F6E3A20005365F0
:100570007474696E6720526574726163742041639C
:1005800063656C65726174696F6E3A2000536574BF
:1005900074696E67205072696E7420416363656C84
:1005A00065726174696F6E3A200053657474696E88
:1005B00067205072696E7420616E64205472617697
:1005C000656C20416363656C65726174696F6E3A36
:1005D0002000000125272318FF1F211D1CFF1917CC
:1005E0001B1EFFFF0C0409FFFFFF2E2C0CFFFF0456
:1005F000400AFF41FFFFFFFFFFFF206F7574206F70
:10060000662072616E67650A00536572766F20001E
:100610003A200020536572766F200020643A002053
:10062000693A0020703A0043290A0061626C6564EF
:1006300020286D696E2074656D702000436F6C64B6
:100640002065787472756465732061726520004D51
:1006500065736820706F696E742063616E6E6F746D
:10066000206265207265736F6C7665640A004D3494
:10067000323120696E636F727265637420706172CB
:10068000616D657465722075736167650A003A2053
:1006900000207A5F6D696E3A20202D3230207A5F1B
:1006A0006D61783A202032300A0050726F62652006
:1006B0005A204F66667365740043617365206C69E8
:1006C0006768743A2000290A0046697865642070DA
:1006D0006172616D657465722062797465733B2027
:1006E0006372632000466978656420706172616D91
:1006F0006574657220280048565F7365745F6F6B80
:100700000A00416374697665204578747275646582
:10071000723A2000556E6B6E6F776E20636F6D6D51
:10072000616E643A2022004D6573682056616C69E1
:10073000646174696F6E2053746F707065642E000D
:10074000696E206D6F76655F746F28292066656518
:10075000645F76616C756520666F722058593A0047
:100760004C656176696E6720473236004732362025
:1007700048656174696E67204E6F7A7A6C652E00E9
:100780004732362048656174696E67204265642E81
:1007900000446F6E65205072696D696E6700446F2A
:1007A0006E65205072696D696E6700466978656490
:1007B000204C656E677468205072696D652E005517
:1007C0007365722D436F6E74726F6C6C656420502C
:1007D00072696D65002C2065793D0029202D3E2031
:1007E0002865783D002C2073793D0020436F6E6EA4
:1007F000656374696E6720776974682076657274C2
:100800006963616C206C696E65202873783D002CEB
:100810002065793D0029202D3E202865783D002C5B
:100820002073793D0020436F6E6E656374696E6757
:10083000207769746820686F72697A6F6E74616C72
:10084000206C696E65202873783D004C656176697F
:100850006E6720473236002C2079693D0020202029
:10086000446F696E6720636972636C652061743AD6
:10087000202878693D003F53706563696669656447
:1008800020582C5920636F6F7264696E6174652003
:100890006F7574206F6620626F756E64732E0A0028
:1008A0003F28522965706561742076616C756520FA
:1008B0006E6F7420706C61757369626C653B206D3E
:1008C000757374206265206174206C656173742097
:1008D000312E0A003F537065636966696564206E56
:1008E0006F7A7A6C652074656D706572617475726B
:1008F00065206E6F7420706C61757369626C652E13
:100900000A003F5370656369666965642066696CB7
:10091000616D656E742073697A65206E6F742070E6
:100920006C61757369626C652E0A003F5370656374
:100930006966696564207072696D65206C656E67B3
:100940007468206E6F7420706C61757369626C6579
:100950002E0A003F537065636966696564206E6F97
:100960007A7A6C652073697A65206E6F7420706C7A
:1009700061757369626C652E0A003F537065636927
:10098000666965642052657472616374696F6E2074
:100990004D756C7469706C696572206E6F7420702F
:1009A0006C61757369626C652E0A003F52657472E2
:1009B000616374696F6E204D756C7469706C6965E4
:1009C00072206D757374206265207370656369664B
:1009D0006965642E0A003F537065636966696564E2
:1009E000206C6179657220686569676874206E6F34
:1009F0007420706C61757369626C652E0A003F53D8
:100A00007065636966696564206265642074656DFC
:100A10007065726174757265206E6F7420706C61A0
:100A2000757369626C652E0A0047323620636F6DFC
:100A30006D616E6420737461727465642E205761F9
:100A40006974696E6720666F72206865617465728B
:100A50002873292E0A004B494C4C45442E20005344
:100A6000544F505045442E20005072696E74657288
:100A70002073746F707065642064756520746F20D6
:100A80006572726F72732E204669782074686520D3
:100A90006572726F7220616E6420757365204D39C6
:100AA000393920746F20726573746172742E202836
:100AB00054656D706572617475726520697320721A
:100AC000657365742E2053657420697420616674A3
:100AD00065722072657374617274696E67290A00A9
:100AE0004E6F20436865636B73756D20776974681A
:100AF000206C696E65206E756D6265722C204C618C
:100B00007374204C696E653A2000636865636B738B
:100B1000756D206D69736D617463682C204C617311
:100B200074204C696E653A20004C696E65204E75E4
:100B30006D626572206973206E6F74204C617374EE
:100B4000204C696E65204E756D6265722B312C20CC
:100B50004C617374204C696E653A20004D31313020
:100B6000004D333100473238205859005344207229
:100B7000656164206572726F720A00446F6E652051
:100B80007072696E74696E672066696C650A002010
:100B9000496E76616C6964206578747275646572FB
:100BA000200053544F505045442E20005072696E1F
:100BB0007465722073746F7070656420647565204D
:100BC000746F206572726F72732E2046697820747C
:100BD0006865206572726F7220616E64207573653E
:100BE000204D39393920746F2072657374617274C5
:100BF0002E202854656D7065726174757265206968
:100C0000732072657365742E205365742069742097
:100C100061667465722072657374617274696E675F
:100C2000290A0053544F502063616C6C6564206244
:100C3000656361757365206F6620424C546F756300
:100C400068206572726F72202D20726573746172F4
:100C5000742077697468204D3939390A0042696C0B
:100C6000696E656172204C6576656C696E672047B8
:100C70007269643A0A0042656420646F6E652E00F2
:100C800020573A004265642048656174696E672E9A
:100C900000205A3A0020593A0020436F756E7420A4
:100CA000583A0020453A00205A3A0020593A005854
:100CB0003A003A004361703A00205A002059005827
:100CC0000020204D61783A2000205A002059005819
:100CD0000020204D696E3A20004F6E20004F66665E
:100CE00000536F667420656E6473746F70733A207E
:100CF0000020643A0020693A0020703A004B6420DA
:100D00000023646566696E65202044454641554C64
:100D1000545F004B69200023646566696E6520207E
:100D200044454641554C545F004B70200023646598
:100D300066696E65202044454641554C545F00501D
:100D40004944204175746F74756E652066696E69DB
:100D500073686564212050757420746865206C6127
:100D60007374204B702C204B6920616E64204B649F
:100D700020636F6E7374616E74732066726F6D2082
:100D800062656C6F7720696E746F20436F6E666961
:100D90006775726174696F6E2E680A00504944204D
:100DA0004175746F74756E65206661696C65642148
:100DB0002074696D656F75740A00544845524D4141
:100DC0004C2052554E4157415900546865726D612F
:100DD0006C2052756E617761790048656174696E47
:100DE00067206661696C65640048656174696E6757
:100DF000206661696C656400504944204175746FD8
:100E000074756E65206661696C6564212054656D3A
:100E1000706572617475726520746F6F20686967A0
:100E2000680A00204B643A2000204B693A200020D9
:100E30004B703A20000A20436C6173736963205041
:100E40004944200A002054753A2000204B753A206E
:100E500000206D61783A2000206D696E3A200020F4
:100E6000643A200020626961733A20004F66660A86
:100E700000466164652048656967687420004265C2
:100E800064204C6576656C696E6720004661696C0C
:100E9000656420746F20656E61626C6520426564D4
:100EA000204C6576656C696E670A0020706F736907
:100EB00074696F6E206F7574206F662072616E6743
:100EC000652E0A003F50726F626520002028445250
:100ED0005952554E2900473239204175746F2042CE
:100EE0006564204C6576656C696E670028422961EF
:100EF000636B00284629726F6E7400285229696757
:100F0000687400284C29656674003F28562965726C
:100F1000626F7365206C6576656C20697320696DFE
:100F2000706C61757369626C652028302D34292ED0
:100F30000A00426164205A2076616C75650A004E91
:100F40006F2062696C696E65617220677269640AFC
:100F500000526573756D696E67207072696E7400FA
:100F60004131302072656164792E00436C69636B96
:100F700020746F20726573756D652E2E2E00466984
:100F80006C652064656C657465643A0044656C65E5
:100F900074696F6E206661696C65642C2046696CAB
:100FA000653A20006F70656E206661696C65642C1F
:100FB0002046696C653A200048656174696E672057
:100FC000646F6E652E0020573A0045256920257311
:100FD000004131302072656164792E00200D466930
:100FE00078656420706172616D65746572206E62EF
:100FF000797465733B20637263206572726F72202F
:1010000000200D0A466978656420706172616D6523
:101010007465722062797465733B20637263206526
:1010200072726F722000290A002062797465733B26
:101030002063726320004669786564207061726184
:101040006D65746572202800206861726477617232
:10105000652076657273696F6E3A002D2D2D2D2DEA
:101060002D007C4D61726C696E7C002D2D2D2D2D17
:101070002D00687474703A2F2F6D61726C696E6602
:10108000772E6F726700687474703A2F2F6D6172DB
:101090006C696E66772E6F72670020312E312E38A4
:1010A000002020506C616E6E6572427566666572D6
:1010B00042797465733A20002046726565204D655B
:1010C0006D6F72793A2000436F6D70696C65643A98
:1010D000204E6F7620323720323031380A00207CA3
:1010E00020417574686F723A20286E6F6E652C20EF
:1010F00064656661756C7420636F6E666967290A42
:1011000000323031372D31322D32352031323A3004
:101110003000204C61737420557064617465643ACA
:101120002000312E312E380A004D61726C696E003C
:1011300020536F6674776172652052657365740A17
:1011400000205761746368646F672052657365742B
:101150000A002042726F776E206F7574205265739B
:1011600065740A002045787465726E616C20526562
:101170007365740A00506F77657255700A00737456
:101180006172740A006572726F7220777269746995
:101190006E6720746F2066696C650A00456E647323
:1011A000746F7073202563202563202563202563D9
:1011B00000205A3A0020593A0020583A00656E64DF
:1011C00073746F7073206869743A20004732382056
:1011D000580066696C616D656E74206F75740A00E5
:1011E0004D33322053256C7520212573004D333249
:1011F0002053256C7520212F25732F257300473030
:10120000204631303030205A25752E257500473262
:10121000382059004732382058004D3130362020D0
:1012200053323535004D3130392054302053257537
:10123000004D3139302053257500446F6E652073A1
:101240006176696E672066696C652E0A004D3239D9
:101250000000002200250028002B002E0031003461
:101260000002010000050108010B0100002000231D
:1012700000260029002C002F00320000010000038E
:10128000010601090105050505070508080808020A
:101290000202020A0A08080404040401010101010F
:1012A0000101010303030303030303040707070CFE
:1012B0000C0C0C0C0C0C0C020202020606060606B4
:1012C0000606060B0B0B0B0B0B0B0B010210202061
:1012D000080810204010204080020102010804028A
:1012E0000101020408102040808040201008040200
:1012F0000180040201804020100804020108040259
:10130000010102040810204080010204081020405E
:101310008000000A0B02090C0D0E080703040100EF
:1013200000000000000000000000000000000000BD
:10133000000000000000000000000000001211107A
:10134000000000000000000000000000000000009D
:101350000000000000000050726F62696E67206636
:1013600061696C65640A0050726F62696E6720661D
:1013700061696C656400205A3A200020593A2000C7
:1013800042656420583A20005344207072696E749C
:10139000696E67206279746520004E6F7420534433
:1013A000207072696E74696E670A00486F6D6520FF
:1013B000257325732573206669727374002066692E
:1013C0007273740A005A0059005800486F6D652006
:1013D000004D36303020486F74656E6420746F6F36
:1013E00020636F6C6420746F206368616E67652092
:1013F00066696C616D656E740A00290A0020627965
:101400007465733B20637263200053657474696E66
:1014100067732053746F726564202800290A57721D
:101420006974652066696C65206E616D653A20009F
:101430002062797465733B206372632000506F777C
:1014400065726F66662053746F7265642028002091
:10145000213D2000637263206572726F723A200032
:101460000A726561642066696C65206E616D653A1B
:101470002000290A726561642066696C65206469D0
:10148000723A20002062797465733B206372632096
:1014900000706F7765726F66662073746F72656433
:1014A0002073657474696E67732072657472696500
:1014B000766564202800202863616C63756C617414
:1014C000656429210A0020213D2000454550524FE6
:1014D0004D20435243206D69736D61746368202D04
:1014E000202873746F726564292000290A00206225
:1014F000797465733B2063726320002073746F728C
:1015000065642073657474696E67732072657472A4
:101510006965766564202800204D61726C696E3DB6
:10152000563131290A0028454550524F4D3D00455E
:101530004550524F4D2076657273696F6E206D690C
:10154000736D6174636820006F6B0020746F6F208F
:101550006C6F6E6720657874727573696F6E20703A
:10156000726576656E7465640A0020636F6C642032
:10157000657874727573696F6E2070726576656ECA
:101580007465640A00627573793A207061757365D9
:101590006420666F7220696E7075740A00627573DC
:1015A000793A2070617573656420666F7220757377
:1015B00065720A00627573793A2070726F636573A1
:1015C00073696E670A004B494C4C45442E20004B12
:1015D000494C4C2063617573656420627920746F97
:1015E0006F206D75636820696E616374697665202C
:1015F00074696D65202D2063757272656E74206349
:101600006F6D6D616E643A2000506C65617365208A
:101610007265736574005052494E544552204841DA
:101620004C544544005072696E7465722068616C58
:101630007465642E206B696C6C28292063616C6C66
:101640006564210A00000020C10000A0C000000065
:101650000000007042000070420000C04000000026
:10166000005761726E696E673A20486F6D696E67E8
:101670002042756D702044697669736F72203C203A
:10168000310A000202040000A0400000A040000057
:101690000040000066430000614300008243FFFFFA
:1016A000FF416D6178204500416D61782045004122
:1016B0006D6178205A00416D6178205A00416D615A
:1016C00078205900416D6178205900416D61782082
:1016D0005800416D6178205800412D747261766523
:1016E0006C00412D74726176656C00412D726574D9
:1016F0007261637400412D7265747261637400419C
:101700006363656C00416363656C004D6F74696F62
:101710006E0056652D6A65726B0056652D6A65729E
:101720006B0056652D6A65726B00567A2D6A65727C
:101730006B00567A2D6A65726B0056792D6A657258
:101740006B0056792D6A65726B0056792D6A657249
:101750006B0056782D6A65726B0056782D6A65723B
:101760006B0056782D6A65726B004D6F74696F6EF1
:10177000004573746570732F6D6D004573746570EB
:10178000732F6D6D005A73746570732F6D6D005AF1
:1017900073746570732F6D6D005973746570732F5A
:1017A0006D6D005973746570732F6D6D005873748F
:1017B0006570732F6D6D005873746570732F6D6D48
:1017C000004D6F74696F6E0053746570732F6D6D8B
:1017D000004A65726B00416363656C657261746990
:1017E0006F6E0056656C6F63697479005A204F669E
:1017F00066736574005A204F666673657400436FA4
:101800006E74726F6C004F6666004F6E20005275EA
:101810006E6F75742073656E736F72730046696CBA
:101820002E204469612E0046696C2E204469612E89
:10183000004F6666004F6E20004520696E206D6D7A
:101840003300436F6E74726F6C0024F4D43050C355
:101850008E20C2A24017828B7011127A910D816C7A
:10186000D90AA861E108C7586607615143061E4BB3
:101870005D05C145A7041A411104093D980371395A
:1018800031034036DB0265339102D4305402802E9E
:101890001D02632CEE01752AC501B028A001102796
:1018A00081018F2564012B244B01E0223401AC21FE
:1018B0001F018D200D01801FFC00841EED00971D6F
:1018C000DF00B81CD200E61BC600201BBC00641A57
:1018D000B200B219A8000A19A0006A189900D1171D
:1018E000910040178B00B516840031167E00B315A9
:1018F00079003A157300C7146F0058146A00EE138C
:1019000066008813630025135E00C7125B006C122B
:10191000570015125400C111510070114F002111D0
:101920004B00D61049008D104700461044000210AD
:101930004200C00F4000800F3E00420F3C00060FE7
:101940003B00CB0E3800930E37005C0E3500270E9F
:101950003400F30D3200C10D3100900D3000600DE8
:101960002E00320D2D00050D2C00D90C2B00AE0CD5
:101970002900850C29005C0C2700350C27000E0C73
:101980002600E80B2400C40B2400A00B23007D0BD1
:1019900023005A0B2100390B2100180B2000F80AF4
:1019A0001F00D90A1E00BB0A1E009D0A1D00800AE6
:1019B0001D00630A1C00470A1B002C0A1B00110AA9
:1019C0001A00F7091A00DD091900C4091900AB094A
:1019D0001900920917007B091800630917004C09C8
:1019E000160036091600200916000A091500F50828
:1019F0001500E0081400CC081400B8081400A4086E
:101A00001400900813007D0812006B08130058089A
:101A100012004608120034081100230811001208B1
:101A2000110001081100F0071000E0071000D007B6
:101A30001000C0071000B0070F00A10710009107A9
:101A40000E0083070F0074070F0065070E0057078D
:101A50000E0049070E003B070D002E070E00200761
:101A60000D0013070D0006070D00F9060C00ED062A
:101A70000D00E0060C00D4060C00C8060C00BC06E5
:101A80000C00B0060C00A4060B0099060C008D0695
:101A90000B0082060B0077060B006C060B0061063C
:101AA0000A0057060B004C060A0042060A003806D8
:101AB0000A002E060A0024060A001A060A0010066A
:101AC000090007060A00FD050900F4050900EB05F9
:101AD0000900E2050900D9050900D0050900C7057C
:101AE0000900BE050900B5050800AD050800A505FB
:101AF00009009C050800940508008C050800840571
:101B000008007C050800740508006C0507006505E1
:101B100008005D050700560508004E05070047054B
:101B200007004005080038050700310507002A05B1
:101B30000700230507001C050600160507000F0512
:101B400007000805060002050700FB040600F5046F
:101B50000700EE040600E8040600E2040700DB04C8
:101B60000600D5040600CF040600C9040600C3041D
:101B70000600BD040600B7040600B1040500AC046D
:101B80000600A6040600A00405009B0406009504B8
:101B90000500900406008A04050085040500800401
:101BA00006007A04050075040500700405006B0446
:101BB000050066040500610405005C040500570487
:101BC0000500520405004D040500480405004304C7
:101BD00005003E0404003A04050035040500300405
:101BE00004002C04050027040400230405001E043F
:101BF00004001A04040016040500110404000D0476
:101C00000400090405000404040000040400FC03AB
:101C10000400F8030400F4030400F0030400EC03E0
:101C20000400E8030400E4030400E0030400DC0310
:101C30000400D8030400D4030400D0030400CC0340
:101C40000400C8030300C503030024F404D9201BC7
:101C5000C40C5C0E9804C4095F0265077101F405A9
:101C6000F900FB04B30048048700C103690058036E
:101C7000550003034500BE023A00840231005302BE
:101C80002A002902250004022000E4011C00C801EA
:101C90001900AF01170098011400840113007101AD
:101CA00010006101100051010E0043010D003601CA
:101CB0000B002B010B0020010B00150109000C018A
:101CC000090003010800FB000800F3000800EB0016
:101CD0000700E4000600DE000600D8000600D2007F
:101CE0000600CC000500C7000500C2000500BD00CD
:101CF0000400B9000400B5000400B1000400AD0008
:101D00000400A9000400A5000300A20003009F0036
:101D100004009B000300980003009500020093005C
:101D20000300900003008D0002008B000300880078
:101D300002008600020084000300810002007F0090
:101D400002007D0002007B000200790002007700A3
:101D500001007600020074000200720001007100B0
:101D600002006F0002006D0001006C0002006A00BA
:101D700001006900020067000100660001006500C3
:101D800001006400020062000100610001006000C7
:101D900001005F0002005D0001005C0001005B00CB
:101DA00001005A00010059000100580001005700CD
:101DB00001005600010055000100540001005300CD
:101DC00000005300010052000100510001005000CA
:101DD00001004F0001004E0000004E0001004D00C8
:101DE00001004C0001004B0000004B0001004A00C4
:101DF00001004900010048000000480001004700C0
:101E000001004600000046000100450000004500BA
:101E100001004400010043000000430001004200B3
:101E200000004200010041000000410001004000AC
:101E300001003F0000003F0001003E0000003E00A6
:101E400001003D0000003D0001003C0000003C009E
:101E500000003C0001003B0000003B0001003A0094
:101E600000003A000100390000003900010038008C
:101E70000000380000003800010037000000370083
:101E80000100360000003600000036000100350079
:101E9000000035000000350001003400000034006F
:101EA0000000340001003300000033000000330064
:101EB0000100320000003200000032000100310059
:101EC000000031000000310001003000000030004F
:101ED0000000300001002F0000002F0000002F0044
:101EE00000002F0001002E0000002E0000002E0038
:101EF00001002D0000002D0000002D0000002D002D
:101F000001002C0000002C0000002C0000002C0020
:101F100001002B0000002B0000002B0000002B0014
:101F200001002A0000002A0000002A0000002A0008
:101F300001002900000029000000290000002900FC
:101F400000002900010028000000280000002800EF
:101F500000002800000028000100270000002700E2
:101F600000002700000027000000270001002600D5
:101F700000002600000026000000260000002600C9
:101F800001002500000025000000250000002500BC
:101F900000002500000025000100240000002400AE
:101FA00000002400000024000000240001002300A1
:101FB0000000230000002300000023000000230095
:101FC0000000230000002300010022000000220086
:101FD0000000220000002200000022000000220079
:101FE000010021000000210000002100000021006C
:101FF000000021000000210000002100010020005D
:102000000000200000002000000020000000200050
:1020100000002000000020000000200001001F0040
:1020200000001F0000001F0000001F0000001F0034
:1020300000001F0000001F0001001E0000001E0025
:1020400000001E0000001E0000004D383420582003
:1020500059205A2045005A25752C45256C752C5061
:10206000256C752C5425752C4225752C004131307A
:102070002072656164792E004572723A4E6F204677
:10208000696C616D656E7400436172642072656D88
:102090006F766564004361726420696E7365727463
:1020A00065640070012C0190012701B0012201C07C
:1020B000011D01F00118011002130130020E016030
:1020C00002090190020401C002FF000003FA00406F
:1020D00003F5008003F000D003EB002004E600705D
:1020E00004E100E004DC004005D700C005D2004058
:1020F00006CD00D006C8008007C3003008BE00F03F
:1021000008B900C009B400B00AAF00B00BAA00D0F3
:102110000CA500000EA000500F9B00C010960050B0
:1021200012910000148C00C0158700B0178200B017
:10213000197D00D01B7800001E730040206E0090B7
:10214000226900F024640040275F0090295A00E0D3
:102150002B5500102E500020304B0010324600E06E
:1021600033410090353C001037370070383200A002
:10217000392D00B03A2800A03B2300603C1E00101F
:102180003D1900903D1400103E0F00703E0A00C043
:102190003E0500003F0000403FFBFF803FF6FFC0D0
:1021A0003FF1FF001C1F11111F000000061918034A
:1021B000130C00040E1F041C00000000101010106F
:1021C0001010000014141414141400001515151523
:1021D000151500000E1315110E00001C1018170520
:1021E000060500040A0A0A0A11110E0C12120C004C
:1021F000000000001F1511151F0000000000000165
:102200000204040000001C1C0C0404040201000071
:1022100000000004081000000000004D31303420A0
:10222000532575004739322045257500473932203E
:102230005A25752E2575004D3530300043616E638B
:10224000656C207072696E7400526573756D6520DF
:102250007072696E7400506F776572206F7574616B
:1022600067650025753A2530327500253032753A9C
:1022700025303275002D2D2D005344005A00590091
:10228000580057726974696E6720746F2066696CB4
:10229000653A20006F70656E206661696C65642C1C
:1022A0002046696C653A20006F70656E2066616932
:1022B0006C65642C2046696C653A200046696C6543
:1022C0002073656C65637465640A002053697A65E0
:1022D0003A200046696C65206F70656E65643A202F
:1022E000006F70656E206661696C65642C204669BC
:1022F0006C653A20002066696C653A2000646F695D
:102300006E67006672657368004E6F772000454EF9
:102310004420535542524F5554494E450A002220FD
:10232000706F73002220706172656E743A220053E0
:102330005542524F5554494E452043414C4C207410
:1023400061726765743A22004B494C4C45442E201B
:1023500000747279696E6720746F2063616C6C2001
:102360007375622D67636F64652066696C657320A1
:102370007769746820746F6F206D616E79206C6569
:1023800076656C732E204D4158206C6576656C2007
:1023900069733A0053442063617264206F6B0A00D2
:1023A0006F70656E526F6F74206661696C65640A48
:1023B00000766F6C756D652E696E69742066616953
:1023C0006C65640A004572726F723A00534420696A
:1023D0006E6974206661696C0A0020204E6F7A7AFB
:1023E0006C653A20006368616E6765006F662074F3
:1023F00068652066696C616D656E7400576169740B
:1024000020666F72207374617274005052494E548A
:10241000205041555345440020204E6F7A7A6C6518
:102420003A200066696C616D656E7420756E6C6F24
:102430006164005761697420666F72005052494EA2
:1024400054205041555345440020204E6F7A7A6CF9
:10245000653A2000506C6561736520776169742E60
:102460002E2E0048656174696E67206E6F7A7A6CF3
:1024700065005052494E5420504155534544002068
:10248000204E6F7A7A6C653A200068656174206E20
:102490006F7A7A6C652E0050726573732062757462
:1024A000746F6E20746F005052494E542050415545
:1024B0005345440020204E6F7A7A6C653A200074B0
:1024C0006F20636F6E74696E75652E2E2E00616EBF
:1024D0006420707265737320627574746F6E004946
:1024E0006E736572742066696C616D656E74005000
:1024F00052494E54205041555345440020204E6FC0
:102500007A7A6C653A200066696C616D656E74203C
:102510006C6F6164005761697420666F720050527D
:10252000494E54205041555345440020204E6F7A67
:102530007A6C653A200066696C616D656E74206521
:10254000787472756465005761697420666F7200F3
:102550005052494E542050415553454400746F2009
:10256000726573756D65005761697420666F7220BE
:102570007072696E74005052494E54205041555348
:1025800045440043616E6E6F74206F70656E2073FA
:10259000756264697220006175746F25692E670029
:1025A0004D3234004D323320257300656E717565F0
:1025B0007565696E672022006563686F3A00626521
:1025C000640A002C2073797374656D2073746F70C6
:1025D00070656421204865617465725F49443A20E2
:1025E0000048656174696E67206661696C656400A6
:1025F00048656174696E67206661696C656400484E
:10260000656174696E67206661696C656400486520
:102610006174696E67206661696C65640054484541
:10262000524D414C2052554E415741590054686516
:10263000726D616C2052756E6177617900457272BE
:102640003A204D494E54454D502042454400457274
:10265000723A204D494E54454D50004D494E544517
:102660004D502074726967676572656400457272C7
:102670003A204D415854454D502042454400457242
:10268000723A204D415854454D50004D41585445E3
:102690004D502074726967676572656400202F0071
:1026A0002042403A0020403A0053746F7720424C59
:1026B000546F756368004D323830205030205339E4
:1026C00030004465706C6F7920424C546F756368BC
:1026D000004D3238302050302053313000424C54BD
:1026E0006F7563682053656C662D54657374004D77
:1026F000323830205030205331323000526573650B
:102700007420424C546F756368004D32383020504D
:10271000302053313630004D61696E005072696E61
:1027200074207061757365640000257300507269D0
:102730006E742061626F72746564004E6F20534442
:102740002063617264005072696E742066726F6DEE
:102750002053440053746F70207072696E7400527D
:102760006573756D65207072696E740041626F7576
:1027700074205072696E74657200506175736520C3
:102780007072696E7400436F6E74726F6C00507279
:1027900065706172650054756E6500496E666F20E4
:1027A00073637265656E004261627973746570204F
:1027B0005A004D363030204230004368616E676504
:1027C0002066696C616D656E740042616279737434
:1027D0006570205A00466C6F7700466C6F77004634
:1027E0006C6F770046616E207370656564004661AA
:1027F0006E2073706565640046616E207370656558
:1028000064004265640042656400426564004E6F86
:102810007A7A6C65004E6F7A7A6C65004E6F7A7AC0
:102820006C650053706565640053706565640053A2
:1028300070656564004D61696E0043616E6E6F7412
:1028400020656E746572207375626469723A200047
:10285000052E2E004D61696E004D61782054656D26
:10286000703A20313530004D696E2054656D703AF4
:10287000203500544265643A4550434F532031306F
:10288000304B004D61782054656D703A20323735F9
:10289000004D696E2054656D703A20350054303A11
:1028A000204550434F53203130304B005053553A60
:1028B0002047656E657269630050726F746F636F55
:1028C0006C3A20312E3000202020204857205665B9
:1028D000723A2056004657205665723A2056312EDD
:1028E0003100426175643A20323530303030004773
:1028F00054323536302056332E300042696C696EC2
:10290000656172204C6576656C696E670045787408
:102910007275646572733A203100687474703A2F6E
:102920002F6D61726C696E66772E6F726700413130
:102930003000323031372D31322D32352031323ABC
:10294000303000312E312E38004D61726C696E00CE
:10295000546865726D6973746F727300426F61724F
:102960006420496E666F005072696E74657220490A
:102970006E666F004D61696E0020204E6F7A7A6C32
:10298000653A20004261636B004D696E696D756D3B
:102990002054656D70206973203137302E004865F2
:1029A0006174696E67206661696C6564004578745E
:1029B00072756465206D6F726500526573756D6523
:1029C000207072696E7400524553554D45204F502A
:1029D00054494F4E533A00507265686561742050F7
:1029E0004C4120456E6400507265686561742050EA
:1029F0004C412042656400507265686561742050E6
:102A00004C41005072657061726500507265686576
:102A100061742041425320456E64005072656865C0
:102A200061742041425320426564005072656865BC
:102A300061742041425300507265706172650042BA
:102A400061636B004E65787420636F726E6572000F
:102A50004D323830205030205331363000424C5403
:102A60006F7563682053656C662D54657374004DF3
:102A70003238302050302053313230005072656887
:102A8000656174204142530050726568656174202D
:102A9000504C4100436F6F6C646F776E0043686108
:102AA0006E67652066696C616D656E740052657352
:102AB000657420424C546F756368004469736162A9
:102AC0006C65207374657070657273004D383400E6
:102AD0004C6576656C20636F726E6572730042653B
:102AE00064204C6576656C696E67004732380A472A
:102AF0003239004175746F20686F6D650047323858
:102B0000004D6F76652061786973004D61696E00D4
:102B10007C3C3E5E2B3D3F2F5B5D3B2C2A225C00C4
:102B20004D33303320553120452569205325690028
:102B3000507265686561742041425320636F6E6610
:102B4000005072656865617420504C4120636F6E5F
:102B50006600504944204175746F74756E6500506D
:102B60004944204175746F74756E65005049442066
:102B70004175746F74756E65005049442D44005062
:102B800049442D44005049442D49005049442D49A1
:102B9000005049442D50005049442D50002002203F
:102BA00046616374002002204661637400200220A5
:102BB0004D6178002002204D6178002002204D6197
:102BC00078002002204D696E002002204D696E00C1
:102BD0002002204D696E004F6666004F6E20004156
:102BE00075746F74656D700046616E2073706565F5
:102BF000640046616E2073706565640046616E20F6
:102C000073706565640042656400426564004265F6
:102C100064004E6F7A7A6C65004E6F7A7A6C65004C
:102C20004E6F7A7A6C6500436F6E74726F6C0053EE
:102C3000746F72652073657474696E6773004265A2
:102C4000640042656400426564004E6F7A7A6C6588
:102C5000004E6F7A7A6C65004E6F7A7A6C6500462A
:102C6000616E2073706565640046616E20737065E7
:102C700065640046616E2073706565640054656D1F
:102C80007065726174757265005654726176206D5C
:102C9000696E005654726176206D696E00565472EA
:102CA0006176206D696E00566D696E00566D696EB5
:102CB00000566D696E00566D6178204500566D6155
:102CC00078204500566D6178204500566D6178206A
:102CD0005A00566D6178205A00566D6178205A006E
:102CE000566D6178205900566D6178205900566DF7
:102CF0006178205900566D6178205800566D6178D2
:102D0000205800566D61782058004D6F74696F6EC1
:102D10000020746F6F206C6F6E6720657874727519
:102D200073696F6E2070726576656E7465640A00F3
:102D300020636F6C6420657874727573696F6E20A0
:102D400070726576656E7465640A004861726463CA
:102D50006F6465642044656661756C7420536574A6
:102D600074696E6773204C6F616465640A00881330
:102D700000008813000032000000881300000000EB
:102D8000C8430000C8430000C843000034429A9979
:102D9000A0429A99A1420000C8430000BA422020F4
:102DA0004D383531205A005A2D50726F6265204FD0
:102DB000666673657420286D6D293A0A0020440008
:102DC00020490020204D3330342050002044002082
:102DD000490020204D3330312050005049442073A9
:102DE000657474696E67733A0A00204600204200D9
:102DF00020480020204D3134352053004D6174654A
:102E00007269616C206865617475702070617261AF
:102E10006D65746572733A0A00205A0020204D34A3
:102E200032302053004175746F20426564204C6538
:102E300076656C696E673A0A00204500205A0020CA
:102E4000590020580020420020540020204D3230EC
:102E500035205300416476616E6365643A20533CCB
:102E60006D696E5F66656564726174653E20543C91
:102E70006D696E5F74726176656C5F6665656472BC
:102E80006174653E20423C6D696E5F7365676D6578
:102E90006E745F74696D655F75733E20583C6D613B
:102EA000785F78795F6A65726B3E205A3C6D617815
:102EB0005F7A5F6A65726B3E20453C6D61785F6545
:102EC0005F6A65726B3E0A00205400205200202089
:102ED0004D323034205000416363656C657261741B
:102EE000696F6E2028756E6974732F7332293A20CA
:102EF000503C7072696E745F616363656C3E205212
:102F00003C726574726163745F616363656C3E20DB
:102F1000543C74726176656C5F616363656C3E0AF4
:102F200000204500205A0020590020204D32303129
:102F30002058004D6178696D756D20416363656C43
:102F400065726174696F6E2028756E6974732F7372
:102F500032293A0A00204500205A0020590020203A
:102F60004D3230332058004D6178696D756D2066A3
:102F700065656472617465732028756E6974732F5A
:102F800073293A0A00204500205A002059002020C9
:102F90004D3932205800537465707320706572206B
:102FA000756E69743A0A0020204D3230302044306A
:102FB0000A0020204D3230302044002044697361E3
:102FC000626C65640A0046696C616D656E7420739D
:102FD000657474696E67733A0020204D313439206E
:102FE00043203B20556E69747320696E2043656CE5
:102FF000736975730A002020473231202020203B5E
:1030000020556E69747320696E206D6D0A004D6FD6
:1030100076652058004D6F76652059004D6F7665B6
:10302000205A004578747275646572004D6F76653C
:1030300020302E316D6D004D6F766520316D6D0045
:103040004D6F76652031306D6D004D6F7665206176
:1030500078697300486F74656E6420746F6F2063C5
:103060006F6C64004578747275646572004D6F769C
:1030700065205A004D6F76652059004D6F766520AA
:1030800058004578747275646572004D6F766520DE
:103090005A004D6F76652059004D6F7665205800B7
:1030A0005072657061726500496E697469616C691E
:1030B0007A6520454550524F4D00436F6E74726FD4
:1030C0006C00526573746F7265206661696C736120
:1030D0006665004C6F61642073657474696E677314
:1030E00000496E697469616C697A65204545505282
:1030F0004F4D0053746F72652073657474696E6709
:103100007300424C546F7563680046696C616D656D
:103110006E74004D6F74696F6E0054656D706572EA
:103120006174757265004D61696E004572726F72EF
:103130002077726974696E6720746F20454550521C
:103140004F4D210A007A5F6D696E3A2000795F6DFC
:10315000696E3A2000785F6D696E3A2000526570A2
:103160006F7274696E6720656E6473746F7020731C
:1031700074617475730A0000002100240027002A7E
:10318000002D003000330001010000040107010A96
:1031900001526573656E643A2000D200CE0011249E
:1031A0001FBECFEFD1E2DEBFCDBF00E00CBF13E00A
:1031B000A0E0B2E0E8E7FEE402E00BBF02C0079047
:1031C0000D92AC3CB107D9F727E1ACECB3E001C0FC
:1031D0001D92AA31B207E1F718E1CEECD8E100E088
:1031E00006C021970109802FFE010F94A026CD3C37
:1031F000D10780E00807A9F70F94390D0D942B270C
:103200000C9400002F923F924F925F926F927F92A8
:103210008F929F92AF92BF92CF92DF92EF92FF92E6
:103220000F931F93CF93DF93CDB7DEB7C356D1096A
:103230000FB6F894DEBF0FBECDBF81E090E0909353
:10324000650980936409809191168D3411F40C9472
:103250007022843511F40C94FD2E873421F0E8EBB4
:10326000F5E20C943F2F20908F16309090162BE1B2
:103270002216310409F4D6C5E4F444E024163104DE
:103280004CF452E0251631040CF043C037FE3AC02E
:103290000C94572F84E02816310409F47CC59AE178
:1032A0002916310411F00C94572F0E9428330C94E6
:1032B000572FAAE22A16310411F40C94B32174F4A6
:1032C000EDE12E16310409F486C70CF4D7C52EE1C2
:1032D0002216310409F483C70C94572F3BE52316BB
:1032E000310409F4EBC74CE52416310409F4EBC7AB
:1032F0005AE52516310411F00C94572F1092D10382
:103300000C94572F80916E0281110C945E2F0C94B7
:10331000572F80916E02882311F40C94572F0E942E
:10332000195382E50E94CA31882309F43EC10E94E4
:1033300064314B015C0120E030E0A9010F94591F7A
:10334000882309F462C18091B9119091BA11A091BA
:10335000BB11B091BC1188AB99ABAAABBBAB2091B0
:10336000BD113091BE114091BF115091C0112CABD5
:103370003DAB4EAB5FAB80914D0F90914E0FA09146
:103380004F0FB091500F24968CAF9DAFAEAFBFAF33
:1033900024972091510F3091520F4091530F50912B
:1033A000540F28AF39AF4AAF5BAF9C01AD0168A99C
:1033B00079A98AA99BA90F94591F81110DC028AD25
:1033C00039AD4AAD5BAD6CA97DA98EA99FA90F94BB
:1033D000591F882309F419C111E032E02316310482
:1033E00009F010E020E030E0A901C501B4010F941C
:1033F000591F881F8827881F181759F080E090E010
:10340000A0E8BFEB2C968CAF9DAFAEAFBFAF2C97B3
:103410000AC020E030E040E85FE32C962CAF3DAFDF
:103420004EAF5FAF2C9728A939A94AA95BA924966A
:103430006CAD7DAD8EAD9FAD24970F94A4236CAF82
:103440007DAF8EAF9FAF2CA93DA94EA95FA968ADF6
:1034500079AD8AAD9BAD0F94A4236B017C012CAD9B
:103460003DAD4EAD5FADCA01B9010F94BE1F2B013A
:103470003C01A7019601C701B6010F94BE1F9B0135
:10348000AC01C301B2010F94A5230F941026289616
:103490006CAF7DAF8EAF9FAF289720E030E040E06B
:1034A0005FE30F94BE1F2B013C01A5019401C501F0
:1034B000B4010F94BE1F4B015C01A3019201C30133
:1034C000B2010F94BE1F9B01AC01C501B4010F9462
:1034D000A4230F9410262C962CAD3DAD4EAD5FADC0
:1034E0002C970F94BE1F4B015C01C701B601905889
:1034F00028962CAD3DAD4EAD5FAD28970F9481243D
:10350000A50194010F94BE1F6B017C0124962CAD84
:103510003DAD4EAD5FAD249768A979A98AA99BA955
:103520000F94A52320E030E040E05FE30F94BE1F3E
:103530009B01AC01C701B6010F94A52328A939A9A5
:103540004AA95BA90F94A4236B017C0128AD39AD76
:103550004AAD5BAD6CA97DA98EA99FA90F94A52347
:1035600020E030E040E05FE30F94BE1F2B013C0100
:1035700028962CAD3DAD4EAD5FAD28976CAD7DADC1
:103580008EAD9FAD0F948124A50194010F94BE1FB1
:103590009B01AC01C301B2010F94A5232CA93DA945
:1035A0004EA95FA90F94A42314C089E40E94CA31D4
:1035B000882329F00E9464316B017C0103C0C12C77
:1035C000D12C76018AE40E94CA31882309F10E9435
:1035D000643124966CAF7DAF8EAF9FAF249720E00F
:1035E00030E0A901C701B6010F94591F81111FC016
:1035F00020E030E0A90124966CAD7DAD8EAD9FAD8D
:1036000024970F94591F811112C0E5ECF3E2AFC368
:1036100020E030E0A901C701B6010F94591F8823AB
:10362000A1F324961CAE1DAE1EAE1FAE2497D7018B
:10363000C601B05888AB99ABAAABBBAB24962CADF6
:103640003DAD4EAD5FAD249750582CAB3DAB4EAB6E
:103650005FAB9C01AD01BC01CD010F94BE1F4B01BE
:103660005C012CA93DA94EA95FA9CA01B9010F941B
:10367000BE1F9B01AC01C501B4010F94A5230F949B
:10368000102668966CAF7DAF8EAF9FAF6897809124
:10369000B9119091BA11A091BB11B091BC1188AF32
:1036A00099AFAAAFBBAFA7019601BC01CD010F94A2
:1036B000A5232C966CAF7DAF8EAF9FAF2C9720913A
:1036C000BD113091BE114091BF115091C01128968B
:1036D0002CAF3DAF4EAF5FAF289724962CAD3DADDC
:1036E0004EAD5FAD249728966CAD7DAD8EAD9FAD90
:1036F00028970F94A5236C966CAF7DAF8EAF9FAFCC
:103700006C9780914D0F90914E0FA0914F0FB091FB
:10371000500F60968CAF9DAFAEAFBFAF60972C9649
:103720002CAD3DAD4EAD5FAD2C97BC01CD010F94DE
:10373000A4236B017C012091510F3091520F4091D5
:10374000530F5091540F64962CAF3DAF4EAF5FAF07
:1037500064976C962CAD3DAD4EAD5FAD6C976496A5
:103760006CAD7DAD8EAD9FAD64970F94A4234B01DE
:103770005C018091C1119091C211A091C311B091CF
:10378000C411A0968CAF9DAFAEAFBFAFA0979C0108
:10379000AD016091550F7091560F8091570F909128
:1037A000580F0F94A4236CAF7DAF8EAF9FAFA701CE
:1037B000960168A979A98AA99BA90F94BE1F2B011C
:1037C0003C01A50194016CA97DA98EA99FA90F9424
:1037D000BE1F9B01AC01C301B2010F94A5232B01B5
:1037E0003C01A501940168A979A98AA99BA90F9414
:1037F000BE1F4B015C01A70196016CA97DA98EA992
:103800009FA90F94BE1F9B01AC01C501B4010F9489
:10381000A423A30192010F9418246B017C0120E0E2
:1038200030E0A9010F94591F87FF0AC02BED3FE03C
:1038300049EC50E4C701B6010F94A5236B017C014C
:1038400092E02916310451F42BED3FE049EC50E4AD
:10385000C701B6010F94A4236B017C0120E030E086
:10386000A901C701B6010F94591F811126C06096A6
:103870002CAD3DAD4EAD5FAD609768AD79AD8AAD15
:103880009BAD0F94591F811118C064962CAD3DADAE
:103890004EAD5FAD649728966CAD7DAD8EAD9FAD9E
:1038A00028970F94591F811108C04BEDC42E4FE08B
:1038B000D42E49ECE42E40E4F42EA701960168963C
:1038C0006CAD7DAD8EAD9FAD68970F94BE1F9B0113
:1038D000AC010F94BE1F4B015C012CAD3DAD4EAD54
:1038E0005FADCA01B9010F94BE1F9B01AC01C501B8
:1038F000B4010F94A5230F9410264B015C012FE611
:1039000032E143E85AE30F94591F87FD29C2C501EC
:10391000B4010F941A250F94EE2426967FAF6EAF54
:103920002697DB01AB2B31F4E1E0F0E02696FFAF08
:10393000EEAF26974090C5115090C6116090C71108
:103940007090C81126962EAD3FAD2697B90180E044
:1039500090E00F945D1F4B015C019B01AC01C7011E
:10396000B6010F94812468AF79AF8AAF9BAFA501F0
:1039700094016CAD7DAD8EAD9FAD0F9481246896A2
:103980006CAF7DAF8EAF9FAF6897A301920160913E
:10399000590F70915A0F80915B0F90915C0F0F94AB
:1039A000A423A50194010F948124A4966CAF7DAF4C
:1039B0008EAF9FAFA49728AD39AD4AAD5BADCA01BC
:1039C000B9010F94BE1F20E030E040E05FE30F94A8
:1039D000BE1F9B01AC0160E070E080E89FE30F94A4
:1039E000A42360966CAF7DAF8EAF9FAF6097A0961B
:1039F0008CAD9DADAEADBFADA09789879A87AB87E3
:103A0000BC874D865E866F86788A60917A02709157
:103A10007B02072E000C880B990B0F945F1F2091DF
:103A200015023091160240911702509118020F941E
:103A3000BE1F2AE037ED43E25CE30F94BE1F6CA784
:103A40007DA78EA79FA70F941E089B01AC0128534A
:103A50003F4F4F4F5F4F64962CAF3DAF4EAF5FAFC0
:103A6000649748A859A86AA87BA822242394312CDB
:103A700039E13CAF26964EAD5FAD26974215530512
:103A800009F433C10E9472B90F941E08DC01CB0106
:103A900064962CAD3DAD4EAD5FAD6497821B930B2C
:103AA000A40BB50BB7FD11C00F941E089B01AC0110
:103AB00028533F4F4F4F5F4F64962CAF3DAF4EAFF3
:103AC0005FAF649780E00E946A733CAD31503CAFB9
:103AD000332309F441C02CA93DA94EA95FA96096E2
:103AE0006CAD7DAD8EAD9FAD60970F94BE1F6B0129
:103AF0007C019201A30168AD79AD8AAD9BAD0F94B5
:103B0000BE1FA70196010F94A5237B018C01920192
:103B1000A30160966CAD7DAD8EAD9FAD60970F94A7
:103B2000BE1F4B015C012CA93DA94EA95FA968AD40
:103B300079AD8AAD9BAD0F94BE1F9B01AC01C50151
:103B4000B4010F94A4232B013C01C701D8018CAB15
:103B50009DABAEABBFAB51C0B10180E090E00F9424
:103B60005D1F28AD39AD4AAD5BAD0F94BE1F4B0153
:103B70005C010F947E246B017C01C501B4010F949C
:103B800006264B015C01A701960168A979A98AA9BB
:103B90009BA90F94BE1F2B013C0124962CAD3DAD7B
:103BA0004EAD5FAD2497C501B4010F94BE1FA301B4
:103BB00092010F94A5232B013C01A501940168A952
:103BC00079A98AA99BA90F94BE1F4B015C01249679
:103BD0002CAD3DAD4EAD5FAD2497C701B6010F943E
:103BE000BE1F9B01AC01C501B4010F94A4236CABB3
:103BF0007DAB8EAB9FAB49E14CAF9201A3012C96FC
:103C00006CAD7DAD8EAD9FAD2C970F94A5236983D0
:103C10007A838B839C832CA93DA94EA95FA96C96BE
:103C20006CAD7DAD8EAD9FAD6C970F94A5236D836C
:103C30007E838F83988768962CAD3DAD4EAD5FAD8A
:103C4000689769857A858B859C850F94A5236987FC
:103C50007A878B879C87A4962CAD3DAD4EAD5FAD2A
:103C6000A4976D857E858F8598890F94A5236D8790
:103C70007E878F87988B80917C02882321F0CE01EC
:103C800001960E949772E090F41589819A81AB8128
:103C9000BC8188A399A3AAA3BBA38D819E81AF8178
:103CA000B8858CA39DA3AEA3BFA389859A85AB8558
:103CB000BC8588A799A7AAA7BBA7CE0180960E941A
:103CC0006F428E01045D1F4F9E01235F3F4FAE0187
:103CD000485D5F4FBE016C5D7F4FCE0180960F94B3
:103CE0006F015FEF251A350AC5CEE090F41580917B
:103CF0004D0F90914E0FA0914F0FB091500F88A390
:103D000099A3AAA3BBA38091510F9091520FA091A8
:103D1000530FB091540F8CA39DA3AEA3BFA380916A
:103D2000550F9091560FA091570FB091580F88A73B
:103D300099A7AAA7BBA7CE0180960E946F428E01C9
:103D4000045D1F4F29E53FE0AE01485D5F4FBE01B6
:103D50006C5D7F4FCE0180960F946F010E941E33E1
:103D60000E9477420C94572F0E94BA42F801849126
:103D70008F010F5F1F4F8111F7CFE9E6F2E08491C9
:103D80008F010F5F1F4F882311F40C94572F0E944F
:103D9000BA42F801F4CF80E50E94CA31882329F0A5
:103DA0000E9450426B017C0103C0C12CD12C7601D2
:103DB00083E50E94CA31882361F00E94643120E0CB
:103DC00030E04AE754E40F94BE1F0F94EE246B01D9
:103DD0007C010E940EBD80913102811105C060E01E
:103DE0008FE792E00E941B930E94774280916E09B8
:103DF00090916F09A0917009B0917109C80ED91EF8
:103E0000EA1EFB1E0F941E08DC01CB018C199D09D4
:103E1000AE09BF09B7FD02C00C94572F80E00E9485
:103E20006A73F0CF0E94165E81110C94572F80E0C8
:103E300090E0A0E4B0E489839A83AB83BC838D8354
:103E40009E83AF83B88780E090E0A0E2B1E48987E9
:103E50009A87AB87BC8780E50E94CA31882319F016
:103E60000E94343101C060E068A3BE016F5F7F4FE4
:103E7000CE0180960F94E2040C94572F0E940EBD41
:103E800080E00E94E8410E949B4281E080931812EA
:103E900088E50E949B31F82E89E50E949B31082F0E
:103EA0008AE50E949B31E82EF11005C0011105C082
:103EB00011E0182705C0011102C010E001C0182F41
:103EC0000E94D631111105C0F11003C0002309F47E
:103ED0000CC180E090E0A0E8B0E48093550F90938F
:103EE000560FA093570FB093580F9C01AD016091EE
:103EF000C1117091C2118091C3119091C4110F949E
:103F0000591F87FF0BC019821A821B821C82BE01B7
:103F10006F5F7F4F85E59FE00E94444011110EC006
:103F2000F11003C00111DBC0E0C0011107C080E047
:103F300090E00E946E711123A9F3D1C01092BD11BF
:103F40001092BE111092BF111092C0111092B911AF
:103F50001092BA111092BB111092BC110E94A14193
:103F6000EEE9F6E184918CABE2E9F6E1859095907B
:103F7000A590B490E6E9F6E145905590659074906F
:103F8000A5019401C301B2010F94591F87FF05C019
:103F9000A5019401C301B20104C0A3019201C501AE
:103FA000B4010F94812468AB79AB8AAB9BAB81E5FC
:103FB000C82E86E1D82EF601659175918591949170
:103FC00025E5222E26E1322EF101259135914591EC
:103FD00054910F94591F87FF02C0F60101C0F101EF
:103FE00085919591A591B491D82EC92E3A2E2B2E5C
:103FF00028A939A94AA95BA9CA01B9010F94BE1F12
:1040000020E030E040E85FE30F94A5230F941026F2
:104010002D2D3C2D432D522D0F94BE1F6CA77DA737
:104020008EA79FA7EFE9F6E1D49020E030E040ECC6
:104030005FE3C301B2010F94BE1F2B013C016D2D44
:10404000DD0C770B880B990B0F945F1F9B01AC0164
:10405000C301B2010F94BE1F69837A838B839C8353
:1040600020E030E040EC5FE3C501B4010F94BE1FD7
:104070004B015C01ACA96A2FAA0F770B880B990B37
:104080000F945F1F9B01AC01C501B4010F94BE1FCB
:1040900068A379A38AA39BA39E01245D3F4F41ECB3
:1040A00051E1BE016F5F7F4FCE0180960E94583F65
:1040B000109204091092BD111092BE111092BF11FE
:1040C0001092C0111092B9111092BA111092BB1136
:1040D0001092BC1111112BCFF11029CF23CF81E009
:1040E00090E00E946E71111103C0EE2009F464C0CB
:1040F0008091EA04882321F08091EB0481111FC094
:1041000060E089E992E00E941B93E8EBF5E284917C
:104110008F010F5F1F4F811103C0E8E8F2E004C078
:104120000E94BA42F801F3CF84918F010F5F1F4FB5
:10413000882309F441C00E94BA42F801F5CF0E94D9
:10414000A14180E090E0ACEDB2E48093510F9093F8
:10415000520FA093530FB093540F8091C1119091BF
:10416000C211A091C311B091C4118093550F9093C7
:10417000560FA093570FB093580F80E090E0A3E143
:10418000B3E480934D0F90934E0FA0934F0FB093D5
:10419000500F19821A821B821C829E012F5F3F4F93
:1041A00041EC51E161E57FE08DE49FE00E94583FE2
:1041B00082E090E00E946E710E94A14180911712EE
:1041C000809318120E94824283E080930E020E9424
:1041D000E8470C94572F0E94BD540C94572FC09061
:1041E000B911D090BA11E090BB11F090BC1188E5E4
:1041F0000E94CA31811109C020E030E044E152E45C
:10420000C701B6010F94A42302C00E94643168A3C1
:1042100079A38AA39BA3C090BD11D090BE11E0905A
:10422000BF11F090C01189E50E94CA31811108C008
:1042300020E030E0A901C701B6010F94A52302C018
:104240000E9464316B017C0169837A838B839C8338
:1042500088A099A0AAA0BBA02FE632E143E85AEBC0
:10426000C501B4010F94CB2587FF02C00C94572FD2
:1042700022E430E047E353E4C501B4010F94591F31
:10428000181614F40C94572F2FE632E143E85AEB3A
:10429000C701B6010F94CB2587FF02C00C94572F9E
:1042A00022E430E04CE553E4C701B6010F94591FF6
:1042B000181614F40C94572F0C94632F81E08093FC
:1042C000D1030C94572F0E940EBDA3E92A2EA2E021
:1042D0003A2EB9EBEB2EB1E1FB2E00E0D12C10E031
:1042E000F10181911F010E94CA31882351F10E947E
:1042F00064312B013C01D7012D913D914D915C9191
:104300000F94A4234B015C012DEB37E346E855EBFA
:104310000F94CB2587FD0AC02DEB37E346E855E324
:10432000C501B4010F94591F18165CF4133011F431
:1043300001E002C0DD24D394F70140825182628201
:1043400073821F5FF4E0EF0EF11C143049F6DD209C
:1043500019F00E94A14103C001110E9474B00E9493
:10436000E8470C94572F80916E02882311F40C9427
:10437000572F89E40E94CA31182F882321F00E9408
:104380003431E62E01C0E12C8AE40E94CA31F82EB5
:10439000882321F00E943431062F01C000E0112350
:1043A00019F022E02E1520F0FF2081F0033070F08C
:1043B000EBEBF2E084918F010F5F1F4F882311F424
:1043C0000C94572F0E94BA42F801F4CF0E94D631C4
:1043D0001123F1F020915809309159094E2D4203D3
:1043E000B001439F700D112480915409909155099B
:1043F000680F791F072E000C880B990B0F945F1F15
:1044000060934D0F70934E0F80934F0F9093500F0A
:10441000FF20E9F020915A0930915B090203B001B5
:10442000039F700D11248091560990915709680FD0
:10443000791F072E000C880B990B0F945F1F609358
:10444000510F7093520F8093530F9093540F80E548
:104450000E94CA31882319F00E94553103C080E5BB
:104460000E949B318823C1F01123B1F020E030E09D
:1044700044E152E460914D0F70914E0F80914F0FC7
:104480009091500F0F94A52360934D0F70934E0F92
:1044900080934F0F9093500F86E40E94CA31882377
:1044A000D9F00E9464316B017C0120E030E0A90169
:1044B0000F94CB25181684F420E030E040E752E456
:1044C000C701B6010F948124609315027093160200
:1044D00080931702909318020E94D1750C94572F65
:1044E00080918F16909190168637910509F4BAC67F
:1044F0000CF0D5C08C34910509F4CCC30CF05EC02F
:104500008931910509F43FC25CF58431910509F4C4
:10451000CCC194F48131910509F4CAC144F40297E5
:1045200010F00C94572F0E9471520C94572F429701
:1045300009F473C50C94572F8631910509F407C20D
:104540000CF401C28731910509F407C2489711F0B4
:104550000C94572F0E941FA00E94BF5E0C94572FEF
:104560008F31910509F47BC294F48B31910509F4E4
:104570001EC20CF40EC28C31910509F41CC24E9778
:1045800011F00C94572F0E94D75A0C94572F8A324F
:10459000910509F41AC32CF4809709F416C20C94FF
:1045A000572F8133910509F450C38B34910511F0D5
:1045B0000C94572F0E94BF5E0C94572F8A3691059A
:1045C00009F4DBC4B4F58435910509F426C5E4F497
:1045D0008135910509F404C54CF48D34910511F031
:1045E0000C94572F0E944EAF0C94572F8235910593
:1045F00009F410C58335910511F00C94572F81E013
:104600008093D0030C94572F8C35910509F44BC53A
:1046100034F48535910509F42DC50C94572F88364F
:10462000910509F43BC38936910509F45EC40C94E5
:10463000572F8F36910509F496C384F48C36910573
:1046400009F404C40CF4BCC48D36910509F48FC47C
:104650008E36910509F474C30C94572F8237910557
:1046600009F4AAC554F48037910509F4F3C38137DE
:10467000910509F4F3C30C94572F8337910509F47E
:1046800011C18537910511F00C94572F60E080918E
:104690008D1690918E160E943D930C94572F8E325A
:1046A00051E0950711F40C94F52C0CF06EC08B3C86
:1046B000910509F4FAC6A4F58139910509F41FC6DC
:1046C00084F48837910509F40FC60CF40AC68937BB
:1046D000910509F40FC68C38910509F4EBC30C94CD
:1046E000572F8E3B910509F445C434F48B3991055D
:1046F00009F418C40C94572F883C910509F472C62C
:10470000893C910511F00C94572F93E9E92E92E022
:10471000F92E0AEB19E02AECC22E29E0D22EAFC600
:104720008D3D910509F4ABC784F48D3C910509F4E6
:104730003AC70CF4D6C6833D910509F492C78C3D67
:10474000910509F491C70C94572F8232B1E09B0771
:1047500011F40C94502C54F4823E910509F4D4C702
:104760008831914009F4F5C70C94572F8C3221E021
:10477000920711F40C94592C8D32914011F00C9445
:10478000572F0E9425500C94572F843A41E09407EC
:1047900011F40C94532D0CF03FC08139A1E09A071D
:1047A00011F40C94482DC4F48033E1E09E0711F419
:1047B0000C947E2C14F40C94452D833621E0920742
:1047C00011F40C94482E8039914011F00C94572F1D
:1047D0000E940EBD0C94572F883941E0940711F4C4
:1047E0000C944C2D54F48239914011F00C94572FB5
:1047F00080E00E944B400C94572F8939B1E09B0711
:1048000011F40C94502D8A39914011F00C94572FCB
:104810000E9483470C94572F873FF1E09F0711F4C4
:104820000C94E82DECF4843F31E0930711F40C94E0
:10483000E22D3CF4853A914011F40C94562D0C94E1
:10484000572F853FA1E09A0711F40C94E52D863F80
:10485000914011F00C94572F0E9432ED0C94572F79
:10486000803AE3E09E0709F4EDC07CF4883522E04D
:10487000920711F40C94452E8335934011F00C945B
:10488000572FE8EBF5E20C94F52D873E43E09407B3
:1048900011F40C94832E893D974011F40C94952EBD
:1048A0000C94572FEBE6F4E08CC4E2EFF2E00BC07F
:1048B00060E08AED92E00E941B9342981798159849
:1048C0002E980C94572F84918F010F5F1F4F8823D0
:1048D00021F00E94BA42F801F6CF109267151092AB
:1048E000661580EF92E10E94F5D28BE1E0EFF2E1F4
:1048F000DE01159601900D928A95E1F78091EE12F6
:104900009091EF129C838B838DEF92E09A83898341
:1049100040E050E0BE016F5F7F4F89EB93E00E9463
:1049200077B2CE0101960E940673E3EEF2E0849125
:104930008F010F5F1F4F882311F40C94572F0E9493
:10494000BA42F801F4CF0E9498A20C94572F10920B
:10495000B7121092B8120C94572FE0918D16F09167
:104960008E168081882329F0803209F410823196D6
:10497000F8CF40E061E080918D1690918E160E94F4
:10498000E0A30C94572F1092B7120E94835F0C94EF
:10499000572F8091B812882311F40C94572F83E578
:1049A0000E94CA3181110C94B72F0C94572F0E948A
:1049B0009D5F0C94572F40E060E080918D169091A0
:1049C0008E160E94E0A30C94572F8091B71281118C
:1049D0000E940EBD8091B812882311F40C94572FB9
:1049E00080E50E94CA31882319F00E94553103C026
:1049F00080E50E949B31182F482F61E080918D1631
:104A000090918E160E94E0A383E50E94CA3188230C
:104A100081F00E943431AB01BC014093E812509305
:104A2000E9126093EA127093EB1284EB94E10E9416
:104A3000EDFB0E941FA011110C94572F0E94BF5E26
:104A40000C94572F80918D1690918E1621E0209313
:104A5000B61240E060E00E94E0A30C94572F0E9441
:104A6000E99F7B018C0120E831E541E050E00F94A3
:104A70004723C9016DE671E00F9479264B015C0173
:104A8000C801B70120E13EE040E050E00F94472329
:104A9000CA01B90128E130E040E050E00F9447231B
:104AA000762E672EC62ED72EFCE32F2E312C412CCE
:104AB000512CC801B701A20191010F944723F62E92
:104AC000E72ECA01B901A20191010F944723CB013E
:104AD0008E010F5F1F4F8114910499F0EF92FF92A6
:104AE0007F936F936F927F92BF92AF929F928F92BC
:104AF0008BE293E09F938F931F930F930F94F31E7A
:104B000013C0A114B104B1F0EF92FF927F936F93A1
:104B10006F927F92BF92AF928BE193E09F938F93BE
:104B20001F930F930F94F31E0FB6F894DEBF0FBEC2
:104B3000CDBF30C0CD2879F0EF92FF927F936F9375
:104B40006F927F928FE093E09F938F931F930F93C9
:104B50000F94F31EE9CF892B69F0EF92FF927F93B8
:104B60006F9387E093E09F938F931F930F930F941E
:104B7000F31EDACFEF92FF9283E093E09F938F933F
:104B80001F930F930F94F31E0F900F900F900F90A1
:104B90000F900F9060E0C8010E943D93E8EBF5E2B2
:104BA00084917F013FEFE31AF30A882321F00E94EA
:104BB000BA42F701F5CFB8018FE393E00E942BFFD3
:104BC0008AE00E94BA420C94572F83E50E94CA31B2
:104BD000882311F40C94572F0E944431E82E80E56D
:104BE0000E94CA31882341F00E9434318B0177FF43
:104BF00002C00C94572F02C006E010E0802FE2EDB7
:104C0000F5E09491891303C0E5ECF3E20AC0319614
:104C100045E0EA3FF407A9F70C94C72F0E94BA4277
:104C2000F80184918F010F5F1F4F8111F7CFECE4E2
:104C3000F3E084918F010F5F1F4F882311F40C94D0
:104C4000572F0E94BA42F801F4CFF090CC0381E0D4
:104C5000F826F092CC03E6E6F3E084918F010F5F33
:104C60001F4F882321F00E94BA42F801F6CFFF209F
:104C700019F0EBE5F3E002C0E0E6F3E084918F0188
:104C80000F5F1F4F882311F40C94572F0E94BA42D4
:104C9000F801F4CF0E94835F0C94572F88E690E0D0
:104CA0000E94344681110C94572F8091DE1583FFAA
:104CB00002C00C94572F83E50E94CA318823E1F18A
:104CC0000E9464310F94E924CB010E9454920E9407
:104CD000643120E030E04AEA52E40F94591F18167C
:104CE0003CF00E944EAF60E088E793E00E941B9387
:104CF0000E9464312091020F3091030F4091040F04
:104D00005091050F0F94CB251816B4F485E193E06C
:104D10009F938F938091881590E001969F938F9336
:104D200081E793E09F938F931F920E94FD5D0FB6E2
:104D3000F894DEBF0FBECDBF0E94B6FF0C94572F74
:104D40008EE40E94CA31882311F40C94572F0E94DC
:104D500034316093640F7093650F8093660F909366
:104D6000670F0C94572F83E50E949B31882359F0DD
:104D700083E50E94CA31882319F00E94443101C0A2
:104D800080E08093DE15E8EBF5E284918F010F5F00
:104D90001F4F811103C0E1E9F3E004C00E94BA4251
:104DA000F801F3CF84918F010F5F1F4F882321F00B
:104DB0000E94BA42F801F6CF8091DE15811103C03E
:104DC000EDE8F3E034C0E3E8CE2EE3E0DE2EE12CA4
:104DD000F12C20E08091DE1590E00E2C02C095951C
:104DE00087950A94E2F780FF17C0BB24B394B20EF4
:104DF000222319F08CE20E94BA42F6018591949127
:104E0000FC0184918F010F5F1F4F882321F00E94C6
:104E1000BA42F801F6CF2B2D9FEFE91AF90AA2E06A
:104E2000CA0ED11CB5E0EB16F104A1F60AC08491BC
:104E30008F010F5F1F4F882321F00E94BA42F801B3
:104E4000F6CF8AE00E94BA420C94572F1092730258
:104E50000C94572F88E993E00E94197383E50E9410
:104E6000CA31811103C0E8EBF5E20DC00E94443164
:104E70008D3320F4809323020C94572F8CE380937E
:104E800023020C94572F84918F010F5F1F4F8823AB
:104E900021F00E94BA42F801F6CF4091230250E07F
:104EA00060E070E081EA93E00E94D8FE8AE00E9410
:104EB000BA42FDC78091DE1583FF01C0F8C783E5C4
:104EC0000E94CA31882309F4F2C70E9464310F940A
:104ED000E9246739710514F066E970E07093F5080C
:104EE0006093F4080E94ECB4E2C789E690E00E9467
:104EF0003446811111C0E8EAF3E084918F010F5F1D
:104F00001F4F882321F00E94BA42F801F6CF0E9479
:104F100069B48AE00E94BA4210926509109264094D
:104F20000C94633083E50E94CA31882309F4BFC71B
:104F30000E944431182F8D3308F01CE310936A0946
:104F40000F941E086B017C01212F30E0A8EEB3E026
:104F50000F949523C60ED71EE81EF91EC09266094F
:104F6000D0926709E0926809F0926909A0C70E948F
:104F700008599DC70E9491499AC780E50E94CA318D
:104F8000811108C083E50E94CA31811108C03FEF3A
:104F900020E009C00E944431811189C7F3CF0E94EB
:104FA0003431362F272F832F922F8F3F910519F001
:104FB00010F08FEF90E09093F7088093F60877C792
:104FC00080E50E94CA31811105C01092F708109245
:104FD000F6086DC70E943431672B09F068C7F5CF1A
:104FE0000E9438B50E940EBD0E9410731092F708FF
:104FF0001092F60868EE73E080E090E00E946691FF
:105000000E940EBD0E94294160E08BEA93E00E945D
:105010001B934DC71092D0034AC783E50E94CA3143
:10502000882399F00E94643120E030E04AE754E49C
:105030000F94BE1F0F94EE246093240270932502F8
:10504000809326029093270232C788E50E949B3105
:105050008111B3C789E50E949B318111AEC78AE5F2
:105060000E949B318111A9C785E40E949B31811167
:10507000A4C7C2C783E50E949B31882309F417C7E0
:105080000E94643120E030E04AE754E40F94BE1FF0
:105090000F94EE24609372097093730980937409DE
:1050A0009093750904C763E9C62E62E0D62E79ECA9
:1050B000E72E71E1F72E10E0F60181916F010E9459
:1050C0009B31882309F46EC0133009F063C00E943D
:1050D00064314B015C0120E030E040EA51E40F9480
:1050E000591F87FF4EC0A50194016091D5117091A1
:1050F000D6118091D7119091D8110F9481242B0152
:105100003C019B01AC016091E2097091E30980913F
:10511000E4099091E5090F94BE1F6093E209709332
:10512000E3098093E4099093E509A301920160915A
:105130002F167091301680913116909132160F947F
:10514000BE1F60932F167093301680933116909384
:10515000321660915D1670915E1680915F16909187
:1051600060160F945D1FA30192010F94BE1F0F9450
:10517000EE2460935D1670935E1680935F16909395
:1051800060168092D5119092D611A092D711B0924C
:10519000D81108C00E946431D7016D937D938D931F
:1051A0009C9313971F5FB4E0EB0EF11C143009F0D1
:1051B00083CF0F9404017BC60E940EBD0E94E84776
:1051C00076C684918F010F5F1F4F882321F00E94C4
:1051D000BA42F801F6CF60E08BE594E00E94B64752
:1051E00061E084E594E00E94B64761E089E494E0E0
:1051F0000E94B64761E089E394E00E94B64760E010
:1052000080E394E00E94B64761E086E294E00E9469
:10521000B64761E08CE194E00E94B64761E084E12A
:1052200094E00E94B64761E086E094E00E94B647B1
:1052300060E088EF93E00E94B64760E089EE93E07B
:105240000E94B64761E08BED93E00E94B64761E0B3
:1052500085EC93E00E94B64760E084EB93E00E9407
:10526000B64725C685E40E94CA31882319F00E94FA
:10527000553103C085E40E949B31882361F0E8EB3F
:10528000F5E284918F010F5F1F4F882321F00E9468
:10529000BA42F801F6CF81E40E94CA31882319F09E
:1052A0000E94553103C081E40E949B31882361F044
:1052B000EAE2F5E084918F010F5F1F4F882321F010
:1052C0000E94BA42F801F6CF00918D1610918E1609
:1052D000F80181918F01882309F4B3CD0E94BA426D
:1052E000F7CF0F940706E3C581E0809318128093EF
:1052F0001712DDC51092181210921712D8C583E547
:105300000E94CA31882311F0AFD702C060E070E07C
:105310008B01112702301105D4F0E5ECF3E2849102
:105320008F010F5F1F4F811103C0EEE2F5E004C053
:105330000E94BA42F801F3CF84918F010F5F1F4F93
:10534000882309F4B4C50E94BA42F801F5CF88E475
:105350000E94CA318823A1F087D76A3A71053CF0D0
:105360006530F1E07F072CF064E071E002C06AEA8A
:1053700070E0F801EE0FFF1FED5EF94E7183608360
:1053800086E40E94CA318823A1F06ED7F801EE0F9F
:10539000FF1FE95EF94E718360836F3F710519F05D
:1053A00014F06FEF70E077FF02C060E070E071838F
:1053B000608382E4EFD7882309F479C555D7653037
:1053C000710534F0683871052CF067E870E002C0B0
:1053D00065E070E0000F111FF801E15FF94E718385
:1053E000608365C588EC90E00E94344681115FC5FA
:1053F00084E4A1D7882309F43FC066D76B017C0100
:1054000011E020E030E0A9010F94591F811101C083
:1054100010E01093EB0920E030E0A901C701B601CC
:105420000F94591F882341F14FD7E091881524E04C
:10543000E29FF0011124E951F64F6083718382836A
:10544000938320E030E0A9016091E7097091E809B9
:105450008091E9099091EA090F94591F81110CC0BC
:1054600080E090E0A0EEBFE38093E7099093E80925
:10547000A093E909B093EA090E944AE018C5D70150
:105480008D917D0158D7882341F01ED70F94EE24CB
:10549000F80160837183828393830C5F1F4FC01672
:1054A000D10669F70E94E6FF02C513E9E12E12E07A
:1054B000F12E03E216E183E3C82E86E1D82ED70150
:1054C0008D917D0138D7882331F0FED6F8016083B5
:1054D0007183828393830C5F1F4FC016D10679F7C7
:1054E000E6C483E528D78823D1F0EED6AB01BC0112
:1054F0004093D2095093D3096093D4097093D5098E
:105500004093CA095093CB096093CC097093CD099D
:105510008AEA95E00E94F5FE8AE00E94BA4280E5A0
:105520000AD7882391F0D0D6AB01BC014093D209B1
:105530005093D3096093D4097093D5098DE895E011
:105540000E94F5FE8AE00E94BA4282E5F4D68823E2
:1055500091F0BAD6AB01BC014093CE095093CF096C
:105560006093D0097093D1098EE695E00E94F5FE14
:105570008AE00E94BA4284E5DED6882309F497C403
:10558000A3D6AB01BC014093CA095093CB096093E9
:10559000CC097093CD0980E595E00E94F5FE8AE084
:1055A0000E94BA4284C483E5C6D6882349F08CD6CB
:1055B00060931F16709320168093211690932216E5
:1055C00084E5B9D6882349F07FD660931B16709383
:1055D0001C1680931D1690931E1682E4ACD6882369
:1055E00051F00E94504260933616709337168093A4
:1055F00038169093391688E59ED6882349F064D6EC
:105600006093D6097093D7098093D8099093D909EC
:1056100089E591D6882349F057D66093DA097093CB
:10562000DB098093DC099093DD098AE584D6882321
:1056300049F04AD66093DE097093DF098093E00950
:105640009093E10985E477D6882309F430C43CD6E9
:105650006093E2097093E3098093E4099093E5096C
:1056600026C40E94C35023C483E594D6882309F43A
:105670001EC4FAD570937B0260937A0218C48DED34
:1056800090E00E943446811112C483E583D68823BA
:1056900009F40DC40091881510E0E6D5000F111F24
:1056A000F801E858FD4F718360838091881590E080
:1056B0008C01000F111F000F111F98012C583D4F36
:1056C0007901880F991FFC01E858FD4F60817181B5
:1056D000072E000C880B990B0F945F1F2AE037ED03
:1056E00043E25CE30F94BE1FF801E152FA4E2081C1
:1056F0003181428153810F94BE1FD7016D937D93F9
:105700008D939C931397D3C380E515D6882309F412
:10571000CEC3AAD56B017C0183E53CD6882319F062
:10572000A3D58B0102C00FEF1FEFC80101960397AD
:1057300008F0BDC3D7FCBBC38C2DE2EDF5E094911E
:10574000891709F4B4C33196B5E0EA3FFB07B9F70E
:1057500091C480E5F0D5882309F4A9C385D56B01F0
:105760007C018B01672B19F0E5ECF3E27DC083E54A
:10577000E2D5811103C0E8EBF5E206C075D586E8F5
:1057800092E10E94EC8B93C384917F012FEFE21A88
:10579000F20A882321F00E94BA42F701F5CF60E0B7
:1057A00070E083E196E00E9412FF8091881228E564
:1057B00032E06901C81AD10887FDD394CC0CDD1CF6
:1057C000CC0CDD1C0D2C000CEE08FF08809187121C
:1057D00028E830E04901881A910887FD9394880CE5
:1057E000991C880C991C092C000CAA08BB088091F4
:1057F00086128F3FB9F090E0FC01EE0FFF1F8E0F75
:105800009F1FFC01E75EFD4E0181128153E0000FF6
:10581000111F5A95E1F764E0169507956A95E1F72F
:105820000E5F1F4F98012F5F3F4FC901330FAA0B27
:10583000BB0B9C01AD01281939094A095B09A4EB8E
:10584000B0E00F948523A7019601281939094A0968
:105850005B090F946923B90180E196E00E9412FF71
:105860008AE00E94BA4223C384918F010F5F1F4FC9
:10587000882321F00E94BA42F801F6CFB60189E0F0
:1058800096E00E9412FFEAEFF5E084918F010F5F2E
:105890001F4F882309F40BC30E94BA42F801F5CFC9
:1058A0008AE578D58111ADC383E574D58111A9C38B
:1058B000FEC283E56FD5882311F0D6D402C064E020
:1058C00071E079A368A380E565D5882331F0CCD455
:1058D000693833E1730730F402C068EE73E07A830D
:1058E000698304C088E893E19A838983BE01605E7E
:1058F0007F4FCE0101960E9440B0D9C280E51BD5F2
:10590000882349F0E1D460937C1570937D158093D2
:105910007E1590937F1589E40ED5882379F0D4D431
:105920002CEA35EC47E25EE30F94BE1F60937815D6
:105930007093791580937A1590937B1584E4FBD44A
:10594000882379F0C1D42CEA35EC47E25EE30F946A
:1059500081246093741570937515809376159093D8
:105960007715E8EBF5E284918F010F5F1F4F8823D5
:1059700021F00E94BA42F801F6CF40917C15509177
:105980007D1560917E1570917F1583E296E00E94EF
:10599000F5FE2CEA35EC47E25EE3609178157091F4
:1059A000791580917A1590917B150F948124AB0124
:1059B000BC018FE196E00E94F5FE2CEA35EC47E24F
:1059C0005EE36091741570917515809176159091D4
:1059D00077150F94BE1FAB01BC018BE196E00E94CE
:1059E000F5FE8AE00E94BA4262C283E5A4D4182F71
:1059F000882369F069D40F94E9247093300260938E
:105A00002F0221E0672B09F020E02093060F80E5AC
:105A100092D4882351F020912F0230913002232B11
:105A200009F043D48093060F42C2111140C2E8EB43
:105A3000F5E284918F010F5F1F4F882321F00E94B0
:105A4000BA42F801F6CF8091060F882319F06EEB69
:105A500073E002C061E173E08CE396E00E942BFFEB
:105A600060912F02709130028BE296E00E9412FF4B
:105A7000E7E2F6E084918F010F5F1F4F882309F45E
:105A800016C20E94BA42F801F5CF0E94344B0FC2F1
:105A900081E00E944B400BC281E08093E60907C27F
:105AA0001092E60904C20E94A74801C289E472D498
:105AB000882319F0D9D3162F01C01FEF8AE46AD4C6
:105AC000882319F0D1D3062F01C00FEF8AE533D414
:105AD000F82E811104C081E52ED4D82E01C0D12C1E
