:100000000C94B2190C94E3190C94E3190C94E319B1
:100010000C94E3190C94E3190C94E3190C94E31970
:100020000C94E3190C94E3190C94E3190C94E31960
:100030000C94E3190C94E3190C94E3190C94E31950
:100040000C94E3190C94BF6A0C94E3190C94E31913
:100050000C94E3190C94E3190C94F9950D947A150A
:100060000C94E3190C94C12F0C94E3190C94E3192C
:100070000C94E3190C94E3190C94E3190C94E31910
:100080000D94010B0C94E3190C94E3190C94E319EF
:100090000C94E3190C94E3190C94E3190C94E319F0
:1000A0000C94E3190C94E3190D94D40A0C94E319FD
:1000B0000C94E3190C94E3190C94E3190D94A70A1A
:1000C0000C94E3190C94E3190C94E3190C94E319C0
:1000D0000C94E3190C94E3190C94E3190C94E319B0
:1000E0000C94E319D8000C01DE000801CE000A01CF
:1000F000120116010601DC00C800C600C200D000D3
:100100000A01D2001801F200E400D6000401D40074
:10011000EA00F600E6000E01C400BC00EE00E800B4
:10012000F400BE00F6000201CC00E000084AD73B14
:100130003BCE016E84BCBFFDC12F3D6C74319ABDB6
:1001400056833DDA3D00C77F11BED9E4BB4C3E91DA
:100150006BAAAABE000000803F05A84CCDB2D44EC9
:10016000B93836A9020C50B9918688083CA6AAAACB
:100170002ABE000000803F000D94D8140D94051590
:100180000D9454020D941A140D94CE140D9416145B
:100190000D9410140D9412000D9419150D94F31371
:1001A0000D941E140D9424140D94AA140D949B14F4
:1001B0000D94F7130D9436000D940C140D94E9135F
:1001C0000D9423150D9426250D9496140D94BE14AC
:1001D0000D94EC140D94B4140D942C000D94E214B1
:1001E0000D945E020D942C140D94FB140D942D159A
:1001F0000D9431000D943B000D940C000D945902A8
:100200000D944F020D940F150D94A0140D94081425
:100210000D94ED130D9431140D94FA130D94C6142E
:100220000D9406000D94FE130D94D6260D94021421
:100230000D9428144E414E494E495459494E46CDCD
:10024000CCCC3D0AD7233C17B7D13877CC2B32958D
:1002500095E6241FB14F0A000020410000C842006B
:10026000401C4620BCBE4CCA1B0E5AAEC59D7443F2
:100270004F4D4D554E49434154494F4E00445259FC
:1002800052554E004552524F525300494E464F0070
:100290004543484F00536C6565702E2E2E00473243
:1002A00038205A20466F7262696464656E0A00479E
:1002B0003238205A20466F7262696464656E00208D
:1002C0005A3A200020593A200042656420583A20CA
:1002D000004D65736820706F696E742063616E6E87
:1002E0006F74206265207265736F6C7665640A00B6
:1002F000526573756D696E67207072696E74004126
:1003000031304D2072656164792E00436C69636BF6
:1003100020746F20726573756D652E2E2E004E6FE2
:10032000206D6F76652E00456E642066696C6520D1
:100330006C6973740A00426567696E2066696C6552
:10034000206C6973740A002569730025696D202586
:100350006973002569682025696D2025697300256A
:100360006964202569682025696D20256973002549
:10037000697920256964202569682025696D202513
:100380006973005072696E742074696D653A20005B
:1003900050726F7465637465642050696E0A006FF3
:1003A0006E2E0A006F66662E0A00473236204465BC
:1003B0006275672000452569202573004131304D65
:1003C0002072656164792E0090028B0284027D02A6
:1003D0006F026F66660044454255473A004B494CF0
:1003E0004C45442E20004D3131332053006F6B00BB
:1003F0004131304D204F66662E00454D45524745F0
:100400004E43595F50415253455200434153455F5B
:100410004C494748545F4252494748544E4553530C
:1004200000544F47474C455F4C494748545300538D
:100430004F4654574152455F504F57455200425521
:10044000494C445F50455243454E54004C45564537
:100450004C494E475F44415441005A5F50524F420D
:1004600045004155544F4C4556454C005052494E5D
:10047000545F4A4F420050524F4752455353004138
:1004800055544F5245504F52545F54454D500056AD
:100490004F4C554D455452494300454550524F4DE0
:1004A0000053455249414C5F584F4E5F584F4646A6
:1004B000004649524D574152455F4E414D453A4DD8
:1004C00061726C696E20312E312E38202847697494
:1004D0006875622920534F555243455F434F444549
:1004E0005F55524C3A68747470733A2F2F67697471
:1004F0006875622E636F6D2F4D61726C696E46690F
:10050000726D776172652F4D61726C696E20505209
:100510004F544F434F4C5F56455253494F4E3A311B
:100520002E30204D414348494E455F545950453A7D
:100530004131304D2045585452554445525F434F48
:10054000554E543A3120555549443A6365646532F5
:100550006132662D343161322D343734382D3962B1
:1005600031322D6335356336326633363766660A87
:10057000002F2F20007A5F6D696E3A2000795F6D41
:10058000696E3A2000785F6D696E3A20005265709E
:100590006F7274696E6720656E6473746F70207318
:1005A00074617475730A004D31343520533C696EA3
:1005B0006465783E206F7574206F662072616E6787
:1005C000652028302D31290A005761726E696E67E7
:1005D0003A204D697820666163746F7273206D757F
:1005E00073742061646420757020746F20312E3024
:1005F0002E205363616C696E672E0A005365747414
:10060000696E672054726176656C20416363656C26
:1006100065726174696F6E3A200053657474696E17
:1006200067205265747261637420416363656C6511
:10063000726174696F6E3A200053657474696E67F5
:10064000205072696E7420416363656C65726174D9
:10065000696F6E3A200053657474696E672050723A
:10066000696E7420616E642054726176656C2041FD
:100670006363656C65726174696F6E3A2000000196
:1006800025272318FF1F211D1CFF19171B1EFFFF05
:100690000C0409FFFFFF2E2C0CFFFF312F3004400C
:1006A0000AFF41FFFFFFFFFFFF206F7574206F6699
:1006B0002072616E67650A00536572766F20003A9A
:1006C000200020536572766F200020643A00206974
:1006D0003A0020703A0020643A0020693A00207005
:1006E0003A0043290A0061626C656420286D696ED6
:1006F0002074656D702000436F6C6420657874729F
:10070000756465732061726520004D6573682070A3
:100710006F696E742063616E6E6F74206265207203
:1007200065736F6C7665640A004D34323120696EF2
:10073000636F727265637420706172616D65746558
:10074000722075736167650A003A2000207A5F6D38
:10075000696E3A20202D3230207A5F6D61783A2020
:100760002032300A0050726F6265205A204F666650
:100770007365740043617365206C696768743A201F
:1007800000290A00466978656420706172616D65B0
:100790007465722062797465733B20637263200014
:1007A000466978656420706172616D657465722058
:1007B000280048565F7365745F6F6B0A00556E6B57
:1007C0006E6F776E20636F6D6D616E643A202200EC
:1007D0004D6573682056616C69646174696F6E2041
:1007E00053746F707065642E00696E206D6F76654E
:1007F0005F746F282920666565645F76616C756536
:1008000020666F722058593A004C656176696E67B0
:1008100020473236004732362048656174696E677A
:10082000204E6F7A7A6C652E00473236204865611B
:1008300074696E67204265642E00446F6E652050B7
:1008400072696D696E6700446F6E65205072696DE4
:10085000696E67004669786564204C656E677468E8
:10086000205072696D652E00557365722D436F6E51
:1008700074726F6C6C6564205072696D65002C2019
:1008800065793D0029202D3E202865783D002C20EB
:1008900073793D0020436F6E6E656374696E6720E7
:1008A0007769746820766572746963616C206C691D
:1008B0006E65202873783D002C2065793D00292045
:1008C0002D3E202865783D002C2073793D00204383
:1008D0006F6E6E656374696E6720776974682068EF
:1008E0006F72697A6F6E74616C206C696E65202816
:1008F00073783D004C656176696E6720473236003B
:100900002C2079693D00202020446F696E672063A8
:100910006972636C652061743A202878693D003FF4
:1009200053706563696669656420582C5920636F4C
:100930006F7264696E617465206F7574206F6620D4
:10094000626F756E64732E0A003F285229657065C8
:1009500061742076616C7565206E6F7420706C61B7
:10096000757369626C653B206D75737420626520D8
:100970006174206C6561737420312E0A003F5370DE
:1009800065636966696564206E6F7A7A6C65207448
:10099000656D7065726174757265206E6F7420701C
:1009A0006C61757369626C652E0A003F53706563F4
:1009B00069666965642066696C616D656E74207333
:1009C000697A65206E6F7420706C61757369626CF2
:1009D000652E0A003F53706563696669656420701F
:1009E00072696D65206C656E677468206E6F742027
:1009F000706C61757369626C652E0A003F53706597
:100A0000636966696564206E6F7A7A6C65207369C4
:100A10007A65206E6F7420706C61757369626C65A5
:100A20002E0A003F537065636966696564205265EC
:100A30007472616374696F6E204D756C7469706C4B
:100A4000696572206E6F7420706C61757369626C79
:100A5000652E0A003F52657472616374696F6E207F
:100A60004D756C7469706C696572206D7573742056
:100A70006265207370656369666965642E0A003F6C
:100A8000537065636966696564206C61796572207D
:100A9000686569676874206E6F7420706C61757327
:100AA00069626C652E0A003F53706563696669650B
:100AB00064206265642074656D706572617475721E
:100AC00065206E6F7420706C61757369626C652E41
:100AD0000A0047323620636F6D6D616E6420737457
:100AE00061727465642E2057616974696E6720664F
:100AF0006F72206865617465722873292E0A004B35
:100B0000494C4C45442E200053544F505045442EE0
:100B100020005072696E7465722073746F70706516
:100B2000642064756520746F206572726F72732E15
:100B30002046697820746865206572726F72206142
:100B40006E6420757365204D39393920746F2072B9
:100B50006573746172742E202854656D70657261BE
:100B6000747572652069732072657365742E2053E5
:100B7000657420697420616674657220726573748F
:100B8000617274696E67290A004E6F20436865635D
:100B90006B73756D2077697468206C696E65206E63
:100BA000756D6265722C204C617374204C696E65A2
:100BB0003A2000636865636B73756D206D69736DB2
:100BC000617463682C204C617374204C696E653AC3
:100BD00020004C696E65204E756D626572206973E8
:100BE000206E6F74204C617374204C696E65204ECA
:100BF000756D6265722B312C204C617374204C69C9
:100C00006E653A20004D313130004D3331004732AE
:100C1000382058590053442072656164206572720F
:100C20006F720A00446F6E65207072696E74696E2F
:100C3000672066696C650A0020496E76616C69649C
:100C4000206578747275646572200053544F50505B
:100C500045442E20005072696E7465722073746F63
:100C6000707065642064756520746F206572726FA2
:100C700072732E2046697820746865206572726FE1
:100C80007220616E6420757365204D393939207486
:100C90006F20726573746172742E202854656D70B4
:100CA000657261747572652069732072657365740D
:100CB0002E205365742069742061667465722072F9
:100CC000657374617274696E67290A0053544F50DA
:100CD0002063616C6C656420626563617573652077
:100CE0006F6620424C546F756368206572726F7234
:100CF000202D207265737461727420776974682086
:100D00004D3939390A0042696C696E656172204C4F
:100D10006576656C696E6720477269643A0A0048B7
:100D2000656174696E6720646F6E652E0020573AA6
:100D300000452569202573004131304D20726561E1
:100D400064792E0042656420646F6E652E00205722
:100D50003A004265642048656174696E672E002020
:100D60005A3A0020593A0020436F756E7420583A61
:100D70000020453A00205A3A0020593A00583A00DB
:100D80003A004361703A00205A0020590058002070
:100D9000204D61783A2000205A0020590058002048
:100DA000204D696E3A20004F6E20004F666600535A
:100DB0006F667420656E6473746F70733A20004BB5
:100DC00064200023646566696E65202044454641C1
:100DD000554C545F004B69200023646566696E655D
:100DE000202044454641554C545F004B7020002361
:100DF000646566696E65202044454641554C545FE4
:100E000000504944204175746F74756E65206669A1
:100E10006E6973686564212050757420746865205C
:100E20006C617374204B702C204B6920616E6420C0
:100E30004B6420636F6E7374616E74732066726F9F
:100E40006D2062656C6F7720696E746F20436F6EE2
:100E500066696775726174696F6E2E680A00504921
:100E600044204175746F74756E65206661696C65A8
:100E700064212074696D656F75740A005448455289
:100E80004D414C2052554E415741590054686572AE
:100E90006D616C2052756E6177617900486561748F
:100EA000696E67206661696C656400486561746994
:100EB0006E67206661696C65640050494420417525
:100EC000746F74756E65206661696C656421205469
:100ED000656D706572617475726520746F6F2068DE
:100EE0006967680A00204B643A2000204B693A2069
:100EF00000204B703A20000A20436C6173736963D1
:100F000020504944200A002054753A2000204B7597
:100F10003A2000206D61783A2000206D696E3A20F9
:100F20000020643A200020626961733A20004F6615
:100F3000660A004661646520486569676874200038
:100F4000426564204C6576656C696E672000466179
:100F5000696C656420746F20656E61626C65204207
:100F60006564204C6576656C696E670A0047322FB0
:100F700047332062616420706172616D65746572CF
:100F8000730A0020706F736974696F6E206F7574D7
:100F9000206F662072616E67652E0A003F50726F87
:100FA00062652000202844525952554E290047328C
:100FB00039204175746F20426564204C6576656CFC
:100FC000696E670028422961636B00284629726FA9
:100FD0006E74002852296967687400284C29656678
:100FE00074003F2856296572626F7365206C6576C0
:100FF000656C20697320696D706C61757369626CD2
:10100000652028302D34292E0A00426164205A20A0
:1010100076616C75650A004E6F2062696C696E6559
:10102000617220677269640A0046696C65206465B4
:101030006C657465643A0044656C6574696F6E2014
:101040006661696C65642C2046696C653A20006FA6
:1010500070656E206661696C65642C2046696C65FC
:101060003A2000200D466978656420706172616DD8
:1010700065746572206E62797465733B2063726378
:10108000206572726F722000200D0A4669786564CF
:1010900020706172616D6574657220627974657328
:1010A0003B20637263206572726F722000290A0010
:1010B0002062797465733B2063726320004669780F
:1010C000656420706172616D65746572202800200E
:1010D00068617264776172652076657273696F6E9C
:1010E0003A002D2D2D2D2D2D007C4D61726C696ED9
:1010F0007C002D2D2D2D2D2D00687474703A2F2F0E
:101100006D61726C696E66772E6F726700687474B9
:10111000703A2F2F6D61726C696E66772E6F7267F1
:101120000020312E312E38002020506C616E6E650B
:101130007242756666657242797465733A20002062
:1011400046726565204D656D6F72793A2000436F78
:101150006D70696C65643A204E6F762032372032AC
:101160003031380A00207C20417574686F723A2053
:10117000286E6F6E652C2064656661756C742063E3
:101180006F6E666967290A00323031372D31322D92
:1011900032352031323A303000204C6173742055A2
:1011A0007064617465643A2000312E312E380A0073
:1011B0004D61726C696E0020536F66747761726561
:1011C0002052657365740A00205761746368646F08
:1011D000672052657365740A002042726F776E2033
:1011E0006F75742052657365740A002045787465C4
:1011F000726E616C2052657365740A00506F77657A
:101200007255700A0073746172740A006572726FAD
:10121000722077726974696E6720746F2066696CDA
:10122000650A00456E6473746F7073202563202512
:101230006320256320256300205A3A0020593A0094
:1012400020583A00656E6473746F70732068697417
:101250003A200047323820580066696C616D656E2F
:1012600074206F75740A004D33322053256C75203D
:10127000212573004D33322053256C7520212F25F5
:10128000732F2573004730204631303030205A25E7
:10129000752E2575004732382059004732382058BE
:1012A000004D313036202053323535004D31303944
:1012B00020543020532575004D3139302053257589
:1012C00000446F6E6520736176696E672066696C95
:1012D000652E0A004D32390025753A2530327500E9
:1012E000253032753A25303275002D2D2D005344AE
:1012F000005A004D782025643B2564252520004DAB
:10130000785E25643B256425252000537461727442
:10131000205A3A202534642E2564206D6D0020204B
:10132000456E64205A3A202534642E2564206D6D64
:1013300000285A203C3D2025642E25642900537442
:10134000617274206D69783A202533642525202543
:101350003364252500285A203E3D2025642E25642F
:1013600029002020456E64206D69783A2025336479
:1013700025252025336425250046756C6C20677271
:10138000616469656E74002533643B2533642525EB
:10139000002020456E64206D69783A002533643B57
:1013A0002533642525005374617274206D69783A81
:1013B000004772616469656E74002534642E25648B
:1013C000206D6D002020456E64205A3A002534645B
:1013D0002E2564206D6D005374617274205A3A009A
:1013E0004772616469656E74206D6978004D697833
:1013F00065720024F4D43050C38E20C2A2401782FC
:101400008B7011127A910D816CD90AA861E108C71D
:10141000586607615143061E4B5D05C145A7041A76
:10142000411104093D9803713931034036DB0265EF
:10143000339102D4305402802E1D02632CEE0175CC
:101440002AC501B028A001102781018F2564012B36
:10145000244B01E0223401AC211F018D200D0180BD
:101460001FFC00841EED00971DDF00B81CD200E6B3
:101470001BC600201BBC00641AB200B219A8000AE7
:1014800019A0006A189900D117910040178B00B578
:1014900016840031167E00B31579003A157300C723
:1014A000146F0058146A00EE136600881363002559
:1014B000135E00C7125B006C12570015125400C176
:1014C00011510070114F0021114B00D61049008DB1
:1014D0001047004610440002104200C00F40008038
:1014E0000F3E00420F3C00060F3B00CB0E3800932E
:1014F0000E37005C0E3500270E3400F30D3200C1AC
:101500000D3100900D3000600D2E00320D2D0005C4
:101510000D2C00D90C2B00AE0C2900850C29005C89
:101520000C2700350C27000E0C2600E80B2400C405
:101530000B2400A00B23007D0B23005A0B21003944
:101540000B2100180B2000F80A1F00D90A1E00BB4F
:101550000A1E009D0A1D00800A1D00630A1C004728
:101560000A1B002C0A1B00110A1A00F7091A00DDD9
:10157000091900C4091900AB091900920917007B69
:10158000091800630917004C0916003609160020D7
:101590000916000A091500F5081500E0081400CC2A
:1015A000081400B8081400A4081400900813007D63
:1015B0000812006B08130058081200460812003485
:1015C000081100230811001208110001081100F091
:1015D000071000E0071000D0071000C0071000B08F
:1015E000070F00A107100091070E0083070F00747A
:1015F000070F0065070E0057070E0049070E003B56
:10160000070D002E070E0020070D0013070D000622
:10161000070D00F9060C00ED060D00E0060C00D4E5
:10162000060C00C8060C00BC060C00B0060C00A49A
:10163000060B0099060C008D060B0082060B007746
:10164000060B006C060B0061060A0057060B004CE7
:10165000060A0042060A0038060A002E060A00247E
:10166000060A001A060A001006090007060A00FD0D
:10167000050900F4050900EB050900E2050900D998
:10168000050900D0050900C7050900BE050900B518
:10169000050800AD050800A50509009C0508009493
:1016A0000508008C050800840508007C0508007406
:1016B0000508006C050700650508005D0507005674
:1016C0000508004E050700470507004005080038DB
:1016D000050700310507002A050700230507001C40
:1016E000050600160507000F05070008050600029D
:1016F000050700FB040600F5040700EE040600E8F9
:10170000040600E2040700DB040600D5040600CF4F
:10171000040600C9040600C3040600BD040600B7A1
:10172000040600B1040500AC040600A6040600A0EF
:101730000405009B04060095040500900406008A39
:1017400004050085040500800406007A0405007580
:10175000040500700405006B0405006604050061C3
:101760000405005C04050057040500520405004D03
:1017700004050048040500430405003E0404003A43
:1017800004050035040500300404002C040500277E
:10179000040400230405001E0404001A04040016B7
:1017A000040500110404000D0404000904050004EC
:1017B00004040000040400FC030400F8030400F423
:1017C000030400F0030400EC030400E8030400E455
:1017D000030400E0030400DC030400D8030400D485
:1017E000030400D0030400CC030400C8030300C5B5
:1017F00003030024F404D9201BC40C5C0E9804C419
:10180000095F0265077101F405F900FB04B30048A4
:10181000048700C10369005803550003034500BE57
:10182000023A008402310053022A002902250004F2
:10183000022000E4011C00C8011900AF0117009844
:1018400001140084011300710110006101100051A6
:10185000010E0043010D0036010B002B010B00208F
:10186000010B00150109000C01090003010800FB30
:10187000000800F3000800EB000700E4000600DEAB
:10188000000600D8000600D2000600CC000500C704
:10189000000500C2000500BD000400B9000400B549
:1018A000000400B1000400AD000400A9000400A57C
:1018B000000300A20003009F0004009B00030098A7
:1018C0000003009500020093000300900003008DC8
:1018D0000002008B000300880002008600020084E2
:1018E000000300810002007F0002007D0002007BF7
:1018F0000002007900020077000100760002007407
:1019000000020072000100710002006F0002006D11
:101910000001006C0002006A00010069000200671B
:101920000001006600010065000100640002006221
:1019300000010061000100600001005F0002005D25
:101940000001005C0001005B0001005A0001005929
:101950000001005800010057000100560001005529
:101960000001005400010053000000530001005228
:1019700000010051000100500001004F0001004E25
:101980000000004E0001004D0001004C0001004B22
:101990000000004B0001004A00010049000100481E
:1019A000000000480001004700010046000000461A
:1019B0000001004500000045000100440001004313
:1019C000000000430001004200000042000100410D
:1019D00000000041000100400001003F0000003F06
:1019E0000001003E0000003E0001003D0000003DFF
:1019F0000001003C0000003C0000003C0001003BF6
:101A00000000003B0001003A0000003A00010039EC
:101A100000000039000100380000003800000038E4
:101A200000010037000000370001003600000036DA
:101A300000000036000100350000003500000035D0
:101A400000010034000000340000003400010033C5
:101A500000000033000000330001003200000032BB
:101A600000000032000100310000003100000031B0
:101A70000001003000000030000000300001002FA5
:101A80000000002F0000002F0000002F0001002E9A
:101A90000000002E0000002E0001002D0000002D8F
:101AA0000000002D0000002D0001002C0000002C83
:101AB0000000002C0000002C0001002B0000002B77
:101AC0000000002B0000002B0001002A0000002A6B
:101AD0000000002A0000002A00010029000000295F
:101AE0000000002900000029000000290001002852
:101AF0000000002800000028000000280000002846
:101B00000001002700000027000000270000002738
:101B1000000000270001002600000026000000262B
:101B2000000000260000002600010025000000251E
:101B30000000002500000025000000250000002511
:101B40000001002400000024000000240000002404
:101B500000000024000100230000002300000023F7
:101B600000000023000000230000002300000023E9
:101B700000010022000000220000002200000022DC
:101B800000000022000000220001002100000021CE
:101B900000000021000000210000002100000021C1
:101BA00000000021000100200000002000000020B3
:101BB00000000020000000200000002000000020A5
:101BC000000000200001001F0000001F0000001F97
:101BD0000000001F0000001F0000001F0000001F89
:101BE0000001001E0000001E0000001E0000001E7C
:101BF0000000004D383420582059205A2045005A02
:101C000025752C45256C752C50256C752C54257527
:101C10002C4225752C004131304D2072656164796C
:101C20002E004572723A4E6F2046696C616D656E8A
:101C3000740000002200250028002B002E00310037
:101C4000340002010000050108010B010000200022
:101C50002300260029002C002F0032000001000084
:101C6000030106010901050505050705080808081F
:101C7000020202020A0A0808040404040101010124
:101C8000010101010303030303030303040707071F
:101C90000C0C0C0C0C0C0C0C0202020206060606C4
:101CA000060606060B0B0B0B0B0B0B0B0102102091
:101CB0002008081020401020408002010201080482
:101CC0000201010204081020408080402010080416
:101CD000020180040201804020100804020108046F
:101CE00002010102040810204080010204081020B3
:101CF000408000000A0B02090C0D0E0807030401C6
:101D000000000000000000000000000000000000D3
:101D100000000000000000000000000000001211A0
:101D200010000000000000000000000000000000A3
:101D3000000000000000000050726F62696E6720B2
:101D40006661696C65640A0050726F62696E672033
:101D50006661696C656400205A3A200020593A2077
:101D60000042656420583A20005344207072696E26
:101D700074696E67206279746520004E6F74205319
:101D800044207072696E74696E670A00486F6D65F1
:101D9000202573257325732066697273740020668D
:101DA000697273740A005A0059005800486F6D65D3
:101DB00020004D69783A20202020253364252520F5
:101DC0002533642525004772616469656E7400548B
:101DD0006F67676C65206D6978002533643B253338
:101DE000642525004D6978004D61696E0053746F5C
:101DF0007720424C546F756368004D323830205064
:101E00003020533930004465706C6F7920424C5457
:101E10006F756368004D32383020503020533130B8
:101E200000424C546F7563682053656C662D546591
:101E30007374004D3238302050302053313230002E
:101E4000526573657420424C546F756368004D325F
:101E500038302050302053313630004D61696E00EB
:101E60005072696E74207061757365640000507201
:101E7000696E742061626F72746564004E6F2053E6
:101E8000442063617264005072696E742066726FE0
:101E90006D2053440053746F70207072696E74002B
:101EA000526573756D65207072696E740041626F62
:101EB0007574205072696E74657200506175736537
:101EC000207072696E74004D6978657200436F6EA0
:101ED00074726F6C00507265706172650054756E3B
:101EE0006500496E666F2073637265656E004261BE
:101EF000627973746570205A004D3630302042305C
:101F0000004368616E67652066696C616D656E741B
:101F1000004261627973746570205A00466C6F7775
:101F200000466C6F7700466C6F770046616E2073D9
:101F3000706565640046616E207370656564004677
:101F4000616E20737065656400426564004265647B
:101F500000426564004E6F7A7A6C65004E6F7A7A43
:101F60006C65004E6F7A7A6C65005370656564002D
:101F70005370656564005370656564004D61696EFA
:101F8000004D36303020486F74656E6420746F6F7A
:101F900020636F6C6420746F206368616E676520D6
:101FA00066696C616D656E740A006F6B0020746FFA
:101FB0006F206C6F6E6720657874727573696F6ED1
:101FC0002070726576656E7465640A0020636F6CBC
:101FD0006420657874727573696F6E2070726576AF
:101FE000656E7465640A00627573793A2070617574
:101FF00073656420666F7220696E7075740A006282
:102000007573793A2070617573656420666F72200C
:10201000757365720A00627573793A2070726F6326
:10202000657373696E670A004B494C4C45442E201A
:10203000004B494C4C2063617573656420627920C4
:10204000746F6F206D75636820696E616374697663
:10205000652074696D65202D2063757272656E74DC
:1020600020636F6D6D616E643A2000506C65617322
:1020700065207265736574005052494E5445522074
:1020800048414C544544005072696E746572206832
:10209000616C7465642E206B696C6C282920636107
:1020A0006C6C6564210A00000020C10000A0C00023
:1020B00000000000007042000070420000C04000BC
:1020C0000000005761726E696E673A20486F6D6953
:1020D0006E672042756D702044697669736F722057
:1020E0003C20310A000202040000A0400000A04091
:1020F000000000400000664300006143000082438E
:10210000FFFFFF70012C0190012701B0012201C0E7
:10211000011D01F00118011002130130020E0160CF
:1021200002090190020401C002FF000003FA00400E
:1021300003F5008003F000D003EB002004E60070FC
:1021400004E100E004DC004005D700C005D20040F7
:1021500006CD00D006C8008007C3003008BE00F0DE
:1021600008B900C009B400B00AAF00B00BAA00D093
:102170000CA500000EA000500F9B00C01096005050
:1021800012910000148C00C0158700B0178200B0B7
:10219000197D00D01B7800001E730040206E009057
:1021A000226900F024640040275F0090295A00E073
:1021B0002B5500102E500020304B0010324600E00E
:1021C00033410090353C001037370070383200A0A2
:1021D000392D00B03A2800A03B2300603C1E0010BF
:1021E0003D1900903D1400103E0F00703E0A00C0E3
:1021F0003E0500003F0000403FFBFF803FF6FFC070
:102200003FF1FF544845524D414C2052554E4157E5
:10221000415900546865726D616C2052756E61772A
:102220006179004572723A204D494E54454D502017
:10223000424544004572723A204D494E54454D5036
:10224000004D494E54454D50207472696767657260
:102250006564004572723A204D415854454D5020F6
:10226000424544004572723A204D415854454D5004
:10227000004D415854454D5020747269676765722E
:10228000656400202F002042403A0020403A0000C0
:102290001C1F11111F00000006191803130C000465
:1022A0000E1F041C00000000101010101010000081
:1022B0001414141414140000151515151515000028
:1022C0000E1315110E00001C10181705060500044A
:1022D0000A0A0A0A11110E0C12120C00000000006A
:1022E0001F1511151F00000000000001020404006A
:1022F00000001C1C0C040404020100000000000487
:10230000081000000000004D3130342053257500C6
:102310004739322045257500473932205A25752E18
:102320002575004D3530300043616E63656C20705B
:1023300072696E7400526573756D65207072696E96
:102340007400506F776572206F7574616765004126
:102350006D6178204500416D6178204500416D61D7
:1023600078205A00416D6178205A00416D617820D3
:102370005900416D6178205900416D617820580005
:10238000416D6178205800412D74726176656C0052
:10239000412D74726176656C00412D7265747261B5
:1023A000637400412D7265747261637400416363EC
:1023B000656C00416363656C004D6F74696F6E00FE
:1023C00056652D6A65726B0056652D6A65726B00E5
:1023D00056652D6A65726B00567A2D6A65726B00C0
:1023E000567A2D6A65726B0056792D6A65726B009C
:1023F00056792D6A65726B0056792D6A65726B008D
:1024000056782D6A65726B0056782D6A65726B007E
:1024100056782D6A65726B004D6F74696F6E00455A
:1024200073746570732F6D6D004573746570732FD1
:102430006D6D005A73746570732F6D6D005A7374EF
:102440006570732F6D6D005973746570732F6D6DAA
:10245000005973746570732F6D6D005873746570D7
:10246000732F6D6D005873746570732F6D6D004D13
:102470006F74696F6E0053746570732F6D6D004AD1
:1024800065726B00416363656C65726174696F6E40
:102490000056656C6F63697479005A204F666673E5
:1024A0006574005A204F666673657400436F6E74DE
:1024B000726F6C004F6666004F6E200052756E6F33
:1024C00075742073656E736F72730046696C2E208D
:1024D0004469612E0046696C2E204469612E004FCC
:1024E0006666004F6E20004520696E206D6D3300DA
:1024F000436F6E74726F6C0020204D383531205A56
:10250000005A2D50726F6265204F666673657420A5
:10251000286D6D293A0A0020440020490020204DF2
:1025200033303420500020440020490020204D3317
:1025300030312050005049442073657474696E67CF
:10254000733A0A0020460020420020480020204D17
:102550003134352053004D6174657269616C2068B7
:10256000656174757020706172616D6574657273F8
:102570003A0A00205A0020204D34323020530041C6
:1025800075746F20426564204C6576656C696E6772
:102590003A0A00204500205A002059002058002007
:1025A000420020540020204D323035205300416439
:1025B00076616E6365643A20533C6D696E5F666553
:1025C0006564726174653E20543C6D696E5F74721F
:1025D0006176656C5F66656564726174653E204214
:1025E0003C6D696E5F7365676D656E745F74696D70
:1025F000655F75733E20583C6D61785F78795F6ADE
:1026000065726B3E205A3C6D61785F7A5F6A6572D5
:102610006B3E20453C6D61785F655F6A65726B3E1D
:102620000A0020540020520020204D323034205027
:1026300000416363656C65726174696F6E20287513
:102640006E6974732F7332293A20503C7072696E30
:10265000745F616363656C3E20523C7265747261A5
:1026600063745F616363656C3E20543C7472617691
:10267000656C5F616363656C3E0A00204500205A0B
:102680000020590020204D3230312058004D617813
:10269000696D756D20416363656C65726174696F06
:1026A0006E2028756E6974732F7332293A0A0020E0
:1026B0004500205A0020590020204D323033205848
:1026C000004D6178696D756D206665656472617431
:1026D00065732028756E6974732F73293A0A002078
:1026E0004500205A0020590020204D393220580042
:1026F00053746570732070657220756E69743A0A40
:102700000020204D3230302044300A0020204D324D
:1027100030302044002044697361626C65640A00B3
:1027200046696C616D656E742073657474696E675B
:10273000733A0020204D3134392043203B20556E20
:1027400069747320696E2043656C736975730A0040
:102750002020473231202020203B20556E697473A1
:1027600020696E206D6D0A004572726F722077725B
:102770006974696E6720746F20454550524F4D2132
:102780000A00290A002062797465733B2063726332
:10279000200053657474696E67732053746F72659B
:1027A0006420280057726974696E6720746F206610
:1027B000696C653A20006F70656E206661696C65B2
:1027C000642C2046696C653A20006F70656E206647
:1027D00061696C65642C2046696C653A2000466925
:1027E0006C652073656C65637465640A00205369C9
:1027F0007A653A200046696C65206F70656E656485
:102800003A20006F70656E206661696C65642C20EB
:1028100046696C653A20002066696C653A20006460
:102820006F696E67006672657368004E6F7720008F
:10283000454E4420535542524F5554494E450A0087
:102840002220706F73002220706172656E743A22CC
:1028500000535542524F5554494E452043414C4C2C
:10286000207461726765743A22004B494C4C4544B0
:102870002E2000747279696E6720746F2063616C1A
:102880006C207375622D67636F64652066696C6583
:1028900073207769746820746F6F206D616E792082
:1028A0006C6576656C732E204D4158206C6576659D
:1028B0006C2069733A0053442063617264206F6B2B
:1028C0000A006F70656E526F6F74206661696C6587
:1028D000640A00766F6C756D652E696E697420668A
:1028E00061696C65640A004572726F723A00534404
:1028F00020696E6974206661696C0A0020204E6F41
:102900007A7A6C653A20006368616E6765006F666D
:10291000207468652066696C616D656E740057612E
:10292000697420666F72207374617274005052492A
:102930004E54205041555345440020204E6F7A7A22
:102940006C653A200066696C616D656E7420756E09
:102950006C6F6164005761697420666F7200505239
:10296000494E54205041555345440020204E6F7A23
:102970007A6C653A2000506C6561736520776169F7
:10298000742E2E2E0048656174696E67206E6F7A12
:102990007A6C65005052494E54205041555345447D
:1029A0000020204E6F7A7A6C653A20006865617469
:1029B000206E6F7A7A6C652E005072657373206298
:1029C0007574746F6E20746F005052494E542050CD
:1029D00041555345440020204E6F7A7A6C653A2069
:1029E00000746F20636F6E74696E75652E2E2E00F5
:1029F000616E6420707265737320627574746F6E9B
:102A000000496E736572742066696C616D656E74E1
:102A1000005052494E542050415553454400202007
:102A20004E6F7A7A6C653A200066696C616D656EEE
:102A300074206C6F6164005761697420666F720066
:102A40005052494E54205041555345440020204E89
:102A50006F7A7A6C653A200066696C616D656E7498
:102A60002065787472756465005761697420666FBB
:102A700072005052494E5420504155534544007401
:102A80006F20726573756D65005761697420666F9C
:102A900072207072696E74005052494E5420504139
:102AA000555345440043616E6E6F74206F70656EC0
:102AB0002073756264697220006175746F25692ED8
:102AC00067004D3234004D323320257300656E713E
:102AD00075657565696E672022006563686F3A00E9
:102AE000436172642072656D6F7665640043617244
:102AF0006420696E736572746564007C3C3E5E2B75
:102B00003D3F2F5B5D3B2C2A225C0043616E6E6F64
:102B10007420656E746572207375626469723A2000
:102B200000052E2E004D61696E004D6178205465C0
:102B30006D703A20313530004D696E2054656D70EE
:102B40003A203500544265643A4550434F53203192
:102B500030304B004D61782054656D703A2032372B
:102B600035004D696E2054656D703A203500543043
:102B70003A204550434F53203130304B005053558D
:102B80003A2047656E657269630050726F746F63B7
:102B90006F6C3A20312E30002020202048572056DC
:102BA00065723A2056004657205665723A205631D3
:102BB0002E3100426175643A2032353030303000B9
:102BC0004754323536302056332E300042696C6916
:102BD0006E656172204C6576656C696E670045783C
:102BE000747275646572733A203100687474703A57
:102BF0002F2F6D61726C696E66772E6F7267004160
:102C000031304D00323031372D31322D32352031D7
:102C1000323A303000312E312E38004D61726C69FD
:102C20006E00546865726D6973746F727300426FE1
:102C300061726420496E666F005072696E746572CD
:102C400020496E666F004D61696E0020204E6F7ADC
:102C50007A6C653A20004261636B004D696E696D64
:102C6000756D2054656D70206973203137302E00EA
:102C700048656174696E67206661696C65640045CA
:102C8000787472756465206D6F7265005265737536
:102C90006D65207072696E7400524553554D452024
:102CA0004F5054494F4E533A0020746F6F206C6F51
:102CB0006E6720657874727573696F6E20707265C7
:102CC00076656E7465640A0020636F6C64206578B5
:102CD00074727573696F6E2070726576656E746557
:102CE000640A005072656865617420504C4120454B
:102CF0006E64005072656865617420504C412042DA
:102D00006564005072656865617420504C410050E4
:102D1000726570617265005072656865617420410A
:102D2000425320456E6400507265686561742041AD
:102D300042532042656400507265686561742041A9
:102D400042530050726570617265004261636B00AE
:102D50004E65787420636F726E6572004D32383044
:102D6000205030205331363000424C546F75636828
:102D70002053656C662D54657374004D32383020D5
:102D800050302053313230005072656865617420D4
:102D9000414253005072656865617420504C410097
:102DA000436F6F6C646F776E004368616E67652078
:102DB00066696C616D656E7400526573657420425E
:102DC0004C546F7563680044697361626C6520736D
:102DD00074657070657273004D3834004C657665AB
:102DE0006C20636F726E65727300426564204C657F
:102DF00076656C696E67004732380A4732390041A0
:102E000075746F20686F6D6500473238004D6F76BE
:102E1000652061786973004D61696E004D33303310
:102E20002055312045256920532569005072656879
:102E30006561742041425320636F6E660050726575
:102E40006865617420504C4120636F6E6600504984
:102E500044204175746F74756E650050494420417B
:102E600075746F74756E6500504944204175746FB8
:102E700074756E65005049442D44005049442D44FA
:102E8000005049442D49005049442D4900504944BF
:102E90002D50005049442D5000200220466163749B
:102EA0000020022046616374002002204D617800FA
:102EB0002002204D6178002002204D617800200220
:102EC000204D696E002002204D696E002002204DC9
:102ED000696E004F6666004F6E20004175746F7416
:102EE000656D700046616E207370656564004661B3
:102EF0006E2073706565640046616E207370656551
:102F000064004265640042656400426564004E6F7F
:102F10007A7A6C65004E6F7A7A6C65004E6F7A7AB9
:102F20006C6500436F6E74726F6C0053746F7265E2
:102F30002073657474696E6773004265640042654E
:102F40006400426564004E6F7A7A6C65004E6F7A59
:102F50007A6C65004E6F7A7A6C650046616E2073FC
:102F6000706565640046616E207370656564004637
:102F7000616E2073706565640054656D7065726183
:102F800074757265005654726176206D696E0056D4
:102F900054726176206D696E005654726176206DB0
:102FA000696E00566D696E00566D696E00566D69EA
:102FB0006E00566D6178204500566D6178204500A1
:102FC000566D6178204500566D6178205A00566D27
:102FD0006178205A00566D6178205A00566D6178EC
:102FE000205900566D6178205900566D617820593E
:102FF00000566D6178205800566D61782058005653
:103000006D61782058004D6F74696F6E004D6F765A
:10301000652058004D6F76652059004D6F7665200C
:103020005A004578747275646572004D6F7665203C
:10303000302E316D6D004D6F766520316D6D004D18
:103040006F76652031306D6D004D6F76652061784B
:10305000697300486F74656E6420746F6F20636FCE
:103060006C64004578747275646572004D6F7665A6
:10307000205A004D6F76652059004D6F76652058B7
:10308000004578747275646572004D6F7665205ADC
:10309000004D6F76652059004D6F766520580050C1
:1030A00072657061726500496E697469616C697AF4
:1030B0006520454550524F4D00436F6E74726F6CE2
:1030C00000526573746F7265206661696C73616626
:1030D00065004C6F61642073657474696E6773007A
:1030E000496E697469616C697A6520454550524F33
:1030F0004D0053746F72652073657474696E6773E5
:1031000000424C546F7563680046696C616D656E72
:1031100074004D6F74696F6E0054656D70657261F7
:1031200074757265004D61696E00290A5772697481
:10313000652066696C65206E616D653A20002062CD
:10314000797465733B206372632000506F776572FA
:103150006F66662053746F72656420280020213DDD
:103160002000637263206572726F723A20000A72E7
:103170006561642066696C65206E616D653A20004A
:10318000290A726561642066696C65206469723A17
:1031900020002062797465733B20637263200070A5
:1031A0006F7765726F66662073746F7265642073E3
:1031B000657474696E67732072657472696576658B
:1031C00064202800202863616C63756C61746564F9
:1031D00029210A0020213D2000454550524F4D2015
:1031E000435243206D69736D61746368202D2028FC
:1031F00073746F726564292000290A002062797453
:1032000065733B2063726320002073746F72656482
:103210002073657474696E67732072657472696572
:10322000766564202800204D61726C696E3D5631D0
:103230003231290A0028454550524F4D3D00454541
:1032400050524F4D2076657273696F6E206D6973B1
:103250006D61746368200048617264636F646564C3
:103260002044656661756C742053657474696E677B
:1032700073204C6F616465640A0088130000881332
:10328000000032000000881300000000C843000066
:10329000C8430000C843000034429A99A0429A995A
:1032A000A1420000C8430000D7436265640A002CB5
:1032B0002073797374656D2073746F707065642109
:1032C000204865617465725F49443A200048656131
:1032D00074696E67206661696C6564004865617435
:1032E000696E67206661696C656400486561746930
:1032F0006E67206661696C65640048656174696E1B
:1033000067206661696C6564000000210024002765
:10331000002A002D003000330001010000040107E5
:10332000010A01526573656E643A20002529002563
:103330007C00202800252920746F205A00257C005D
:103340002028004F4E2066726F6D205A004F46466F
:10335000004772616469656E74204D6978200000D1
:103360001401E20011241FBECFEFD1E2DEBFCDBFBA
:1033700000E00CBF13E0A0E0B2E0EEEFFCE602E0FC
:103380000BBF02C007900D92A03EB107D9F728E10C
:10339000A0EEB3E001C01D92AC34B207E1F719E131
:1033A000C1EBD9E100E006C021970109802FFE01A1
:1033B0000F94E335C03BD10780E00807A9F70F94CD
:1033C0009A1B0D946E360C9400002F923F924F92F0
:1033D0005F926F927F928F929F92AF92BF92CF92A5
:1033E000DF92EF92FF920F931F93CF93DF93CDB7AE
:1033F000DEB7AC970FB6F894DEBF0FBECDBF81E04D
:1034000090E090936C0F80936B0F8091C3178D3475
:1034100009F400C4843511F40C94A72D873421F0ED
:10342000EAEDFAE20C94F62D2091C1173091C21703
:103430002B31310509F490C0B4F4243031053CF44B
:1034400022303105CCF537FF30C00C940E2E2430DD
:103450003105D9F12A31310511F00C940E2E0E945C
:10346000DE310C940E2E2A32310509F416C364F4B1
:103470002D31310509F449C20CF49AC02E313105C1
:1034800009F447C20C940E2E2B35310509F4B0C255
:103490002C35310509F4B1C22A35310511F00C94EF
:1034A0000E2E1092E5030C940E2E8091A302811132
:1034B0000C94152E0C940E2E81E02230310509F06B
:1034C00080E00E94CF520C940E2E80E50E94803046
:1034D000882329F00E9404416B017C0103C0C12CA8
:1034E000D12C760183E50E948030882361F00E9410
:1034F0001A3020E030E04AE754E40F94012F0F9493
:1035000031346B017C010F94A81380915302811117
:1035100005C060E085E992E00E94C7CD0E942B4182
:103520008091750F9091760FA091770FB091780FE1
:10353000C80ED91EEA1EFB1E0F946E15DC01CB01CE
:103540008C199D09AE09BF09B7FD02C00C940E2E5F
:1035500080E00E946689F0CF0E94567681110C941B
:103560000E2E80E090E0A0E4B0E489839A83AB83E0
:10357000BC838D839E83AF83B88780E090E0A0E218
:10358000B1E489879A87AB87BC8780E50E94803049
:10359000882319F00E94EA2F01C060E068A3BE01F1
:1035A0006F5F7F4FCE0180960E94D7A30C940E2EA2
:1035B0000F94A81380E00E949C400E944F4181E03C
:1035C0008093291388E50E945130F82E89E50E94E6
:1035D0005130082F8AE50E945130E82EF11005C0C5
:1035E000011105C011E0182705C0011102C010E04B
:1035F00001C0182F0E948C30111105C0F11003C0BA
:10360000002309F40CC180E090E0A0E8B0E48093CE
:103610005A1090935B10A0935C10B0935D109C01C6
:10362000AD016091D2127091D3128091D412909119
:10363000D5120F949C2E87FF0BC019821A821B8211
:103640001C82BE016F5F7F4F8AE590E10E94F93EC8
:1036500011110EC0F11003C00111DBC0E0C0011157
:1036600007C080E090E00E9462871123A9F3D1C0D7
:103670001092CE121092CF121092D0121092D1123C
:103680001092CA121092CB121092CC121092CD123C
:103690000E945540E0E0F1E224912CA7E4EFF0E233
:1036A00085909590A590B490E8EFF0E24590559004
:1036B00065907490A5019401C301B2010F949C2EF2
:1036C00087FF05C0A5019401C301B20104C0A30195
:1036D0009201C501B4010F94C43368A779A78AA7E2
:1036E0009BA783EBC82E80E2D82EF60165917591D9
:1036F0008591949127EB222E20E2322EF101259123
:103700003591459154910F949C2E87FF02C0F6018C
:1037100001C0F10185919591A591B491D82EC92E42
:103720003A2E2B2E28A539A54AA55BA5CA01B901B9
:103730000F94012F20E030E040E85FE30F94E8327F
:103740000F9453352D2D3C2D432D522D0F94012FC9
:103750006CA37DA38EA39FA3E1E0F1E2D49020E0CF
:1037600030E040EC5FE3C301B2010F94012F2B0165
:103770003C016D2DDD0C770B880B990B0F94A22E5D
:103780009B01AC01C301B2010F94012F69837A83BD
:103790008B839C8320E030E040EC5FE3C501B40103
:1037A0000F94012F4B015C013CA5632F330F770B66
:1037B000880B990B0F94A22E9B01AC01C501B4019B
:1037C0000F94012F68A379A38AA39BA39E012C5D6C
:1037D0003F4F42ED52E1BE016F5F7F4FCE018096B9
:1037E0000E940D3E1092240F1092CE121092CF1212
:1037F0001092D0121092D1121092CA121092CB12C3
:103800001092CC121092CD1211112BCFF11029CFA2
:1038100023CF81E090E00E946287111103C0EE2067
:1038200009F464C080917E05882321F080917F0592
:1038300081111FC060E08FEA92E00E94C7CDEAEDDF
:10384000FAE284918F010F5F1F4F811103C0EEE9EF
:10385000F2E004C00E946E41F801F3CF84918F0121
:103860000F5F1F4F882309F441C00E946E41F80189
:10387000F5CF0E94554080E090E0ACEDB2E480933B
:10388000561090935710A0935810B09359108091F0
:10389000D2129091D312A091D412B091D5128093EC
:1038A0005A1090935B10A0935C10B0935D1080E071
:1038B00090E0A3E1B3E48093521090935310A0934F
:1038C0005410B093551019821A821B821C829E01DB
:1038D0002F5F3F4F42ED52E166E570E182E590E1F6
:1038E0000E940D3E82E090E00E9462870E94554057
:1038F00080912813809329130E94364183E080939E
:1039000028020E94FD4B0C940E2E0E9437590C94F5
:103910000E2EC090CA12D090CB12E090CC12F09034
:10392000CD1288E50E948030811109C020E030E08E
:1039300044E152E4C701B6010F94E73202C00E948D
:103940001A3068A379A38AA39BA3C090CE12D0900B
:10395000CF12E090D012F090D11289E50E94803011
:10396000811108C020E030E0A901C701B6010F9421
:10397000E83202C00E941A306B017C0169837A83AD
:103980008B839C8388A099A0AAA0BBA02FE632E1DC
:1039900043E85AEBC501B4010F940E3587FF02C00E
:1039A0000C940E2E22E430E047E353E4C501B40149
:1039B0000F949C2E181614F40C940E2E2FE632E160
:1039C00043E85AEBC701B6010F940E3587FF02C0DA
:1039D0000C940E2E22E430E04CE553E4C701B6010E
:1039E0000F949C2E181614F40C940E2E0C941A2E70
:1039F00081E08093E5030C940E2E0F94A813A8EA9F
:103A00002A2EA2E03A2EBAECEB2EB2E1FB2E00E019
:103A1000D12C10E0F10181911F010E948030882398
:103A200051F10E941A302B013C01F70120813181B4
:103A3000428153810F94E7324B015C012DEB37E358
:103A400046E855EB0F940E3587FD0AC02DEB37E3A2
:103A500046E855E3C501B4010F949C2E18165CF49A
:103A6000133011F401E002C0DD24D394F701408249
:103A70005182628273821F5FF4E0EF0EF11C1430FA
:103A800049F6DD2019F00E94554003C001110E9443
:103A900083C40E94FD4B0C940E2E8091A3028823B8
:103AA00011F40C940E2E89E40E948030182F882384
:103AB00021F00E94EA2FE62E01C0E12C8AE40E9448
:103AC0008030F82E882321F00E94EA2F062F01C0B3
:103AD00000E0112319F022E02E1520F0FF2081F0E4
:103AE000033070F0E1EDF2E084918F010F5F1F4F22
:103AF000882311F40C940E2E0E946E41F801F4CF2D
:103B00000E948C301123F1F020913B1730913C172B
:103B10004E2D4203B001439F700D11248091371741
:103B200090913817680F791F072E000C880B990B9E
:103B30000F94A22E609352107093531080935410E0
:103B400090935510FF20E9F020913D1730913E17DA
:103B50000203B001039F700D1124809139179091D9
:103B60003A17680F791F072E000C880B990B0F94DA
:103B7000A22E609356107093571080935810909314
:103B8000591080E50E948030882319F00E940B3084
:103B900003C080E50E9451308823C1F01123B1F0A9
:103BA00020E030E044E152E46091521070915310F3
:103BB00080915410909155100F94E83260935210F8
:103BC00070935310809354109093551086E40E9484
:103BD00080308823D9F00E941A306B017C0120E0EC
:103BE00030E0A9010F940E35181684F420E030E07F
:103BF00040E752E4C701B6010F94C43360932F022B
:103C00007093300280933102909332020E94CD8BE8
:103C10000C940E2E8091C1179091C2178837910590
:103C200011F40C9445260CF0EDC08D34910509F487
:103C300099C40CF05FC08931910509F407C344F5BC
:103C40008431910509F4FAC17CF48131910509F4BC
:103C50008AC22CF4029708F4F4C10C940E2E4297F9
:103C600009F437C60C940E2E8631910509F4D2C2A0
:103C70000CF4CCC28731910509F4D2C2489711F0F7
:103C80000C940E2E0E9436B40E94FF760C940E2ED9
:103C90008F31910509F446C394F48B31910509F4F1
:103CA000E9C20CF4D9C28C31910509F4E7C24E97F0
:103CB00011F00C940E2E0E94865D0C940E2E813312
:103CC000910509F426C44CF48032910509F4E0C250
:103CD0008A9709F4DDC30C940E2E8B34910509F4F8
:103CE0003DC48C34910511F00C940E2E0E94C377C4
:103CF0000C940E2E8C36910509F410C50CF04DC0B5
:103D00008535910509F41CC67CF58235910509F4C9
:103D1000D7C504F58135910511F00C940E2E0E9443
:103D200003990F94A8130E940C891092170F1092F8
:103D3000160F68EE73E080E090E00E9410CC0F94C4
:103D4000A8130E94DD3F60E080EF93E00E94C7CDA2
:103D50000C940E2E8335910509F4B6C58435910572
:103D600009F4B7C50C940E2E8936910509F425C5C2
:103D700054F48C35910509F4FEC58836910509F493
:103D8000F5C30C940E2E8A36910509F462C58B3664
:103D9000910509F483C50C940E2E8137910509F421
:103DA000C1C49CF48E36910509F432C40CF449C5A3
:103DB0008F36910509F43FC48037910511F00C94BA
:103DC0000E2E8DED93E00E9415898537910509F43B
:103DD000B3C664F48237910509F456C6833791055A
:103DE00011F00C940E2EE1EBF4E054C686379105E9
:103DF00009F4ABC68737910511F00C940E2EEDE84F
:103E0000F5E0E5C68D32E1E09E0711F40C948F2AAF
:103E10000CF083C0893C910511F40C945528B4F53D
:103E2000833A910509F4AFC7D4F48C38910509F4AD
:103E3000A6C45CF48937910511F00C940E2E1092F3
:103E40002913109228130C940E2E8139910509F430
:103E500022C78B39910509F4CDC40C940E2E863AF5
:103E6000910511F40C94032834F4843A910509F473
:103E7000EDC70C940E2E8E3B910509F4E6C4883CE8
:103E8000910511F40C9406280C940E2E8C3D91058E
:103E900011F40C9446290CF58C3C910511F40C940A
:103EA00086286CF48B3C910511F00C940E2E18EAC8
:103EB000E12E12E0F12E05EF16E10C9479288D3CED
:103EC000910511F40C94E828833D910511F00C94B0
:103ED0000E2E0E944C4B0C940E2E883121E092073E
:103EE00011F40C94BA2964F48D3D910511F40C94ED
:103EF0005129823E910511F40C9495290C940E2EB3
:103F0000823241E0940711F40C94612A8C32914082
:103F100011F40C946A2A0C940E2E843AF1E09F0757
:103F200011F40C94FD2B0CF043C0803931E0930761
:103F300011F40C94EF2BB4F48F32E1E09E0711F4EE
:103F40000C94EC2B14F40C949C2B803321E09207FE
:103F500011F40C94252B8336914011F40C94F12C20
:103F60000C940E2E883941E0940711F40C94F62B32
:103F700084F48139F1E09F0711F40C94F22B82391B
:103F8000914011F00C940E2E80E00E94003F0C94A2
:103F90000E2E893931E0930711F40C94FA2B8A39EB
:103FA000914011F00C940E2E0E9435460C940E2E6A
:103FB000873FE1E09E0711F40C94912CECF4843FD0
:103FC00021E0920711F40C948B2C3CF4853A91403B
:103FD00011F40C94002C0C940E2E853FE1E09E070A
:103FE00011F40C948E2C863F914011F00C940E2EFF
:103FF0000F9463020C940E2E803A23E0920709F48A
:1040000084C17CF4883542E0940711F40C94EE2CC2
:104010008335934011F00C940E2EEAEDFAE20C94E5
:104020009E2C873EF3E09F0711F40C942D2D893DC3
:10403000974011F40C943F2D0C940E2EE6E3F3E020
:10404000A5C0A090BF17B090C01780E50E94803037
:10405000882359F00E9404416B017C0111E0672B19
:10406000682B692B31F410E004C010E0C12CD12C76
:10407000760183E50E9480308823F1F00E941A3097
:1040800020E030E04AE754E40F94012F0F943134DC
:104090006B017C01111112C0672B682B692B71F425
:1040A000A114B10459F0F5018081882339F061E051
:1040B000C5010E94E9CD0FC0112391F360E08BE0B0
:1040C00093E00E94C7CD10928D1610928E1610921A
:1040D0008F161092901683E090E090936C0F80936F
:1040E0006B0F81E080938C160F94A8130E942B41D4
:1040F000C114D104E104F104E1F08091750F9091B5
:10410000760FA091770FB091780FC80ED91EEA1ED6
:10411000FB1E0F946E15DC01CB018C199D09AE09B5
:10412000BF09B7FF1CC080918C1681110C946E2EB4
:1041300016C080918C16882321F080E00E94668949
:10414000F8CF8091B8139091B91360E0029719F4F9
:104150008FEF92E002C080EF92E00E94C7CD1092F4
:104160008C160C940E2E60E08EE193E00E94C7CD79
:104170004298179815982E989FB7F89480910B0144
:104180008D7F80930B019FBF0C940E2E84918F0125
:104190000F5F1F4F882321F00E946E41F801F6CF78
:1041A000109278161092771681E094E10E9456D30F
:1041B0008BE1E1E0F4E1DE01159601900D928A9524
:1041C000E1F78091FF13909100149C838B838EEC18
:1041D00092E09A83898340E050E0BE016F5F7F4F99
:1041E0008FEB93E00E9486C6CE0101960E94FA886A
:1041F000E7E2F3E084918F010F5F1F4F882311F4F2
:104200000C940E2E0E946E41F801F4CF0E94AFB6BE
:104210000C940E2E1092C8131092C9130C940E2EEB
:10422000E091BF17F091C0178081882329F0803278
:1042300009F410823196F8CF40E061E08091BF1719
:104240009091C0170E94F7B70C940E2E1092C813CD
:104250000E94C3770C940E2E8091C913882311F409
:104260000C940E2E83E50E94803081110C94732EE5
:104270000C940E2E0E94DD770C940E2E40E060E030
:104280008091BF179091C0170E94F7B70C940E2E23
:104290008091C81381110F94A8138091C9138823AA
:1042A00011F40C940E2E80E50E948030882319F0C2
:1042B0000E940B3003C080E50E945130182F482F18
:1042C00061E08091BF179091C0170E94F7B783E516
:1042D0000E948030882381F00E94EA2FAB01BC014C
:1042E0004093F9135093FA136093FB137093FC13EC
:1042F00085EC95E10E940FD10E9436B411110C9407
:104300000E2E0E94FF760C940E2E8091BF17909176
:10431000C01721E02093C71340E060E00E94F7B788
:104320000C940E2E0E9400B47B018C0120E831E534
:1043300041E050E00F948A32C9016DE671E00F94BC
:10434000BC354B015C01C801B70120E13EE040E013
:1043500050E00F948A32CA01B90128E130E040E010
:1043600050E00F948A32762E672EC62ED72EFCE3AD
:104370002F2E312C412C512CC801B701A2019101E3
:104380000F948A32F62EE72ECA01B901A2019101DB
:104390000F948A32CB018E010F5F1F4F811491045D
:1043A00099F0EF92FF927F936F936F927F92BF92FB
:1043B000AF929F928F928FE693E09F938F931F937C
:1043C0000F930F94362E13C0A114B104B1F0EF92E5
:1043D000FF927F936F936F927F92BF92AF928FE520
:1043E00093E09F938F931F930F930F94362E0FB6E6
:1043F000F894DEBF0FBECDBF30C0CD2879F0EF926C
:10440000FF927F936F936F927F9283E593E09F93E8
:104410008F931F930F930F94362EE9CF892B69F05A
:10442000EF92FF927F936F938BE493E09F938F9330
:104430001F930F930F94362EDACFEF92FF9287E4FB
:1044400093E09F938F931F930F930F94362E0F90AB
:104450000F900F900F900F900F9060E0C8010E9496
:10446000E9CDEAEDFAE284917F013FEFE31AF30A26
:10447000882321F00E946E41F701F5CFB80183E84F
:1044800093E00F94810B8AE00E946E410C940E2EF3
:1044900083E50E948030882311F40C940E2E0E9434
:1044A000FA2FE82E80E50E948030882341F00E9498
:1044B000EA2F8B0177FF02C00C940E2E02C006E09B
:1044C00010E0202FEEE7F6E089EA96E0349123131E
:1044D00003C0E7EEF8E209C031968E179F07B1F7E7
:1044E0000C94832E0E946E41F80184918F010F5F1E
:1044F0001F4F8111F7CFE0E9F3E084918F010F5F47
:104500001F4F882311F40C940E2E0E946E41F80167
:10451000F4CFF090E00381E0F826F092E003EAEABD
:10452000F3E084918F010F5F1F4F882321F00E94D9
:104530006E41F801F6CFFF2019F0EFE9F3E002C079
:10454000E4EAF3E084918F010F5F1F4F882311F499
:104550000C940E2E0E946E41F801F4CF0E94FF765B
:104560000C940E2E0E9464C30C940E2E88E690E0EC
:104570000E94E84481110C940E2E8091450F83FF18
:1045800002C00C940E2E83E50E9480308823E1F156
:104590000E941A300F942C34CB010E9400CD0E944F
:1045A0001A3020E030E04AEA52E40F949C2E1816AC
:1045B0003CF00E9464C360E08CEB93E00E94C7CDA6
:1045C0000E941A3020919A1630919B1640919C16A9
:1045D00050919D160F940E351816B4F489E393E0AC
:1045E0009F938F938091D50F90E001969F938F9327
:1045F00085EB93E09F938F931F920E943D760FB6B9
:10460000F894DEBF0FBECDBF0F940C0C0C940E2E91
:104610008EE40E948030882311F40C940E2E0E94A8
:10462000EA2F6093691070936A1080936B109093D7
:104630006C100C940E2E83E50E945130882359F0A3
:1046400083E50E948030882319F00E94FA2F01C070
:1046500080E08093450FEAEDFAE284918F010F5FCD
:104660001F4F811103C0E6EDF3E004C00E946E41CC
:10467000F801F3CF84918F010F5F1F4F882321F042
:104680000E946E41F801F6CF8091450F811103C061
:10469000E2EDF3E034C0E8ECCE2EE3E0DE2EE12CD8
:1046A000F12C20E08091450F90E00E2C02C09595F2
:1046B00087950A94E2F780FF17C0BB24B394B20E2B
:1046C000222319F08CE20E946E41F60185919491AB
:1046D000FC0184918F010F5F1F4F882321F00E94FE
:1046E0006E41F801F6CF2B2D9FEFE91AF90AE2E0AF
:1046F000CE0ED11CF5E0EF16F104A1F60AC08491AC
:104700008F010F5F1F4F882321F00E946E41F80137
:10471000F6CF8AE00E946E410C940E2E1092330266
:104720000C940E2E83E50E948030811103C0EAEDC7
:10473000FAE20DC00E94FA2F8D3320F480934602D6
:104740000C940E2E8CE3809346020C940E2E8491D2
:104750008F010F5F1F4F882321F00E946E41F801E7
:10476000F6CF4091460250E060E070E086EE93E0C4
:104770000F942E0B8AE00E946E410C940E2E8091B5
:10478000450F83FF02C00C940E2E83E50E948030FB
:10479000882311F40C940E2E0E941A300F942C349E
:1047A0006739710514F066E970E07093150F609336
:1047B000140F0E94B7980C940E2E89E690E00E9488
:1047C000E844811111C0EDEEF3E084918F010F5F99
:1047D0001F4F882321F00E946E41F801F6CF0E94FE
:1047E00076958AE00E946E4110926C0F10926B0FCA
:1047F0000C941A2F83E50E948030882311F40C94C6
:104800000E2E0E94FA2F182F8D3308F01CE3109300
:10481000710F0F946E156B017C01212F30E0A8EE13
:10482000B3E00F94D832C60ED71EE81EF91EC09210
:104830006D0FD0926E0FE0926F0FF092700F0C948C
:104840000E2E0E945D4F0C940E2E0E94B84D0C94BB
:104850000E2E80E50E948030811108C083E50E9401
:104860008030811109C03FEF20E00AC00E94FA2F7A
:1048700081110C940E2EF2CF0E94EA2F362F272F93
:10488000832F922F8F3F910519F010F08FEF90E05A
:104890009093170F8093160F0C940E2E80E50E94B4
:1048A0008030811106C01092170F1092160F0C94D1
:1048B0000E2E0E94EA2F672B11F00C940E2EF3CFD0
:1048C0001092E4030C940E2E81E08093E4030C9488
:1048D0000E2E83E50E9480308823A1F00E941A30BA
:1048E00020E030E04AE754E40F94012F0F94313474
:1048F00060934702709348028093490290934A0262
:104900000C940E2E88E50E94513081110C94992E42
:1049100089E50E94513081110C94992E8AE50E94FC
:10492000513081110C94992E85E40E9451308111EF
:104930000C94992E0F94A8130E940C890C940E2E9F
:1049400083E50E945130882311F40C940E2E0E94AE
:104950001A3020E030E04AE754E40F94012F0F941E
:1049600031346093790F70937A0F80937B0F90931B
:104970007C0F0C940E2E68EAC62E62E0D62E7AEDDD
:10498000E72E72E1F72E10E0F60181916F010E948F
:104990005130882309F46DC0133009F063C00E94C0
:1049A0001A304B015C0120E030E040EA51E40F9402
:1049B0009C2E87FF4EC0A50194016091E612709174
:1049C000E7128091E8129091E9120F94C4332B0101
:1049D0003C019B01AC0160914110709142108091AB
:1049E0004310909144100F94012F609341107093E5
:1049F00042108093431090934410A3019201609160
:104A000001177091021780910317909104170F946A
:104A1000012F6093011770930217809303179093EF
:104A20000417609153177091541780915517909106
:104A300056170F94A02EA30192010F94012F0F94EB
:104A40003134609353177093541780935517909394
:104A500056178092E6129092E712A092E812B09256
:104A6000E91207C00E941A30F701608371838283C4
:104A700093831F5FF4E0EF0EF11C143009F084CF34
:104A80000F94590D0C940E2E0F94A8130E94FD4BF9
:104A90000C940E2E84918F010F5F1F4F882321F0FD
:104AA0000E946E41F801F6CF60E081EA94E00E9436
:104AB000C74B61E08AE994E00E94C74B61E08FE850
:104AC00094E00E94C74B61E08FE794E00E94C74BDF
:104AD00060E086E794E00E94C74B61E08CE694E0DA
:104AE0000E94C74B61E082E694E00E94C74B61E000
:104AF0008AE594E00E94C74B61E08CE494E00E9458
:104B0000C74B60E08EE394E00E94C74B60E08FE209
:104B100094E00E94C74B61E081E294E00E94C74BA1
:104B200061E08BE094E00E94C74B60E08AEF93E085
:104B30000E94C74B0C940E2E60E08091BF1790919D
:104B4000C0170E94E9CD0C940E2E85E40E9480309F
:104B5000882319F00E940B3003C085E40E94513075
:104B6000882361F0EAEDFAE284918F010F5F1F4F15
:104B7000882321F00E946E41F801F6CF81E40E9463
:104B80008030882319F00E940B3003C081E40E941A
:104B90005130882361F0E1E7F5E084918F010F5FE8
:104BA0001F4F882321F00E946E41F801F6CF00913B
:104BB000BF171091C017F80181918F01882309F464
:104BC000A8CD0E946E41F7CF0E946E41F8018491FA
:104BD0008F010F5F1F4F8111F7CFE5E8F5E084915A
:104BE0008F010F5F1F4F882321F00E946E41F80153
:104BF000F6CF029903C00BE213E002C006E213E015
:104C0000F80181918F01882319F00E946E41F8CF3D
:104C10008AE00E946E41EDE7F5E084918F010F5F1D
:104C20001F4F882321F00E946E41F801F6CF0699AC
:104C300003C00BE213E002C006E213E0F801819129
:104C40008F01882319F00E946E41F8CF8AE00E94FC
:104C50006E41E5E7F5E084918F010F5F1F4F8823D8
:104C600021F00E946E41F801F6CF379B03C00BE2A2
:104C700013E002C006E213E0F80181918F0188235E
:104C800009F447CD0E946E41F7CF81E0809329134C
:104C900080932813C3C783E50E948030882319F0CE
:104CA0000E94EA2F02C060E070E08B011127023001
:104CB0001105D4F0E7EEF8E284918F010F5F1F4FEA
:104CC000811103C0E7EAF5E004C00E946E41F801DB
:104CD000F3CF84918F010F5F1F4F882309F49EC784
:104CE0000E946E41F801F5CF88E40E94803088234D
:104CF000A9F00E94EA2F6A3A71053CF06530F1E0B4
:104D00007F072CF064E071E002C06AEA70E0F8010D
:104D1000EE0FFF1FEB51F94E7183608386E40E9412
:104D200080308823A9F00E94EA2FF801EE0FFF1FC0
:104D3000E751F94E718360836F3F710519F014F0EC
:104D40006FEF70E077FF02C060E070E07183608316
:104D500082E40E948030882309F460C70E94EA2F11
:104D60006530710534F0683871052CF067E870E043
:104D700002C065E070E0000F111FF801EF51F94E1D
:104D8000718360834BC783E50E948030882341F0A4
:104D90000E94EA2F8B01623071050CF03FC702C000
:104DA00000E010E080E50E948030882341F10E94FD
:104DB0001A306B017C0120E030E0A9010F949C2E99
:104DC00087FD1DC02DEB37E346E855EBC701B60163
:104DD0000F940E3587FD0AC02DEB37E346E855E307
:104DE000C701B6010F949C2E18167CF4A7019601FA
:104DF00060E070E080E89FE30F94C43309C0C12CE9
:104E0000D12C7601C701B60103C060E070E0CB0190
:104E1000F801EE0FFF1FEE0FFF1FEF57FA4F6083F1
:104E2000718382839383012B09F0F8C620E030E080
:104E300048EC52E4C701B6010F94012F0F943134AE
:104E400070E07093971060939610E8C683E50E9417
:104E50008030882341F00E94EA2F8B016031710578
:104E60000CF0DCC602C000E010E0C0908105D090DC
:104E70008205E0908305F09084052DEB37E346E84A
:104E800055EBC701B6010F940E3587FF09C0A70186
:104E9000960160E070E080E89FE30F94C4330DC09A
:104EA0002DEB37E346E855E3C701B6010F949C2E7E
:104EB00018166CF360E070E0CB0120E030E0A9014F
:104EC0000F94E8324B015C01C0908505D0908605B7
:104ED000E0908705F09088052DEB37E346E855EB29
:104EE000C701B6010F940E3587FD0AC02DEB37E3DD
:104EF00046E855E3C701B6010F949C2E18164CF4F2
:104F0000A701960160E070E080E89FE30F94C4334E
:104F100003C060E070E0CB01A50194010F94E8327A
:104F20004B015C0120E030E040E85FE30F94E732A2
:104F30006B017C012DEB37E346E855EB0F940E3502
:104F400087FD0AC02DEB37E346E855E3C701B601FC
:104F50000F949C2E1816B4F5E9ECF5E084917F01CE
:104F60002FEFE21AF20A811129C0A5019401609184
:104F700081057091820580918305909184050F943D
:104F8000012F609381057093820580938305909330
:104F90008405A50194016091850570918605809135
:104FA0008705909188050F94012F60938505709374
:104FB0008605809387059093880504C00E946E4102
:104FC000F701CCCF83E0000F111F8A95E1F7F801BC
:104FD000EB52FB4F8091810590918205A091830552
:104FE000B091840580839183A283B38380918505EA
:104FF00090918605A0918705B0918805848395835B
:10500000A683B7830BC60F94601708C688EC90E0A0
:105010000E94E844811102C684E40E945130882332
:1050200009F440C00E941A306B017C0111E020E0BD
:1050300030E0A9010F949C2E811101C010E0109363
:105040004A1020E030E0A901C701B6010F949C2E60
:10505000882341F1EFD7E091D50F34E0E39FF001D1
:105060001124EA5BFF4E608371838283938320E087
:1050700030E0A9016091461070914710809148106E
:10508000909149100F949C2E81110CC080E090E00B
:10509000A0EEBFE38093461090934710A093481072
:1050A000B09349100E9480DFB9C508EAE02E02E003
:1050B000F02E09E110E1F70181917F01F2D78823F9
:1050C00041F0B8D70F943134F80160837183828343
:1050D00093830C5F1F4FF0E109321F0761F70F94B4
:1050E0003C0C9CC50C5F1F4FF7E105301F0709F40E
:1050F00095C5F70181917F01D4D7882399F39AD779
:10510000F8016083718382839383ECCF83E5C9D7F1
:105110008823D1F08FD7AB01BC014093311050935D
:1051200032106093331070933410409329105093D1
:105130002A1060932B1070932C1086E596E00F9444
:105140004B0B8AE00E946E4180E5ABD7882391F03B
:1051500071D7AB01BC014093311050933210609372
:1051600033107093341089E396E00F944B0B8AE070
:105170000E946E4182E595D7882391F05BD7AB0101
:10518000BC0140932D1050932E1060932F107093FC
:1051900030108AE196E00F944B0B8AE00E946E413A
:1051A00084E57FD7882309F439C544D7AB01BC0116
:1051B0004093291050932A1060932B1070932C1059
:1051C0008CEF95E00F944B0B8AE00E946E4126C550
:1051D00083E567D7882349F02DD76093F116709344
:1051E000F2168093F3169093F41684E55AD7882329
:1051F00049F020D76093ED167093EE168093EF166A
:105200009093F01682E44DD7882351F00E94044118
:105210006093BE167093BF168093C0169093C1160C
:1052200088E53FD7882349F005D760933510709300
:105230003610809337109093381089E532D7882341
:1052400049F0F8D66093391070933A1080933B1070
:1052500090933C108AE525D7882349F0EBD66093DC
:105260003D1070933E1080933F109093401085E462
:1052700018D7882309F4D2C4DDD660934110709307
:1052800042108093431090934410C8C483E538D7EC
:10529000882309F4C3C49ED670933B0260933A02FC
:1052A000BDC48DED90E00E94E8448111B7C483E550
:1052B00027D7882309F4B2C40091D50F10E08AD60D
:1052C000000F111FF801E85CFD4F7183608380912E
:1052D000D50F90E08C01000F111F000F111F9801D6
:1052E0002C5C3D4F7901880F991FFC01E85CFD4F54
:1052F00060817181072E000C880B990B0F94A22EF0
:105300002AE037ED43E25CE30F94012FF801EA5BFA
:10531000F04F20813181428153810F94012FF70199
:10532000608371838283938379C480E5BAD68823AE
:1053300009F474C44FD66B017C0183E5E1D6882360
:1053400019F048D68B0102C00FEF1FEFC80101967C
:10535000039708F063C4D7FC61C48C2DEEE7F6E038
:105360009491891709F45AC4319626E0E93AF20774
:10537000B9F737C580E595D6882309F44FC42AD6F6
:105380006B017C018B01672B19F0E7EEF8E27DC021
:1053900083E587D6811103C0EAEDFAE206C01AD68A
:1053A00087E993E10E94A47339C484917F013FEFA0
:1053B000E31AF30A882321F00E946E41F701F5CF2A
:1053C00060E070E082EC96E00F94680B8091991396
:1053D00028E532E06901C81AD10887FDD394CC0CC6
:1053E000DD1CCC0CDD1C0D2C000CEE08FF088091A0
:1053F000981328E830E04901881A910887FD9394B2
:10540000880C991C880C991C092C000CAA08BB0854
:10541000809197138F3FB9F090E0FC01EE0FFF1FD2
:105420008E0F9F1FFC01E65DFC4E0181128153E04F
:10543000000F111F5A95E1F764E0169507956A95DC
:10544000E1F70E5F1F4F98012F5F3F4FC901330FE8
:10545000AA0BBB0B9C01AD01281939094A095B094C
:10546000A4EBB0E00F94C832A701960128193909BE
:105470004A095B090F94AC32B9018FEB96E00F94A7
:10548000680B8AE00E946E41C9C384918F010F5F4F
:105490001F4F882321F00E946E41F801F6CFB6011C
:1054A00088EB96E00F94680BE9EAF6E084918F01AF
:1054B0000F5F1F4F882309F4B1C30E946E41F801AA
:1054C000F5CF8AE51DD6811153C483E519D6811124
:1054D0004FC4A4C383E514D6882311F07BD502C042
:1054E00064E071E079A368A380E50AD6882331F0EF
:1054F00071D5693843E1740730F402C068EE73E097
:105500007A83698304C088E893E19A838983BE0122
:10551000605E7F4FCE0101960E944FC47FC385E439
:10552000EFD581110EC080E5BCD5882381F082D5EE
:105530006093CC167093CD168093CE169093CF16B1
:1055400006C058D5882379F3E7EEF8E26DC089E408
:10555000A8D5882379F06ED52CEA35EC47E25EE3D6
:105560000F94012F6093DC167093DD168093DE1686
:105570009093DF1684E495D5882379F05BD52CEAE7
:1055800035EC47E25EE30F94C4336093D416709316
:10559000D5168093D6169093D716EAEDFAE2849149
:1055A0008F010F5F1F4F882321F00E946E41F80189
:1055B000F6CF4091CC165091CD166091CE167091D9
:1055C000CF1682ED96E00F944B0B2CEA35EC47E2B8
:1055D0005EE36091DC167091DD168091DE1690918D
:1055E000DF160F94C433AB01BC018EEC96E00F9430
:1055F0004B0B2CEA35EC47E25EE36091D4167091D8
:10560000D5168091D6169091D7160F94012FAB0125
:10561000BC018AEC96E00F944B0B8AE00E946E412D
:10562000FDC20E946E41F80184918F010F5F1F4FF0
:105630008111F7CF04E413E0F80181918F018823F1
:1056400009F467C80E946E41F7CF80E52AD5882308
:1056500049F0F0D460936A1770936B1780936C17BE
:1056600090936D1789E41DD5882379F0E3D42CEA53
:1056700035EC47E25EE30F94012F60936617709359
:105680006717809368179093691784E40AD5882375
:1056900079F0D0D42CEA35EC47E25EE30F94C433C2
:1056A00060936217709363178093641790936517E4
:1056B000EAEDFAE284918F010F5F1F4F882321F0FA
:1056C0000E946E41F801F6CF40916A1750916B1716
:1056D00060916C1770916D178EED96E00F944B0BE7
:1056E0002CEA35EC47E25EE360916617709167172C
:1056F00080916817909169170F94C433AB01BC0176
:105700008AED96E00F944B0B2CEA35EC47E25EE312
:10571000609162177091631780916417909165177B
:105720000F94012FAB01BC0186ED96E00F944B0B5B
:105730008AE00E946E4172C283E5B3D4182F882399
:1057400069F078D40F942C34709393026093920292
:1057500021E0672B09F020E020939E1680E5A1D47C
:10576000882351F02091920230919302232B09F06B
:1057700052D480939E1652C2111150C2EAEDFAE241
:1057800084918F010F5F1F4F882321F00E946E418B
:10579000F801F6CF80919E16882319F068E273E035
:1057A00002C065E373E087EF96E00F94810B609190
:1057B00092027091930286EE96E00F94680BE2EEEF
:1057C000F6E084918F010F5F1F4F882309F426C2F2
:1057D0000E946E41F801F5CF0E9468461FC20F94E7
:1057E000A8131CC281E00E94003F18C281E0809390
:1057F000451014C21092451011C20E94C44C0EC232
:1058000089E47ED4882319F0E5D3162F01C01FEF59
:105810008AE476D4882319F0DDD3062F01C00FEF78
:105820008AE53FD4F82E811104C081E53AD4D82E00
:1058300001C0D12C17FD06C007FD04C0F1101CC02B
:10584000D1101AC0E7EEF8E284918F010F5F1F4F6D
:10585000811103C0E9E2F7E004C00E946E41F80143
:10586000F3CF84918F010F5F1F4F882309F4D6C1B6
:105870000E946E41F801F5CF133010F40330D0F0E0
:10588000E7EEF8E284918F010F5F1F4F811103C093
:10589000EAE0F7E004C00E946E41F801F3CF849182
:1058A0008F010F5F1F4F882309F4B8C10E946E411A
:1058B000F801F5CFE12E110FFF08002E000C110B9F
:1058C000B9D3D701AA0FBB1FDD2081F0FD01EE0D7A
:1058D000FF1DE00FF11FEE0FFF1FEE0FFF1FED5E2C
:1058E000F84E208131814281538103C020E030E0B5
:1058F000A901EA0EFB1E0E0D1F1D000F111F000F48
:10590000111F0D5E184E0F94E832F8016083718309
:105910008283938383C10E949EA980C10F94A703B1
:105920007DC183E5BED3882319F075D391E0892723
:105930000E94FCA473C10E946E41F80184918F0102
:105940000F5F1F4F8111F7CFE5E6F7E084918F01DC
:105950000F5F1F4F882321F00E946E41F801F6CFA0
:105960008AE59FD3882351F165D36B017C0120E048
:1059700030E040EA51EC0F940E3587FD0AC020E07C
:1059800030E040EA51E4C701B6010F949C2E18168E
:105990006CF4ECE4F7E084918F010F5F1F4F8823D4
:1059A00009F43CC10E946E41F801F5CFC092200F6E
:1059B000D092210FE092220FF092230F4091200FFE
:1059C0005091210F6091220F7091230F89E497E08D
:1059D0000F944B0B8AE00E946E4120C10E94748498
:1059E0001DC180E58DD3882329F004D3809356050B
:1059F00011E001C010E083E583D3882321F00BD3AD
:105A00008093570501C011110F947118EAEDFAE265
:105A100084918F010F5F1F4F882321F00E946E41F8
:105A2000F801F6CF8091570581110CC005E513E010
:105A3000F80181918F01882311F40C9489230E942D
:105A40006E41F6CF6091560570E084E797E00F94C1
:105A5000680B8AE00E946E41E1C081E08093A3025E
:105A60001092350F83E54CD3882311F0D4D202C0B5
:105A700083E517D38111D2C00F94C415CFC086E53A
:105A800010D3882349F0D6D26093040270930502A4
:105A900080930602909307021DA21CA282E793E066
:105AA00099A388A39E012C5D3F4F44E050E064E041
:105AB00072E0CE0180960E9432A98CA19DA19A83AA
:105AC0008983E8A0F9A080E793E099A388A39E01C9
:105AD0002C5D3F4F42E050E0BE016F5F7F4FCE0133
