:100000000C94AF190C94E0190C94E0190C94E019BD
:100010000C94E0190C94E0190C94E0190C94E0197C
:100020000C94E0190C94E0190C94E0190C94E0196C
:100030000C94E0190C94E0190C94E0190C94E0195C
:100040000C94E0190C94AB6A0C94E0190C94E01930
:100050000C94E0190C94E0190C9476FF0C9497F52D
:100060000C94E0190C948D370C94E0190C94E01961
:100070000C94E0190C94E0190C94E0190C94E0191C
:100080000C9492740C94E0190C94E0190C94E019FF
:100090000C94E0190C94E0190C94E0190C94E019FC
:1000A0000C94E0190C94E0190C9464740C94E0190D
:1000B0000C94E0190C94E0190C94E0190C9436742B
:1000C0000C94E0190C94E0190C94E0190C94E019CC
:1000D0000C94E0190C94E0190C94E0190C94E019BC
:1000E0000C94E019C75FD05FDA5FE35FEC5F0760F5
:1000F00014601D60F55FFE5FACF3AFF39EF3A2F3F7
:10010000A8F3E6F3B3F3B7F3BDF3C1F3C5F3CBF351
:10011000CFF3D3F3E6F3D9F3DDF3E1F3B3F4B8F4BB
:10012000BDF4C7F4D1F44AF5DBF4E3F4EBF4F5F4F1
:10013000FFF409F518F522F54AF52CF536F540F5EA
:10014000084AD73B3BCE016E84BCBFFDC12F3D6C3E
:1001500074319ABD56833DDA3D00C77F11BED9E4A4
:10016000BB4C3E916BAAAABE000000803F05A84C84
:10017000CDB2D44EB93836A9020C50B99186880850
:100180003CA6AAAA2ABE000000803F000D940515D7
:100190000D94DF070D94DE090D940A150D94A1133B
:1001A0000D945C130D9486080D943E130D940F1559
:1001B0000D9466130D949D040D9461130D944313D7
:1001C0000D94B8020D94F92A0D9439130D946B1007
:1001D0000D945F060D949F030D94A2280D94341383
:1001E0004E414E494E495459494E46CDCCCC3D0A1C
:1001F000D7233C17B7D13877CC2B329595E6241FFF
:10020000B14F0A000020410000C84200401C4620B7
:10021000BCBE4CCA1B0E5AAEC59D7447322F473325
:100220002062616420706172616D65746572730A29
:1002300000205A3A200020593A2000426564205894
:100240003A2000526573756D696E67207072696E31
:1002500074005072696E7465722072656164792EE3
:1002600000436C69636B20746F20726573756D65F4
:100270002E2E2E004E6F206D6F76652E00456E641B
:100280002066696C65206C6973740A004265676951
:100290006E2066696C65206C6973740A0046696C2F
:1002A000652064656C657465643A0044656C6574CA
:1002B000696F6E206661696C65642C2046696C65A7
:1002C0003A20006F70656E206661696C65642C2051
:1002D00046696C653A20002569730025696D202503
:1002E0006973002569682025696D202569730025DB
:1002F0006964202569682025696D202569730025BA
:10030000697920256964202569682025696D202583
:100310006973005072696E742074696D653A2000CB
:1003200050726F7465637465642050696E0A006F63
:100330006E2E0A006F66662E0A004732362044652C
:100340006275672000452569202573005072696E2B
:100350007465722072656164792E004B494C4C457E
:10036000442E20004D3131332053006F6B0050720A
:10037000696E746572204F66662E00454D45524782
:10038000454E43595F5041525345520043415345F6
:100390005F4C494748545F4252494748544E455381
:1003A0005300544F47474C455F4C4947485453000E
:1003B000534F4654574152455F504F5745520042A4
:1003C00055494C445F50455243454E54004C4556A8
:1003D000454C494E475F44415441005A5F50524F8B
:1003E0004245004155544F4C4556454C00505249EA
:1003F0004E545F4A4F420050524F475245535300AC
:100400004155544F5245504F52545F54454D500042
:10041000564F4C554D455452494300454550524F57
:100420004D0053455249414C5F584F4E5F584F461F
:1004300046004649524D574152455F4E414D453A5F
:100440004D61726C696E20312E312E38202847693B
:10045000746875622920534F555243455F434F449A
:10046000455F55524C3A68747470733A2F2F676920
:10047000746875622E636F6D2F4D61726C696E4684
:1004800069726D776172652F4D61726C696E205073
:10049000524F544F434F4C5F56455253494F4E3A7B
:1004A000312E30204D414348494E455F5459504507
:1004B0003A5072696E7465722045585452554445DD
:1004C000525F434F554E543A3120555549443A6393
:1004D000656465326132662D343161322D343734D2
:1004E000382D396231322D63353563363266333615
:1004F0003766660A002F2F20007A5F6D696E3A20FA
:1005000000795F6D696E3A2000785F6D696E3A2000
:10051000005265706F7274696E6720656E647374E3
:100520006F70207374617475730A004D3134352017
:10053000533C696E6465783E206F7574206F662049
:1005400072616E67652028302D31290A005761726B
:100550006E696E673A204D697820666163746F72C8
:1005600073206D7573742061646420757020746FDE
:1005700020312E302E205363616C696E672E0A0085
:10058000252900257C00202800252920746F205A69
:1005900000257C002028004F4E2066726F6D205A87
:1005A000004F4646004772616469656E74204D696C
:1005B00078200053657474696E67205472617665A3
:1005C0006C20416363656C65726174696F6E3A207B
:1005D0000053657474696E67205265747261637448
:1005E00020416363656C65726174696F6E3A2000C7
:1005F00053657474696E67205072696E742041632C
:1006000063656C65726174696F6E3A20005365743E
:1006100074696E67205072696E7420616E64205434
:10062000726176656C20416363656C6572617469A3
:100630006F6E3A2000205A00205900580020204DAB
:1006400061783A2000205A00205900580020204D9F
:10065000696E3A20004F6E20004F666600536F6649
:100660007420656E6473746F70733A200000012506
:10067000272318FF1F211D1CFF19171B1EFFFF0C2E
:100680000409FFFFFF2E2C0CFFFF312F302B2D29EB
:1006900004400AFF41FFFFFFFFFFFF206F7574203A
:1006A0006F662072616E67650A00536572766F200F
:1006B000003A200020536572766F200020643A00D3
:1006C00020693A0020703A0020643A0020693A001C
:1006D00020703A0043290A0061626C656420286D2D
:1006E000696E2074656D702000436F6C64206578BE
:1006F0007472756465732061726520004B6420001C
:1007000023646566696E65202044454641554C5416
:100710005F004B69200023646566696E6520204494
:10072000454641554C545F004B702000236465667C
:10073000696E65202044454641554C545F00504940
:1007400044204175746F74756E652066696E6973B7
:10075000686564212050757420746865206C61732D
:1007600074204B702C204B6920616E64204B6420F8
:10077000636F6E7374616E74732066726F6D206246
:10078000656C6F7720696E746F20436F6E66696762
:1007900075726174696F6E2E680A00504944204179
:1007A00075746F74756E65206661696C656421206F
:1007B00074696D656F75740A00544845524D414C1B
:1007C0002052554E4157415900546865726D616C15
:1007D0002052756E617761790048656174696E6752
:1007E000206661696C65640048656174696E6720A4
:1007F0006661696C656400504944204175746F748A
:10080000756E65206661696C6564212054656D7044
:100810006572617475726520746F6F2068696768AE
:100820000A00204B643A2000204B693A2000204BFC
:10083000703A20000A20436C617373696320504949
:1008400044200A002054753A2000204B753A2000BD
:10085000206D61783A2000206D696E3A2000206496
:100860003A200020626961733A20003A2000207A21
:100870005F6D696E3A20202D3230207A5F6D61788D
:100880003A202032300A0050726F6265205A204FA1
:10089000666673657400290A00466978656420708D
:1008A0006172616D657465722062797465733B2055
:1008B0006372632000466978656420706172616DBF
:1008C0006574657220280048565F7365745F6F6BAE
:1008D0000A00556E6B6E6F776E20636F6D6D616E83
:1008E000643A2022004D6573682056616C6964612A
:1008F00074696F6E2053746F707065642E00696E3A
:10090000206D6F76655F746F282920666565645F6A
:1009100076616C756520666F722058593A004C6597
:100920006176696E67204732360047323620486567
:100930006174696E67204E6F7A7A6C652E0047325B
:10094000362048656174696E67204265642E0044F4
:100950006F6E65205072696D696E6700446F6E65D9
:10096000205072696D696E67004669786564204C35
:10097000656E677468205072696D652E00557365E9
:10098000722D436F6E74726F6C6C65642050726967
:100990006D65002C2065793D0029202D3E202865BD
:1009A000783D002C2073793D0020436F6E6E6563A7
:1009B00074696E67207769746820766572746963FC
:1009C000616C206C696E65202873783D002C206571
:1009D000793D0029202D3E202865783D002C20738C
:1009E000793D0020436F6E6E656374696E67207792
:1009F00069746820686F72697A6F6E74616C206CBC
:100A0000696E65202873783D004C656176696E6774
:100A100020473236002C2079693D00202020446F89
:100A2000696E6720636972636C652061743A20287F
:100A300078693D003F537065636966696564205855
:100A40002C5920636F6F7264696E617465206F75D5
:100A500074206F6620626F756E64732E0A003F28E3
:100A6000522965706561742076616C7565206E6FC2
:100A70007420706C61757369626C653B206D757371
:100A800074206265206174206C6561737420312E5E
:100A90000A003F537065636966696564206E6F7A0A
:100AA0007A6C652074656D7065726174757265200D
:100AB0006E6F7420706C61757369626C652E0A00CC
:100AC0003F5370656369666965642066696C616D32
:100AD000656E742073697A65206E6F7420706C6126
:100AE000757369626C652E0A003F537065636966B1
:100AF000696564207072696D65206C656E677468E5
:100B0000206E6F7420706C61757369626C652E0A5B
:100B1000003F537065636966696564206E6F7A7A19
:100B20006C652073697A65206E6F7420706C6175D6
:100B30007369626C652E0A003F537065636966696C
:100B400065642052657472616374696F6E204D75BF
:100B50006C7469706C696572206E6F7420706C6162
:100B6000757369626C652E0A003F52657472616329
:100B700074696F6E204D756C7469706C6965722054
:100B80006D7573742062652073706563696669654D
:100B9000642E0A003F537065636966696564206C62
:100BA0006179657220686569676874206E6F74206A
:100BB000706C61757369626C652E0A003F537065D5
:100BC000636966696564206265642074656D70653B
:100BD000726174757265206E6F7420706C617573CC
:100BE00069626C652E0A0047323620636F6D6D6155
:100BF0006E6420737461727465642E205761697429
:100C0000696E6720666F722068656174657228730B
:100C1000292E0A00200D4669786564207061726192
:100C20006D65746572206E62797465733B206372C2
:100C300063206572726F722000200D0A4669786524
:100C40006420706172616D6574657220627974658B
:100C5000733B20637263206572726F722000290AF1
:100C6000002062797465733B2063726320004669DB
:100C700078656420706172616D657465722028000A
:100C80002068617264776172652076657273696F3E
:100C90006E3A004B494C4C45442E2000202D2049F3
:100CA0006E76616C69642065787472756465722013
:100CB0006E756D62657220210A002D2D2D2D2D2D52
:100CC000007C4D61726C696E7C002D2D2D2D2D2DBB
:100CD00000687474703A2F2F6D61726C696E66775C
:100CE0002E6F726700687474703A2F2F6D61726C8A
:100CF000696E66772E6F72670020312E312E3800B4
:100D00002020506C616E6E65724275666665724237
:100D1000797465733A20002046726565204D656DD3
:100D20006F72793A2000436F6D70696C65643A2088
:100D30004E6F7620313520323031390A00207C2048
:100D4000417574686F723A20286E6F6E652C20644E
:100D5000656661756C7420636F6E666967290A0049
:100D6000323031372D31322D32352031323A303078
:100D700000204C61737420557064617465643A207E
:100D800000312E312E380A004D61726C696E0020E0
:100D9000536F6674776172652052657365740A00DB
:100DA000205761746368646F672052657365740AC5
:100DB000002042726F776E206F75742052657365E4
:100DC000740A002045787465726E616C20526573F8
:100DD00065740A00506F77657255700A007374610C
:100DE00072740A006572726F722077726974696E2C
:100DF0006720746F2066696C650A00456E647374C1
:100E00006F707320256320256320256320256300F0
:100E1000205A3A0020593A0020583A00656E64730F
:100E2000746F7073206869743A2000473238205814
:100E30000066696C616D656E74206F75740A004D93
:100E400033322053256C7520212573004D33322019
:100E500053256C7520212F25732F257300473020D3
:100E60004631303030205A25752E257500473238EE
:100E70002059004732382058004D31303620205359
:100E8000323535004D31303920543020532575002E
:100E90004D3139302053257500446F6E65207361E4
:100EA00076696E672066696C652E0A004D323900DE
:100EB0007C3C3E5E2B3D3F2F5B5D3B2C2A225C0041
:100EC0004572726F722077726974696E6720746FF1
:100ED00020454550524F4D210A004368616E6765B9
:100EE0002066696C616D656E74004261627973742D
:100EF0006570205A00466C6F7700466C6F7700462D
:100F0000616E2073706565640046616E2073706564
:100F100065640042656400426564004E6F7A7A6CD5
:100F200065004E6F7A7A6C65005370656564005396
:100F300070656564004D61696E0050726568656139
:100F40007420504C4120456E6400507265686561A4
:100F50007420504C412042656400507265686561A0
:100F60007420504C4100507265706172650050727F
:100F700065686561742041425320456E640050727B
:100F80006568656174204142532042656400507277
:100F900065686561742041425300507265706172EA
:100FA00065004261636B004E65787420636F726EFA
:100FB0006572004D323830205030205331363000C9
:100FC000424C546F7563682053656C662D5465738D
:100FD00074004D32383020503020533132300050C0
:100FE000726568656174204142530050726568659E
:100FF000617420504C4100436F6F6C646F776E00DA
:101000004368616E67652066696C616D656E74002A
:10101000526573657420424C546F7563680044696F
:101020007361626C65207374657070657273004DD6
:101030003834004C6576656C20636F726E65727330
:1010400000426564204C6576656C696E67004732C6
:10105000380A473239004175746F20686F6D65003A
:10106000473238004D6F76652061786973004D61B5
:10107000696E0042696C696E656172204C657665C7
:101080006C696E67004578747275646572733A2096
:101090003100687474703A2F2F6D61726C696E66DE
:1010A000772E6F7267005072696E7465720032300D
:1010B00031372D31322D32352031323A3030003156
:1010C0002E312E38004D61726C696E005468657265
:1010D0006D6973746F727300426F61726420496E40
:1010E000666F005072696E74657220496E666F009B
:1010F0004D61696E0020204E6F7A7A6C653A20004F
:101100004261636B004D696E696D756D2054656D4C
:1011100070206973203137302E0048656174696E24
:1011200067206661696C65640045787472756465F2
:10113000206D6F726500526573756D652070726900
:101140006E7400524553554D45204F5054494F4EF3
:10115000533A0020204E6F7A7A6C653A200063681B
:10116000616E6765006F66207468652066696C61F2
:101170006D656E74005761697420666F72207374B8
:10118000617274005052494E5420504155534544A9
:101190000020204E6F7A7A6C653A200066696C6197
:1011A0006D656E7420756E6C6F6164005761697453
:1011B00020666F72005052494E542050415553459D
:1011C000440020204E6F7A7A6C653A2000506C659E
:1011D00061736520776169742E2E2E0048656174F5
:1011E000696E67206E6F7A7A6C65005052494E5472
:1011F000205041555345440020204E6F7A7A6C654B
:101200003A200068656174206E6F7A7A6C652E00F2
:10121000507265737320627574746F6E20746F0002
:101220005052494E54205041555345440020204EC1
:101230006F7A7A6C653A2000746F20636F6E746900
:101240006E75652E2E2E00616E642070726573734C
:1012500020627574746F6E00496E736572742066D7
:10126000696C616D656E74005052494E5420504156
:10127000555345440020204E6F7A7A6C653A200021
:1012800066696C616D656E74206C6F616400576196
:10129000697420666F72005052494E542050415577
:1012A0005345440020204E6F7A7A6C653A200066E0
:1012B000696C616D656E7420657874727564650023
:1012C0005761697420666F72005052494E54205025
:1012D000415553454400746F20726573756D650008
:1012E0005761697420666F72207072696E74005065
:1012F00052494E5420504155534544005265736540
:101300006E643A20006F6B0020746F6F206C6F6EFC
:101310006720657874727573696F6E207072657678
:10132000656E7465640A0020636F6C642065787470
:10133000727573696F6E2070726576656E74656420
:101340000A00627573793A2070617573656420666E
:101350006F7220696E7075740A00627573793A2035
:1013600070617573656420666F7220757365720AAB
:1013700000627573793A2070726F63657373696E7A
:10138000670A004B494C4C45442E20004B494C4CBD
:101390002063617573656420627920746F6F206DBE
:1013A00075636820696E6163746976652074696D20
:1013B00065202D2063757272656E7420636F6D6D8C
:1013C000616E643A2000506C6561736520726573CC
:1013D0006574005052494E5445522048414C544582
:1013E00044005072696E7465722068616C74656443
:1013F0002E206B696C6C28292063616C6C656421FC
:101400000A0024F4D43050C38E20C2A24017828B2D
:101410007011127A910D816CD90AA861E108C75840
:101420006607615143061E4B5D05C145A7041A417D
:101430001104093D9803713931034036DB026533ED
:101440009102D4305402802E1D02632CEE01752AC5
:10145000C501B028A001102781018F2564012B242C
:101460004B01E0223401AC211F018D200D01801FB2
:10147000FC00841EED00971DDF00B81CD200E61BA7
:10148000C600201BBC00641AB200B219A8000A19D9
:10149000A0006A189900D117910040178B00B5166B
:1014A000840031167E00B31579003A157300C71415
:1014B0006F0058146A00EE1366008813630025134A
:1014C0005E00C7125B006C12570015125400C11168
:1014D000510070114F0021114B00D61049008D10A2
:1014E00047004610440002104200C00F4000800F29
:1014F0003E00420F3C00060F3B00CB0E3800930E1F
:1015000037005C0E3500270E3400F30D3200C10D9C
:101510003100900D3000600D2E00320D2D00050DB4
:101520002C00D90C2B00AE0C2900850C29005C0C7A
:101530002700350C27000E0C2600E80B2400C40BF6
:101540002400A00B23007D0B23005A0B2100390B34
:101550002100180B2000F80A1F00D90A1E00BB0A40
:101560001E009D0A1D00800A1D00630A1C00470A18
:101570001B002C0A1B00110A1A00F7091A00DD09CA
:101580001900C4091900AB091900920917007B0959
:101590001800630917004C091600360916002009C7
:1015A00016000A091500F5081500E0081400CC081B
:1015B0001400B8081400A4081400900813007D0853
:1015C00012006B0813005808120046081200340875
:1015D0001100230811001208110001081100F00782
:1015E0001000E0071000D0071000C0071000B0077F
:1015F0000F00A107100091070E0083070F0074076A
:101600000F0065070E0057070E0049070E003B0745
:101610000D002E070E0020070D0013070D00060712
:101620000D00F9060C00ED060D00E0060C00D406D6
:101630000C00C8060C00BC060C00B0060C00A4068A
:101640000B0099060C008D060B0082060B00770636
:101650000B006C060B0061060A0057060B004C06D7
:101660000A0042060A0038060A002E060A0024066E
:101670000A001A060A001006090007060A00FD05FE
:101680000900F4050900EB050900E2050900D90588
:101690000900D0050900C7050900BE050900B50508
:1016A0000800AD050800A50509009C050800940583
:1016B00008008C050800840508007C0508007405F6
:1016C00008006C050700650508005D050700560564
:1016D00008004E05070047050700400508003805CB
:1016E0000700310507002A050700230507001C0530
:1016F0000600160507000F0507000805060002058D
:101700000700FB040600F5040700EE040600E804E9
:101710000600E2040700DB040600D5040600CF043F
:101720000600C9040600C3040600BD040600B70491
:101730000600B1040500AC040600A6040600A004DF
:1017400005009B04060095040500900406008A0429
:10175000050085040500800406007A040500750470
:101760000500700405006B040500660405006104B3
:1017700005005C04050057040500520405004D04F3
:10178000050048040500430405003E0404003A0433
:10179000050035040500300404002C04050027046E
:1017A0000400230405001E0404001A0404001604A7
:1017B0000500110404000D040400090405000404DC
:1017C000040000040400FC030400F8030400F40314
:1017D0000400F0030400EC030400E8030400E40345
:1017E0000400E0030400DC030400D8030400D40375
:1017F0000400D0030400CC030400C8030300C503A5
:10180000030024F404D9201BC40C5C0E9804C40902
:101810005F0265077101F405F900FB04B300480499
:101820008700C10369005803550003034500BE0249
:101830003A008402310053022A00290225000402E2
:101840002000E4011C00C8011900AF011700980135
:101850001400840113007101100061011000510196
:101860000E0043010D0036010B002B010B0020017F
:101870000B00150109000C01090003010800FB0021
:101880000800F3000800EB000700E4000600DE009B
:101890000600D8000600D2000600CC000500C700F4
:1018A0000500C2000500BD000400B9000400B50039
:1018B0000400B1000400AD000400A9000400A5006C
:1018C0000300A20003009F0004009B000300980097
:1018D00003009500020093000300900003008D00B8
:1018E00002008B00030088000200860002008400D2
:1018F0000300810002007F0002007D0002007B00E7
:1019000002007900020077000100760002007400F6
:10191000020072000100710002006F0002006D0001
:1019200001006C0002006A0001006900020067000B
:101930000100660001006500010064000200620011
:10194000010061000100600001005F0002005D0015
:1019500001005C0001005B0001005A000100590019
:101960000100580001005700010056000100550019
:101970000100540001005300000053000100520018
:10198000010051000100500001004F0001004E0015
:1019900000004E0001004D0001004C0001004B0012
:1019A00000004B0001004A0001004900010048000E
:1019B000000048000100470001004600000046000A
:1019C0000100450000004500010044000100430003
:1019D00000004300010042000000420001004100FD
:1019E000000041000100400001003F0000003F00F6
:1019F00001003E0000003E0001003D0000003D00EF
:101A000001003C0000003C0000003C0001003B00E5
:101A100000003B0001003A0000003A0001003900DC
:101A200000003900010038000000380000003800D4
:101A300001003700000037000100360000003600CA
:101A400000003600010035000000350000003500C0
:101A500001003400000034000000340001003300B5
:101A600000003300000033000100320000003200AB
:101A700000003200010031000000310000003100A0
:101A800001003000000030000000300001002F0095
:101A900000002F0000002F0000002F0001002E008A
:101AA00000002E0000002E0001002D0000002D007F
:101AB00000002D0000002D0001002C0000002C0073
:101AC00000002C0000002C0001002B0000002B0067
:101AD00000002B0000002B0001002A0000002A005B
:101AE00000002A0000002A0001002900000029004F
:101AF0000000290000002900000029000100280042
:101B00000000280000002800000028000000280035
:101B10000100270000002700000027000000270028
:101B2000000027000100260000002600000026001B
:101B3000000026000000260001002500000025000E
:101B40000000250000002500000025000000250001
:101B500001002400000024000000240000002400F4
:101B600000002400010023000000230000002300E7
:101B700000002300000023000000230000002300D9
:101B800001002200000022000000220000002200CC
:101B900000002200000022000100210000002100BE
:101BA00000002100000021000000210000002100B1
:101BB00000002100010020000000200000002000A3
:101BC0000000200000002000000020000000200095
:101BD0000000200001001F0000001F0000001F0087
:101BE00000001F0000001F0000001F0000001F0079
:101BF00001001E0000001E0000001E0000001E006C
:101C000000004D383420582059205A2045005A25CC
:101C1000752C45256C752C50256C752C5425752C10
:101C20004225752C005072696E7465722072656170
:101C300064792E005072696E7465722072656164F9
:101C4000792E004572723A4E6F2046696C616D655F
:101C50006E7400496E697469616C697A65204545E6
:101C600050524F4D00436F6E74726F6C005265732B
:101C7000746F7265206661696C73616665004C6F94
:101C800061642073657474696E677300496E69746A
:101C900069616C697A6520454550524F4D00537417
:101CA0006F72652073657474696E677300424C547B
:101CB0006F7563680046696C616D656E74004D6F89
:101CC00074696F6E0054656D7065726174757265CC
:101CD000004D61696E004D3330332055312045256C
:101CE000692053256900507265686561742041421E
:101CF0005320636F6E660050726568656174205092
:101D00004C4120636F6E6600504944204175746FEA
:101D100074756E6500504944204175746F74756E1A
:101D200065005049442D44005049442D4400504919
:101D3000442D49005049442D49005049442D50003C
:101D40005049442D50002002204661637400200257
:101D50002046616374002002204D6178002002203B
:101D60004D6178002002204D6178002002204D69ED
:101D70006E002002204D696E002002204D696E0029
:101D80004F6666004F6E20004175746F74656D700C
:101D90000046616E2073706565640046616E207355
:101DA000706565640042656400426564004E6F7A48
:101DB0007A6C65004E6F7A7A6C6500436F6E747250
:101DC0006F6C0053746F72652073657474696E670D
:101DD000730042656400426564004E6F7A7A6C65F8
:101DE000004E6F7A7A6C650046616E20737065658F
:101DF000640046616E2073706565640054656D70A3
:101E0000657261747572650048617264636F6465C0
:101E1000642044656661756C742053657474696EE2
:101E20006773204C6F616465640A00B80B0000B8EA
:101E30000B00006400000010270000000096430023
:101E40000096430000A0410000C8419A99A0429A20
:101E500099A0420000C8430080C54320204D38357A
:101E600031205A005A2D50726F6265204F6666739A
:101E7000657420286D6D293A0A002044002049002D
:101E800020204D33303420500020440020490020D1
:101E9000204D333031205000504944207365747414
:101EA000696E67733A0A002046002042002048000D
:101EB00020204D3134352053004D617465726961C5
:101EC0006C2068656174757020706172616D6574F5
:101ED0006572733A0A00205A0020204D34323020B7
:101EE00053004175746F20426564204C6576656CC3
:101EF000696E673A0A00204500205A0020590020E8
:101F0000580020420020540020204D32303520530C
:101F100000416476616E6365643A20533C6D696E7E
:101F20005F66656564726174653E20543C6D696EE0
:101F30005F74726176656C5F666565647261746515
:101F40003E20423C6D696E5F7365676D656E745FC0
:101F500074696D655F75733E20583C6D61785F787C
:101F6000795F6A65726B3E205A3C6D61785F7A5F7B
:101F70006A65726B3E20453C6D61785F655F6A659E
:101F8000726B3E0A0020540020520020204D323057
:101F900034205000416363656C65726174696F6ED3
:101FA0002028756E6974732F7332293A20503C7063
:101FB00072696E745F616363656C3E20523C72654A
:101FC00074726163745F616363656C3E20543C743A
:101FD000726176656C5F616363656C3E0A002045E3
:101FE00000205A0020590020204D32303120580066
:101FF0004D6178696D756D20416363656C657261D3
:1020000074696F6E2028756E6974732F7332293A64
:102010000A00204500205A0020590020204D32306F
:10202000332058004D6178696D756D206665656473
:1020300072617465732028756E6974732F73293A01
:102040000A00204500205A0020590020204D393236
:1020500020580053746570732070657220756E6926
:10206000743A0A0020204D3230302044300A0020DB
:10207000204D3230302044002044697361626C6529
:10208000640A0046696C616D656E742073657474D2
:10209000696E67733A0020204D3134392043203B6C
:1020A00020556E69747320696E2043656C73697581
:1020B000730A002020473231202020203B20556E1B
:1020C00069747320696E206D6D0A004573746570C4
:1020D000732F6D6D004573746570732F6D6D005AAD
:1020E00073746570732F6D6D005A73746570732F00
:1020F0006D6D005973746570732F6D6D0059737435
:102100006570732F6D6D005873746570732F6D6DEE
:10211000005873746570732F6D6D004D6F74696F27
:102120006E0053746570732F6D6D004A65726B009D
:10213000416363656C65726174696F6E0056656CAE
:102140006F63697479005A204F6666736574005A2C
:10215000204F666673657400436F6E74726F6C0017
:102160004F6E200052756E6F75742073656E736FBD
:102170007273004F66660046696C2E204469612EBA
:102180000046696C2E204469612E004F6666004F40
:102190006E20004520696E206D6D3300436F6E74B4
:1021A000726F6C0043616E6E6F7420656E74657241
:1021B000207375626469723A2000052E2E004D610D
:1021C000696E004D61782054656D703A203132356A
:1021D000004D696E2054656D703A2035005442659B
:1021E000643A4550434F53203130304B004D6178B5
:1021F0002054656D703A20323635004D696E20549A
:10220000656D703A20350054303A204550434F53A5
:10221000203130304B005053553A2047656E65727F
:1022200069630050726F746F636F6C3A20312E30A7
:1022300000202020204857205665723A205600463C
:1022400057205665723A2056322E3000426175642E
:102250003A20323530303030004754323536302075
:1022600056332E3000290A002062797465733B20B2
:10227000637263200053657474696E6773205374CE
:102280006F726564202800290A5772697465206698
:10229000696C65206E616D653A2000206279746515
:1022A000733B206372632000506F7765726F6666C0
:1022B0002053746F72656420280020213D20006344
:1022C0007263206572726F723A20000A72656164EF
:1022D0002066696C65206E616D653A2000290A727E
:1022E0006561642066696C65206469723A2000202B
:1022F00062797465733B206372632000706F776549
:10230000726F66662073746F72656420736574748F
:10231000696E6773207265747269657665642028DA
:1023200000202863616C63756C6174656429210AFF
:102330000020213D2000454550524F4D204352433F
:10234000206D69736D61746368202D202873746F2C
:10235000726564292000290A002062797465733B44
:102360002063726320002073746F7265642073654C
:102370007474696E677320726574726965766564DA
:10238000202800204D61726C696E3D563132312932
:102390000A0028454550524F4D3D00454550524F8B
:1023A0004D2076657273696F6E206D69736D61740F
:1023B0006368200050726F62696E67206661696CA5
:1023C00065640A0050726F62696E67206661696CAD
:1023D000656400205A3A200020593A200042656482
:1023E00020583A20005344207072696E74696E67F9
:1023F000206279746520004E6F74205344207072FF
:10240000696E74696E670A00486F6D6520257325D3
:102410007325732066697273740020666972737421
:102420000A005A0059005800486F6D652000534457
:102430002063617264206F6B0A006F70656E526F6B
:102440006F74206661696C65640A00766F6C756DE7
:10245000652E696E6974206661696C65640A005353
:102460004420696E6974206661696C0A0020706F8F
:10247000736974696F6E206F7574206F6620726166
:102480006E67652E0A003F50726F6265200020283B
:1024900044525952554E2900473239204175746FC4
:1024A00020426564204C6576656C696E6700284241
:1024B0002961636B00284629726F6E7400285229C7
:1024C0006967687400284C29656674003F2856299E
:1024D0006572626F7365206C6576656C2069732028
:1024E000696D706C61757369626C652028302D347C
:1024F000292E0A00426164205A2076616C75650AB3
:10250000004E6F2062696C696E6561722067726946
:10251000640A004D65736820706F696E7420636192
:102520006E6E6F74206265207265736F6C76656481
:102530000A004D3132350048656174696E67206468
:102540006F6E652E0020573A0045256920257300DF
:102550005072696E7465722072656164792E0042F2
:10256000656420646F6E652E0020573A00426564F2
:102570002048656174696E672E00001C1F11111FD1
:1025800000000006191803130C00040E1F041C00A1
:102590000000001010101010100000141414141477
:1025A00014000015151515151500000E1315110E44
:1025B00000001C10181705060500040A0A0A0A1173
:1025C000110E0C12120C00000000001F1511151F37
:1025D000000000000000010204040000001C1C0CAC
:1025E00004040402010000000000040810000000C0
:1025F00000004D31303420532575004739322045D5
:10260000257500473932205A25752E2575004D3520
:1026100030300043616E63656C207072696E7400C7
:10262000526573756D65207072696E7400506F77B6
:102630006572206F75746167650025753A253032C3
:102640007500253032753A25303275002D2D2D005C
:102650005344005A004D7825643B25643B2564258E
:102660002520004D7825643B25643B2564252520E5
:1026700000436172642072656D6F7665640043612A
:10268000726420696E73657274656400434F4D4DCA
:10269000554E49434154494F4E0044525952554EAC
:1026A000004552524F525300494E464F0045434851
:1026B0004F00AD26A826A1269A268C266F666600B6
:1026C00044454255473A00205A3A0020593A0020E2
:1026D000436F756E7420583A0020453A00205A3AEC
:1026E0000020593A00583A003A004361703A004FCE
:1026F00066660A00466164652048656967687420FB
:1027000000426564204C6576656C696E6720004602
:1027100061696C656420746F20656E61626C652010
:10272000426564204C6576656C696E670A004D658C
:10273000736820706F696E742063616E6E6F7420B1
:102740006265207265736F6C7665640A004D343281
:102750003120696E636F727265637420706172619B
:102760006D657465722075736167650A00436173F6
:1027700065206C696768743A200043616E6E6F74FF
:10278000206F70656E207375626469722000656EDB
:102790007175657565696E672022006563686F3ABB
:1027A00000544845524D414C2052554E41574159D5
:1027B00000546865726D616C2052756E6177617945
:1027C0000020746F6F206C6F6E672065787472756F
:1027D00073696F6E2070726576656E7465640A0049
:1027E00020636F6C6420657874727573696F6E20F6
:1027F00070726576656E7465640A0047726164691B
:10280000656E7400546F67676C65206D6978003A77
:102810002533643B2533643B2533642525004D690E
:1028200078004D61696E0053746F7720424C546F8D
:10283000756368004D3238302050302053393000F5
:102840004465706C6F7920424C546F756368004D1D
:102850003238302050302053313000424C546F75A4
:1028600063682053656C662D54657374004D32386F
:10287000302050302053313230005265736574205F
:10288000424C546F756368004D3238302050302010
:1028900053313630004D61696E005072696E74209C
:1028A000706175736564004D313235000025730029
:1028B0004D3234005072696E742061626F727465BB
:1028C00064004732382058590047393000473120DA
:1028D0004631303030205A323000473931004E6FA7
:1028E0002053442063617264005072696E742066E4
:1028F000726F6D2053440053746F70207072696E54
:102900007400526573756D65207072696E74005045
:1029100061757365207072696E740041626F7574C1
:10292000205072696E746572004D6978657200435B
:102930006F6E74726F6C00507265706172650054D6
:10294000756E6500496E666F2073637265656E0013
:102950004261627973746570205A004D36303020C0
:102960004230004C696E65204E756D62657220695B
:1029700073206E6F74204C617374204C696E6520F7
:102980004E756D6265722B312C204C617374204C36
:10299000696E653A20004B494C4C45442E2000534B
:1029A000544F505045442E20005072696E74657229
:1029B0002073746F707065642064756520746F2077
:1029C0006572726F72732E20466978207468652074
:1029D0006572726F7220616E6420757365204D3967
:1029E000393920746F20726573746172742E2028D7
:1029F00054656D70657261747572652069732072BB
:102A0000657365742E205365742069742061667443
:102A100065722072657374617274696E67290A0049
:102A20004E6F20436865636B73756D2077697468BA
:102A3000206C696E65206E756D6265722C204C612C
:102A40007374204C696E653A2000636865636B732C
:102A5000756D206D69736D617463682C204C6173B2
:102A600074204C696E653A20004D313130004D3391
:102A70003100473120463130303020583020593233
:102A80003130004732382058590053442072656174
:102A900064206572726F720A00446F6E65207072F6
:102AA000696E74696E672066696C650A0020496EFC
:102AB00076616C6964206578747275646572200053
:102AC00053544F505045442E20005072696E746527
:102AD000722073746F707065642064756520746F04
:102AE000206572726F72732E204669782074686553
:102AF000206572726F7220616E6420757365204D5F
:102B000039393920746F20726573746172742E20A4
:102B10002854656D706572617475726520697320E3
:102B200072657365742E2053657420697420616624
:102B30007465722072657374617274696E67290AB4
:102B40000053544F502063616C6C65642062656370
:102B500061757365206F6620424C546F7563682001
:102B60006572726F72202D207265737461727420A9
:102B700077697468204D3939390A006175746F2599
:102B8000692E67004D3234004D32332025730057D3
:102B9000726974696E6720746F2066696C653A208B
:102BA000006F70656E206661696C65642C204669F3
:102BB0006C653A20006F70656E206661696C6564B3
:102BC0002C2046696C653A200046696C6520736567
:102BD0006C65637465640A002053697A653A200065
:102BE00046696C65206F70656E65643A20006F7091
:102BF000656E206661696C65642C2046696C653A77
:102C000020002066696C653A2000646F696E670079
:102C10006672657368004E6F772000454E442053FE
:102C20005542524F5554494E450A002220706F7349
:102C3000002220706172656E743A22005355425230
:102C40004F5554494E452043414C4C2074617267A6
:102C500065743A22004B494C4C45442E2000747256
:102C600079696E6720746F2063616C6C2073756284
:102C70002D67636F64652066696C6573207769747E
:102C80006820746F6F206D616E79206C6576656C5D
:102C9000732E204D4158206C6576656C2069733A1F
:102CA000004572726F723A005654726176206D69F7
:102CB0006E005654726176206D696E0056547261D2
:102CC00076206D696E00566D696E00566D696E00F6
:102CD000566D696E00566D6178204500566D6178BD
:102CE000204500566D6178204500566D6178205A68
:102CF00000566D6178205A00566D6178205A005652
:102D00006D6178205900566D6178205900566D61CB
:102D100078205900566D6178205800566D617820F2
:102D20005800566D61782058004D6F74696F6E00C1
:102D3000416D6178204500416D6178204500416D0D
:102D40006178205A00416D6178205A00416D6178A8
:102D5000205900416D6178205900416D61782058FB
:102D600000416D6178205800412D74726176656C68
:102D700000412D74726176656C00412D726574722C
:102D800061637400412D7265747261637400416304
:102D900063656C00416363656C004D6F74696F6EB1
:102DA0000056652D6A65726B0056652D6A65726BFB
:102DB0000056652D6A65726B00567A2D6A65726BD6
:102DC00000567A2D6A65726B0056792D6A65726BB2
:102DD0000056792D6A65726B0056792D6A65726BA3
:102DE0000056782D6A65726B0056782D6A65726B95
:102DF0000056782D6A65726B004D6F74696F6E00B6
:102E0000000070C1000000C100000000000070421E
:102E1000000070420000C040000000005761726E68
:102E2000696E673A20486F6D696E672042756D70F4
:102E30002044697669736F72203C20310A000202D7
:102E4000040000A0400000A0400000004000006B13
:102E5000430000644300008243FFFFFF4D363030E3
:102E600020486F74656E6420746F6F20636F6C64AC
:102E700020746F206368616E67652066696C616DA0
:102E8000656E740A0000002100240027002A002D2E
:102E9000003000330001010000040107010A0100B5
:102EA000002200250028002B002E003100340002F3
:102EB000010000050108010B01000020002300268D
:102EC0000029002C002F0032000001000003010641
:102ED00001090105050505070508080808020202A1
:102EE000020A0A08080404040401010101010101A5
:102EF000010303030303030303040707070C0C0C7C
:102F00000C0C0C0C0C020202020606060606060653
:102F1000060B0B0B0B0B0B0B0B01021020200808F0
:102F2000102040102040800201020108040201012B
:102F30000204081020408080402010080402018014
:102F4000040201804020100804020108040201016B
:102F50000204081020408001020408102040800074
:102F6000000A0B02090C0D0E080703040100000003
:102F70000000000000000000000000000000000051
:102F8000000000000000000000000012111000000E
:102F90000000000000000000000000000000000031
:102FA000000000000042696C696E656172204C652A
:102FB00076656C696E6720477269643A0A00544509
:102FC0004D5020544F4F204C4F572100536C656596
:102FD000702E2E2E00473238205A20466F726269BA
:102FE0006464656E0A00473238205A20466F726268
:102FF000696464656E0070012C0190012701B001C5
:103000002201C0011D01F00118011002130130025C
:103010000E016002090190020401C002FF000003DA
:10302000FA004003F5008003F000D003EB00200419
:10303000E6007004E100E004DC004005D700C005B4
:10304000D2004006CD00D006C8008007C30030087B
:10305000BE00F008B900C009B400B00AAF00B00B60
:10306000AA00D00CA500000EA000500F9B00C010BD
:1030700096005012910000148C00C0158700B01704
:103080008200B0197D00D01B7800001E7300402024
:103090006E0090226900F024640040275F009029B0
:1030A0005A00E02B5500102E500020304B001032FB
:1030B0004600E033410090353C001037370070384F
:1030C0003200A0392D00B03A2800A03B2300603C1C
:1030D0001E00103D1900903D1400103E0F00703E80
:1030E0000A00C03E0500003F0000403FFBFF803F5C
:1030F000F6FFC03FF1FF4572723A204D494E5445EC
:103100004D5020424544004572723A204D494E547C
:10311000454D50004D494E54454D502074726967DD
:103120006765726564004572723A204D4158544596
:103130004D5020424544004572723A204D4158544A
:10314000454D50004D415854454D502074726967AB
:10315000676572656400202F002042403A002040DD
:103160003A005374617274205A3A202534642E2533
:1031700064206D6D002020456E64205A3A2025346D
:10318000642E2564206D6D00285A203C3D20256466
:103190002E256429005374617274206D69783A2079
:1031A000253364252520253364252500285A203E13
:1031B0003D2025642E256429002020456E64206D65
:1031C00069783A2025336425252025336425250098
:1031D00046756C6C206772616469656E7400253396
:1031E000643B2533642525002020456E64206D69ED
:1031F000783A002533643B253364252500537461F8
:103200007274206D69783A004772616469656E7402
:10321000002534642E2564206D6D002020456E64E9
:10322000205A3A002534642E2564206D6D005374B5
:10323000617274205A3A004772616469656E742045
:103240006D6978004D69786572004D69783A25336B
:103250006425253B25336425253B2533642525003E
:103260004D6F76652058004D6F76652059004D6F83
:103270007665205A004578747275646572004D6FEA
:10328000766520302E316D6D004D6F766520316D85
:103290006D004D6F76652031306D6D004D6F766538
:1032A000206178697300486F74656E6420746F6F75
:1032B00020636F6C64004578747275646572004DAC
:1032C0006F7665205A004D6F76652059004D6F76F8
:1032D000652058004578747275646572004D6F768C
:1032E00065205A004D6F76652059004D6F76652038
:1032F000580050726570617265006265640A002C46
:103300002073797374656D2073746F7070656421B8
:10331000204865617465725F49443A2000486561E0
:1033200074696E67206661696C65640048656174E4
:10333000696E67206661696C6564004865617469DF
:103340006E67206661696C65640048656174696ECA
:1033500067206661696C65640000E200EC0011247E
:103360001FBECFEFD1E2DEBFCDBF00E00CBF13E048
:10337000A0E0B2E0E0E3F9E702E00BBF02C0079093
:103380000D92A43FB107D9F729E1A4EFB3E001C042
:103390001D92A830B207E1F719E1CEEAD9E100E0C9
:1033A00006C021970109802FFE010F94F63BCD3A0C
:1033B000D10780E00807A9F70F94931F0D94873C6D
:1033C0000C9400002F923F924F925F926F927F92E7
:1033D0008F929F92AF92BF92CF92DF92EF92FF9225
:1033E0000F931F93CF93DF93CDB7DEB7C559D109A4
:1033F0000FB6F894DEBF0FBECDBF81E090E0909392
:103400001C1880931B188091A0098D3409F4C8C240
:10341000843511F40C943B32873411F00C948C32C7
:1034200080919E0990919F098B31910509F407C203
:10343000D4F4843091055CF482309105ACF597FFAB
:1034400002C00C94A3320E9412FC0C94A33284306C
:10345000910509F4F0C14A9711F00C94A3320E942F
:10346000A5390C94A3328A32910509F495C25CF413
:103470008D31910509F414C20CF40DC24E9709F474
:1034800013C20C94A3328B35910509F47CC28C35A0
:10349000910509F47DC28A35910511F00C94A3328F
:1034A0001092F9030C94A3322091A702222311F465
:1034B0000C94A33211E0029709F010E00E949EFBE9
:1034C00019821A821B821C821D821E821F8218860C
:1034D00082E50E944838882309F45EC10E94E637DD
:1034E0006B017C012091C4103091C5104091C61031
:1034F0005091C71021962CAF3DAF4EAF5FAF2197D3
:103500008090C8109090C910A090CA10B090CB10B5
:103510008091E8109091E910A091EA10B091EB1021
:1035200025968CAF9DAFAEAFBFAF25972091EC1025
:103530003091ED104091EE105091EF1029962CAF84
:103540003DAF4EAF5FAF299720E030E0A901C70142
:10355000B6010F94C234882309F434C121962CADEE
:103560003DAD4EAD5FAD219725966CAD7DAD8EAD79
:103570009FAD25970F94C23481110DC0A501940110
:1035800029966CAD7DAD8EAD9FAD29970F94C23459
:10359000882309F417C120E030E0A901C701B60172
:1035A0000F94C234881F8827881F18130BC080E02F
:1035B00090E0A0E8BFE369968CAF9DAFAEAFBFAF20
:1035C00069970AC020E030E040E85FEB69962CAFD5
:1035D0003DAF4EAF5FAF699721962CAD3DAD4EAD7F
:1035E0005FAD219725966CAD7DAD8EAD9FAD2597D6
:1035F0000F94FA3861966CAF7DAF8EAF9FAF619735
:10360000A501940129966CAD7DAD8EAD9FAD299736
:103610000F94FA3865966CAF7DAF8EAF9FAF65970C
:1036200061962CAD3DAD4EAD5FAD6197CA01B9015C
:103630000F9427352B013C0165962CAD3DAD4EAD69
:103640005FAD6597CA01B9010F9427359B01AC01A5
:10365000C301B2010F94FB380F94663B2D966CAFFB
:103660007DAF8EAF9FAF2D9720E030E040E05FE36D
:103670000F9427352B013C01A7019601C701B60124
:103680000F9427356B017C01A3019201C301B201A4
:103690000F9427359B01AC01C701B6010F94FA388E
:1036A0000F94663B9B01AC0169966CAD7DAD8EAD10
:1036B0009FAD69970F9427356B017C0125962CAD42
:1036C0003DAD4EAD5FAD259721966CAD7DAD8EAD18
:1036D0009FAD21970F94FB3820E030E040E05FE39E
:1036E0000F9427352B013C0165966CAD7DAD8EADF9
:1036F0009FAD659790582D962CAD3DAD4EAD5FAD0D
:103700002D970F94D7399B01AC01C701B6010F94D7
:1037100027359B01AC01C301B2010F94FB38219600
:103720002CAD3DAD4EAD5FAD21970F94FA38698356
:103730007A838B839C8329962CAD3DAD4EAD5FADD6
:103740002997C501B4010F94FB3820E030E040E038
:103750005FE30F9427352B013C012D962CAD3DAD39
:103760004EAD5FAD2D9761966CAD7DAD8EAD9FADCD
:1037700061970F94D7399B01AC01C701B6010F9433
:1037800027359B01AC01C301B2010F94FB38A501A1
:1037900094010F94FA3812C089E40E9448388823B3
:1037A00031F00E94E63769837A838B839C838AE4B5
:1037B0000E944838882331F00E94E6376D837E836B
:1037C0008F83988720E030E0A90169817A818B811D
:1037D0009C810F94C23481110BC020E030E0A9011C
:1037E0006D817E818F8198850F94C234882349F042
:1037F000612FCE0101960F94570B0E9472360C94E4
:10380000A332E1EAFCE284918F010F5F1F4F88230E
:1038100021F00E947D36F801F6CFEBE1F2E08491D1
:103820008F010F5F1F4F882311F40C94A3320E9465
:103830007D36F801F4CF0E9451FB0C94A3320E9414
:10384000AF9C81110C94A33280E090E0A0E4B0E43E
:1038500089839A83AB83BC838D839E83AF83B88730
:1038600080E090E0A0E2B1E489879A87AB87BC87CB
:1038700080E50E944838882319F00E94B63701C0BD
:1038800060E068A3BE016F5F7F4FCE0180960E940B
:103890000C7F0C94A33280E00E9467F90C94A33251
:1038A0000E9471A60C94A332C090C410D090C51091
:1038B000E090C610F090C71088E50E94483881114A
:1038C00009C020E030E044E152E4C701B6010F94A2
:1038D000FA3802C00E94E63768A379A38AA39BA3A3
:1038E000C090C810D090C910E090CA10F090CB10D2
:1038F00089E50E944838811108C020E030E0A90124
:10390000C701B6010F94FB3802C00E94E6376B0175
:103910007C0169837A838B839C8388A099A0AAA069
:10392000BBA02FE632E143E85AEBC501B4010F9486
:10393000213B87FF02C00C94A33222E430E047E32E
:1039400053E4C501B4010F94C234181614F40C9456
:10395000A3322FE632E143E85AEBC701B6010F94D8
:10396000213B87FF02C00C94A33222E430E04CE5F7
:1039700053E4C701B6010F94C234181614F40C9422
:10398000A3320C94AA3281E08093F9030C94A33201
:103990000E9431A50C94A3320E949AA50C94A332E4
:1039A00080919E0990919F098837910511F40C949C
:1039B00090250CF0E8C08D34910509F4B2C50CF0E7
:1039C00057C08931910509F42EC31CF58431910546
:1039D00009F4AAC27CF48131910509F491C22CF456
:1039E000029708F4F9C10C94A332429709F4B6C6C1
:1039F0000C94A3328631910509F4DFC20CF4D9C2CC
:103A00008731910509F4DFC2489709F4F2C20C949A
:103A1000A3328F31910509F475C47CF48B31910583
:103A200009F413C30CF403C38C31910509F411C3D9
:103A30004E9709F418C30C94A3328133910509F40D
:103A400047C54CF48032910509F412C48A9709F4F1
:103A5000FFC40C94A3328B34910509F45EC58C34F9
:103A6000910511F00C94A3320E941C9E0C94A33279
:103A70008C36910509F4C7C50CF050C08535910509
:103A800009F4A3C67CF58235910509F45EC604F5F8
:103A90008135910511F00C94A3320F94B7010F9466
:103AA000FA1D0E945360109277181092761868EEF3
:103AB00073E080E090E00E94EAB60F94FA1D0E9445
:103AC0005CDD60E08EE693E00E94E6B70C94A332E2
:103AD0008335910509F43DC68435910509F43EC648
:103AE0000C94A3328936910509F4DBC554F48C3566
:103AF000910509F485C68836910509F416C50C941C
:103B0000A3328A36910509F418C68B36910511F057
:103B10000C94A3320E94F3A30C94A3328137910535
:103B200009F475C59CF48E36910509F455C50CF45D
:103B3000FCC58F36910509F462C58037910511F0F7
:103B40000C94A3328BE593E00E945C60853791056D
:103B500009F438C764F48237910509F4DBC683376A
:103B6000910511F00C94A332E2E3F4E0D9C6863754
:103B7000910509F430C78737910511F00C94A332F1
:103B8000E1E1F5E06BC78D3231E0930711F40C945D
:103B9000AA2B0CF08CC0893C910511F40C94BB2825
:103BA000E4F58B39910509F499C5D4F48D37910565
:103BB00009F4C7C55CF48937910511F00C94A33260
:103BC0001092AB111092AA110C94A3328C3891056B
:103BD00009F449C58139910509F4A9C70C94A332A8
:103BE000863A910511F40C94682764F4833A9105A0
:103BF00011F40C941026843A910511F40C948B2640
:103C00000C94A3328E3B910509F493C5883C910531
:103C100011F40C9473280C94A3328C3D910511F48B
:103C20000C94482A24F58C3C910511F40C94F3284B
:103C300084F48B3C910511F00C94A332BCEDEB2E77
:103C4000B7E1FB2E0CEA12E084E0D82ED00E0C94E3
:103C5000E4288D3C910511F40C945F29833D910576
:103C600011F00C94A332EBE9F7E20C94CC298831E3
:103C700051E0950711F40C94CC2A64F48D3D910524
:103C800011F40C94572A823E910511F40C94A12A48
:103C90000C94A3328232B1E09B0711F40C94762B82
:103CA0008C32914011F40C94812B0C94A332843A01
:103CB000F1E09F0711F40C946B310CF045C0803992
:103CC00031E0930711F40C945D31C4F48F3251E06C
:103CD000950711F40C94192D14F40C94C52C803311
:103CE000B1E09B0711F40C94482C8336914011F0FD
:103CF0000C94A3320E943FBB0C94A3328839F1E0AC
:103D00009F0711F40C94643184F4813931E09307F6
:103D100011F40C9460318239914011F00C94A3326B
:103D200080E00E943FDC0C94A332893951E0950772
:103D300011F40C9468318A39914011F00C94A3323B
:103D40000E9445BD0C94A332873FB1E09B0711F45C
:103D50000C947431FCF4843FF1E09F0711F40C944F
:103D60006E314CF4853A914011F00C94A3320E94CC
:103D7000AEBC0C94A332853F41E0940711F40C943F
:103D80007131863F914011F00C94A3320E94478418
:103D90000C94A332803AA3E09A0709F4A6C27CF4FB
:103DA0008835E2E09E0711F40C94D03183359340BE
:103DB00011F00C94A332EBE9F7E20C947E31873ECC
:103DC00023E0920711F40C94D331893D974011F40C
:103DD0000C94D6310C94A332A0909C09B0909D090C
:103DE00080E50E944838882359F00E944B366B01C9
:103DF0007C0111E0672B682B692B31F410E004C0C3
:103E000010E0C12CD12C760183E50E94483888232C
:103E1000F1F00E94E63720E030E04AE754E40F94E6
:103E200027350F94443A6B017C01111112C0672BA6
:103E3000682B692B71F4A114B10459F0D5018C9150
:103E4000882339F061E0C5010E9408B80FC0112332
:103E500091F360E081E692E00E94E6B71092431190
:103E600010924411109245111092461183E090E097
:103E700090931C1880931B1881E0809342110F943B
:103E8000FA1D0E947236C114D104E104F104F1F06C
:103E90008091320A9091330AA091340AB091350A88
:103EA000C80ED91EEA1EFB1E0E948BF5DC01CB0159
:103EB0008C199D09AE09BF09B7FF1EC08091421140
:103EC0008823D1F080E00E94AD60EECF8091421156
:103ED000882321F080E00E94AD60F8CF80913A12F3
:103EE00090913B1260E0029719F482E592E002C0E3
:103EF00083E492E00E94E6B7109242110C94A33240
:103F000060E084E792E00E94E6B74298179815981F
:103F10002E989FB7F89480910B018D7F80930B01B1
:103F20009FBFA0980C94A332ECE8F2E084918F013B
:103F30000F5F1F4F882321F00E947D36F801F6CFD6
:103F40001092FA141092F91440E050E0BA0183E89C
:103F500092E10E9445488BE1E3E8F2E1DE0115962B
:103F600001900D928A95E1F78091811290918212D1
:103F70009C838B8388EF92E09A83898340E050E0B2
:103F8000BE016F5F7F4F8BEB93E00E94A0C3CE0119
:103F900001960E944060EDE7F2E084918F010F5F8F
:103FA0001F4F882311F40C94A3320E947D36F80130
:103FB000F4CF0E94EB980C94A33210924A12109204
:103FC0004B120C94A332E0919C09F0919D098081E1
:103FD000882329F0803209F410823196F8CF40E02E
:103FE00061E080919C0990919D090E9409E30C94E5
:103FF000A33219821A821B821C8218A219A21AA249
:104000001BA280911D18882341F040E0BE016F5F24
:104010007F4FCE0180960E94C9F00E94ECE20E9480
:10402000589D0C94A3320E9425A40C94A332809135
:104030004B12882311F40C94A33283E50E94483874
:1040400081110C94FD320C94A3320E94369E0C9484
:10405000A33240E060E080919C0990919D090E940C
:1040600009E30C94A33280914B12882311F40C9431
:10407000A33287E494E10E94CA4A87E494E10E9453
:104080008C4C1092491210924812E0909C09F090CA
:104090009D0980914B12882311F40C94A3320E9445
:1040A000FEE2FE0131966F01CF010E944C468FE780
:1040B00092E190939F1280939E12D7018C918F3240
:1040C00009F060C06FE270E0C7010F94443C8C01BE
:1040D0000F5F1F4F09F45CC06FE270E0C8010F94DE
:1040E000443C5C01009709F454C00817190708F014
:1040F00050C04C01801A910AA401B801CE018096EB
:104100000F946D3CE0E2F0E0EC0FFD1FE80DF91DAF
:1041100010828E01005E1F4FF80181918F0188236C
:1041200019F00E947D36F8CF8AE00E947D366091BA
:104130009E1270919F126115710511F06C5F7F4F97
:1041400021E0AE01405E5F4FCE0105960E947C4E9D
:10415000811112C0BE01605E7F4F83EC92E00F942C
:104160004B168EE20E947D368AE00E947D36C601A3
:104170000E9440600C94A332D0929F12C0929E1273
:104180008501A6CF80EA92E190939F1280939E12C0
:10419000870160919E1270919F126115710511F057
:1041A0006C5F7F4F18A21BA222E0A801CE0180966F
:1041B0000E947C4E811102C0F12C14C0CE01809669
:1041C0000E940EC38823C1F361E0CE0180960E9455
:1041D000AF4A009789F325EEDC012C931BA20E94C5
:1041E0005646F82ECE0180960E945B36FF2019F1CC
:1041F000EDE9F2E084917F01BFEFEB1AFB0A88231F
:1042000021F00E947D36F701F5CFF80181918F01F1
:10421000882319F00E947D36F8CF8AE00E947D360F
:1042200010927B1210927C1210927D1210927E12CC
:104230000E94B2E118C0EBEAF2E084917F012FEF17
:10424000E21AF20A882321F00E947D36F701F5CFA9
:10425000D8018D918D01882319F00E947D36F8CF09
:104260008EE20E947D36C6010E9440600C94A3320B
:1042700080914A1281110F94FA1D80914B1288236C
:1042800011F40C94A33280E50E944838882319F079
:104290000E94D73703C080E50E941938182F482F95
:1042A00061E080919C0990919D090E9409E383E55A
:1042B0000E944838882381F00E94B637AB01BC01C8
:1042C00040937B1250937C1260937D1270937E1208
:1042D00087E494E10E9445480E94ECE211110C949D
:1042E000A3320E94589D0C94A33280919C09909116
:1042F0009D0921E02093491240E060E00E9409E31B
:104300000C94A3320E94AFC22CE3C22ED12CE12C1C
:10431000F12CA70196010F949D38762E672ECA01C5
:10432000B901A70196010F949D386B017C01CA0168
:10433000B90128E130E040E050E00F949D384B0196
:104340005C01C9016DE671E00F94CF3B8E010F5FF8
:104350001F4F6115710599F06F927F92DF92CF9296
:104360009F928F929F938F937F936F938FEF92E0A3
:104370009F938F931F930F930F945B3412C00097FA
:10438000B1F06F927F92DF92CF929F928F929F9324
:104390008F938FEE92E09F938F931F930F930F94C1
:1043A0005B340FB6F894DEBF0FBECDBF36C08114AC
:1043B0009104A104B10479F06F927F92DF92CF92C1
:1043C0009F928F9283EE92E09F938F931F930F9310
:1043D0000F945B34E6CFC114D104E104F10469F019
:1043E0006F927F92DF92CF928BED92E09F938F93AB
:1043F0001F930F930F945B34D4CF6F927F9287ED0E
:1044000092E09F938F931F930F930F945B340F90C1
:104410000F900F900F900F900F9060E0C8010E94D6
:1044200008B8EBE9F7E284917F019FEFE91AF90AF6
:10443000882321F00E947D36F701F5CFB80183E192
:1044400093E00F944B168AE00E947D360C94A332C1
:1044500083E50E944838882311F40C94A3320E940B
:10446000C637E82E80E50E944838882341F00E9434
:10447000B6378B0177FF02C00C94A33202C006E06E
:1044800010E0902FEDE6F6E08EE28E0F2491921769
:1044900029F031968E13FACF0C940D33E1EAFCE249
:1044A00084918F010F5F1F4F882321F00E947D367A
:1044B000F801F6CFE0E2F3E084918F010F5F1F4F28
:1044C000882311F40C94A3320E947D36F801F4CFB6
:1044D000F090F40381E0F826F092F403EAE3F3E0CD
:1044E00084918F010F5F1F4F882321F00E947D363A
:1044F000F801F6CFF11003C0E4E3F3E002C0EFE20D
:10450000F3E084918F010F5F1F4F882311F40C9407
:10451000A3320E947D36F801F4CF0E94589D0C947E
:10452000A3320E9482C00C94A33288E690E00E94DD
:104530001CDD81110C94A3328091171583FF02C0FA
:104540000C94A33283E50E944838882309F440C0C4
:104550000E94E6370F943F3A709375186093741871
:1045600080E00F946C010E94E63720E030E04AEAD8
:1045700052E40F94C23418163CF00E9482C060E0EE
:104580008CE493E00E94E6B70E94E6372091501138
:104590003091511140915211509153110F94213B80
:1045A0001816B4F481E493E09F938F938091481898
:1045B00090E001969F938F9385E493E09F938F9370
:1045C0001F920E94969C0FB6F894DEBF0FBECDBF1F
:1045D0000F9473160C94A3328EE40E9448388823FB
:1045E00011F40C94A3320E94B6376093FA107093C2
:1045F000FB108093FC109093FD100C94A3320E944A
:104600000BC00C94A33210929C020C94A33283E54D
:104610000E944838882369F00E94C6378D3320F401
:10462000809337020C94A3328CE3809337020C946E
:10463000A332EBE9F7E284918F010F5F1F4F8823CC
:1046400021F00E947D36F801F6CF4091370250E00C
:1046500060E070E084E693E00F94DB158AE00E944E
:104660007D360C94A3328091171583FF02C00C9401
:10467000A33283E50E944838882311F40C94A332B6
:104680000E94E6370F943F3A6E37710514F06DE7DC
:1046900070E070937318609372180F9421010C945A
:1046A000A33289E690E00E941CDD811111C0EBE687
:1046B000F3E084918F010F5F1F4F882321F00E9448
:1046C0007D36F801F6CF0E94EAFE8AE00E947D3630
:1046D00010921C1810921B180C946E3583E50E94E2
:1046E0004838882311F40C94A3320E94C637182F3F
:1046F0008D3308F01CE310932F0A0E948BF56B0199
:104700007C01212F30E0A8EEB3E00F94EB38C60E09
:10471000D71EE81EF91EC0922B0AD0922C0AE092F6
:104720002D0AF0922E0A0C94A3320E942DA20C9412
:10473000A3320E9497A00C94A3320E9402A40C946E
:10474000A3320E947BBD0C94A3321092F8030C9408
:10475000A33281E08093F8030C94A33283E50E9496
:1047600048388823A1F00E94E63720E030E04AE78D
:1047700054E40F9427350F94443A609338027093B1
:10478000390280933A0290933B020C94A33288E55D
:104790000E94193881110C94233389E50E9419383D
:1047A00081110C9423338AE50E94193881110C94ED
:1047B000233385E40E94193881110C9423330F941C
:1047C000FA1D0E9453600C94A33283E50E941938AD
:1047D000882311F40C94A3320E94E63720E030E0E5
:1047E0004AE754E40F9427350F94443A6093360A0D
:1047F0007093370A8093380A9093390A0C94A33245
:104800001CEAC12E12E0D12E04EDE02E00E1F02EC4
:1048100010E0F60181916F010E941938882309F494
:104820006EC0133009F063C00E94E6374B015C0193
:1048300020E030E040EA51E40F94C23487FF4EC0DC
:10484000A50194016091E0107091E1108091E21057
:104850009091E3100F94D7392B013C019B01AC01DF
:10486000609114187091151880911618909117186E
:104870000F942735609314187093151880931618A9
:1048800090931718A30192016091E8177091E917AE
:104890008091EA179091EB170F9427356093E817F2
:1048A0007093E9178093EA179093EB176091A5181E
:1048B0007091A6188091A7189091A8180F94C634EB
:1048C000A30192010F9427350F94443A6093A518E1
:1048D0007093A6188093A7189093A8188092E01060
:1048E0009092E110A092E210B092E31008C00E94F2
:1048F000E637D7016D937D938D939C9313971F5F3C
:10490000B4E0EB0EF11C143009F083CF0F94CF17F5
:104910000C94A3320F94FA1D0E9448BE0C94A3324B
:1049200084918F010F5F1F4F882321F00E947D36F5
:10493000F801F6CF60E082E294E00E9404BE61E0FC
:104940008BE194E00E9404BE61E080E194E00E946B
:1049500004BE61E080E094E00E9404BE60E087EF66
:1049600093E00E9404BE61E08DEE93E00E9404BEDD
:1049700061E083EE93E00E9404BE61E08BED93E082
:104980000E9404BE61E08DEC93E00E9404BE60E0F2
:104990008FEB93E00E9404BE60E080EB93E00E9406
:1049A00004BE61E082EA93E00E9404BE61E08CE80C
:1049B00093E00E9404BE60E08BE793E00E9404BE97
:1049C0000C94A33260E080919C0990919D090E9413
:1049D00008B80C94A33285E40E944838882319F063
:1049E0000E94D73703C085E40E941938882361F0FC
:1049F000EBE9F7E284918F010F5F1F4F882321F0CD
:104A00000E947D36F801F6CF81E40E944838882361
:104A100019F00E94D73703C081E40E941938882317
:104A200061F0E5EFF4E084918F010F5F1F4F882361
:104A300021F00E947D36F801F6CF00919C0910917B
:104A40009D09F80181918F01882319F00E947D361C
:104A5000F8CF8AE00E947D360C94A33284918F01B6
:104A60000F5F1F4F882321F00E947D36F801F6CF9B
:104A7000E9E0F5E084918F010F5F1F4F882321F05B
:104A80000E947D36F801F6CF029B03C00AE213E0D4
:104A900002C00FE213E0D8018D918D01882319F037
:104AA0000E947D36F8CF8AE00E947D36E1E0F5E095
:104AB00084918F010F5F1F4F882321F00E947D3664
:104AC000F801F6CF069B03C00AE213E002C00FE232
:104AD00013E0F80181918F01882319F00E947D363F
:104AE000F8CF8AE00E947D36E9EFF4E084918F01EF
:104AF0000F5F1F4F882321F00E947D36F801F6CF0B
:104B0000379903C00AE213E002C00FE213E0D801B4
:104B10008D918D01882309F49CCF0E947D36F7CFBB
:104B200081E08093AB118093AA110C94A33283E5AA
:104B30000E944838882319F00E94B63702C060E00E
:104B400070E08B01112702301105D4F0E1EAFCE29C
:104B500084918F010F5F1F4F882321F00E947D36C3
:104B6000F801F6CFEBE2F5E084918F010F5F1F4F64
:104B7000882311F40C94A3320E947D36F801F4CFFF
:104B800088E40E9448388823A1F00E94B6376A3A28
:104B9000710534F06B3F71052CF06AEF70E002C0D4
:104BA0006AEA70E0F801EE0FFF1FE05BFF4E7183D1
:104BB000608386E40E9448388823A9F00E94B637B3
:104BC000F801EE0FFF1FEC5AFF4E718360836F3FB9
:104BD000710519F014F06FEF70E077FF02C060E02C
:104BE00070E07183608382E40E944838882311F466
:104BF0000C94A3320E94B6376530710534F06F36DD
:104C000071052CF06EE670E002C065E070E0000F08
:104C1000111FF801E45BFF4E718360830C94A33293
:104C200083E50E944838882349F00E94B6378B01FB
:104C30006330710514F00C94A33202C000E010E060
:104C400080E50E944838882341F10E94E6376B01D5
:104C50007C0120E030E0A9010F94C23487FD1DC023
:104C60002DEB37E346E855EBC701B6010F94213B26
:104C700087FD0AC02DEB37E346E855E3C701B601CF
:104C80000F94C23418167CF4A701960160E070E01E
:104C900080E89FE30F94D73909C0C12CD12C76014D
:104CA000C701B60103C060E070E0CB01F801EE0F70
:104CB000FF1FEE0FFF1FEC59FA4F60837183828351
:104CC00093830115110589F420E030E048EC52E4AB
:104CD000C701B6010F9427350F94443A70E07093E2
:104CE000C7176093C6170C94A3320130110511F059
:104CF0000C94A33220E030E048EC52E4C701B60146
:104D00000F9427350F94443A70E07093C91760935D
:104D1000C8170C94A33283E50E944838882349F0D1
:104D20000E94B6378B016031710514F00C94A332E8
:104D300002C000E010E034E6A32E35E0B32EC12C13
:104D4000D12C7601F50141905190619071905F01F5
:104D50002DEB37E346E855EBC301B2010F94213B3D
:104D600087FD0AC02DEB37E346E855E3C301B201E6
:104D70000F94C23418165CF4A301920160E070E055
:104D800080E89FE30F94D7399B01AC0103C020E07A
:104D900030E0A901C701B6010F94FB386B017C011B
:104DA000F0E7AF16F5E0BF0669F620E030E040E836
:104DB0005FE30F94FA384B015C012DEB37E346E8D3
:104DC00055EB0F94213B87FF03C0EDE4F5E038C0BD
:104DD0002DEB37E346E855E3C501B4010F94C23427
:104DE00018169CF38CE0809FF001819FF00D112438
:104DF000E858FB4F8091640590916505A091660588
:104E0000B091670580839183A283B3838091680505
:104E100090916905A0916A05B0916B058483958393
:104E2000A683B78380916C0590916D05A0916E0566
:104E3000B0916F0580879187A287B3870C94A332C6
:104E400084915F012FEFA21AB20A882321F00E94F9
:104E50007D36F501F5CFA70196016091640570914B
:104E6000650580916605909167050F9427356093DD
:104E70006405709365058093660590936705A701A7
:104E80009601609168057091690580916A0590911D
:104E90006B050F94273560936805709369058093BF
:104EA0006A0590936B05A701960160916C0570915E
:104EB0006D0580916E0590916F050F942735609375
:104EC0006C0570936D0580936E0590936F058ACF86
:104ED00083E50E941938882321F00E94D737182FC4
:104EE00002C01091260281E40E944838882351F0C4
:104EF0000E94E63760931C0270931D0280931E028D
:104F000090931F028AE50E944838882351F00E943E
:104F1000E6376093200270932102809322029093DF
:104F2000230280E50E944838882389F00E94B63722
:104F300077FD08C00E94B637653671052CF40E94D3
:104F4000B63703C060E001C064E66093240281E5E7
:104F50000E944838882389F00E94B63777FD08C040
:104F60000E94B637653671052CF40E94B63703C02F
:104F700060E001C064E660932502F0902402009195
:104F80002502F016A1F020912002309121024091DB
:104F900022025091230260911C0270911D028091A7
:104FA0001E0290911F020F94C234811101C010E0C3
:104FB00081E0809326028EE690E09093C71780935D
:104FC000C617F092CA170093CB1780911C029091DC
:104FD0001D02A0911E02B0911F028093CC179093E6
:104FE000CD17A093CE17B093CF1780912002909148
:104FF0002102A0912202B09123028093D0179093B6
:10500000D117A093D217B093D317E5EAF5E08491B6
:105010007F013FEFE31AF30A882321F00E947D36D7
:10502000F701F5CF10932602112309F44FC04091E8
:105030001C0250911D0260911E0270911F0287E9AF
:1050400095E00F94151660912402062E000C770B44
:1050500084E995E00F9432168091240204E610E072
:10506000B801681B710987FD739581E995E00F947C
:1050700032164091200250912102609122027091DB
:10508000230289E895E00F94151660912502062EFB
:10509000000C770B86E895E00F943216809125027C
:1050A000B801681B710987FD739583E895E00F943B
:1050B0003216E0E8F5E084918F010F5F1F4F8823DF
:1050C00009F4C7CC0E947D36F801F5CFE1EAF5E09E
:1050D00084918F010F5F1F4F882309F4BACC0E947F
:1050E0007D36F801F5CF88EC90E00E941CDD81113F
:1050F0000C94A33284E40E9419388823C1F10E94E1
:10510000E63711E020E030E0A9010F94C2348111AC
:1051100001C010E010936F10112349F10E94E6378F
:10512000E091481844E0E49FF0011124E559FF4E56
:10513000608371838283938320E030E0A9016091D2
:105140006B1070916C1080916D1090916E100F9497
:10515000C23481110CC080E090E0A0EEBFE38093E8
:105160006B1090936C10A0936D10B0936E100E9412
:1051700078C50C94A3329CEEE92E97E1F92E0CEA47
:1051800012E024E0D22ED00ED8018D918D010E9424
:105190001938882349F00E94E6370F94443AF70102
:1051A0006083718382839383F4E0EF0EF11CD0124D
:1051B000EBCF0F94A3160C94A332F4E0EF0EF11C86
:1051C000D01611F40C94A332D8018D918D010E9458
:1051D0001938882391F30E94E637F70160837183C1
:1051E00082839383EACF83E50E9419388823D9F01C
:1051F0000E94E637AB01BC01409304185093051898
:1052000060930618709307184093FC175093FD178E
:105210006093FE177093FF178DE096E00F941516BC
:105220008AE00E947D3680E50E941938882399F033
:105230000E94E637AB01BC01409304185093051857
:10524000609306187093071880EF95E00F94151679
:105250008AE00E947D3682E50E941938882399F001
:105260000E94E637AB01BC0140930018509301182F
:10527000609302187093031881ED95E00F94151652
:105280008AE00E947D3684E50E941938882311F453
:105290000C94A3320E94E637AB01BC014093FC178B
:1052A0005093FD176093FE177093FF1783EB95E003
:1052B0000F9415168AE00E947D360C94A33283E584
:1052C0000E941938882351F00E94E6376093D8175E
:1052D0007093D9178093DA179093DB1784E50E94B7
:1052E0001938882351F00E94E6376093D4177093E1
:1052F000D5178093D6179093D71782E40E94193858
:10530000882351F00E944B3660930715709308155F
:105310008093091590930A1588E50E94193888230F
:1053200051F00E94E6376093081870930918809333
:105330000A1890930B1889E50E941938882351F0B8
:105340000E94E63760930C1870930D1880930E1826
:1053500090930F188AE50E941938882351F00E9413
:10536000E637609310187093111880931218909379
:10537000131885E40E941938882311F40C94A33281
:105380000E94E637609314187093151880931618CE
:10539000909317180C94A33284918F010F5F1F4FC5
:1053A000882321F00E947D36F801F6CF83E50E9424
:1053B0001938882321F00E94D7378093A402EDE5A5
:1053C000F6E084918F010F5F1F4F882321F00E9428
:1053D0007D36F801F6CF8091A402811103C0E9E582
:1053E000F6E002C0E5E5F6E084918F010F5F1F4F04
:1053F000882321F00E947D36F801F6CFEDE4F6E037
:1054000084918F010F5F1F4F882321F00E947D360A
:10541000F801F6CF40E050E0BA018BE496E00F943B
:10542000151640E050E0BA0188E496E00F94151696
:1054300040E050E0BA0185E496E00F941516EDE3E4
:10544000F6E084918F010F5F1F4F882321F00E94A7
:105450007D36F801F6CF40E050E06CE573E48BE375
:1054600096E00F94151640E050E06CE573E488E395
:1054700096E00F94151640E050E062E873E485E38F
:1054800096E00F9415168AE00E947D360C94A332A4
:1054900083E50E944838882311F40C94A3320E94BB
:1054A000B6377093A6026093A5020C94A3328DEDDB
:1054B00090E00E941CDD81110C94A33283E50E94D0
:1054C0004838882311F40C94A3320091481810E056
:1054D0000E94B637000F111FF801E55DFD4F718383
:1054E00060838091481890E08C01000F111F000F1D
:1054F000111F9801295D3D4F7901880F991FFC010B
:10550000E55DFD4F60817181072E000C880B990BC2
:105510000F94C8342AE037ED43E25CE30F9427355B
:10552000F801EC59F64F20813181428153810F946B
:105530002735D7016D937D938D939C9313970C948E
:10554000A33280E50E941938882309F4FCC70E9421
:10555000B6376B017C0183E50E944838882321F02F
:105560000E94B6378B0102C00FEF1FEFC8010196F2
:10557000039708F0E8C7D7FE01C0E5C79C2DEDE60C
:10558000F6E08EE28E0F2491921709F4DCC7319673
:105590008E13F9CF0C94453580E50E941938882385
:1055A00009F4D1C70E94B6376B017C018B01672BD0
:1055B00009F07EC083E50E941938882339F00E94E3
:1055C000B63789E192E10E949473BDC7EBE9F7E237
:1055D00084917F01BFEFEB1AFB0A882321F00E9420
:1055E0007D36F701F5CF60E070E084EB96E00F9434
:1055F000321680911B1228E532E06901C81AD108E1
:1056000087FDD394CC0CDD1CCC0CDD1C0D2C000CC8
:10561000EE08FF0880911A1228E830E04901881A44
:10562000910887FD9394880C991C880C991C092C6F
:10563000000CAA08BB08809119128F3FB9F090E0C6
:10564000FC01EE0FFF1F8E0F9F1FFC01E455FE4E65
:105650000181128133E0000F111F3A95E1F744E018
:10566000169507954A95E1F70E5F1F4F98012F5F3A
:105670003F4FC901330FAA0BBB0B9C01AD01281989
:1056800039094A095B09A4EBB0E00F94DB38A701A4
:105690009601281939094A095B090F94BF38B901E5
:1056A00081EB96E00F9432168AE00E947D364BC75C
:1056B000E1EAFCE284918F010F5F1F4F882321F004
:1056C0000E947D36F801F6CFB6018AEA96E00F9483
:1056D0003216EBE9F6E084918F010F5F1F4F8823AC
:1056E00009F431C70E947D36F801F5CF8AE50E94A2
:1056F00048388111C7C783E50E9448388111C2C765
:1057000022C783E50E944838882319F00E94B637E3
:1057100002C064E071E079A368A380E50E94483884
:10572000882339F00E94B6376938E3E17E0730F408
:1057300002C068EE73E07A83698304C088E893E16D
:105740009A838983BE01605E7F4FCE0101960E94DD
:105750007BC2F9C685E40E944838811110C080E5FB
:105760000E941938882391F00E94E63760933F1019
:1057700070934010809341109093421007C00E9494
:10578000C637882361F3E1EAFCE271C089E40E9434
:105790001938882381F00E94E6372CEA35EC47E27D
:1057A0005EE30F9427356093471070934810809301
:1057B000491090934A1084E40E941938882381F09C
:1057C0000E94E6372CEA35EC47E25EE30F94D739C6
:1057D000609343107093441080934510909346104B
:1057E000EBE9F7E284918F010F5F1F4F882321F0CF
:1057F0000E947D36F801F6CF40913F105091401045
:10580000609141107091421084EC96E00F9415164F
:105810002CEA35EC47E25EE3609147107091481046
:105820008091491090914A100F94D739AB01BC0177
:1058300080EC96E00F94F8152CEA35EC47E25EE335
:1058400060914310709144108091451090914610E2
:105850000F942735AB01BC018CEB96E00F94F81543
:105860008AE00E947D366FC60E947D36F8018491E1
:105870008F010F5F1F4F8111F7CF0CE413E0D801A8
:105880008D918D01882309F4E4C80E947D36F7CFFD
:1058900080E50E941938882351F00E94E637609312
:1058A000BC187093BD188093BE189093BF1889E4FC
:1058B0000E941938882381F00E94E6372CEA35ECE3
:1058C00047E25EE30F9427356093B8187093B918D8
:1058D0008093BA189093BB1884E40E9419388823E7
:1058E00081F00E94E6372CEA35EC47E25EE30F9444
:1058F000D7396093B4187093B5188093B618909305
:10590000B718EBE9F7E284918F010F5F1F4F8823EF
:1059100021F00E947D36F801F6CF4091BC185091DD
:10592000BD186091BE187091BF1880ED96E00F947D
:1059300015162CEA35EC47E25EE36091B8187091D9
:10594000B9188091BA189091BB180F94D739AB0150
:10595000BC018CEC96E00F94F8152CEA35EC47E28C
:105960005EE36091B4187091B5188091B61890916B
:10597000B7180F942735AB01BC0188EC96E00F9463
:10598000F8158AE00E947D36DEC583E50E9419384D
:10599000182F882371F00E94E6370F943F3A7093D6
:1059A0005E0260935D0221E0672B09F020E0209306
:1059B000541180E50E941938882359F020915D0226
:1059C00030915E02232B11F00E94D737809354113F
:1059D000BAC51111B8C5EBE9F7E284918F010F5FE9
:1059E0001F4F882321F00E947D36F801F6CF809169
:1059F0005411811103C069E373E002C06CE273E0EB
:105A000089EE96E00F944B1660915D0270915E02F4
:105A100088ED96E00F943216E4EDF6E084918F0164
:105A20000F5F1F4F882309F48EC50E947D36F80151
:105A3000F5CF85E40E944838882321F00E94B637CC
:105A40007B0102C0E12CF12C83E40E9448388823BA
:105A500031F00E94B637E2966FAFE29704C045E09E
:105A6000E2964FAFE29785E50E944838882319F007
:105A70000E94D73703C085E50E941938EE968FAF94
:105A8000EE97F7FC07C0812C912C96E1A92E93E4A8
:105A9000B92E06C0812C912C8CE8A82E82E4B82E59
:105AA00083E50E944838882321F00E94E6374B01A5
:105AB0005C01E114F10411F410924818EDAE0E945B
:105AC0008BF52B013C015DAD57FF0FC080E090E0EE
:105AD000A0EAB0E4C257DF4F88839983AA83BB83CF
