:100000000C94AC1C0C94DD1C0C94DD1C0C94DD1CBD
:100010000C94DD1C0C94DD1C0C94DD1C0C94DD1C7C
:100020000C94DD1C0C94DD1C0C94DD1C0C94DD1C6C
:100030000C94DD1C0C94DD1C0C94DD1C0C94DD1C5C
:100040000C94DD1C0C9467A00C94DD1C0C94DD1C3E
:100050000C94DD1C0C94DD1C0C9414E10D947F0BAE
:100060000C94DD1C0C94D2440C94DD1C0C94DD1C0F
:100070000C94DD1C0C94DD1C0C94DD1C0C94DD1C1C
:100080000C948FA90C94DD1C0C94DD1C0C94DD1CCD
:100090000C94DD1C0C94DD1C0C94DD1C0C94DD1CFC
:1000A0000C94DD1C0C94DD1C0C9461A90C94DD1CDB
:1000B0000C94DD1C0C94DD1C0C94DD1C0C9433A9F9
:1000C0000C94DD1C0C94DD1C0C94DD1C0C94DD1CCC
:1000D0000C94DD1C0C94DD1C0C94DD1C0C94DD1CBC
:1000E0000C94DD1C40FB17FA50FA7AFB50FA50FAD8
:1000F00050FA50FA50FA50FA50FA50FA50FA50FAB0
:1001000050FA50FA50FA50FA50FA50FA50FA50FA9F
:1001100050FA50FA50FA50FA50FA50FA50FA50FA8F
:1001200075FB50FA50FA50FA50FA50FA50FA50FA59
:1001300050FA4EFB50FA50FA50FA50FA50FA50FA70
:1001400050FA50FA50FA50FA91FB4DFAF0000801BB
:10015000F6002801360134014201020126013C016A
:100160001C010A013A01F20034012A0114013E0186
:10017000FE000C012E01FC000E01240118013201C9
:1001800012010401400116011A01F4002401460184
:100190001E012201084AD73B3BCE016E84BCBFFD45
:1001A000C12F3D6C74319ABD56833DDA3D00C77F47
:1001B00011BED9E4BB4C3E916BAAAABE00000080E0
:1001C0003F05A84CCDB2D44EB93836A9020C50B96F
:1001D000918688083CA6AAAA2ABE000000803F009B
:1001E0000D9478080D949F080D940A0B0D946A08DD
:1001F0000D9474020D94C3000D94AF0A0D949B0AE4
:100200000D94BE000D9483080D94DD0A0D94BB225D
:100210000D947B080D9497080D94A00A0D94B90ACB
:100220000D94C0000D94D30A0D94A9080D94F10A01
:100230000D94C30A0D94000B0D9491080D941E0BA0
:100240000D94C6000D94280B0D94320B0D94890863
:100250000D946E080D94A5080D94CC020D94A50A7A
:100260000D94BC000D94CB0A0D94B2080D94740843
:100270000D949E020D949B080D948D080D94AD086D
:100280000D94E70A0D947F080D94F2020D94140B5F
:100290000D94F7184E414E494E495459494E46CD9A
:1002A000CCCC3D0AD7233C17B7D13877CC2B32952D
:1002B00095E6241FB14F0A000020410000C842000B
:1002C000401C4620BCBE4CCA1B0E5AAEC59D744392
:1002D0004F4D4D554E49434154494F4E004452599C
:1002E00052554E004552524F525300494E464F0010
:1002F0004543484F0047322F4733206261642070E6
:100300006172616D65746572730A00536C65657026
:100310002E2E2E00473238205A20466F72626964B2
:1003200064656E0A00473238205A20466F7262694F
:100330006464656E00205A3A200020593A20004239
:10034000656420583A20004D65736820706F696EAF
:10035000742063616E6E6F74206265207265736FC6
:100360006C7665640A004E6F206D6F76652E0045D1
:100370006E642066696C65206C6973740A0042655E
:1003800067696E2066696C65206C6973740A002564
:1003900069730025696D202569730025696820252A
:1003A000696D202569730025696420256968202509
:1003B000696D2025697300256979202569642025E8
:1003C00069682025696D20256973005072696E7413
:1003D0002074696D653A200050726F7465637465AE
:1003E000642050696E0A006F6E2E0A006F66662EDA
:1003F0000A0047323620446562756720004525694A
:10040000202573004132302072656164792E00F03E
:1004100002EB02E402DD02CF026F66660044454251
:1004200055473A004B494C4C45442E20004D313144
:10043000332053006F6B00413230204F66662E0030
:10044000454D455247454E43595F504152534552E1
:1004500000434153455F4C494748545F4252494726
:1004600048544E45535300544F47474C455F4C4901
:100470004748545300534F4654574152455F504FDD
:10048000574552004255494C445F50455243454EF2
:1004900054004C4556454C494E475F444154410039
:1004A0005A5F50524F4245004155544F4C455645B6
:1004B0004C005052494E545F4A4F420050524F47F1
:1004C00052455353004155544F5245504F52545F7B
:1004D00054454D5000564F4C554D455452494300DC
:1004E000454550524F4D0053455249414C5F584F7E
:1004F0004E5F584F4646004649524D574152455F60
:100500004E414D453A4D61726C696E20312E312E4F
:100510003820284769746875622920534F55524323
:10052000455F434F44455F55524C3A68747470734D
:100530003A2F2F6769746875622E636F6D2F4D6156
:10054000726C696E4669726D776172652F4D61726A
:100550006C696E2050524F544F434F4C5F5645527A
:1005600053494F4E3A312E30204D414348494E4574
:100570005F545950453A4132302045585452554401
:1005800045525F434F554E543A3120555549443AF0
:1005900063656465326132662D343161322D3437E2
:1005A00034382D396231322D633535633632663356
:1005B000363766660A002F2F20004D313435205320
:1005C0003C696E6465783E206F7574206F6620729A
:1005D000616E67652028302D31290A0053657474D7
:1005E000696E672054726176656C20416363656C47
:1005F00065726174696F6E3A200053657474696E38
:1006000067205265747261637420416363656C6531
:10061000726174696F6E3A200053657474696E6715
:10062000205072696E7420416363656C65726174F9
:10063000696F6E3A200053657474696E672050725A
:10064000696E7420616E642054726176656C20411D
:100650006363656C65726174696F6E3A20000001B6
:1006600025272318FF1F211D1CFF19171B1EFFFF25
:100670000C0409FFFFFF2E2C0CFFFF04400AFF4172
:10068000FFFFFFFFFFFF206F7574206F6620726110
:100690006E67650A00536572766F20003A2000206D
:1006A000536572766F200020643A0020693A00207A
:1006B000703A0043290A0061626C656420286D6904
:1006C0006E2074656D702000436F6C6420657874D3
:1006D00072756465732061726520004D65736820D2
:1006E000706F696E742063616E6E6F742062652036
:1006F0007265736F6C7665640A004D34323120691F
:100700006E636F727265637420706172616D65747F
:1007100065722075736167650A003A2000207A5F70
:100720006D696E3A20202D3230207A5F6D61783A03
:10073000202032300A0050726F6265205A204F66C6
:10074000667365740043617365206C696768743A09
:100750002000290A00466978656420706172616D25
:10076000657465722062797465733B2063726320DF
:1007700000466978656420706172616D65746572A8
:1007800020280048565F7365745F6F6B0A004163F1
:10079000746976652045787472756465723A2000D4
:1007A000556E6B6E6F776E20636F6D6D616E643A20
:1007B0002022004B494C4C45442E200053544F50AE
:1007C0005045442E20005072696E74657220737417
:1007D0006F707065642064756520746F2065727237
:1007E0006F72732E20466978207468652065727276
:1007F0006F7220616E6420757365204D3939392020
:10080000746F20726573746172742E202854656D44
:1008100070657261747572652069732072657365A5
:10082000742E20536574206974206166746572208B
:1008300072657374617274696E67290A004E6F2065
:10084000436865636B73756D2077697468206C69A4
:100850006E65206E756D6265722C204C617374201C
:100860004C696E653A2000636865636B73756D2033
:100870006D69736D617463682C204C617374204CD6
:10088000696E653A20004C696E65204E756D626533
:1008900072206973206E6F74204C617374204C69F0
:1008A0006E65204E756D6265722B312C204C617324
:1008B00074204C696E653A20004D313130004D3363
:1008C0003100473238205859005344207265616422
:1008D000206572726F720A00446F6E6520707269D3
:1008E0006E74696E672066696C650A0020496E76D1
:1008F000616C696420657874727564657220005358
:10090000544F505045442E20005072696E746572E9
:100910002073746F707065642064756520746F2037
:100920006572726F72732E20466978207468652034
:100930006572726F7220616E6420757365204D3927
:10094000393920746F20726573746172742E202897
:1009500054656D706572617475726520697320727B
:10096000657365742E205365742069742061667404
:1009700065722072657374617274696E67290A000A
:1009800053544F502063616C6C65642062656361F1
:10099000757365206F6620424C546F7563682065DF
:1009A00072726F72202D2072657374617274207779
:1009B000697468204D3939390A0042696C696E657D
:1009C0006172204C6576656C696E67204772696458
:1009D0003A0A0020706F736974696F6E206F7574C6
:1009E000206F662072616E67652E0A003F50726F3D
:1009F00062652000202844525952554E2900473242
:100A000039204175746F20426564204C6576656CB1
:100A1000696E670028422961636B00284629726F5E
:100A20006E74002852296967687400284C2965662D
:100A300074003F2856296572626F7365206C657675
:100A4000656C20697320696D706C61757369626C87
:100A5000652028302D34292E0A00426164205A2056
:100A600076616C75650A004E6F2062696C696E650F
:100A7000617220677269640A00526573756D696EF0
:100A800067207072696E7400413230207265616453
:100A9000792E00436C69636B20746F2072657375E7
:100AA0006D652E2E2E004D6573682056616C69644D
:100AB0006174696F6E2053746F707065642E006985
:100AC0006E206D6F76655F746F282920666565649A
:100AD0005F76616C756520666F722058593A004CDC
:100AE000656176696E6720473236004732362048A6
:100AF000656174696E67204E6F7A7A6C652E004767
:100B000032362048656174696E67204265642E0044
:100B1000446F6E65205072696D696E6700446F6E38
:100B200065205072696D696E67004669786564205A
:100B30004C656E677468205072696D652E00557340
:100B400065722D436F6E74726F6C6C6564205072A9
:100B5000696D65002C2065793D0029202D3E2028F7
:100B600065783D002C2073793D0020436F6E6E65E3
:100B70006374696E6720776974682076657274693A
:100B800063616C206C696E65202873783D002C20B1
:100B900065793D0029202D3E202865783D002C20D8
:100BA00073793D0020436F6E6E656374696E6720D4
:100BB0007769746820686F72697A6F6E74616C20EF
:100BC0006C696E65202873783D004C656176696EAE
:100BD0006720473236002C2079693D0020202044D0
:100BE0006F696E6720636972636C652061743A2077
:100BF0002878693D003F53706563696669656420C4
:100C0000582C5920636F6F7264696E617465206F30
:100C10007574206F6620626F756E64732E0A003FD4
:100C200028522965706561742076616C7565206E47
:100C30006F7420706C61757369626C653B206D75B3
:100C40007374206265206174206C65617374203157
:100C50002E0A003F537065636966696564206E6F94
:100C60007A7A6C652074656D7065726174757265F1
:100C7000206E6F7420706C61757369626C652E0AEA
:100C8000003F5370656369666965642066696C61DD
:100C90006D656E742073697A65206E6F7420706C58
:100CA00061757369626C652E0A003F5370656369F4
:100CB00066696564207072696D65206C656E677425
:100CC00068206E6F7420706C61757369626C652E3C
:100CD0000A003F537065636966696564206E6F7AC8
:100CE0007A6C652073697A65206E6F7420706C6110
:100CF000757369626C652E0A003F5370656369669F
:100D00006965642052657472616374696F6E204D09
:100D1000756C7469706C696572206E6F7420706C8C
:100D200061757369626C652E0A003F526574726169
:100D30006374696F6E204D756C7469706C6965724F
:100D4000206D7573742062652073706563696669D0
:100D500065642E0A003F53706563696669656420A7
:100D60006C6179657220686569676874206E6F745C
:100D700020706C61757369626C652E0A003F537058
:100D800065636966696564206265642074656D7079
:100D900065726174757265206E6F7420706C617518
:100DA0007369626C652E0A0047323620636F6D6D81
:100DB000616E6420737461727465642E205761697A
:100DC00074696E6720666F72206865617465722849
:100DD00073292E0A0046696C652064656C6574652C
:100DE000643A0044656C6574696F6E206661696C75
:100DF00065642C2046696C653A20006F70656E2032
:100E00006661696C65642C2046696C653A2000480F
:100E1000656174696E6720646F6E652E0020573AB5
:100E200000452569202573004132302072656164D8
:100E3000792E0042656420646F6E652E0020573A5B
:100E4000004265642048656174696E672E00205A0F
:100E50003A0020593A0020436F756E7420583A00CA
:100E600020453A00205A3A0020593A00583A003AB0
:100E7000004361703A00205A002059005800202099
:100E80004D61783A2000205A002059005800202057
:100E90004D696E3A20004F6E20004F666600536F1A
:100EA000667420656E6473746F70733A20002064FA
:100EB0003A0020693A0020703A004B642000236415
:100EC0006566696E65202044454641554C545F0077
:100ED0004B69200023646566696E652020444546A1
:100EE00041554C545F004B70200023646566696E69
:100EF00065202044454641554C545F0050494420EC
:100F00004175746F74756E652066696E6973686586
:100F100064212050757420746865206C617374209E
:100F20004B702C204B6920616E64204B6420636FF2
:100F30006E7374616E74732066726F6D2062656C7F
:100F40006F7720696E746F20436F6E666967757284
:100F50006174696F6E2E680A0050494420417574AF
:100F60006F74756E65206661696C656421207469B3
:100F70006D656F75740A00544845524D414C2052BE
:100F8000554E4157415900546865726D616C20524D
:100F9000756E617761790048656174696E67206676
:100FA00061696C65640048656174696E672066619B
:100FB000696C656400504944204175746F74756EA6
:100FC00065206661696C6564212054656D70657289
:100FD000617475726520746F6F20686967680A00B4
:100FE000204B643A2000204B693A2000204B703A95
:100FF00020000A20436C61737369632050494420C8
:101000000A002054753A2000204B753A2000206DCC
:1010100061783A2000206D696E3A200020643A2001
:101020000020626961733A20004F66660A004661DB
:101030006465204865696768742000426564204CD7
:101040006576656C696E6720004661696C65642031
:10105000746F20656E61626C6520426564204C652A
:1010600076656C696E670A004D36303020486F74C3
:10107000656E6420746F6F20636F6C6420746F20E2
:101080006368616E67652066696C616D656E740A80
:101090000020204D383531205A005A2D50726F6291
:1010A00065204F666673657420286D6D293A0A00C5
:1010B00020440020490020204D33303420500020AF
:1010C000440020490020204D333031205000504949
:1010D000442073657474696E67733A0A0020460091
:1010E00020420020480020204D3134352053004D4F
:1010F0006174657269616C206865617475702070D7
:101100006172616D65746572733A0A00205A00203D
:10111000204D3432302053004175746F2042656495
:10112000204C6576656C696E673A0A0020450020A0
:101130005A0020590020580020420020540020204E
:101140004D323035205300416476616E6365643AF8
:1011500020533C6D696E5F66656564726174653EBF
:1011600020543C6D696E5F74726176656C5F666574
:101170006564726174653E20423C6D696E5F7365A3
:10118000676D656E745F74696D655F75733E205839
:101190003C6D61785F78795F6A65726B3E205A3C7E
:1011A0006D61785F7A5F6A65726B3E20453C6D6168
:1011B000785F655F6A65726B3E0A002054002052BA
:1011C0000020204D323034205000416363656C654F
:1011D000726174696F6E2028756E6974732F733233
:1011E000293A20503C7072696E745F616363656C6C
:1011F0003E20523C726574726163745F6163636523
:101200006C3E20543C74726176656C5F616363650B
:101210006C3E0A00204500205A0020590020204D35
:101220003230312058004D6178696D756D20416311
:1012300063656C65726174696F6E2028756E697480
:10124000732F7332293A0A00204500205A00205992
:101250000020204D3230332058004D6178696D7583
:101260006D206665656472617465732028756E69AA
:1012700074732F73293A0A00204500205A00205920
:101280000020204D3932205800537465707320704F
:10129000657220756E69743A0A0020204D32303034
:1012A0002044300A0020204D3230302044002044B9
:1012B000697361626C65640A0046696C616D656E94
:1012C000742073657474696E67733A0020204D3121
:1012D00034392043203B20556E69747320696E2099
:1012E00043656C736975730A0020204732312020F2
:1012F00020203B20556E69747320696E206D6D0A45
:10130000007A5F6D696E3A2000795F6D696E3A20F0
:1013100000785F6D696E3A20005265706F72746973
:101320006E6720656E6473746F702073746174757A
:10133000730A00526573656E643A20006F6B00207B
:10134000746F6F206C6F6E67206578747275736947
:101350006F6E2070726576656E7465640A00206336
:101360006F6C6420657874727573696F6E2070722B
:101370006576656E7465640A00627573793A2070EB
:10138000617573656420666F7220696E7075740A8A
:1013900000627573793A2070617573656420666FB9
:1013A0007220757365720A00627573793A207072E3
:1013B0006F63657373696E670A004B494C4C454413
:1013C0002E20004B494C4C2063617573656420628C
:1013D0007920746F6F206D75636820696E61637426
:1013E0006976652074696D65202D2063757272655C
:1013F0006E7420636F6D6D616E643A2000506C6591
:10140000617365207265736574005052494E54458E
:10141000522048414C544544005072696E746572C4
:101420002068616C7465642E206B696C6C282920BF
:1014300063616C6C6564210A00000020C10000A09B
:10144000C00000000000007042000070420000C0B8
:1014500040000000005761726E696E673A20486F65
:101460006D696E672042756D702044697669736F8F
:1014700072203C20310A000202040000A04000005B
:10148000A040000000400000824300007F430000B5
:101490007A43FFFFFF4578747275646572004D6F83
:1014A0007665205A004D6F76652059004D6F766540
:1014B0002058005072657061726500496E697469E8
:1014C000616C697A6520454550524F4D00436F6EFF
:1014D00074726F6C00526573746F72652066616917
:1014E0006C73616665004C6F616420736574746928
:1014F0006E677300496E697469616C697A6520452D
:101500004550524F4D0053746F726520736574746B
:10151000696E677300424C546F7563680046696C6E
:10152000616D656E74004D6F74696F6E0054656D0A
:101530007065726174757265004D61696E004D333E
:1015400030332055312045256920532569005072DC
:1015500065686561742041425320636F6E66005078
:1015600072656865617420504C4120636F6E66003F
:10157000504944204175746F74756E65005049443C
:10158000204175746F74756E650050494420417533
:10159000746F74756E65005049442D440050494481
:1015A0002D44005049442D49005049442D490050D4
:1015B00049442D50005049442D50002008204661D8
:1015C00063740020082046616374002008204D6188
:1015D00078002008204D6178002008204D617800B7
:1015E0002008204D696E002008204D696E002008FB
:1015F000204D696E004F6666004F6E200041757485
:101600006F74656D700046616E207370656564006F
:1016100046616E2073706565640046616E2073706C
:10162000656564004265640042656400426564006B
:101630004E6F7A7A6C65004E6F7A7A6C65004E6FE9
:101640007A7A6C6500436F6E74726F6C0053746FBE
:1016500072652073657474696E6773004265640017
:1016600042656400426564004E6F7A7A6C65004E94
:101670006F7A7A6C65004E6F7A7A6C650046616E9F
:101680002073706565640046616E207370656564E3
:101690000046616E2073706565640054656D706509
:1016A000726174757265004573746570732F6D6D2A
:1016B000004573746570732F6D6D005A7374657097
:1016C000732F6D6D005A73746570732F6D6D0059B3
:1016D00073746570732F6D6D005973746570732F1B
:1016E0006D6D005873746570732F6D6D0058737451
:1016F0006570732F6D6D004D6F74696F6E0053745C
:101700006570732F6D6D004A65726B004163636590
:101710006C65726174696F6E0056656C6F63697495
:1017200079005A204F6666736574005A204F6666CA
:1017300073657400436F6E74726F6C004F66660061
:101740004F6E200052756E6F75742073656E736FE7
:1017500072730046696C2E204469612E0046696CE4
:101760002E204469612E004F6666004F6E200045B2
:1017700020696E206D6D3300436F6E74726F6C0064
:1017800043616E6E6F7420656E746572207375624E
:101790006469723A2000022E2E004D61696E004D80
:1017A00061782054656D703A20313530004D696E96
:1017B0002054656D703A203500544265643A4550B6
:1017C000434F53203130304B004D61782054656DCC
:1017D000703A20323735004D696E2054656D703A8D
:1017E00020350054303A204550434F53203130309B
:1017F0004B005053553A2047656E6572696300503F
:10180000726F746F636F6C3A20312E30002020208D
:10181000204857205665723A205600465720566594
:10182000723A2056312E3100426175643A203235C9
:1018300030303030004754323536302056332E3079
:1018400000200D466978656420706172616D657471
:101850006572206E62797465733B206372632065E4
:1018600072726F722000200D0A46697865642070DC
:101870006172616D657465722062797465733B2075
:10188000637263206572726F722000290A00206201
:10189000797465733B2063726320004669786564E0
:1018A00020706172616D6574657220280020686126
:1018B0007264776172652076657273696F6E3A0043
:1018C0001FFFFFFFFFFFFF600000000001FF40005F
:1018D00000000000FF8000000000007F83CF0000B8
:1018E0000C303F87FF80000C301F867980000C0091
:1018F0000F8C30C7838C30E78C30CFC7CC31F38C62
:1019000030DCECEC33B98C30D86C6C33198C30D0C3
:101910006C0C33198C30D86C0C33198C30DC6C0E99
:101920003B198C30CF7C079F198C30C77C038F19F3
:1019300040000000000002600000000000061FFFE1
:10194000FFFFFFFFF82020506C616E6E65724275DC
:101950006666657242797465733A20002046726546
:1019600065204D656D6F72793A2000436F6D706927
:101970006C65643A204E6F76203237203230313831
:101980000A00207C20417574686F723A20286E6FBF
:101990006E652C2064656661756C7420636F6E667D
:1019A0006967290A00323031372D31322D32352026
:1019B00031323A303000204C6173742055706461CC
:1019C0007465643A2000312E312E380A004D617260
:1019D0006C696E0020536F66747761726520526582
:1019E0007365740A00205761746368646F672052DE
:1019F000657365740A002042726F776E206F75748C
:101A00002052657365740A002045787465726E61B2
:101A10006C2052657365740A00506F77657255705B
:101A20000A0073746172740A006572726F722077B3
:101A3000726974696E6720746F2066696C650A004C
:101A4000456E6473746F70732025632025632025B1
:101A50006320256300205A3A0020593A0020583A62
:101A600000656E6473746F7073206869743A200047
:101A700047323820580066696C616D656E74206F5E
:101A800075740A004D33322053256C75202125735F
:101A9000004D33322053256C7520212F25732F25BF
:101AA00073004730204631303030205A25752E25BE
:101AB00075004732382059004732382058004D31E0
:101AC0003036202053323535004D313039205430F6
:101AD00020532575004D3139302053257500446F52
:101AE0006E6520736176696E672066696C652E0A83
:101AF000004D3239004D31303420532575004739BF
:101B0000322045257500473932205A25752E257516
:101B1000004D3530300043616E63656C2070726932
:101B20006E7400526573756D65207072696E740015
:101B3000506F776572206F75746167650025753A1F
:101B40002530327500253032753A25303275002542
:101B5000756420253032753A25303275005A0059A7
:101B600000580009200000000000000000000000F4
:101B700000007FFFE0000000000000000000000007
:101B8000007000E000000000000000000000000005
:101B900061F860000000000000000000000000414B
:101BA000F82000000000000000000000000040F0ED
:101BB0002000000000000000000000000040602045
:101BC0000000000000000000000000005801A07F9D
:101BD00080000000000000004104005C63A0FFC022
:101BE000000000000000002082005EF7A0FFC0009F
:101BF0000000000000002082005EF7A0FFC000008F
:101C000000000000004104005C63A07F8000000031
:101C1000000000008208005801A07F800000000042
:101C2000000001041000406020FFC0000000000020
:101C3000000104100040F020FFC000000000000080
:101C40000082080041F820FFC000000000000000F2
:101C500041040061F8603F00000000000000000047
:101C600000007000E01E0000000000000001FFFF07
:101C7000807FFFE00C0000000000000001FFFF80FB
:101C80000000000000000000000000000000007FD5
:101C9000FFE00000000000000000000000007000F5
:101CA000E0000000000000000000000000630C6085
:101CB000000000000000000000000000470E2000AF
:101CC00000000000000000000000004F0F20000096
:101CD000000000000000000000005F0FA0000000F6
:101CE0000000000000000000005E07A07F800000F0
:101CF0000000000000410400406020FFC000000020
:101D00000000000020820040F020FFC00000000022
:101D100000000020820040F020FFC0000000000012
:101D200000004104004060207F80000000000000AF
:101D3000008208005E07A07F800000000000000114
:101D40000410005F0FA0FFC00000000000000104AD
:101D500010004F0F20FFC0000000000000008208AC
:101D600000470E20FFC000000000000000410400FA
:101D7000630C603F000000000000000000000070E5
:101D800000E01E0000000000000001FFFF807FFF58
:101D9000E00C0000000000000001FFFF80000000D8
:101DA000436172642072656D6F7665640043617291
:101DB0006420696E7365727465640053746F772074
:101DC000424C546F756368004D32383020503020DB
:101DD000533930004465706C6F7920424C546F75F4
:101DE0006368004D3238302050302053313000428B
:101DF0004C546F7563682053656C662D546573741D
:101E0000004D32383020503020533132300052658E
:101E100073657420424C546F756368004D323830DE
:101E20002050302053313630004D61696E005072C1
:101E3000696E7420706175736564000025730050CD
:101E400072696E742061626F72746564004E6F20F7
:101E500053442063617264005072696E742066722C
:101E60006F6D2053440053746F70207072696E74EC
:101E700000526573756D65207072696E7400416201
:101E80006F7574205072696E74657200506175735D
:101E900065207072696E7400436F6E74726F6C00AF
:101EA000507265706172650054756E6500496E66AA
:101EB0006F2073637265656E004261627973746549
:101EC00070205A004D363030204230004368616E39
:101ED00067652066696C616D656E74004261627948
:101EE00073746570205A00466C6F7700466C6F778C
:101EF00000466C6F770046616E2073706565640004
:101F000046616E2073706565640046616E20737073
:101F10006565640042656400426564004265640072
:101F20004E6F7A7A6C65004E6F7A7A6C65004E6FF0
:101F30007A7A6C65005370656564005370656564FA
:101F4000005370656564004D61696E00507265688C
:101F500065617420504C4120456E64005072656884
:101F600065617420504C4120426564005072656880
:101F700065617420504C410050726570617265005B
:101F800024F4D43050C38E20C2A24017828B70112B
:101F9000127A910D816CD90AA861E108C7586607C9
:101FA000615143061E4B5D05C145A7041A4111044A
:101FB000093D9803713931034036DB0265339102E4
:101FC000D4305402802E1D02632CEE01752AC50107
:101FD000B028A001102781018F2564012B244B011B
:101FE000E0223401AC211F018D200D01801FFC0077
:101FF000841EED00971DDF00B81CD200E61BC60052
:10200000201BBC00641AB200B219A8000A19A00073
:102010006A189900D117910040178B00B5168400FB
:1020200031167E00B31579003A157300C7146F009E
:1020300058146A00EE1366008813630025135E00CF
:10204000C7125B006C12570015125400C1115100E9
:1020500070114F0021114B00D61049008D10470020
:102060004610440002104200C00F4000800F3E00A6
:10207000420F3C00060F3B00CB0E3800930E37009A
:102080005C0E3500270E3400F30D3200C10D310017
:10209000900D3000600D2E00320D2D00050D2C002E
:1020A000D90C2B00AE0C2900850C29005C0C2700F4
:1020B000350C27000E0C2600E80B2400C40B24006E
:1020C000A00B23007D0B23005A0B2100390B2100AC
:1020D000180B2000F80A1F00D90A1E00BB0A1E00B8
:1020E0009D0A1D00800A1D00630A1C00470A1B0090
:1020F0002C0A1B00110A1A00F7091A00DD09190041
:10210000C4091900AB091900920917007B091800CE
:10211000630917004C09160036091600200916003D
:102120000A091500F5081500E0081400CC08140091
:10213000B8081400A4081400900813007D081200C9
:102140006B081300580812004608120034081100EA
:10215000230811001208110001081100F0071000F7
:10216000E0071000D0071000C0071000B0070F00F4
:10217000A107100091070E0083070F0074070F00DE
:1021800065070E0057070E0049070E003B070D00BC
:102190002E070E0020070D0013070D0006070D0087
:1021A000F9060C00ED060D00E0060C00D4060C004C
:1021B000C8060C00BC060C00B0060C00A4060B0000
:1021C00099060C008D060B0082060B0077060B00AB
:1021D0006C060B0061060A0057060B004C060A004D
:1021E00042060A0038060A002E060A0024060A00E3
:1021F0001A060A001006090007060A00FD05090074
:10220000F4050900EB050900E2050900D9050900FC
:10221000D0050900C7050900BE050900B50508007D
:10222000AD050800A50509009C05080094050800F7
:102230008C050800840508007C050800740508006A
:102240006C050700650508005D05070056050800D8
:102250004E05070047050700400508003805070040
:10226000310507002A050700230507001C050600A5
:10227000160507000F050700080506000205070000
:10228000FB040600F5040700EE040600E80406005F
:10229000E2040700DB040600D5040600CF040600B4
:1022A000C9040600C3040600BD040600B704060006
:1022B000B1040500AC040600A6040600A004050055
:1022C0009B04060095040500900406008A0405009E
:1022D00085040500800406007A04050075040500E5
:1022E000700405006B040500660405006104050028
:1022F0005C04050057040500520405004D04050068
:1023000048040500430405003E0404003A040500A7
:1023100035040500300404002C04050027040400E3
:10232000230405001E0404001A040400160405001A
:10233000110404000D040400090405000404040051
:1023400000040400FC030400F8030400F403040088
:10235000F0030400EC030400E8030400E4030400B9
:10236000E0030400DC030400D8030400D4030400E9
:10237000D0030400CC030400C8030300C50303001A
:1023800024F404D9201BC40C5C0E9804C4095F0219
:1023900065077101F405F900FB04B30048048700E8
:1023A000C10369005803550003034500BE023A000B
:1023B0008402310053022A00290225000402200071
:1023C000E4011C00C8011900AF01170098011400B6
:1023D00084011300710110006101100051010E0011
:1023E00043010D0036010B002B010B0020010B00F7
:1023F000150109000C01090003010800FB00080099
:10240000F3000800EB000700E4000600DE00060011
:10241000D8000600D2000600CC000500C700050069
:10242000C2000500BD000400B9000400B5000400AE
:10243000B1000400AD000400A9000400A5000300E1
:10244000A20003009F0004009B000300980003000B
:102450009500020093000300900003008D0002002D
:102460008B00030088000200860002008400030045
:10247000810002007F0002007D0002007B0002005C
:10248000790002007700010076000200740002006B
:1024900072000100710002006F0002006D00010077
:1024A0006C0002006A000100690002006700010080
:1024B0006600010065000100640002006200010086
:1024C00061000100600001005F0002005D0001008A
:1024D0005C0001005B0001005A000100590001008E
:1024E000580001005700010056000100550001008E
:1024F000540001005300000053000100520001008D
:1025000051000100500001004F0001004E0000008A
:102510004E0001004D0001004C0001004B00000086
:102520004B0001004A000100490001004800000082
:10253000480001004700010046000000460001007D
:102540004500000045000100440001004300000078
:102550004300010042000000420001004100000071
:1025600041000100400001003F0000003F00010069
:102570003E0000003E0001003D0000003D00010063
:102580003C0000003C0000003C0001003B0000005B
:102590003B0001003A0000003A0001003900000051
:1025A0003900010038000000380000003800010048
:1025B0003700000037000100360000003600000040
:1025C0003600010035000000350000003500010034
:1025D000340000003400000034000100330000002B
:1025E0003300000033000100320000003200000020
:1025F0003200010031000000310000003100010014
:102600003000000030000000300001002F0000000A
:102610002F0000002F0000002F0001002E000000FE
:102620002E0000002E0001002D0000002D000000F3
:102630002D0000002D0001002C0000002C000000E7
:102640002C0000002C0001002B0000002B000000DB
:102650002B0000002B0001002A0000002A000000CF
:102660002A0000002A0001002900000029000000C3
:1026700029000000290000002900010028000000B6
:1026800028000000280000002800000028000100A9
:10269000270000002700000027000000270000009E
:1026A0002700010026000000260000002600000090
:1026B0002600000026000100250000002500000083
:1026C0002500000025000000250000002500010075
:1026D000240000002400000024000000240000006A
:1026E000240001002300000023000000230000005C
:1026F000230000002300000023000000230001004D
:102700002200000022000000220000002200000041
:102710002200000022000100210000002100000032
:102720002100000021000000210000002100000025
:102730002100010020000000200000002000000017
:102740002000000020000000200000002000000009
:10275000200001001F0000001F0000001F000000FB
:102760001F0000001F0000001F0000001F000100EC
:102770001E0000001E0000001E0000001E000000E1
:102780004D383420582059205A2045005A25752CA0
:1027900045256C752C50256C752C5425752C4225BF
:1027A000752C004132302072656164792E004572CB
:1027B000723A4E6F2046696C616D656E740050729E
:1027C00065686561742041425320456E6400507213
:1027D000656865617420414253204265640050720F
:1027E0006568656174204142530050726570617282
:1027F00065004261636B004E65787420636F726E92
:102800006572004D32383020503020533136300060
:10281000424C546F7563682053656C662D54657324
:1028200074004D3238302050302053313230005057
:102830007265686561742041425300507265686535
:10284000617420504C4100436F6F6C646F776E0071
:102850004368616E67652066696C616D656E7400C2
:10286000526573657420424C546F75636800446907
:102870007361626C65207374657070657273004D6E
:102880003834004C6576656C20636F726E657273C8
:1028900000426564204C6576656C696E670047325E
:1028A000380A473239004175746F20686F6D6500D2
:1028B000473238004D6F76652061786973004D614D
:1028C000696E004D6F76652058004D6F7665205912
:1028D000004D6F7665205A00457874727564657294
:1028E000004D6F766520302E316D6D004D6F766531
:1028F00020316D6D004D6F76652031306D6D004D6E
:102900006F7665206178697300486F74656E642026
:10291000746F6F20636F6C640045787472756465C2
:1029200072004D6F7665205A004D6F766520590014
:102930004D6F76652058004572726F72207772690C
:1029400074696E6720746F20454550524F4D210ABF
:1029500000290A002062797465733B20637263204A
:102960000053657474696E67732053746F72656485
:1029700020280057726974696E6720746F20666939
:102980006C653A20006F70656E206661696C6564E5
:102990002C2046696C653A20006F70656E20666178
:1029A000696C65642C2046696C653A200046696C48
:1029B000652073656C65637465640A002053697AE9
:1029C000653A200046696C65206F70656E65643AF3
:1029D00020006F70656E206661696C65642C20460E
:1029E000696C653A20002066696C653A2000646F66
:1029F000696E67006672657368004E6F77200045E8
:102A00004E4420535542524F5554494E450A0022D8
:102A100020706F73002220706172656E743A22001C
:102A2000535542524F5554494E452043414C4C203A
:102A30007461726765743A22004B494C4C45442ED0
:102A40002000747279696E6720746F2063616C6C0A
:102A5000207375622D67636F64652066696C6573AA
:102A6000207769746820746F6F206D616E79206CB7
:102A70006576656C732E204D4158206C6576656CCB
:102A80002069733A0053442063617264206F6B0ABB
:102A9000006F70656E526F6F74206661696C65645B
:102AA0000A00766F6C756D652E696E6974206661BB
:102AB000696C65640A004572726F723A0053442073
:102AC000696E6974206661696C0A0042696C696E9E
:102AD000656172204C6576656C696E670045787437
:102AE0007275646572733A203100687474703A2F9D
:102AF0002F6D61726C696E66772E6F72670041325E
:102B00003000323031372D31322D32352031323AEA
:102B1000303000312E312E38004D61726C696E00FC
:102B2000546865726D6973746F727300426F61727D
:102B30006420496E666F005072696E746572204938
:102B40006E666F004D61696E0020204E6F7A7A6C60
:102B5000653A200020004261636B004D696E696D2B
:102B6000756D2054656D70206973203137302E00EB
:102B700048656174696E67206661696C65640045CB
:102B8000787472756465206D6F7265005265737537
:102B90006D65207072696E7400524553554D452025
:102BA0004F5054494F4E533A0020204E6F7A7A6C62
:102BB000653A20006368616E6765006F662074681F
:102BC000652066696C616D656E740057616974207B
:102BD000666F72207374617274005052494E5420B3
:102BE0005041555345440020204E6F7A7A6C653A27
:102BF0002000200066696C616D656E7420756E6CD6
:102C00006F6164005761697420666F7200505249A9
:102C10004E54205041555345440020204E6F7A7A3F
:102C20006C653A20002000506C6561736520776107
:102C300069742E2E2E0048656174696E67206E6F70
:102C40007A7A6C65005052494E5420504155534594
:102C5000440020204E6F7A7A6C653A20002000688C
:102C6000656174206E6F7A7A6C652E0050726573A0
:102C70007320627574746F6E20746F005052494EE9
:102C800054205041555345440020204E6F7A7A6CB1
:102C9000653A2000746F20636F6E74696E75652EDF
:102CA0002E2E00616E6420707265737320627574DD
:102CB000746F6E00496E736572742066696C616D25
:102CC000656E74005052494E54205041555345444E
:102CD0000020204E6F7A7A6C653A200020006669E9
:102CE0006C616D656E74206C6F616400576169740E
:102CF00020666F72005052494E5420504155534542
:102D0000440020204E6F7A7A6C653A2000200066DD
:102D1000696C616D656E74206578747275646500A8
:102D20005761697420666F72005052494E542050AA
:102D3000415553454400746F20726573756D65008D
:102D40005761697420666F72207072696E740050EA
:102D500052494E54205041555345440050726F62C1
:102D6000696E67206661696C65640A0050726F6203
:102D7000696E67206661696C656400205A3A2000BC
:102D800020593A200042656420583A2000534420DC
:102D90007072696E74696E67206279746520004E86
:102DA0006F74205344207072696E74696E670A00F4
:102DB000486F6D65202573257325732066697273CE
:102DC00074002066697273740A005A005900580032
:102DD000486F6D65200043616E6E6F74206F706583
:102DE0006E2073756264697220006175746F256965
:102DF0002E67004D3234004D323320257300656E4E
:102E00007175657565696E672022006563686F3A44
:102E1000007C3C3E5E2B3D3F2F5B5D3B2C2A225CC1
:102E20000070012C0190012701B0012201C0011D99
:102E300001F00118011002130130020E01600209B5
:102E40000190020401C002FF000003FA004003F5F4
:102E5000008003F000D003EB002004E6007004E1E2
:102E600000E004DC004005D700C005D2004006CDDC
:102E700000D006C8008007C3003008BE00F008B9C3
:102E800000C009B400B00AAF00B00BAA00D00CA576
:102E900000000EA000500F9B00C010960050129131
:102EA0000000148C00C0158700B0178200B0197D97
:102EB00000D01B7800001E730040206E0090226935
:102EC00000F024640040275F0090295A00E02B5551
:102ED00000102E500020304B0010324600E03341ED
:102EE0000090353C001037370070383200A0392D83
:102EF00000B03A2800A03B2300603C1E00103D19A2
:102F000000903D1400103E0F00703E0A00C03E05C8
:102F100000003F0000403FFBFF803FF6FFC03FF155
:102F2000FF544845524D414C2052554E415741594E
:102F300000546865726D616C2052756E61776179BD
:102F4000004572723A204D494E54454D502042453D
:102F500044004572723A204D494E54454D50004D43
:102F6000494E54454D5020747269676765726564B7
:102F7000004572723A204D415854454D502042450B
:102F800044004572723A204D415854454D50004D11
:102F9000415854454D502074726967676572656485
:102FA00000202F002042403A0020403A0020746F59
:102FB0006F206C6F6E6720657874727573696F6EC1
:102FC0002070726576656E7465640A0020636F6CAC
:102FD0006420657874727573696F6E20707265769F
:102FE000656E7465640A00290A5772697465206603
:102FF000696C65206E616D653A20002062797465A8
:10300000733B206372632000506F7765726F666652
:103010002053746F72656420280020213D200063D6
:103020007263206572726F723A20000A7265616481
:103030002066696C65206E616D653A2000290A7210
:103040006561642066696C65206469723A200020BD
:1030500062797465733B206372632000706F7765DB
:10306000726F66662073746F726564207365747422
:10307000696E67732072657472696576656420286D
:1030800000202863616C63756C6174656429210A92
:103090000020213D2000454550524F4D20435243D2
:1030A000206D69736D61746368202D202873746FBF
:1030B000726564292000290A002062797465733BD7
:1030C0002063726320002073746F726564207365DF
:1030D0007474696E6773207265747269657665646D
:1030E000202800204D61726C696E3D563232290AEB
:1030F0000028454550524F4D3D00454550524F4DDB
:103100002076657273696F6E206D69736D6174638B
:1031100068200048617264636F646564204465667A
:1031200061756C742053657474696E6773204C6F9D
:10313000616465640A00881300008813000032008F
:103140000000881300000000C8430000C8430000CE
:10315000C843000034429A99A0429A99A1420000C3
:10316000C8430000BA4200060900FE00000000004B
:1031700001090008FE000005080806000040F0C82C
:103180008888987810050808060000C0F8888888A4
:103190008888F80505050600012030F8302005086C
:1031A000080600002070F820202020E0050909060C
:1031B00000FF2070A8A8B8888870200509090600BB
:1031C000FFE080C0B0A8283028280509090600FFC4
:1031D000F8A88888888888A8F8050A0A0600FE20CA
:1031E0005050505088A8A88870030303060003407D
:1031F000A0405654726176206D696E00565472611B
:1032000076206D696E005654726176206D696E008D
:10321000566D696E00566D696E00566D696E00568A
:103220006D6178204500566D6178204500566D61CE
:1032300078204500566D6178205A00566D617820DF
:103240005A00566D6178205A00566D6178205900F9
:10325000566D6178205900566D6178205900566D81
:103260006178205800566D6178205800566D61785D
:103270002058004D6F74696F6E00416D6178204574
:1032800000416D6178204500416D6178205A004110
:103290006D6178205A00416D6178205900416D615F
:1032A00078205900416D6178205800416D61782087
:1032B0005800412D74726176656C00412D74726105
:1032C00076656C00412D7265747261637400412DE6
:1032D0007265747261637400416363656C0041637D
:1032E00063656C004D6F74696F6E0056652D6A657D
:1032F000726B0056652D6A65726B0056652D6A65A6
:10330000726B00567A2D6A65726B00567A2D6A656B
:10331000726B0056792D6A65726B0056792D6A655D
:10332000726B0056792D6A65726B0056782D6A654E
:10333000726B0056782D6A65726B0056782D6A653F
:10334000726B004D6F74696F6E0000060900FE0716
:1033500001920321207FFF07FF07FF000000060006
:103360000001070706020080808080800080030241
:1033700002060105A0A00507070600005050F850FE
:10338000F850500507070600002078A07028F020AC
:10339000050707060000C0C8102040981805070759
:1033A0000600006090A040A8906802030306010494
:1033B000C040800307070601002040808080402035
:1033C00003070706010080402020204080050505F6
:1033D00006000120A870A820050505060001202090
:1033E000F820200203030602FFC040800501010609
:1033F0000003F8020202060200C0C005050506002F
:1034000001081020408005070706000070888888A2
:1034100088887003070706010040C040404040E034
:10342000050707060000708808708080F805070708
:10343000060000F81020100808F005070706000035
:1034400010305090F81010050707060000F880F0C3
:1034500008088870050707060000708080F08888DB
:1034600070050707060000F8081020202020050737
:1034700007060000708888708888700507070600B6
:103480000070888878080870020505060200C0C030
:1034900000C0C00206060602FFC0C000C040800493
:1034A0000707060000102040804020100503030697
:1034B0000002F800F80407070601008040201020F1
:1034C00040800507070600007088081020002005CE
:1034D000070706000070880868A8A8700507070697
:1034E0000000708888F8888888050707060000F0C3
:1034F0008888F08888F005070706000070888080BB
:10350000808870050707060000F08888888888F0A2
:10351000050707060000F88080F08080F80507079F
:10352000060000F88080F080808005070706000014
:10353000708880B88888700507070600008888882A
:10354000F8888888010707060200808080808080D4
:10355000800507070600003810101010906005075E
:10356000070600008890A0C0A09088050707060005
:1035700000808080808080F805070706000088D8DA
:10358000A8888888880507070600008888C8A89842
:103590008888050707060000708888888888700575
:1035A0000707060000F08888F0808080050707067E
:1035B000000070888888A89068050707060000F05A
:1035C0008888F0A090880507070600007880807042
:1035D0000808F0050707060000F82020202020201A
:1035E000050707060000888888888888700507070F
:1035F0000600008888888888502005070706000094
:103600008888888888A850050707060000888850A1
:1036100020508888050707060000888888502020E9
:1036200020050707060000F80810204080F803076F
:1036300007060100E08080808080E0050505060027
:10364000018040201008030707060100E020202029
:103650002020E00503030600042050880501010630
:103660000000F8020202060205804005050506007A
:103670000070087888780507070600008080B0C8C9
:103680008888F005050506000070808088700507B1
:103690000706000008086898888878050505060070
:1036A000007088F880700507070600003048E04089
:1036B0004040400506060600FF70888878087005BF
:1036C00007070600008080B0C888888801070706C1
:1036D0000200800080808080800308080601FF20AF
:1036E0000020202020A040040707060000808090D2
:1036F000A0C0A090030707060100C0404040404022
:10370000E0050505060000D0A8A8A8A8050505063F
:103710000000B0C888888805050506000070888804
:1037200088700506060600FFF08888F08080050690
:10373000060600FF78888878080805050506000059
:10374000B0C880808005050506000070807008F014
:103750000407070600004040E040404030050505F2
:103760000600008888889868050505060000888896
:103770008850200505050600008888A8A850050582
:103780000506000088502050880506060600FF88C0
:103790008888780870050505060000F8102040F8B4
:1037A0000307070601002040408040402001070732
:1037B0000602008080808080808003070706010069
:1037C00080404020404080050202060002689000D0
:1037D000000006000000002100240027002A002D20
:1037E000003000330001010000040107010A01005C
:1037F000002200250028002B002E0031003400029A
:10380000010000050108010B010000200023002633
:103810000029002C002F00320000010000030106E7
:103820000109010505050507050808080802020247
:10383000020A0A080804040404010101010101014B
:10384000010303030303030303040707070C0C0C22
:103850000C0C0C0C0C0202020206060606060606FA
:10386000060B0B0B0B0B0B0B0B0102102020080897
:1038700010204010204080020102010804020101D2
:1038800002040810204080804020100804020180BB
:103890000402018040201008040201080402010112
:1038A000020408102040800102040810204080001B
:1038B000000A0B02090C0D0E0807030401000000AA
:1038C00000000000000000000000000000000000F8
:1038D00000000000000000000000001211100000B5
:1038E00000000000000000000000000000000000D8
:1038F00000000000006265640A002C207379737474
:10390000656D2073746F7070656421204865617403
:1039100065725F49443A200048656174696E6720AA
:103920006661696C65640048656174696E672066EC
:1039300061696C65640048656174696E67206661E1
:10394000696C65640048656174696E6720666169C9
:103950006C6564000601480111241FBECFEFD1E25F
:10396000DEBFCDBF00E00CBF13E0A0E0B2E0E0E0BE
:10397000F4E602E00BBF02C007900D92A63FB1072C
:10398000D9F728E1A6EFB3E001C01D92A837B2072E
:10399000E1F71CE1CBEADCE100E006C02197010978
:1039A000802FFE010F945D31CA3AD10780E00807ED
:1039B000A9F70F9418190D94EF310C9400002F9271
:1039C0003F924F925F926F927F928F929F92AF92AF
:1039D000BF92CF92DF92EF92FF920F931F93CF93FC
:1039E000DF93CDB7DEB7C356D1090FB6F894DEBF6B
:1039F0000FBECDBF81E090E0909383058093820558
:103A0000809171188D3411F40C944D26843511F485
:103A10000C943433873421F0EBE0FEE20C947633DF
:103A200020906F18309070182BE12216310409F4A1
:103A3000D6C5E4F444E0241631044CF452E02516D3
:103A400031040CF043C037FE3AC00C948E3384E04E
:103A50002816310409F47CC59AE12916310411F0C5
:103A60000C948E330E94EA460C948E33AAE22A16F6
:103A7000310411F40C94902574F4EDE12E16310408
:103A800009F486C70CF4D7C52EE12216310409F4D7
:103A900083C70C948E333BE52316310409F4EBC73E
:103AA0004CE52416310409F4EBC75AE52516310418
:103AB00011F00C948E331092FB030C948E33809192
:103AC000A20281110C9495330C948E338091A20242
:103AD000882311F40C948E330E94E83582E50E940D
:103AE0008D45882309F43EC10E942B454B015C01A2
:103AF00020E030E0A9010F94162A882309F462C15E
:103B00008091411390914213A0914313B0914413BB
:103B100088AB99ABAAABBBAB209145133091461350
:103B200040914713509148132CAB3DAB4EAB5FAB6C
:103B30008091AE0F9091AF0FA091B00FB091B10FE7
:103B400024968CAF9DAFAEAFBFAF24972091B20F3C
:103B50003091B30F4091B40F5091B50F28AF39AFEA
:103B60004AAF5BAF9C01AD0168A979A98AA99BA95D
:103B70000F94162A81110DC028AD39AD4AAD5BAD49
:103B80006CA97DA98EA99FA90F94162A882309F4F0
:103B900019C111E032E02316310409F010E020E0F1
:103BA00030E0A901C501B4010F94162A881F8827A7
:103BB000881F181759F080E090E0A0E8BFEB2C9622
:103BC0008CAF9DAFAEAFBFAF2C970AC020E030E006
:103BD00040E85FE32C962CAF3DAF4EAF5FAF2C9724
:103BE00028A939A94AA95BA924966CAD7DAD8EADF3
:103BF0009FAD24970F94612E6CAF7DAF8EAF9FAFBA
:103C00002CA93DA94EA95FA968AD79AD8AAD9BAD40
:103C10000F94612E6B017C012CAD3DAD4EAD5FADBF
:103C2000CA01B9010F947B2A2B013C01A70196011F
:103C3000C701B6010F947B2A9B01AC01C301B201FD
:103C40000F94622E0F94CD3028966CAF7DAF8EAF5F
:103C50009FAF289720E030E040E05FE30F947B2A9D
:103C60002B013C01A5019401C501B4010F947B2AED
:103C70004B015C01A3019201C301B2010F947B2AA5
:103C80009B01AC01C501B4010F94612E0F94CD309E
:103C90002C962CAD3DAD4EAD5FAD2C970F947B2A8D
:103CA0004B015C01C701B601905828962CAD3DAD83
:103CB0004EAD5FAD28970F943E2FA50194010F9450
:103CC0007B2A6B017C0124962CAD3DAD4EAD5FADE2
:103CD000249768A979A98AA99BA90F94622E20E04C
:103CE00030E040E05FE30F947B2A9B01AC01C70109
:103CF000B6010F94622E28A939A94AA95BA90F948D
:103D0000612E6B017C0128AD39AD4AAD5BAD6CA96C
:103D10007DA98EA99FA90F94622E20E030E040E09B
:103D20005FE30F947B2A2B013C0128962CAD3DAD1F
:103D30004EAD5FAD28976CAD7DAD8EAD9FAD0F9450
:103D40003E2FA50194010F947B2A9B01AC01C30176
:103D5000B2010F94622E2CA93DA94EA95FA90F9420
:103D6000612E14C089E40E948D45882329F00E94A9
:103D70002B456B017C0103C0C12CD12C76018AE458
:103D80000E948D45882309F10E942B4524966CAF33
:103D90007DAF8EAF9FAF249720E030E0A901C7012F
:103DA000B6010F94162A81111FC020E030E0A9014E
:103DB00024966CAD7DAD8EAD9FAD24970F94162AE1
:103DC000811112C0E6EBFAE2AFC320E030E0A901B6
:103DD000C701B6010F94162A8823A1F324961CAEBE
:103DE0001DAE1EAE1FAE2497D701C601B05888ABDA
:103DF00099ABAAABBBAB24962CAD3DAD4EAD5FAD40
:103E0000249750582CAB3DAB4EAB5FAB9C01AD0142
:103E1000BC01CD010F947B2A4B015C012CA93DA96B
:103E20004EA95FA9CA01B9010F947B2A9B01AC017D
:103E3000C501B4010F94622E0F94CD3068966CAF1B
:103E40007DAF8EAF9FAF68978091411390914213E1
:103E5000A0914313B091441388AF99AFAAAFBBAF01
:103E6000A7019601BC01CD010F94622E2C966CAF78
:103E70007DAF8EAF9FAF2C972091451330914613A5
:103E8000409147135091481328962CAF3DAF4EAF49
:103E90005FAF289724962CAD3DAD4EAD5FAD249716
:103EA00028966CAD7DAD8EAD9FAD28970F94622E98
:103EB0006C966CAF7DAF8EAF9FAF6C978091AE0F5D
:103EC0009091AF0FA091B00FB091B10F60968CAFF1
:103ED0009DAFAEAFBFAF60972C962CAD3DAD4EAD54
:103EE0005FAD2C97BC01CD010F94612E6B017C015D
:103EF0002091B20F3091B30F4091B40F5091B50F94
:103F000064962CAF3DAF4EAF5FAF64976C962CAD0F
:103F10003DAD4EAD5FAD6C9764966CAD7DAD8EAD35
:103F20009FAD64970F94612E4B015C018091491302
:103F300090914A13A0914B13B0914C13A0968CAF63
:103F40009DAFAEAFBFAFA0979C01AD016091B60F22
:103F50007091B70F8091B80F9091B90F0F94612EA7
:103F60006CAF7DAF8EAF9FAFA701960168A979A90D
:103F70008AA99BA90F947B2A2B013C01A5019401DE
:103F80006CA97DA98EA99FA90F947B2A9B01AC01E6
:103F9000C301B2010F94622E2B013C01A5019401D3
:103FA00068A979A98AA99BA90F947B2A4B015C0176
:103FB000A70196016CA97DA98EA99FA90F947B2AC0
:103FC0009B01AC01C501B4010F94612EA3019201C4
:103FD0000F94D52E6B017C0120E030E0A9010F94F5
:103FE000162A87FF0AC02BED3FE049EC50E4C701D9
:103FF000B6010F94622E6B017C0192E02916310408
:1040000051F42BED3FE049EC50E4C701B6010F94A9
:10401000612E6B017C0120E030E0A901C701B601EF
:104020000F94162A811126C060962CAD3DAD4EAD81
:104030005FAD609768AD79AD8AAD9BAD0F94162AE0
:10404000811118C064962CAD3DAD4EAD5FAD649747
:1040500028966CAD7DAD8EAD9FAD28970F94162A36
:10406000811108C04BEDC42E4FE0D42E49ECE42E54
:1040700040E4F42EA701960168966CAD7DAD8EAD3F
:104080009FAD68970F947B2A9B01AC010F947B2A0C
:104090004B015C012CAD3DAD4EAD5FADCA01B90128
:1040A0000F947B2A9B01AC01C501B4010F94622ED1
:1040B0000F94CD304B015C012FE632E143E85AE327
:1040C0000F94162A87FD29C2C501B4010F94D72F7A
:1040D0000F94AB2F26967FAF6EAF2697DB01AB2BED
:1040E00031F4E1E0F0E02696FFAFEEAF2697409086
:1040F0004D1350904E1360904F13709050132696AE
:104100002EAD3FAD2697B90180E090E00F941A2ABA
:104110004B015C019B01AC01C701B6010F943E2F1E
:1041200068AF79AF8AAF9BAFA50194016CAD7DAD4F
:104130008EAD9FAD0F943E2F68966CAF7DAF8EAF66
:104140009FAF6897A30192016091BA0F7091BB0F66
:104150008091BC0F9091BD0F0F94612EA501940129
:104160000F943E2FA4966CAF7DAF8EAF9FAFA497F8
:1041700028AD39AD4AAD5BADCA01B9010F947B2AB8
:1041800020E030E040E05FE30F947B2A9B01AC012C
:1041900060E070E080E89FE30F94612E60966CAF62
:1041A0007DAF8EAF9FAF6097A0968CAD9DADAEAD4D
:1041B000BFADA09789879A87AB87BC874D865E86FF
:1041C0006F86788A6091380270913902072E000C50
:1041D000880B990B0F941C2A2091520230915302A4
:1041E00040915402509155020F947B2A2AE037EDFA
:1041F00043E25CE30F947B2A6CA77DA78EA79FA761
:104200000F94730B9B01AC0128533F4F4F4F5F4FEF
:1042100064962CAF3DAF4EAF5FAF649748A859A8E6
:104220006AA87BA822242394312C39E13CAF26963E
:104230004EAD5FAD26974215530509F433C10F9477
:10424000AC100F94730BDC01CB0164962CAD3DAD2B
:104250004EAD5FAD6497821B930BA40BB50BB7FDFE
:1042600011C00F94730B9B01AC0128533F4F4F4F6C
:104270005F4F64962CAF3DAF4EAF5FAF649780E069
:104280000E941C6D3CAD31503CAF332309F441C05A
:104290002CA93DA94EA95FA960966CAD7DAD8EADF0
:1042A0009FAD60970F947B2A6B017C019201A30163
:1042B00068AD79AD8AAD9BAD0F947B2AA7019601BD
:1042C0000F94622E7B018C019201A30160966CAD6C
:1042D0007DAD8EAD9FAD60970F947B2A4B015C0145
:1042E0002CA93DA94EA95FA968AD79AD8AAD9BAD5A
:1042F0000F947B2A9B01AC01C501B4010F94612E80
:104300002B013C01C701D8018CAB9DABAEABBFAB61
:1043100051C0B10180E090E00F941A2A28AD39AD68
:104320004AAD5BAD0F947B2A4B015C010F943B2F90
:104330006B017C01C501B4010F94C3304B015C01DA
:10434000A701960168A979A98AA99BA90F947B2A3C
:104350002B013C0124962CAD3DAD4EAD5FAD2497B5
:10436000C501B4010F947B2AA30192010F94622E20
:104370002B013C01A501940168A979A98AA99BA9EF
:104380000F947B2A4B015C0124962CAD3DAD4EADC4
:104390005FAD2497C701B6010F947B2A9B01AC0146
:1043A000C501B4010F94612E6CAB7DAB8EAB9FAB9E
:1043B00049E14CAF9201A3012C966CAD7DAD8EAD61
:1043C0009FAD2C970F94622E69837A838B839C8395
:1043D0002CA93DA94EA95FA96C966CAD7DAD8EADA3
:1043E0009FAD6C970F94622E6D837E838F83988729
:1043F00068962CAD3DAD4EAD5FAD689769857A8509
:104400008B859C850F94622E69877A878B879C8722
:10441000A4962CAD3DAD4EAD5FADA4976D857E8568
:104420008F8598890F94622E6D877E878F87988BF2
:1044300080913F02882321F0CE0101960E94306CCA
:10444000E090A20F89819A81AB81BC8188A399A356
:10445000AAA3BBA38D819E81AF81B8858CA39DA3A8
:10446000AEA3BFA389859A85AB85BC8588A799A78C
:10447000AAA7BBA7CE0180960E94AA438E01045D25
:104480001F4F9E01235F3F4FAE01485D5F4FBE014E
:104490006C5D7F4FCE0180960F94240F5FEF251A3D
:1044A000350AC5CEE090A20F8091AE0F9091AF0F6C
:1044B000A091B00FB091B10F88A399A3AAA3BBA3F9
:1044C0008091B20F9091B30FA091B40FB091B50F3E
:1044D0008CA39DA3AEA3BFA38091B60F9091B70FFD
:1044E000A091B80FB091B90F88A799A7AAA7BBA7A9
:1044F000CE0180960E94AA438E01045D1F4F2AEBD5
:104500003FE0AE01485D5F4FBE016C5D7F4FCE0165
:1045100080960F94240F0E94E0460E94B2430C94B0
:104520008E330E94BD43F80184918F010F5F1F4FAE
:104530008111F7CFE5EFF2E084918F010F5F1F4FFC
:10454000882311F40C948E330E94BD43F801F4CFFC
:1045500080E50E948D45882329F00E948B436B01E2
:104560007C0103C0C12CD12C760183E50E948D45CE
:10457000882361F00E942B4520E030E04AE754E4B4
:104580000F947B2A0F94AB2F6B017C010F944C147A
:1045900080915702811105C060E08BE093E00E949A
:1045A0001C950E94B24380918C0590918D05A0913D
:1045B0008E05B0918F05C80ED91EEA1EFB1E0F9402
:1045C000730BDC01CB018C199D09AE09BF09B7FD46
:1045D00002C00C948E3380E00E941C6DF0CF0E94CC
:1045E000D7CC81110C948E3380E090E0A0E4B0E44D
:1045F00089839A83AB83BC838D839E83AF83B88783
:1046000080E090E0A0E2B1E489879A87AB87BC871D
:1046100080E50E948D45882319F00E94FB4401C06B
:1046200060E068A3BE016F5F7F4FCE0180960E945D
:104630007E650C948E330F944C1480E00E943E3EB5
:104640000E94E43781E08093C81388E50E945E45AC
:10465000F82E89E50E945E45082F8AE50E945E4596
:10466000E82EF11005C0011105C011E0182705C0A2
:10467000011102C010E001C0182F0E9499451111CC
:1046800005C0F11003C0002309F40CC180E090E0E4
:10469000A0E8B0E48093B60F9093B70FA093B80F43
:1046A000B093B90F9C01AD016091491370914A1309
:1046B00080914B1390914C130F94162A87FF0BC0D7
:1046C00019821A821B821C82BE016F5F7F4F86EBAC
:1046D0009FE00E94F03811110EC0F11003C00111CB
:1046E000DBC0E0C0011107C080E090E00E94076BD2
:1046F0001123A9F3D1C010924513109246131092C2
:1047000047131092481310924113109242131092C3
:104710004313109244130E94353DE2E9F4E1849181
:104720008CABE6E8F4E185909590A590B490EAE82A
:10473000F4E14590559065907490A5019401C301F2
:10474000B2010F94162A87FF05C0A5019401C30189
:10475000B20104C0A3019201C501B4010F943E2F20
:1047600068AB79AB8AAB9BAB85E4C82E84E1D82ECD
:10477000F601659175918591949129E4222E24E1A9
:10478000322EF10125913591459154910F94162ABD
:1047900087FF02C0F60101C0F10185919591A591B5
:1047A000B491D82EC92E3A2E2B2E28A939A94AA960
:1047B0005BA9CA01B9010F947B2A20E030E040E8F0
:1047C0005FE30F94622E0F94CD302D2D3C2D432DA1
:1047D000522D0F947B2A6CA77DA78EA79FA7E3E994
:1047E000F4E1D49020E030E040EC5FE3C301B2019B
:1047F0000F947B2A2B013C016D2DDD0C770B880B70
:10480000990B0F941C2A9B01AC01C301B2010F94B8
:104810007B2A69837A838B839C8320E030E040ECA1
:104820005FE3C501B4010F947B2A4B015C01ACA985
:104830006A2FAA0F770B880B990B0F941C2A9B01E8
:10484000AC01C501B4010F947B2A68A379A38AA3A4
:104850009BA39E01245D3F4F49E453E1BE016F5F7E
:104860007F4FCE0180960E9404381092131210924E
:10487000451310924613109247131092481310924A
:1048800041131092421310924313109244131111CA
:104890002BCFF11029CF23CF81E090E00E94076B4E
:1048A000111103C0EE2009F464C0809139068823F9
:1048B00021F080913A0681111FC060E085E293E00B
:1048C0000E941C95EBE0FEE284918F010F5F1F4F69
:1048D000811103C0E4E1F3E004C00E94BD43F8018C
:1048E000F3CF84918F010F5F1F4F882309F441C0DC
:1048F0000E94BD43F801F5CF0E94353D80E090E075
:10490000AAEFB2E48093B20F9093B30FA093B40FC9
:10491000B093B50F8091491390914A13A0914B1316
:10492000B0914C138093B60F9093B70FA093B80F2C
:10493000B093B90F80E090E0A2E2B3E48093AE0FB1
:104940009093AF0FA093B00FB093B10F19821A825A
:104950001B821C829E012F5F3F4F49E453E162EBB3
:104960007FE08EEA9FE00E94043882E090E00E949F
:10497000076B0E94353D8091C7138093C8130E9436
:10498000CA3783E0809356020E948C520C948E3377
:104990000E94A63E0C948E33C0904113D0904213D7
:1049A000E0904313F090441388E50E948D458111F7
:1049B00009C020E030E044E152E4C701B6010F94A1
:1049C000612E02C00E942B4568A379A38AA39BA3F2
:1049D000C0904513D0904613E0904713F0904813D1
:1049E00089E50E948D45811108C020E030E0A901D1
:1049F000C701B6010F94622E02C00E942B456B01C5
:104A00007C0169837A838B839C8388A099A0AAA068
:104A1000BBA02FE632E143E85AEBC501B4010F9485
:104A2000883087FF02C00C948E3322E430E045E5E5
:104A300053E4C501B4010F94162A181614F40C940B
:104A40008E332FE632E143E85AEBC701B6010F94EB
:104A5000883087FF02C00C948E3322E430E04AE7AE
:104A600053E4C701B6010F94162A181614F40C94D7
:104A70008E330C94993381E08093FB030C948E3336
:104A80000F944C14A7EA2A2EA2E03A2EB1E4EB2EA2
:104A9000B3E1FB2E00E0D12C10E0F10181911F0168
:104AA0000E948D45882351F10E942B452B013C012A
:104AB000D7012D913D914D915C910F94612E4B0149
:104AC0005C012DEB37E346E855EB0F94883087FD0A
:104AD0000AC02DEB37E346E855E3C501B4010F9456
:104AE000162A18165CF4133011F401E002C0DD241C
:104AF000D394F70140825182628273821F5FF4E097
:104B0000EF0EF11C143049F6DD2019F00E94353DFE
:104B100003C001110E94EBD30E948C520C948E337F
:104B20008091A202882311F40C948E3389E40E94B0
:104B30008D45182F882321F00E94FB44E62E01C0EA
:104B4000E12C8AE40E948D45F82E882321F00E94F2
:104B5000FB44062F01C000E0112319F022E02E15BE
:104B600020F0FF2081F0033070F0E7E4F3E084915F
:104B70008F010F5F1F4F882311F40C948E330E9416
:104B8000BD43F801F4CF0E9499451123F1F0209123
:104B90007B1730917C174E2D4203B001439F700D5F
:104BA00011248091771790917817680F791F072E3D
:104BB000000C880B990B0F941C2A6093AE0F709316
:104BC000AF0F8093B00F9093B10FFF20E9F02091C9
:104BD0007D1730917E170203B001039F700D1124E1
:104BE0008091791790917A17680F791F072E000C22
:104BF000880B990B0F941C2A6093B20F7093B30F1C
:104C00008093B40F9093B50F80E50E948D45882363
:104C100019F00E941C4503C080E50E945E45882370
:104C2000C1F01123B1F020E030E044E152E46091A2
:104C3000AE0F7091AF0F8091B00F9091B10F0F94A4
:104C4000622E6093AE0F7093AF0F8093B00F90936E
:104C5000B10F86E40E948D458823D9F00E942B4530
:104C60006B017C0120E030E0A9010F948830181618
:104C700084F420E030E040E752E4C701B6010F942D
:104C80003E2F60935202709353028093540290938C
:104C900055020E94836F0C948E3380916F1890910F
:104CA00070188637910509F4C4C60CF0D5C08C3451
:104CB000910509F4CEC30CF05EC08931910509F469
:104CC00041C25CF58431910509F4CEC194F481317F
:104CD000910509F4CCC144F4029710F00C948E3382
:104CE0000E9448350C948E33429709F47AC50C948F
:104CF0008E338631910509F409C20CF403C2873161
:104D0000910509F409C2489711F00C948E330E9462
:104D10007ABC0E9480CD0C948E338F31910509F4BA
:104D20007DC294F48B31910509F420C20CF410C2B9
:104D30008C31910509F41EC24E9711F00C948E33FC
:104D40000E94E55D0C948E338A32910509F41CC3F0
:104D50002CF4809709F418C20C948E33813391059A
:104D600009F452C38B34910511F00C948E330E94D8
:104D700080CD0C948E338A36910509F4E2C4B4F5E3
:104D80008435910509F42DC5E4F48135910509F4C4
:104D90000BC54CF48D34910511F00C948E330E94A8
:104DA00065D20C948E338235910509F417C583358D
:104DB000910511F00C948E3381E08093FA030C94EA
:104DC0008E338C35910509F455C534F4853591053C
:104DD00009F437C50C948E338836910509F43DC328
:104DE0008936910509F464C40C948E338F3691058D
:104DF00009F498C384F48C36910509F406C40CF4C4
:104E0000C3C48D36910509F496C48E36910509F414
:104E100076C30C948E338237910509F4B4C554F4EB
:104E20008037910509F4F5C38137910509F4F5C37D
:104E30000C948E338337910509F413C1853791059E
:104E400011F00C948E3360E080916D1890916E1883
:104E50000E9439950C948E338E3251E0950711F4EF
:104E60000C9415310CF070C08B3C910509F40EC701
:104E7000A4F58139910509F429C684F48837910590
:104E800009F419C60CF414C68937910509F419C63A
:104E90008C38910509F4EEC30C948E338E3B91054A
:104EA00009F44CC434F48B39910509F41EC40C94F4
:104EB0008E33883C910509F481C6893C910511F037
:104EC0000C948E3397EAE92E92E0F92E0BE917E164
:104ED0002BEAC22E27E1D22EC1C68D3D910509F4E1
:104EE000D8C784F48D3C910509F458C70CF4ECC67E
:104EF000833D910509F4BDC78C3D910509F4BCC7FC
:104F00000C948E338232B1E09B0711F40C94643020
:104F100064F4823E910511F40C94902F88319140F5
:104F200011F40C94B92F0C948E338C3221E092073B
:104F300011F40C946F308D32914011F00C948E333B
:104F40000E94FB5A0C948E33843A41E0940711F48A
:104F50000C9476310CF03FC08139A1E09A0711F42E
:104F60000C946C31C4F48033E1E09E0711F40C948E
:104F7000983014F40C946931833621E0920711F4CF
:104F80000C9476328039914011F00C948E330F944A
:104F90004C140C948E33883941E0940711F40C942E
:104FA0006F3154F48239914011F00C948E3380E0CB
:104FB0000E94F7380C948E338939B1E09B0711F4C5
:104FC0000C9473318A39914011F00C948E330E9405
:104FD000FF620C948E33873FF1E09F0711F40C942D
:104FE0001232ECF4843F31E0930711F40C940C324C
:104FF0003CF4853A914011F40C9479310C948E3341
:10500000853FA1E09A0711F40C940F32863F91403E
:1050100011F00C948E330E942AF20C948E33803A55
:10502000E3E09E0709F4EDC07CF4883522E09207A6
:1050300011F40C9473328335934011F00C948E3339
:10504000EBE0FEE20C942132873E43E0940711F43A
:105050000C94B532893D974011F40C94CA320C94EB
:105060008E33E7EFF4E094C4EEE7F3E00BC060E0CA
:1050700086E693E00E941C954298179815982E9802
:105080000C948E3384918F010F5F1F4F882321F082
:105090000E94BD43F801F6CF109217171092161711
:1050A00080EA94E10E9413DA8BE1E0EAF4E1DE01A8
:1050B000159601900D928A95E1F780919E1490913A
:1050C0009F149C838B838DED92E09A83898340E0CB
:1050D00050E0BE016F5F7F4F88EE93E00E94EBD5FA
:1050E000CE0101960E949F6CEFE6F3E084918F0160
:1050F0000F5F1F4F882311F40C948E330E94BD4321
:10510000F801F4CF0E94F3BE0C948E331092671412
:10511000109268140C948E33E0916D18F0916E1813
:105120008081882329F0803209F410823196F8CFEB
:1051300040E061E080916D1890916E180E943BC034
:105140000C948E33109267140E9444CE0C948E33CC
:1051500080916814882311F40C948E3383E50E94A7
:105160008D4581110C94EE330C948E330E945ECEEB
:105170000C948E3340E060E080916D1890916E1831
:105180000E943BC00C948E338091671481110F9460
:105190004C1480916814882311F40C948E3380E5AC
:1051A0000E948D45882319F00E941C4503C080E5AC
:1051B0000E945E45182F482F61E080916D189091F4
:1051C0006E180E943BC083E50E948D45882381F0C4
:1051D0000E94FB44AB01BC01409398145093991476
:1051E00060939A1470939B1484E696E10E94CCD746
:1051F0000E947ABC11110C948E330E9480CD0C94C5
:105200008E3380916D1890916E1821E02093661472
:1052100040E060E00E943BC00C948E330E9444BC8E
:105220007B018C0120E831E541E050E00F94042E31
:10523000C9016DE671E00F9436314B015C01C80184
:10524000B70120E13EE040E050E00F94042ECA0197
:10525000B90128E130E040E050E00F94042E762EB2
:10526000672EC62ED72EFCE32F2E312C412C512C2D
:10527000C801B701A20191010F94042EF62EE72E6A
:10528000CA01B901A20191010F94042ECB018E0134
:105290000F5F1F4F8114910499F0EF92FF927F935B
:1052A0006F936F927F92BF92AF929F928F9287EB94
:1052B00093E09F938F931F930F930F94B02913C084
:1052C000A114B104B1F0EF92FF927F936F936F92AC
:1052D0007F92BF92AF9287EA93E09F938F931F9341
:1052E0000F930F94B0290FB6F894DEBF0FBECDBF59
:1052F00030C0CD2879F0EF92FF927F936F936F9239
:105300007F928BE993E09F938F931F930F930F945A
:10531000B029E9CF892B69F0EF92FF927F936F93C9
:1053200083E993E09F938F931F930F930F94B0297A
:10533000DACFEF92FF928FE893E09F938F931F93C2
:105340000F930F94B0290F900F900F900F900F9024
:105350000F9060E0C8010E943995EBE0FEE2849175
:105360007F013FEFE31AF30A882321F00E94BD4337
:10537000F701F5CFB8018BEC93E00F94E10C8AE0D4
:105380000E94BD430C948E3383E50E948D45882393
:1053900011F40C948E330E940B45E82E80E50E9498
:1053A0008D45882341F00E94FB448B0177FF02C0AA
:1053B0000C948E3302C006E010E0802FEEE5F6E09C
:1053C0009491891303C0E6EBFAE20AC0319646E0F5
:1053D000E638F407A9F70C94FF330E94BD43F801A7
:1053E00084918F010F5F1F4F8111F7CFE8EDF3E03C
:1053F00084918F010F5F1F4F882311F40C948E331B
:105400000E94BD43F801F4CFF090F60381E0F82646
:10541000F092F603E2EFF3E084918F010F5F1F4FEC
:10542000882321F00E94BD43F801F6CFFF2019F038
:10543000E7EEF3E002C0ECEEF3E084918F010F5F42
:105440001F4F882311F40C948E330E94BD43F80142
:10545000F4CF0E9444CE0C948E3388E690E00E94F4
:10546000D53981110C948E338091A10A83FF02C03B
:105470000C948E3383E50E948D458823E1F10E94D0
:105480002B450F94A62FCB010F9436080E942B4575
:1054900020E030E04AEA52E40F94162A18163CF055
:1054A0000E9465D260E084E094E00E941C950E9416
:1054B0002B452091CA173091CB174091CC175091B2
:1054C000CD170F9488301816B4F489E293E09F93B7
:1054D0008F9380912C1790E001969F938F938DEF7F
:1054E00093E09F938F931F920E94BCCC0FB6F894C9
:1054F000DEBF0FBECDBF0F946C0D0C948E338EE4C7
:105500000E948D45882311F40C948E330E94FB4435
:105510006093C50F7093C60F8093C70F9093C80F09
:105520000C948E3383E50E945E45882359F083E511
:105530000E948D45882319F00E940B4501C080E030
:105540008093A10AEBE0FEE284918F010F5F1F4F71
:10555000811103C0EDE1F4E004C00E94BD43F801F5
:10556000F3CF84918F010F5F1F4F882321F00E949A
:10557000BD43F801F6CF8091A10A811103C0E9E192
:10558000F4E034C0EFE0CE2EE4E0DE2EE12CF12C8E
:1055900020E08091A10A90E00E2C02C0959587959D
:1055A0000A94E2F780FF17C0BB24B394B20E222303
:1055B00019F08CE20E94BD43F60185919491FC01A3
:1055C00084918F010F5F1F4F882321F00E94BD43FC
:1055D000F801F6CF2B2D9FEFE91AF90AA2E0CA0EC7
:1055E000D11CB5E0EB16F104A1F60AC084918F013D
:1055F0000F5F1F4F882321F00E94BD43F801F6CFB3
:105600008AE00E94BD430C948E33109231020C94B8
:105610008E3384E294E00E94B26C83E50E948D4553
:10562000811103C0EBE0FEE20DC00E940B458D33FB
:1056300020F4809312020C948E338CE38093120238
:105640000C948E3384918F010F5F1F4F882321F0BC
:105650000E94BD43F801F6CF4091120250E060E095
:1056600070E08DE294E00F948E0C8AE00E94BD43BE
:105670000C948E338091A10A83FF02C00C948E3368
:1056800083E50E948D45882311F40C948E330E948B
:105690002B450F94A62F6739710514F066E970E069
:1056A0007093E6176093E5170E94D2E30C948E3353
:1056B00089E690E00E94D539811111C0E4E3F4E05D
:1056C00084918F010F5F1F4F882321F00E94BD43FB
:1056D000F801F6CF0E9491E08AE00E94BD4310924B
:1056E0008305109282050C94A23483E50E948D45B7
:1056F000882311F40C948E330E940B45182F8D33A0
:1057000008F01CE3109388050F94730B6B017C0168
:10571000212F30E0A8EEB3E00F94522EC60ED71E14
:10572000E81EF91EC0928405D0928505E092860598
:10573000F0928705F3C70E94145CF0C70E945A5389
:10574000EDC780E50E948D45811108C083E50E9468
:105750008D45811108C03FEF20E009C00E940B4534
:105760008111DCC7F3CF0E94FB44362F272F832FF4
:10577000922F8F3F910519F010F08FEF90E09093EA
:10578000E8178093E717CAC780E50E948D4581110D
:1057900005C01092E8171092E717C0C70E94FB449B
:1057A000672B09F0BBC7F5CF0E941EE40F944C1481
:1057B0000E94A96C1092E8171092E71768EE73E048
:1057C00080E090E00F9499070F944C140E94173AD0
:1057D00060E087E394E00E941C95A0C71092FA0352
:1057E0009DC783E50E948D45882399F00E942B4533
:1057F00020E030E04AE754E40F947B2A0F94AB2F6B
:105800006093130270931402809315029093160212
:1058100085C788E50E945E4581110C94153489E5A1
:105820000E945E4581110C9415348AE50E945E4504
:105830008111FBC785E40E945E458111F6C70C9477
:10584000383483E50E945E45882309F467C70E94C7
:105850002B4520E030E04AE754E40F947B2A0F9474
:10586000AB2F609390057093910580939205909370
:10587000930554C767EAC62E62E0D62E71E5E72E7F
:1058800073E1F72E10E0F60181916F010E945E45F1
:10589000882309F46EC0133009F063C00E942B45C1
:1058A0004B015C0120E030E040EA51E40F94162AFD
:1058B00087FF4EC0A501940160915D1370915E1346
:1058C00080915F13909160130F943E2F2B013C0148
:1058D0009B01AC016091C3177091C4178091C517EB
:1058E0009091C6170F947B2A6093C3177093C417C7
:1058F0008093C5179093C617A301920160919717E3
:10590000709198178091991790919A170F947B2A0C
:1059100060939717709398178093991790939A179D
:1059200060910A1870910B1880910C1890910D18C5
:105930000F941A2AA30192010F947B2A0F94AB2F84
:1059400060930A1870930B1880930C1890930D189D
:1059500080925D1390925E13A0925F13B0926013D9
:1059600008C00E942B45D7016D937D938D939C9326
:1059700013971F5FB4E0EB0EF11C143009F083CFD6
:105980000F94B90ECBC60F944C140E948C52C6C60D
:1059900084918F010F5F1F4F882321F00E94BD4328
:1059A000F801F6CF60E087EE94E00E94555261E086
:1059B00080EE94E00E94555261E085ED94E00E94F3
:1059C000555261E085EC94E00E94555260E08CEB0A
:1059D00094E00E94555261E082EB94E00E9455529F
:1059E00061E088EA94E00E94555261E080EA94E028
:1059F0000E94555261E082E994E00E94555260E0B5
:105A000084E894E00E94555260E085E794E00E94AB
:105A1000555261E087E694E00E94555261E081E5CD
:105A200094E00E94555260E080E494E00E94555258
:105A300075C685E40E948D45882319F00E941C4597
:105A400003C085E40E945E45882361F0EBE0FEE23E
:105A500084918F010F5F1F4F882321F00E94BD4367
:105A6000F801F6CF81E40E948D45882319F00E9449
:105A70001C4503C081E40E945E45882361F0E6EB8B
:105A8000F5E084918F010F5F1F4F882321F00E9462
:105A9000BD43F801F6CF00916D1810916E18F80112
:105AA00081918F01882309F4ABCD0E94BD43F7CFCC
:105AB0000E94A36633C681E08093C8138093C71306
:105AC0002DC61092C8131092C71328C683E50E94F2
:105AD0008D45882319F00E94FB4402C060E070E00D
