:100000000C94331D0C94641D0C94641D0C94641D9D
:100010000C94641D0C94641D0C94641D0C94641D5C
:100020000C94641D0C94641D0C94641D0C94641D4C
:100030000C94641D0C94641D0C94641D0C94641D3C
:100040000C94641D0C944D860C94641D0C94641DDA
:100050000C94641D0C94641D0C94FEA70C949FCB0F
:100060000C94641D0C94C4400C94641D0C94641D89
:100070000C94641D0C94641D0C94641D0C94641DFC
:100080000C945A900C94641D0C94641D0C94641D83
:100090000C94641D0C94641D0C94641D0C94641DDC
:1000A0000C94641D0C94641D0C942C900C94641D91
:1000B0000C94641D0C94641D0C94641D0C94FE8FB0
:1000C0000C94641D0C94641D0C94641D0C94641DAC
:1000D0000C94641D0C94641D0C94641D0C94641D9C
:1000E0000C94641DAA85B385BD85C685CF85EA8538
:1000F000F7850086D885E18565C968C957C95BC998
:1001000061C99FC96CC970C976C97AC97EC984C9D9
:1001100088C98CC99FC992C996C99AC9BBCAC0CAA5
:10012000C5CACFCAD9CA52CBE3CAEBCAF3CAFDCA01
:1001300007CB11CB20CB2ACB52CB34CB3ECB48CBF9
:10014000084AD73B3BCE016E84BCBFFDC12F3D6C3E
:1001500074319ABD56833DDA3D00C77F11BED9E4A4
:10016000BB4C3E916BAAAABE000000803F05A84C84
:10017000CDB2D44EB93836A9020C50B99186880850
:100180003CA6AAAA2ABE000000803F000D94E21BF4
:100190000D9442000D9438000D946A000D94E21CF9
:1001A0000D9460000D946F000D94F91A0D94B8171A
:1001B0000D94B4320D9479190D94941D0D942A3533
:1001C0000D9465000D9447000D943D004E414E493D
:1001D0004E495459494E46CDCCCC3D0AD7233C1705
:1001E000B7D13877CC2B329595E6241FB14F0A0052
:1001F0000020410000C84200401C4620BCBE4CCA42
:100200001B0E5AAEC59D7454454D5020544F4F207F
:100210004C4F57210047322F4733206261642070D2
:100220006172616D65746572730A00536C65657007
:100230002E2E2E00205A3A200020593A20004265E6
:100240006420583A20004D65736820706F696E74A1
:100250002063616E6E6F74206265207265736F6CCF
:100260007665640A006F6E2E0A006F66662E0A00BD
:1002700047323620446562756720004B494C4C4537
:10028000442E20006F6B0048656174696E672064BE
:100290006F6E652E0020573A0045256920257300B2
:1002A0005072696E7465722072656164792E0042C5
:1002B000656420646F6E652E0020573A00426564C5
:1002C0002048656174696E672E0053657474696EA9
:1002D000672054726176656C20416363656C65725A
:1002E0006174696F6E3A200053657474696E67209B
:1002F0005265747261637420416363656C657261F9
:1003000074696F6E3A200053657474696E6720508B
:1003100072696E7420416363656C65726174696FA4
:100320006E3A200053657474696E67205072696E6E
:100330007420616E642054726176656C2041636341
:10034000656C65726174696F6E3A2000205A0020F6
:100350005900580020204D61783A2000205A002092
:100360005900580020204D696E3A20004F6E200041
:100370004F666600536F667420656E6473746F70A9
:10038000733A2000000125272318FF1F211D1CFFA1
:1003900019171B1EFFFF0C0409FFFFFF2E2C0CFF7B
:1003A000FF312F3004400AFF41FFFFFFFFFFFF2016
:1003B0006F7574206F662072616E67650A00536501
:1003C00072766F20003A200020536572766F20000D
:1003D00020643A0020693A0020703A0020643A0014
:1003E00020693A0020703A0043290A0061626C6576
:1003F0006420286D696E2074656D702000436F6CF9
:10040000642065787472756465732061726520007C
:100410004B64200023646566696E65202044454670
:1004200041554C545F004B69200023646566696E3A
:1004300065202044454641554C545F004B702000D8
:1004400023646566696E65202044454641554C54D9
:100450005F00504944204175746F74756E65206665
:10046000696E6973686564212050757420746865CD
:10047000206C617374204B702C204B6920616E647A
:10048000204B6420636F6E7374616E7473206672A8
:100490006F6D2062656C6F7720696E746F20436F9B
:1004A0006E66696775726174696F6E2E680A0050B6
:1004B0004944204175746F74756E65206661696C7E
:1004C0006564212074696D656F75740A0054484530
:1004D000524D414C2052554E415741590054686588
:1004E000726D616C2052756E61776179004865614B
:1004F00074696E67206661696C6564004865617443
:10050000696E67206661696C6564005049442041EA
:1005100075746F74756E65206661696C6564212001
:1005200054656D706572617475726520746F6F20AB
:10053000686967680A00204B643A2000204B693ADA
:100540002000204B703A20000A20436C61737369CD
:100550006320504944200A002054753A2000204B63
:10056000753A2000206D61783A2000206D696E3A5E
:10057000200020643A200020626961733A20004F15
:1005800066660A004661646520486569676874208C
:1005900000426564204C6576656C696E6720004694
:1005A00061696C656420746F20656E61626C6520A2
:1005B000426564204C6576656C696E670A004D651E
:1005C000736820706F696E742063616E6E6F742043
:1005D0006265207265736F6C7665640A004D343213
:1005E0003120696E636F727265637420706172612D
:1005F0006D657465722075736167650A003A200045
:10060000207A5F6D696E3A20202D3230207A5F6D3E
:1006100061783A202032300A0050726F6265205AA9
:10062000204F66667365740043617365206C69676B
:1006300068743A2000290A00466978656420706170
:1006400072616D657465722062797465733B2063B5
:1006500072632000466978656420706172616D651F
:1006600074657220280048565F7365745F6F6B0A6B
:1006700000556E6B6E6F776E20636F6D6D616E648B
:100680003A2022004D6573682056616C696461747C
:10069000696F6E2053746F707065642E00696E20F0
:1006A0006D6F76655F746F282920666565645F7677
:1006B000616C756520666F722058593A004C65610F
:1006C00076696E67204732360047323620486561CA
:1006D00074696E67204E6F7A7A6C652E00473236E9
:1006E0002048656174696E67204265642E00446F1E
:1006F0006E65205072696D696E6700446F6E65208B
:100700005072696D696E67004669786564204C6552
:100710006E677468205072696D652E00557365723E
:100720002D436F6E74726F6C6C6564205072696DCE
:1007300065002C2065793D0029202D3E2028657814
:100740003D002C2073793D0020436F6E6E6563740D
:10075000696E672077697468207665727469636171
:100760006C206C696E65202873783D002C206579BB
:100770003D0029202D3E202865783D002C207379EE
:100780003D0020436F6E6E656374696E6720776904
:10079000746820686F72697A6F6E74616C206C691E
:1007A0006E65202873783D004C656176696E672020
:1007B000473236002C2079693D00202020446F69A3
:1007C0006E6720636972636C652061743A202878D3
:1007D000693D003F53706563696669656420582C04
:1007E0005920636F6F7264696E617465206F7574F0
:1007F000206F6620626F756E64732E0A003F285268
:100800002965706561742076616C7565206E6F7402
:1008100020706C61757369626C653B206D757374D3
:10082000206265206174206C6561737420312E0A2A
:10083000003F537065636966696564206E6F7A7AFC
:100840006C652074656D7065726174757265206E7B
:100850006F7420706C61757369626C652E0A003F5D
:100860005370656369666965642066696C616D656E
:100870006E742073697A65206E6F7420706C617578
:100880007369626C652E0A003F537065636966691F
:100890006564207072696D65206C656E6774682090
:1008A0006E6F7420706C61757369626C652E0A00DE
:1008B0003F537065636966696564206E6F7A7A6C10
:1008C000652073697A65206E6F7420706C61757332
:1008D00069626C652E0A003F5370656369666965DD
:1008E000642052657472616374696F6E204D756C1B
:1008F0007469706C696572206E6F7420706C6175BC
:100900007369626C652E0A003F526574726163748C
:10091000696F6E204D756C7469706C696572206DBD
:1009200075737420626520737065636966696564B8
:100930002E0A003F537065636966696564206C61C7
:1009400079657220686569676874206E6F742070BD
:100950006C61757369626C652E0A003F5370656344
:100960006966696564206265642074656D7065728E
:100970006174757265206E6F7420706C6175736937
:10098000626C652E0A0047323620636F6D6D616EB2
:100990006420737461727465642E20576169746990
:1009A0006E6720666F7220686561746572287329AE
:1009B0002E0A004C696E65204E756D626572206965
:1009C00073206E6F74204C617374204C696E6520C7
:1009D0004E756D6265722B312C204C617374204C06
:1009E000696E653A20004B494C4C45442E2000531B
:1009F000544F505045442E20005072696E746572F9
:100A00002073746F707065642064756520746F2046
:100A10006572726F72732E20466978207468652043
:100A20006572726F7220616E6420757365204D3936
:100A3000393920746F20726573746172742E2028A6
:100A400054656D706572617475726520697320728A
:100A5000657365742E205365742069742061667413
:100A600065722072657374617274696E67290A0019
:100A70004E6F20436865636B73756D20776974688A
:100A8000206C696E65206E756D6265722C204C61FC
:100A90007374204C696E653A2000636865636B73FC
:100AA000756D206D69736D617463682C204C617382
:100AB00074204C696E653A20004D313130004D3361
:100AC000310047312046313030302059323130004A
:100AD00047323820585900534420726561642065BC
:100AE00072726F720A00446F6E65207072696E7464
:100AF000696E672066696C650A00200D4669786535
:100B00006420706172616D65746572206E627974C3
:100B100065733B20637263206572726F72200020E0
:100B20000D0A466978656420706172616D6574654F
:100B3000722062797465733B206372632065727200
:100B40006F722000290A002062797465733B20636C
:100B500072632000466978656420706172616D651A
:100B60007465722028002068617264776172652064
:100B700076657273696F6E3A004B494C4C45442E52
:100B80002000202D20496E76616C696420657874A0
:100B90007275646572206E756D62657220210A003F
:100BA0001FFFFFFFFFFFFF600000000001FF40008C
:100BB00000000000FF8000000000007F83CF0000E5
:100BC0000C303F87FF80000C301F867980000C00BE
:100BD0000F8C30C7838C30E78C30CFC7CC31F38C8F
:100BE00030DCECEC33B98C30D86C6C33198C30D0F1
:100BF0006C0C33198C30D86C0C33198C30DC6C0EC7
:100C00003B198C30CF7C079F198C30C77C038F1920
:100C100040000000000002600000000000061FFF0E
:100C2000FFFFFFFFF82020506C616E6E6572427509
:100C30006666657242797465733A20002046726573
:100C400065204D656D6F72793A2000436F6D706954
:100C50006C65643A204E6F76203133203230313962
:100C60000A00207C20417574686F723A20286E6FEC
:100C70006E652C2064656661756C7420636F6E66AA
:100C80006967290A00323031372D31322D32352053
:100C900031323A303000204C6173742055706461F9
:100CA0007465643A2000312E312E380A004D61728D
:100CB0006C696E0020536F667477617265205265AF
:100CC0007365740A00205761746368646F6720520B
:100CD000657365740A002042726F776E206F7574B9
:100CE0002052657365740A002045787465726E61E0
:100CF0006C2052657365740A00506F776572557089
:100D00000A0073746172740A006572726F722077E0
:100D1000726974696E6720746F2066696C650A0079
:100D2000456E6473746F70732025632025632025DE
:100D30006320256300205A3A0020593A0020583A8F
:100D400000656E6473746F7073206869743A200074
:100D500047323820580066696C616D656E74206F8B
:100D600075740A004D33322053256C75202125738C
:100D7000004D33322053256C7520212F25732F25EC
:100D800073004730204631303030205A25752E25EB
:100D900075004732382059004732382058004D310D
:100DA0003036202053323535004D31303920543023
:100DB00020532575004D3139302053257500446F7F
:100DC0006E6520736176696E672066696C652E0AB0
:100DD000004D32390053442063617264206F6B0A06
:100DE000006F70656E526F6F74206661696C656428
:100DF0000A00766F6C756D652E696E697420666188
:100E0000696C65640A00534420696E6974206661E8
:100E1000696C0A006175746F25692E67004D323464
:100E2000004D32332025730057726974696E672054
:100E3000746F2066696C653A20006F70656E20667D
:100E400061696C65642C2046696C653A20006F709E
:100E5000656E206661696C65642C2046696C653A34
:100E6000200046696C652073656C65637465640A6F
:100E7000002053697A653A200046696C65206F70DE
:100E8000656E65643A20006F70656E206661696CFE
:100E900065642C2046696C653A20002066696C65A3
:100EA0003A2000646F696E67006672657368004E71
:100EB0006F772000454E4420535542524F555449B8
:100EC0004E450A002220706F730022207061726507
:100ED0006E743A2200535542524F5554494E4520A4
:100EE00043414C4C207461726765743A22004B494F
:100EF0004C4C45442E2000747279696E6720746FE3
:100F00002063616C6C207375622D67636F6465206C
:100F100066696C6573207769746820746F6F206DE3
:100F2000616E79206C6576656C732E204D4158207A
:100F30006C6576656C2069733A004572726F723A1F
:100F4000004572726F722077726974696E672074DF
:100F50006F20454550524F4D210A00290A0020625A
:100F6000797465733B206372632000536574746900
:100F70006E67732053746F72656420280050726F1F
:100F800062696E67206661696C65640A0050726F01
:100F900062696E67206661696C656400205A3A2058
:100FA0000020593A200042656420583A20005344FA
:100FB000207072696E74696E6720627974652000B2
:100FC0004E6F74205344207072696E74696E670AA4
:100FD00000486F6D6520257325732573206669723F
:100FE0007374002066697273740A005A00590058BD
:100FF00000486F6D65200020204D383531205A00A3
:101000005A2D50726F6265204F6666736574202892
:101010006D6D293A0A0020440020490020204D33FC
:10102000303420500020440020490020204D33302F
:10103000312050005049442073657474696E6773A1
:101040003A0A0020460020420020480020204D316E
:1010500034352053004D6174657269616C20686598
:101060006174757020706172616D65746572733A38
:101070000A00205A0020204D3432302053004175A0
:10108000746F20426564204C6576656C696E673AC2
:101090000A00204500205A00205900205800204214
:1010A0000020540020204D3230352053004164761A
:1010B000616E6365643A20533C6D696E5F66656579
:1010C00064726174653E20543C6D696E5F74726138
:1010D00076656C5F66656564726174653E20423C4E
:1010E0006D696E5F7365676D656E745F74696D655C
:1010F0005F75733E20583C6D61785F78795F6A65F3
:10110000726B3E205A3C6D61785F7A5F6A65726BE4
:101110003E20453C6D61785F655F6A65726B3E0A93
:101120000020540020520020204D32303420500046
:10113000416363656C65726174696F6E2028756EBA
:101140006974732F7332293A20503C7072696E743F
:101150005F616363656C3E20523C726574726163CB
:10116000745F616363656C3E20543C7472617665A4
:101170006C5F616363656C3E0A00204500205A0085
:1011800020590020204D3230312058004D617869BF
:101190006D756D20416363656C65726174696F6E16
:1011A0002028756E6974732F7332293A0A0020451E
:1011B00000205A0020590020204D323033205800A2
:1011C0004D6178696D756D206665656472617465E1
:1011D000732028756E6974732F73293A0A002045AD
:1011E00000205A0020590020204D39322058005349
:1011F000746570732070657220756E69743A0A00A8
:1012000020204D3230302044300A0020204D323032
:10121000302044002044697361626C65640A0046B2
:10122000696C616D656E742073657474696E677343
:101230003A0020204D3134392043203B20556E693F
:10124000747320696E2043656C736975730A00209E
:1012500020473231202020203B20556E69747320B6
:10126000696E206D6D0A007A5F6D696E3A200079B3
:101270005F6D696E3A2000785F6D696E3A200052AA
:1012800065706F7274696E6720656E6473746F70D9
:10129000207374617475730A004D69783A202020B8
:1012A00020253364252520253364252500477261D8
:1012B0006469656E7400546F67676C65206D69784A
:1012C000002533643B2533642525004D6978004DA6
:1012D00061696E0053746F7720424C546F75636878
:1012E000004D323830205030205339300044657082
:1012F0006C6F7920424C546F756368004D32383002
:101300002050302053313000424C546F75636820B8
:1013100053656C662D54657374004D32383020501F
:1013200030205331323000526573657420424C5482
:101330006F756368004D323830205030205331369D
:1013400030004D61696E005072696E742070617575
:10135000736564004D31323500002573004D323421
:10136000005072696E742061626F72746564004728
:101370003238205859004739300047312046313043
:101380003030205A323000473931004E6F205344FC
:101390002063617264005072696E742066726F6DB2
:1013A0002053440053746F70207072696E74004152
:1013B000626F7574205072696E7465720052657345
:1013C000756D65207072696E74005061757365206B
:1013D0007072696E74004D6978657200436F6E7447
:1013E000726F6C00507265706172650054756E6545
:1013F00000496E666F2073637265656E00426162BC
:101400007973746570205A004D36303020423000B8
:101410004368616E67652066696C616D656E740016
:101420004261627973746570205A00466C6F770070
:10143000466C6F770046616E207370656564004688
:10144000616E207370656564004265640042656486
:10145000004E6F7A7A6C65004E6F7A7A6C65005335
:1014600070656564005370656564004D61696E0068
:1014700020204E6F7A7A6C653A20006368616E674F
:1014800065006F66207468652066696C616D656EC5
:1014900074005761697420666F722073746172748E
:1014A000005052494E54205041555345440020208D
:1014B0004E6F7A7A6C653A2000200066696C616D27
:1014C000656E7420756E6C6F61640057616974207D
:1014D000666F72005052494E542050415553454456
:1014E0000020204E6F7A7A6C653A20002000506C04
:1014F0006561736520776169742E2E2E00486561E1
:1015000074696E67206E6F7A7A6C65005052494E2E
:1015100054205041555345440020204E6F7A7A6C38
:10152000653A2000200068656174206E6F7A7A6CDD
:10153000652E00507265737320627574746F6E202F
:10154000746F005052494E54205041555345440049
:1015500020204E6F7A7A6C653A2000746F20636F9A
:101560006E74696E75652E2E2E00616E6420707229
:1015700065737320627574746F6E00496E73657263
:10158000742066696C616D656E74005052494E54EA
:10159000205041555345440020204E6F7A7A6C65A7
:1015A0003A2000200066696C616D656E74206C6F76
:1015B0006164005761697420666F72005052494E31
:1015C00054205041555345440020204E6F7A7A6C88
:1015D000653A2000200066696C616D656E74206557
:1015E000787472756465005761697420666F720063
:1015F0005052494E542050415553454400746F2079
:10160000726573756D65005761697420666F72202D
:101610007072696E74005052494E542050415553B7
:1016200045440024F4D43050C38E20C2A240178217
:101630008B7011127A910D816CD90AA861E108C7EB
:10164000586607615143061E4B5D05C145A7041A44
:10165000411104093D9803713931034036DB0265BD
:10166000339102D4305402802E1D02632CEE01759A
:101670002AC501B028A001102781018F2564012B04
:10168000244B01E0223401AC211F018D200D01808B
:101690001FFC00841EED00971DDF00B81CD200E681
:1016A0001BC600201BBC00641AB200B219A8000AB5
:1016B00019A0006A189900D117910040178B00B546
:1016C00016840031167E00B31579003A157300C7F1
:1016D000146F0058146A00EE136600881363002527
:1016E000135E00C7125B006C12570015125400C144
:1016F00011510070114F0021114B00D61049008D7F
:101700001047004610440002104200C00F40008005
:101710000F3E00420F3C00060F3B00CB0E380093FB
:101720000E37005C0E3500270E3400F30D3200C179
:101730000D3100900D3000600D2E00320D2D000592
:101740000D2C00D90C2B00AE0C2900850C29005C57
:101750000C2700350C27000E0C2600E80B2400C4D3
:101760000B2400A00B23007D0B23005A0B21003912
:101770000B2100180B2000F80A1F00D90A1E00BB1D
:101780000A1E009D0A1D00800A1D00630A1C0047F6
:101790000A1B002C0A1B00110A1A00F7091A00DDA7
:1017A000091900C4091900AB091900920917007B37
:1017B000091800630917004C0916003609160020A5
:1017C0000916000A091500F5081500E0081400CCF8
:1017D000081400B8081400A4081400900813007D31
:1017E0000812006B08130058081200460812003453
:1017F000081100230811001208110001081100F05F
:10180000071000E0071000D0071000C0071000B05C
:10181000070F00A107100091070E0083070F007447
:10182000070F0065070E0057070E0049070E003B23
:10183000070D002E070E0020070D0013070D0006F0
:10184000070D00F9060C00ED060D00E0060C00D4B3
:10185000060C00C8060C00BC060C00B0060C00A468
:10186000060B0099060C008D060B0082060B007714
:10187000060B006C060B0061060A0057060B004CB5
:10188000060A0042060A0038060A002E060A00244C
:10189000060A001A060A001006090007060A00FDDB
:1018A000050900F4050900EB050900E2050900D966
:1018B000050900D0050900C7050900BE050900B5E6
:1018C000050800AD050800A50509009C0508009461
:1018D0000508008C050800840508007C05080074D4
:1018E0000508006C050700650508005D0507005642
:1018F0000508004E050700470507004005080038A9
:10190000050700310507002A050700230507001C0D
:10191000050600160507000F05070008050600026A
:10192000050700FB040600F5040700EE040600E8C6
:10193000040600E2040700DB040600D5040600CF1D
:10194000040600C9040600C3040600BD040600B76F
:10195000040600B1040500AC040600A6040600A0BD
:101960000405009B04060095040500900406008A07
:1019700004050085040500800406007A040500754E
:10198000040500700405006B040500660405006191
:101990000405005C04050057040500520405004DD1
:1019A00004050048040500430405003E0404003A11
:1019B00004050035040500300404002C040500274C
:1019C000040400230405001E0404001A0404001685
:1019D000040500110404000D0404000904050004BA
:1019E00004040000040400FC030400F8030400F4F1
:1019F000030400F0030400EC030400E8030400E423
:101A0000030400E0030400DC030400D8030400D452
:101A1000030400D0030400CC030400C8030300C582
:101A200003030024F404D9201BC40C5C0E9804C4E6
:101A3000095F0265077101F405F900FB04B3004872
:101A4000048700C10369005803550003034500BE25
:101A5000023A008402310053022A002902250004C0
:101A6000022000E4011C00C8011900AF0117009812
:101A70000114008401130071011000610110005174
:101A8000010E0043010D0036010B002B010B00205D
:101A9000010B00150109000C01090003010800FBFE
:101AA000000800F3000800EB000700E4000600DE79
:101AB000000600D8000600D2000600CC000500C7D2
:101AC000000500C2000500BD000400B9000400B517
:101AD000000400B1000400AD000400A9000400A54A
:101AE000000300A20003009F0004009B0003009875
:101AF0000003009500020093000300900003008D96
:101B00000002008B000300880002008600020084AF
:101B1000000300810002007F0002007D0002007BC4
:101B200000020079000200770001007600020074D4
:101B300000020072000100710002006F0002006DDF
:101B40000001006C0002006A0001006900020067E9
:101B500000010066000100650001006400020062EF
:101B600000010061000100600001005F0002005DF3
:101B70000001005C0001005B0001005A00010059F7
:101B800000010058000100570001005600010055F7
:101B900000010054000100530000005300010052F6
:101BA00000010051000100500001004F0001004EF3
:101BB0000000004E0001004D0001004C0001004BF0
:101BC0000000004B0001004A0001004900010048EC
:101BD00000000048000100470001004600000046E8
:101BE00000010045000000450001004400010043E1
:101BF00000000043000100420000004200010041DB
:101C000000000041000100400001003F0000003FD3
:101C10000001003E0000003E0001003D0000003DCC
:101C20000001003C0000003C0000003C0001003BC3
:101C30000000003B0001003A0000003A00010039BA
:101C400000000039000100380000003800000038B2
:101C500000010037000000370001003600000036A8
:101C6000000000360001003500000035000000359E
:101C70000001003400000034000000340001003393
:101C80000000003300000033000100320000003289
:101C9000000000320001003100000031000000317E
:101CA0000001003000000030000000300001002F73
:101CB0000000002F0000002F0000002F0001002E68
:101CC0000000002E0000002E0001002D0000002D5D
:101CD0000000002D0000002D0001002C0000002C51
:101CE0000000002C0000002C0001002B0000002B45
:101CF0000000002B0000002B0001002A0000002A39
:101D00000000002A0000002A00010029000000292C
:101D1000000000290000002900000029000100281F
:101D20000000002800000028000000280000002813
:101D30000001002700000027000000270000002706
:101D400000000027000100260000002600000026F9
:101D500000000026000000260001002500000025EC
:101D600000000025000000250000002500000025DF
:101D700000010024000000240000002400000024D2
:101D800000000024000100230000002300000023C5
:101D900000000023000000230000002300000023B7
:101DA00000010022000000220000002200000022AA
:101DB000000000220000002200010021000000219C
:101DC000000000210000002100000021000000218F
:101DD0000000002100010020000000200000002081
:101DE0000000002000000020000000200000002073
:101DF000000000200001001F0000001F0000001F65
:101E00000000001F0000001F0000001F0000001F56
:101E10000001001E0000001E0000001E0000001E49
:101E20000000004D383420582059205A2045005ACF
:101E300025752C45256C752C50256C752C542575F5
:101E40002C4225752C005072696E74657220726583
:101E50006164792E005072696E74657220726561DA
:101E600064792E004572723A4E6F2046696C616D3E
:101E7000656E740020746F6F206C6F6E67206578DC
:101E800074727573696F6E2070726576656E7465B5
:101E9000640A0020636F6C642065787472757369DE
:101EA0006F6E2070726576656E7465640A00627587
:101EB00073793A2070617573656420666F7220696A
:101EC0006E7075740A00627573793A20706175736B
:101ED000656420666F7220757365720A006275739F
:101EE000793A2070726F63657373696E670A004B8D
:101EF000494C4C45442E20004B494C4C20636175A5
:101F000073656420627920746F6F206D756368203B
:101F1000696E6163746976652074696D65202D2032
:101F200063757272656E7420636F6D6D616E643A75
:101F30002000506C65617365207265736574005094
:101F400052494E5445522048414C54454400507229
:101F5000696E7465722068616C7465642E206B69AB
:101F60006C6C28292063616C6C6564210A00000098
:101F700020C10000A0C0000000000000704200006E
:101F800070420000C040000000005761726E696E30
:101F9000673A20486F6D696E672042756D70204406
:101FA000697669736F72203C20310A0002020400D6
:101FB00000A0400000A0400000004000008243005C
:101FC000007F4300007A43FFFFFF4D36303020484A
:101FD0006F74656E6420746F6F20636F6C6420741F
:101FE0006F206368616E67652066696C616D656E00
:101FF000740A00416D6178204500416D617820458B
:1020000000416D6178205A00416D6178205A00418D
:102010006D6178205900416D6178205900416D61F2
:1020200078205800416D6178205800412D7472610C
:1020300076656C00412D74726176656C00412D727D
:1020400065747261637400412D72657472616374AA
:1020500000416363656C00416363656C004D6F74A0
:10206000696F6E0056652D6A65726B0056652D6A44
:1020700065726B0056652D6A65726B00567A2D6A23
:1020800065726B00567A2D6A65726B0056792D6AFF
:1020900065726B0056792D6A65726B0056792D6AF0
:1020A00065726B0056782D6A65726B0056782D6AE2
:1020B00065726B0056782D6A65726B004D6F74699E
:1020C0006F6E004573746570732F6D6D004573748A
:1020D0006570732F6D6D005A73746570732F6D6D1D
:1020E000005A73746570732F6D6D00597374657049
:1020F000732F6D6D005973746570732F6D6D00587B
:1021000073746570732F6D6D005873746570732FE1
:102110006D6D004D6F74696F6E0053746570732F31
:102120006D6D004A65726B00416363656C65726139
:1021300074696F6E0056656C6F63697479005A201C
:102140004F6666736574005A204F66667365740047
:10215000436F6E74726F6C004F6E200052756E6F1D
:1021600075742073656E736F7273004F66660046F8
:10217000696C2E204469612E0046696C2E204469EA
:10218000612E004F6666004F6E20004520696E206C
:102190006D6D3300436F6E74726F6C006265640A1C
:1021A000002C2073797374656D2073746F70706583
:1021B0006421204865617465725F49443A20004893
:1021C000656174696E67206661696C656400486565
:1021D0006174696E67206661696C65640048656159
:1021E00074696E67206661696C6564004865617436
:1021F000696E67206661696C65640070012C0190EE
:10220000012701B0012201C0011D01F001180110D8
:1022100002130130020E016002090190020401C0A4
:1022200002FF000003FA004003F5008003F000D035
:1022300003EB002004E6007004E100E004DC004051
:1022400005D700C005D2004006CD00D006C80080EA
:1022500007C3003008BE00F008B900C009B400B0E0
:102260000AAF00B00BAA00D00CA500000EA00050D1
:102270000F9B00C01096005012910000148C00C0FB
:10228000158700B0178200B0197D00D01B780000C0
:102290001E730040206E0090226900F0246400400C
:1022A000275F0090295A00E02B5500102E50002087
:1022B000304B0010324600E033410090353C0010B6
:1022C00037370070383200A0392D00B03A2800A00E
:1022D0003B2300603C1E00103D1900903D1400108F
:1022E0003E0F00703E0A00C03E0500003F00004067
:1022F0003FFBFF803FF6FFC03FF1FF4572723A207F
:102300004D494E54454D5020424544004572723A65
:10231000204D494E54454D50004D494E54454D5069
:1023200020747269676765726564004572723A204D
:102330004D415854454D5020424544004572723A33
:10234000204D415854454D50004D415854454D5035
:102350002074726967676572656400202F002042EF
:10236000403A0020403A004D31303420532575006A
:102370004739322045257500473932205A25752EB8
:102380002575004D3530300043616E63656C2070FB
:1023900072696E7400526573756D65207072696E36
:1023A0007400506F776572206F75746167650025E2
:1023B000753A2530327500253032753A2530327540
:1023C0000025756420253032753A25303275005A63
:1023D000004D782025643B2564252520004D785E3E
:1023E00025643B256425252000092000000000000D
:1023F00000000000000000007FFFE000000000007F
:10240000000000000000007000E00000000000007C
:1024100000000000000061F8600000000000000003
:10242000000000000041F820000000000000000053
:102430000000000040F0200000000000000000004C
:1024400000000040602000000000000000000000CC
:1024500000005801A07F800000000000000041043F
:10246000005C63A0FFC000000000000000208200AC
:102470005EF7A0FFC0000000000000002082005EA8
:10248000F7A0FFC0000000000000004104005C63F2
:10249000A07F80000000000000008208005801A01A
:1024A0007F8000000000000001041000406020FF59
:1024B000C00000000000000104100040F020FFC038
:1024C0000000000000000082080041F820FFC0006A
:1024D00000000000000041040061F8603F000000BF
:1024E00000000000000000007000E01E000000007E
:1024F00000000001FFFF807FFFE00C0000000000F3
:10250000000001FFFF80000000000000000000004C
:1025100000000000007FFFE000000000000000005D
:10252000000000007000E00000000000000000005B
:10253000000000630C6000000000000000000000CC
:102540000000470E20000000000000000000000016
:10255000004F0F20000000000000000000000000FD
:102560005F0FA00000000000000000000000005EFF
:1025700007A07F80000000000000004104004060D0
:1025800020FFC00000000000000020820040F0207A
:10259000FFC00000000000000020820040F020FF8B
:1025A000C0000000000000004104004060207F8067
:1025B000000000000000008208005E07A07F80008D
:1025C0000000000000010410005F0FA0FFC0000029
:1025D00000000000010410004F0F20FFC0000000A9
:1025E00000000000820800470E20FFC0000000002D
:1025F000000000410400630C603F00000000000088
:1026000000000000007000E01E000000000000005C
:1026100001FFFF807FFFE00C0000000000000001D0
:10262000FFFF8000000000060900FE00000000001F
:1026300001090008FE000005080806000040F0C877
:102640008888987810050808060000C0F8888888EF
:102650008888F80505050600012030F830200508B7
:10266000080600002070F820202020E00509090657
:1026700000FF2070A8A8B888887020050909060006
:10268000FFE080C0B0A8283028280509090600FF0F
:10269000F8A88888888888A8F8050A0A0600FE2015
:1026A0005050505088A8A8887003030306000340C8
:1026B000A040434F4D4D554E49434154494F4E0064
:1026C00044525952554E004552524F525300494EB2
:1026D000464F004543484F00D326CE26C726C02686
:1026E000B2266F66660044454255473A004D313187
:1026F000332053004D31343520533C696E64657886
:102700003E206F7574206F662072616E67652028A9
:10271000302D31290A005072696E746572204F663F
:10272000662E00205A3A0020593A0020436F756EF9
:102730007420583A0020453A00205A3A0020593A6D
:1027400000583A003A004361703A00454D455247FF
:10275000454E43595F504152534552004341534502
:102760005F4C494748545F4252494748544E45538D
:102770005300544F47474C455F4C4947485453001A
:10278000534F4654574152455F504F5745520042B0
:1027900055494C445F50455243454E54004C4556B4
:1027A000454C494E475F44415441005A5F50524F97
:1027B0004245004155544F4C4556454C00505249F6
:1027C0004E545F4A4F420050524F475245535300B8
:1027D0004155544F5245504F52545F54454D50004F
:1027E000564F4C554D455452494300454550524F64
:1027F0004D0053455249414C5F584F4E5F584F462C
:1028000046004649524D574152455F4E414D453A6B
:102810004D61726C696E20312E312E382028476947
:10282000746875622920534F555243455F434F44A6
:10283000455F55524C3A68747470733A2F2F67692C
:10284000746875622E636F6D2F4D61726C696E4690
:1028500069726D776172652F4D61726C696E20507F
:10286000524F544F434F4C5F56455253494F4E3A87
:10287000312E30204D414348494E455F5459504513
:102880003A5072696E7465722045585452554445E9
:10289000525F434F554E543A3120555549443A639F
:1028A000656465326132662D343161322D343734DE
:1028B000382D396231322D63353563363266333621
:1028C0003766660A002F2F20005761726E696E67A7
:1028D0003A204D697820666163746F7273206D755C
:1028E00073742061646420757020746F20312E3001
:1028F0002E205363616C696E672E0A00252900251E
:102900007C00202800252920746F205A00257C0097
:102910002028004F4E2066726F6D205A004F4646A9
:10292000004772616469656E74204D6978200043C8
:102930006172642072656D6F7665640043617264D4
:1029400020696E7365727465640000060900FE07F5
:1029500001920321207FFF07FF07FF000000060010
:10296000000107070602008080808080008003024B
:1029700002060105A0A00507070600005050F85008
:10298000F850500507070600002078A07028F020B6
:10299000050707060000C0C8102040981805070763
:1029A0000600006090A040A890680203030601049E
:1029B000C04080030707060100204080808040203F
:1029C0000307070601008040202020408005050500
:1029D00006000120A870A82005050506000120209A
:1029E000F820200203030602FFC040800501010613
:1029F0000003F8020202060200C0C0050505060039
:102A000001081020408005070706000070888888AC
:102A100088887003070706010040C040404040E03E
:102A2000050707060000708808708080F805070712
:102A3000060000F81020100808F00507070600003F
:102A400010305090F81010050707060000F880F0CD
:102A500008088870050707060000708080F08888E5
:102A600070050707060000F8081020202020050741
:102A700007060000708888708888700507070600C0
:102A80000070888878080870020505060200C0C03A
:102A900000C0C00206060602FFC0C000C04080049D
:102AA00007070600001020408040201005030306A1
:102AB0000002F800F80407070601008040201020FB
:102AC00040800507070600007088081020002005D8
:102AD000070706000070880868A8A87005070706A1
:102AE0000000708888F8888888050707060000F0CD
:102AF0008888F08888F005070706000070888080C5
:102B0000808870050707060000F08888888888F0AC
:102B1000050707060000F88080F08080F8050707A9
:102B2000060000F88080F08080800507070600001E
:102B3000708880B888887005070706000088888834
:102B4000F8888888010707060200808080808080DE
:102B50008005070706000038101010109060050768
:102B6000070600008890A0C0A0908805070706000F
:102B700000808080808080F805070706000088D8E4
:102B8000A8888888880507070600008888C8A8984C
:102B9000888805070706000070888888888870057F
:102BA0000707060000F08888F08080800507070688
:102BB000000070888888A89068050707060000F064
:102BC0008888F0A09088050707060000788080704C
:102BD0000808F0050707060000F820202020202024
:102BE0000507070600008888888888887005070719
:102BF000060000888888888850200507070600009E
:102C00008888888888A850050707060000888850AB
:102C100020508888050707060000888888502020F3
:102C200020050707060000F80810204080F8030779
:102C300007060100E08080808080E0050505060031
:102C4000018040201008030707060100E020202033
:102C50002020E0050303060004205088050101063A
:102C60000000F80202020602058040050505060084
:102C70000070087888780507070600008080B0C8D3
:102C80008888F005050506000070808088700507BB
:102C9000070600000808689888887805050506007A
:102CA000007088F880700507070600003048E04093
:102CB0004040400506060600FF70888878087005C9
:102CC00007070600008080B0C888888801070706CB
:102CD0000200800080808080800308080601FF20B9
:102CE0000020202020A040040707060000808090DC
:102CF000A0C0A090030707060100C040404040402C
:102D0000E0050505060000D0A8A8A8A80505050649
:102D10000000B0C88888880505050600007088880E
:102D200088700506060600FFF08888F0808005069A
:102D3000060600FF78888878080805050506000063
:102D4000B0C880808005050506000070807008F01E
:102D50000407070600004040E040404030050505FC
:102D600006000088888898680505050600008888A0
:102D70008850200505050600008888A8A85005058C
:102D80000506000088502050880506060600FF88CA
:102D90008888780870050505060000F8102040F8BE
:102DA000030707060100204040804040200107073C
:102DB0000602008080808080808003070706010073
:102DC00080404020404080050202060002689000DA
:102DD000000006000043616E6E6F7420656E7465BE
:102DE00072207375626469723A2000022E2E004DC3
:102DF00061696E004D61782054656D703A20313202
:102E000035004D696E2054656D703A20350054428E
:102E100065643A4550434F53203130304B004D618B
:102E2000782054656D703A20323635004D696E2039
:102E300054656D703A20350054303A204550434F68
:102E400053203130304B005053553A2047656E6562
:102E50007269630050726F746F636F6C3A20312E29
:102E60003000202020204857205665723A20560016
:102E70004657205665723A2056322E300042617510
:102E8000643A2032353030303000475432353630F5
:102E90002056342E300042696C696E656172204C98
:102EA0006576656C696E67004578747275646572E5
:102EB000733A203100687474703A2F2F6D61726C10
:102EC000696E66772E6F7267005072696E746572F4
:102ED00000323031372D31322D32352031323A3017
:102EE0003000312E312E38004D61726C696E005405
:102EF0006865726D6973746F727300426F6172649A
:102F000020496E666F005072696E74657220496E5A
:102F1000666F004D61696E0020204E6F7A7A6C6595
:102F20003A200020004261636B004D696E696D7547
:102F30006D2054656D70206973203137302E004844
:102F4000656174696E67206661696C6564005265CD
:102F500073756D65207072696E7400457874727552
:102F60006465206D6F726500524553554D45204F85
:102F70005054494F4E533A000000210024002700CE
:102F80002A002D0030003300010100000401070178
:102F90000A0100002200250028002B002E0031002D
:102FA000340002010000050108010B0100002000AF
:102FB0002300260029002C002F0032000001000011
:102FC00003010601090105050505070508080808AC
:102FD000020202020A0A08080404040401010101B1
:102FE00001010101030303030303030304070707AC
:102FF0000C0C0C0C0C0C0C0C020202020606060651
:10300000060606060B0B0B0B0B0B0B0B010210201D
:10301000200808102040102040800201020108040E
:1030200002010102040810204080804020100804A2
:1030300002018004020180402010080402010804FB
:10304000020101020408102040800102040810203F
:10305000408000000A0B02090C0D0E080703040152
:103060000000000000000000000000000000000060
:10307000000000000000000000000000000012112D
:103080001000000000000000000000000000000030
:1030900000000000000000004D3330332055312087
:1030A0004525692053256900507265686561742063
:1030B00041425320636F6E660050726568656174AB
:1030C00020504C4120636F6E66005049442041758A
:1030D000746F74756E6500504944204175746F7447
:1030E000756E65005049442D44005049442D4400FC
:1030F0005049442D49005049442D49005049442D20
:1031000050005049442D500020082046616374004F
:1031100020082046616374002008204D617800205B
:1031200008204D6178002008204D6178002008209B
:103130004D696E002008204D696E002008204D6901
:103140006E004F6666004F6E20004175746F7465A7
:103150006D700046616E2073706565640046616E37
:103160002073706565640042656400426564004ECA
:103170006F7A7A6C65004E6F7A7A6C6500436F6E79
:1031800074726F6C0053746F726520736574746928
:103190006E67730042656400426564004E6F7A7A20
:1031A0006C65004E6F7A7A6C650046616E207370B4
:1031B0006565640046616E207370656564005465E2
:1031C0006D70657261747572650056547261762017
:1031D0006D696E005654726176206D696E005654AA
:1031E000726176206D696E00566D696E00566D696C
:1031F0006E00566D696E00566D6178204500566D03
:103200006178204500566D6178204500566D6178E3
:10321000205A00566D6178205A00566D6178205A08
:1032200000566D6178205900566D6178205900561E
:103230006D6178205900566D6178205800566D6197
:1032400078205800566D61782058004D6F74696F72
:103250006E005072656865617420504C4120456E67
:1032600064005072656865617420504C412042656D
:1032700064005072656865617420504C4100507262
:1032800065706172650050726568656174204142C5
:103290005320456E64005072656865617420414238
:1032A0005320426564005072656865617420414234
:1032B000530050726570617265004261636B004E2D
:1032C00065787420636F726E6572004D32383020FD
:1032D0005030205331363000424C546F75636820B3
:1032E00053656C662D54657374004D323830205030
:1032F000302053313230005072656865617420416E
:103300004253005072656865617420504C4100431F
:103310006F6F6C646F776E004368616E67652066DF
:10332000696C616D656E7400526573657420424C02
:10333000546F7563680044697361626C65207374CF
:10334000657070657273004D3834004C6576656C3D
:1033500020636F726E65727300426564204C6576FF
:10336000656C696E67004732380A4732390041752B
:10337000746F20686F6D6500473238004D6F766559
:103380002061786973004D61696E0043616E6E6FF4
:1033900074206F70656E20737562646972200065B9
:1033A0006E7175657565696E672022006563686F6B
:1033B0003A00544845524D414C2052554E415741D8
:1033C0005900546865726D616C2052756E61776149
:1033D0007900473238205A20466F7262696464650A
:1033E0006E0A00473238205A20466F726269646460
:1033F000656E0020706F736974696F6E206F7574ED
:10340000206F662072616E67652E0A003F50726FF2
:1034100062652000202844525952554E29004732F7
:1034200039204175746F20426564204C6576656C67
:10343000696E670028422961636B00284629726F14
:103440006E74002852296967687400284C296566E3
:1034500074003F2856296572626F7365206C65762B
:10346000656C20697320696D706C61757369626C3D
:10347000652028302D34292E0A00426164205A200C
:1034800076616C75650A004E6F2062696C696E65C5
:10349000617220677269640A00526573756D696EA6
:1034A00067207072696E74005072696E7465722064
:1034B00072656164792E00436C69636B20746F20C0
:1034C000726573756D652E2E2E0020746F6F206CE3
:1034D0006F6E6720657874727573696F6E20707295
:1034E0006576656E7465640A0020636F6C642065A0
:1034F0007874727573696F6E2070726576656E741C
:1035000065640A004D6F76652058004D6F76652022
:1035100059004D6F7665205A004578747275646560
:1035200072004D6F766520302E316D6D004D6F76D7
:103530006520316D6D004D6F76652031306D6D0009
:103540004D6F7665206178697300486F74656E64AD
:1035500020746F6F20636F6C6400457874727564BB
:103560006572004D6F7665205A004D6F7665205963
:10357000004D6F76652058004578747275646572E9
:10358000004D6F7665205A004D6F76652059004DCD
:103590006F76652058005072657061726500496EE3
:1035A000697469616C697A6520454550524F4D00D8
:1035B000436F6E74726F6C00526573746F72652026
:1035C0006661696C73616665004C6F616420736548
:1035D0007474696E67730053746F726520736574D9
:1035E00074696E677300496E697469616C697A65A4
:1035F00020454550524F4D00424C546F7563680052
:1036000046696C616D656E74004D6F74696F6E0014
:1036100054656D7065726174757265004D61696E97
:10362000007C3C3E5E2B3D3F2F5B5D3B2C2A225CA9
:1036300000290A57726974652066696C65206E619D
:103640006D653A20002062797465733B2063726374
:103650002000506F7765726F66662053746F7265D5
:103660006420280020213D2000637263206572726F
:103670006F723A20000A726561642066696C652089
:103680006E616D653A2000290A7265616420666981
:103690006C65206469723A20002062797465733B1E
:1036A000206372632000706F7765726F66662073A7
:1036B000746F7265642073657474696E67732072C9
:1036C0006574726965766564202800202863616CE2
:1036D00063756C6174656429210A0020213D200016
:1036E000454550524F4D20435243206D69736D61E3
:1036F000746368202D202873746F7265642920001C
:10370000290A002062797465733B2063726320008C
:103710002073746F7265642073657474696E677367
:1037200020726574726965766564202800204D6199
:10373000726C696E3D56343032290A002845455076
:10374000524F4D3D00454550524F4D2076657273A6
:10375000696F6E206D69736D6174636820004861E4
:103760007264636F6465642044656661756C74207F
:1037700053657474696E6773204C6F616465640A85
:1037800000B80B0000B80B000032000000B80B00BE
:103790000000009643000096430000A0410000C8CE
:1037A000419A99A0429A99A1420000C8430080C55D
:1037B0004320496E76616C69642065787472756423
:1037C0006572200053544F505045442E20005072D3
:1037D000696E7465722073746F70706564206475AF
:1037E0006520746F206572726F72732E204669783F
:1037F00020746865206572726F7220616E64207536
:103800007365204D39393920746F20726573746186
:1038100072742E202854656D7065726174757265BE
:103820002069732072657365742E20536574206956
:103830007420616674657220726573746172746954
:103840006E67290A0053544F502063616C6C6564A5
:103850002062656361757365206F6620424C546F0A
:10386000756368206572726F72202D2072657374A3
:103870006172742077697468204D3939390A0042C1
:10388000696C696E656172204C6576656C696E67FE
:1038900020477269643A0A004E6F206D6F76652E7C
:1038A00000456E642066696C65206C6973740A005B
:1038B000426567696E2066696C65206C6973740A7D
:1038C000004D3132350046696C652064656C657465
:1038D00065643A0044656C6574696F6E2066616961
:1038E0006C65642C2046696C653A20006F70656ECB
:1038F000206661696C65642C2046696C653A20001D
:103900002569730025696D20256973002569682084
:1039100025696D2025697300256964202569682063
:1039200025696D2025697300256979202569642042
:103930002569682025696D20256973005072696EBC
:10394000742074696D653A200050726F74656374F9
:1039500065642050696E0A00452569202573005072
:1039600072696E7465722072656164792E00537499
:10397000617274205A3A202534642E2564206D6DBE
:10398000002020456E64205A3A202534642E256498
:10399000206D6D00285A203C3D2025642E25642989
:1039A000005374617274206D69783A202533642560
:1039B0002520253364252500285A203E3D202564F6
:1039C0002E256429002020456E64206D69783A20F8
:1039D00025336425252025336425250046756C6C28
:1039E000206772616469656E74002533643B25331A
:1039F000642525002020456E64206D69783A0025F5
:103A000033643B2533642525005374617274206D43
:103A100069783A004772616469656E7400253464A0
:103A20002E2564206D6D002020456E64205A3A00DA
:103A30002534642E2564206D6D00537461727420EA
:103A40005A3A004772616469656E74206D69780046
:103A50004D6978657200526573656E643A20006F37
:103A60006B00DE00D80011241FBECFEFD1E2DEBF15
:103A7000CDBF00E00CBF14E0A0E0B2E0EAEEFAE84F
:103A800002E00BBF02C007900D92A632B107D9F732
:103A900029E1A6E2B4E001C01D92A43EB207E1F71D
:103AA0001DE1C2E3DDE100E006C021970109802F9E
:103AB000FE010F94D344C133D10780E00807A9F772
:103AC0000F94FB280D9464450C9400002F923F92B4
:103AD0004F925F926F927F928F929F92AF92BF921E
:103AE000CF92DF92EF92FF920F931F93CF93DF93CA
:103AF000CDB7DEB7C558D1090FB6F894DEBF0FBEFB
:103B0000CDBF81E090E09093351280933412809184
:103B10000C198D3409F495C7843511F40C948B3548
:103B2000873411F00C94D53580910A1990910B19B6
:103B30008B31910509F4CAC5B4F4843091053CF485
:103B400082309105C4F597FF2FC00C94EC3584307A
:103B5000910509F474C54A9711F00C94EC350E9454
:103B6000DC420C94EC358A32910509F4A8C65CF469
:103B70008D31910509F4DBC50CF4D4C54E9709F4D9
:103B8000DAC50C94EC358B35910509F443C68C35B8
:103B9000910509F444C68A35910511F00C94EC3571
:103BA00010922B040C94EC358091450281110C94F9
:103BB000F3350C94EC3520914502222311F40C943A
:103BC000EC3511E0029709F010E00F947C0E82E5CD
:103BD0000E947F41882309F436C10E941D416B0178
:103BE0007C014090670C5090680C6090690C70905C
:103BF0006A0C20916B0C30916C0C40916D0C5091C3
:103C00006E0C29A73AA74BA75CA78091BD0990919C
:103C1000BE09A091BF09B091C0098DA79EA7AFA70B
:103C2000B8AB2091C1093091C2094091C3095091AC
:103C3000C40929AF3AAF4BAF5CAF20E030E0A90137
:103C4000C701B6010F949F3D882309F4DEC4A30188
:103C500092016DA57EA58FA598A90F949F3D811116
:103C60000DC029A53AA54BA55CA569AD7AAD8BAD74
:103C70009CAD0F949F3D882309F4C7C420E030E039
:103C8000A901C701B6010F949F3D881F8827881F8F
:103C900018130BC080E090E0A0E8BFE325968CAF3E
:103CA0009DAFAEAFBFAF25970AC020E030E040E83F
:103CB0005FEB25962CAF3DAF4EAF5FAF2597A301CD
:103CC00092016DA57EA58FA598A90F94D7416DABE4
:103CD0007EAB8FAB98AF29A53AA54BA55CA569AD86
:103CE0007AAD8BAD9CAD0F94D74121966CAF7DAF73
:103CF0008EAF9FAF21972DA93EA94FA958ADCA01FC
:103D0000B9010F94043E4B015C0121962CAD3DADF1
:103D10004EAD5FAD2197CA01B9010F94043E9B01DE
:103D2000AC01C501B4010F94D8410F94434469AB71
:103D30007AAB8BAB9CAB20E030E040E05FE30F94CC
:103D4000043E4B015C01A7019601C701B6010F9427
:103D5000043E6B017C01A5019401C501B4010F94DF
:103D6000043E9B01AC01C701B6010F94D7410F94EB
:103D700043449B01AC0125966CAD7DAD8EAD9FADEE
:103D800025970F94043E4B015C012DA53EA54FA540
:103D900058A9C301B2010F94D84120E030E040E0BF
:103DA0005FE30F94043E6B017C0121966CAD7DAD09
:103DB0008EAD9FAD2197905829A93AA94BA95CA92E
:103DC0000F94B4429B01AC01C501B4010F94043EB1
:103DD0009B01AC01C701B6010F94D841A301920128
:103DE0000F94D7416B017C0129AD3AAD4BAD5CAD71
:103DF00069A57AA58BA59CA50F94D84120E030E059
:103E000040E05FE30F94043E2B013C0129A93AA94D
:103E10004BA95CA96DA97EA98FA998AD0F94B44256
:103E20009B01AC01C501B4010F94043E9B01AC01A0
:103E3000C301B2010F94D84129A53AA54BA55CA5B1
:103E40000F94D74114C089E40E947F41882329F050
:103E50000E941D416B017C0103C0C12CD12C760155
:103E60008AE40E947F418823D9F00E941D4169AFF6
:103E70007AAF8BAF9CAF20E030E0A901C701B6015B
:103E80000F949F3D81111AC020E030E0A90169AD77
:103E90007AAD8BAD9CAD0F949F3D81110FC0B5C322
:103EA00020E030E0A901C701B6010F949F3D8823AF
:103EB00009F4ABC319AE1AAE1BAE1CAED701C601D6
:103EC000B05889A79AA7ABA7BCA729AD3AAD4BAD0F
:103ED0005CAD50582DA73EA74FA758AB9C01AD0134
:103EE000BC01CD010F94043E4B015C012DA53EA504
:103EF0004FA558A9CA01B9010F94043E9B01AC011A
:103F0000C501B4010F94D8410F94434465966CAF3A
:103F10007DAF8EAF9FAF65978091670C9091680CD5
:103F2000A091690CB0916A0C89AB9AABABABBCABFE
:103F3000A7019601BC01CD010F94D84125966CAF25
:103F40007DAF8EAF9FAF259720916B0C30916C0C9D
:103F500040916D0C50916E0C21962CAF3DAF4EAF41
:103F60005FAF219729AD3AAD4BAD5CAD21966CADFD
:103F70007DAD8EAD9FAD21970F94D84129966CAF42
:103F80007DAF8EAF9FAF29978091BD099091BE09FB
:103F9000A091BF09B091C0092D968CAF9DAFAEAF77
:103FA000BFAF2D9725962CAD3DAD4EAD5FAD25979E
:103FB000BC01CD010F94D7416B017C012091C10957
:103FC0003091C2094091C3095091C40961962CAF48
:103FD0003DAF4EAF5FAF619729962CAD3DAD4EAD75
:103FE0005FAD299761966CAD7DAD8EAD9FAD61974C
:103FF0000F94D7414B015C0180916F0C9091700C34
:10400000A091710CB091720C6D968CAF9DAFAEAF5C
:10401000BFAF6D979C01AD016091C5097091C60954
:104020008091C7099091C8090F94D7416DAB7EABC1
:104030008FAB98AF2091C9093091CA094091CB0943
:104040005091CC0969962CAF3DAF4EAF5FAF6997E9
:104050008091730C9091740CA091750CB091760CBA
:10406000A1968CAF9DAFAEAFBFAFA197A701960150
:1040700069A57AA58BA59CA50F94043E2B013C0154
:10408000A50194016DA57EA58FA598A90F94043E66
:104090009B01AC01C301B2010F94D8412B013C013B
:1040A000A501940169A57AA58BA59CA50F94043E52
:1040B0004B015C01A70196016DA57EA58FA598A96E
:1040C0000F94043E9B01AC01C501B4010F94D7418C
:1040D000A30192010F944B426B017C0120E030E080
:1040E000A9010F949F3D87FF0AC02BED3FE049ECEB
:1040F00050E4C701B6010F94D8416B017C01112334
:1041000051F02BED3FE049EC50E4C701B6010F94AC
:10411000D7416B017C0120E030E0A901C701B60165
:104120000F949F3D811126C02D962CAD3DAD4EAD17
:104130005FAD2D9769A97AA98BA99CA90F949F3D82
:10414000811118C061962CAD3DAD4EAD5FAD61974C
:1041500021966CAD7DAD8EAD9FAD21970F949F3DA7
:10416000811108C0EBEDCE2EEFE0DE2EE9ECEE2E55
:10417000E0E4FE2E65962CAD3DAD4EAD5FAD65978E
:10418000C701B6010F94043E9B01AC010F94043E9D
:104190004B015C012DA93EA94FA958ADCA01B90137
:1041A0000F94043E9B01AC01C501B4010F94D841AA
:1041B0000F9443444B015C012FE632E143E85AE39C
:1041C0000F949F3D87FD1DC2C501B4010F944D435F
:1041D0000F9421431B01672B19F422242394312CC3
:1041E000B10180E090E00F94A33D4B015C019B0185
:1041F000AC01C701B6010F94B44269AB7AAB8BAB8B
:104200009CABA50194016DA97EA98FA998AD0F94CF
:10421000B44265966CAF7DAF8EAF9FAF6597A196A8
:104220002CAD3DAD4EAD5FADA19769966CAD7DAD4A
:104230008EAD9FAD69970F94D741A50194010F945E
:10424000B44269966CAF7DAF8EAF9FAF699729A9D5
:104250003AA94BA95CA9CA01B9010F94043E20E018
:1042600030E040E05FE30F94043E9B01AC0160E06E
:1042700070E080E89FE30F94D7412D966CAF7DAF3F
:104280008EAF9FAF2D976D962CAD3DAD4EAD5FAD12
:104290006D9729873A874B875C87A1968CAD9DAD3A
:1042A000AEADBFADA1978D879E87AF87B88B60916C
:1042B000390270913A02072E000C880B990B0F946B
:1042C000A53D2091290230912A0240912B02509164
:1042D0002C020F94043E2AE037ED43E25CE30F9496
:1042E000043E6D8F7E8F8F8F98A30E9493CB9B018E
:1042F000AC0128533F4F4F4F5F4F61962CAF3DAFFE
:104300004EAF5FAF619749A45AA46BA47CA441E06F
:1043100050E05EAF4DAF59E15DABADADBEADA215A6
:10432000B30509F434C10E94A5A90E9493CBDC0116
:10433000CB0161962CAD3DAD4EAD5FAD6197821B5B
:10434000930BA40BB50BB7FD11C00E9493CB9B013F
:10435000AC0128533F4F4F4F5F4F61962CAF3DAF9D
:104360004EAF5FAF619780E00E94BD923DA9315092
:104370003DAB332309F441C02D962CAD3DAD4EAD80
:104380005FAD2D976DA57EA58FA598A90F94043ECE
:104390006B017C0129A93AA94BA95CA9B201C3010F
:1043A0000F94043EA70196010F94D8416B017C0144
:1043B0002D962CAD3DAD4EAD5FAD2D97B201C30135
:1043C0000F94043E4B015C0129A93AA94BA95CA9B1
:1043D0006DA57EA58FA598A90F94043E9B01AC0105
:1043E000C501B4010F94D7412B013C01C601D7018F
:1043F0008DA79EA7AFA7B8AB51C04DAD5EADBA01BA
:1044000080E090E00F94A33D29A93AA94BA95CA9AB
:104410000F94043E4B015C010F94B1426B017C018F
:10442000C501B4010F9439444B015C01A701960109
:1044300069A57AA58BA59CA50F94043E2B013C0190
:10444000A501940169AD7AAD8BAD9CAD0F94043E8E
:104450009B01AC01C301B2010F94D8412B013C0177
:10446000A501940169A57AA58BA59CA50F94043E8E
:104470004B015C01A701960169AD7AAD8BAD9CAD96
:104480000F94043E9B01AC01C501B4010F94D741C8
:104490006DA77EA78FA798AB59E15DAB9201A301F1
:1044A00025966CAD7DAD8EAD9FAD25970F94D8410F
:1044B00069837A838B839C832DA53EA54FA558A93C
:1044C00029966CAD7DAD8EAD9FAD29970F94D841E7
:1044D0006D837E838F83988765962CAD3DAD4EAD01
:1044E0005FAD659769857A858B859C850F94D841EA
:1044F00069877A878B879C8769962CAD3DAD4EADD9
:104500005FAD69976D857E858F8598890F94D841B9
:104510006D877E878F87988B80916A02882321F030
:10452000CE0101960E94C99189819A81AB81BC819B
:10453000898B9A8BAB8BBC8B8D819E81AF81B8852B
:104540008D8B9E8BAF8BB88F89859A85AB85BC850B
:10455000898F9A8FAB8FBC8FCE0141960E94113DFF
:10456000E12C8E01035E1F4F9E01235F3F4FAE0182
:10457000475E5F4FBE016B5E7F4FCE0141960F9449
:1045800047268DAD9EAD01969EAF8DAFC6CE809174
:10459000BD099091BE09A091BF09B091C009898B56
:1045A0009A8BAB8BBC8B8091C1099091C209A09171
:1045B000C309B091C4098D8B9E8BAF8BB88F80914E
:1045C000C5099091C609A091C709B091C809898F02
:1045D0009A8FAB8FBC8FCE0141960E94113DE12C8A
:1045E0008E01035E1F4F29EC39E0AE01475E5F4F3D
:1045F000BE016B5E7F4FCE0141960F9447260E940D
:10460000D2420E94193D0C94EC35EAE3FFE084911C
:104610008F010F5F1F4F882321F00E94243DF80176
:10462000F6CFE5E1F2E084918F010F5F1F4F882301
:1046300011F40C94EC350E94243DF801F4CF80E590
:104640000E947F41882329F00E94F23C6B017C018B
:1046500003C0C12CD12C760183E50E947F418823C1
:1046600061F00E941D4120E030E04AE754E40F94DD
:10467000043E0F9421436B017C010E942AAB809180
:104680006B02811105C060E08BE292E00E945DBE8A
:104690000E94193D80912C1290912D12A0912E1202
:1046A000B0912F12C80ED91EEA1EFB1E0E9493CB9A
:1046B000DC01CB018C199D09AE09BF09B7FD02C011
:1046C0000C94EC3580E00E94BD92F0CF0E94116501
:1046D00081110C94EC3580E090E0A0E4B0E4898393
:1046E0009A83AB83BC838D839E83AF83B88780E03E
:1046F00090E0A0E2B1E489879A87AB87BC8780E528
:104700000E947F41882319F00E94ED4001C060E0C3
:10471000698BBE016F5F7F4FCE0141960E94E46DB1
:104720000C94EC3580E00E949FEA0C94EC350E94DA
:104730004BE60C94EC35C090670CD090680CE09080
:10474000690CF0906A0C88E50E947F41811109C0D4
:1047500020E030E044E152E4C701B6010F94D741B4
:1047600002C00E941D41698B7A8B8B8B9C8BC09001
:104770006B0CD0906C0CE0906D0CF0906E0C89E599
:104780000E947F41811108C020E030E0A901C701EB
:10479000B6010F94D84102C00E941D416B017C01FB
:1047A00069837A838B839C8389889A88AB88BC8849
:1047B0002FE632E143E85AEBC501B4010F94FE4302
:1047C00087FF02C00C94EC3522E430E045E553E469
:1047D000C501B4010F949F3D181614F40C94EC35E8
:1047E0002FE632E143E85AEBC701B6010F94FE43CE
:1047F00087FF02C00C94EC3522E430E04AE753E432
:10480000C701B6010F949F3D181614F40C94EC35B3
:104810000C94233681E080932B040C94EC350E9499
:104820002AAB5CEB252E52E0352E67E6E62E6CE0D7
:10483000F62E00E0D12C10E0F10181911F010E94C1
:104840007F41882351F10E941D412B013C01D7017A
:104850002D913D914D915C910F94D7414B015C019D
:104860002DEB37E346E855EB0F94FE4387FD0AC076
:104870002DEB37E346E855E3C501B4010F949F3DA6
:1048800018165CF4133019F0DD24D39401C001E054
:10489000F70140825182628273821F5FF4E0EF0E63
:1048A000F11C143049F6DD2019F00E94AB3C03C026
:1048B00001110E942F630E94E0B50C94EC358091A9
:1048C0004502882311F40C94EC3589E40E947F4161
:1048D000182F882321F00E94ED40E62E01C0E12C24
:1048E0008AE40E947F41F82E882331F00E94ED4037
:1048F000062F111104C00BC000E01123B9F022E013
:104900002E1510F00C94FA3AE6E4F2E003C00330FE
:10491000D8F70CC084918F010F5F1F4F882311F4CB
:104920000C94EC350E94243DF801F4CF0E948B4199
:104930001123F1F02091D1183091D2184E2D42035D
:10494000B001439F700D11242091CD183091CE18E5
:10495000620F731F072E000C880B990B0F94A53D57
:104960006093BD097093BE098093BF099093C009FD
:10497000FF20E9F02091D3183091D4180203B00140
:10498000039F700D11248091CF189091D018680F5B
:10499000791F072E000C880B990B0F94A53D60938F
:1049A000C1097093C2098093C3099093C40980E53B
:1049B0000E947F41882319F00E940E4103C080E5C8
:1049C0000E9450418823C1F01123B1F020E030E073
:1049D00044E152E46091BD097091BE098091BF0924
:1049E0009091C0090F94D8416093BD097093BE099E
:1049F0008093BF099093C00986E40E947F41811192
:104A000004C00E9412970C94EC350E941D416B016A
:104A10007C0120E030E0A9010F94FE4318168CF7CA
:104A200020E030E040E752E4C701B6010F94B44201
:104A30006093290270932A0280932B0290932C0298
:104A4000E0CF80910A1990910B198837910509F4EC
:104A50005CC40CF0DBC08D34910509F4BDC20CF0D0
:104A600060C08931910509F42FC234F58431910574
:104A700009F4ECC194F48131910509F4E3C144F4E3
:104A8000029710F00C94EC350E94ACE50C94EC35D8
:104A9000429709F404C40C94EC358631910509F46D
:104AA000DDC10CF4D7C18731910509F4DDC1489708
:104AB00009F4F0C10C94EC358F31910509F45FC213
:104AC00094F48B31910509F411C20CF401C28C31BC
:104AD000910509F40FC24E9711F00C94EC350F9428
:104AE000DF140C94EC358133910509F44CC264F465
:104AF0008032910509F402C28A9711F00C94EC35CA
:104B00000F94B1130C94EC358B34910509F460C209
:104B10008C34910511F00C94EC350E947E660C9457
:104B2000EC358C36910509F463C2CCF585359105D9
:104B300009F4B9C3C4F48235910509F4A7C34CF450
:104B40008135910511F00C94EC350E949DB70C94C1
:104B5000EC358335910509F49DC38435910509F43D
:104B60009EC30C94EC358936910509F467C26CF448
:104B70008C35910509F4B2C38836910511F00C9477
:104B8000EC350F945C130C94EC358A36910509F4DE
:104B9000CFC28B36910509F4F0C20C94EC35813705
:104BA000910509F429C29CF48E36910509F418C2C6
:104BB0000CF488C28F36910509F416C2803791052E
:104BC00011F00C94EC358BE792E00E9453928537FC
:104BD000910509F48DC36CF48237910509F482C301
:104BE0008337910511F00C94EC350E9499B50C9423
:104BF000EC358637910509F484C38737910511F0A8
:104C00000C94EC350E94226F0C94EC358D3251E0FF
:104C1000950709F484C60CF087C0893C910509F416
:104C200083C30CF041C08B39910509F424C2ECF424
:104C30008D37910509F4B3C25CF48937910511F001
:104C40000C94EC3510923915109238150C94EC3503
:104C50008C38910509F4D4C18139910511F00C9477
:104C6000EC350E94B4B70C94EC35863A910509F402
:104C700057C36CF4833A910509F44EC3843A910505
:104C800011F00C94EC350E9465B30C94EC358E3B1E
:104C9000910509F433C2883C910511F00C94EC3570
:104CA0000E940FB50C94EC358C3D910509F4C9C4F4
:104CB00004F58C3C910509F46FC37CF48B3C9105A1
:104CC00011F00C94EC35B2EBEB2EB3E1FB2E0CEBB8
:104CD00012E084E0D82ED00E50C38D3C910509F42B
:104CE000C7C3833D910511F00C94EC35ECEAF3E376
:104CF0002CC48831B1E09B0709F42BC554F48D3DD9
:104D0000910509F4ADC4823E910509F4F3C40C94F5
:104D1000EC358232F1E09F0709F4C9C58C3291402D
:104D200009F4D3C50C94EC35843A31E0930711F4BF
:104D30000C94EF310CF040C0803951E0950711F42C
:104D40000C94E1319CF48F32B1E09B0709F45EC70B
:104D50000CF406C78033F1E09F0709F483C683365D
:104D6000914011F40C94D0340C94EC35883931E036
:104D7000930711F40C94E83184F4813951E09507DC
:104D800011F40C94E4318239914011F00C94EC351B
:104D900080E00F943F120C94EC358939B1E09B0709
:104DA00011F40C94EC318A39914011F00C94EC35EB
:104DB0000E94D9B40C94EC35873FF1E09F0711F4C1
:104DC0000C945333ECF4843F31E0930711F40C94CA
:104DD0004D333CF4853A914011F40C94BA320C9462
:104DE000EC35853FA1E09A0711F40C945033863FCF
:104DF000914011F00C94EC350F94B9060C94EC35FD
:104E0000803AE3E09E0709F4B6C07CF4883522E0DE
:104E1000920711F40C94B7338335934011F00C943E
:104E2000EC35ECEAF3E30C945F33873E43E0940700
:104E300011F40C940F35893D974011F40C942435EE
:104E40000C94EC350F9486170C94EC350F942C16BB
:104E50000C94EC350E941B550C94EC351092D8152F
:104E60001092D9150C94EC35E0910819F0910919BC
:104E70008081882329F0803209F410823196F8CF9E
:104E800040E061E080910819909109190E94D35186
:104E90000C94EC3519821A821B821C82198A1A8A98
:104EA0001B8A1C8A80913612882341F040E0BE01A3
:104EB0006F5F7F4FCE0141960E9408960E94B651C7
:104EC0000E94BA650C94EC350F9420160C94EC35C6
:104ED0008091D915882311F40C94EC3583E50E9458
:104EE0007F4181110C9479360C94EC350E949866C0
:104EF0000C94EC350F9418160C94EC358091D81561
:104F000081110E942AAB8091D915882311F40C9449
:104F1000EC3580E50E947F41882319F00E940E4104
:104F200003C080E50E945041182F482F61E0809116
:104F30000819909109190E94D35183E50E947F417D
:104F4000882381F00E94ED40AB01BC01409309161B
:104F500050930A1660930B1670930C1685ED97E12B
:104F60000E94CC5E0E94B65111110C94EC350E9447
:104F7000BA650C94EC350F9405140C94EC350F9431
:104F800010140C94EC35F090260481E0F826F09291
:104F90002604E0E7F2E084918F010F5F1F4F882322
:104FA00021F00E94243DF801F6CFF11003C0EAE69B
:104FB000F2E002C0E5E6F2E084918F010F5F1F4F3F
:104FC000882311F40C94EC350E94243DF801F4CFB1
:104FD0000E94BA650C94EC350E9465E00C94EC35A7
:104FE0000E94CBB80C94EC350E9454B80C94EC356C
:104FF000109232020C94EC350E942AB80C94EC35D5
:105000008091900C83FF02C00C94EC3583E50E94E4
:105010007F41882311F40C94EC350E941D410F94BC
:105020001C436E37710514F06DE770E070932A0C25
:105030006093290C0E941BA60C94EC3589E690E045
:105040000F941C13811111C0E4E8F2E084918F01E8
:105050000F5F1F4F882321F00E94243DF801F6CFF7
:105060000E948FA58AE00E94243D10923512109272
:1050700034120C94293B83E50E947F41882311F46C
:105080000C94EC350E94FD40182F8D3308F01CE382
:10509000109329120E9493CB6B017C01212F30E0E9
:1050A000A8EEB3E00F94C841C60ED71EE81EF91E45
:1050B000C0922512D0922612E0922712F092281266
:1050C0000C94EC358DE690E00F941C1381110C9438
:1050D000EC358091900C83FF02C00C94EC3583E595
:1050E0000E947F4189AF81110C948A3682E50E942B
:1050F0007F4181110C948A360C94EC358091900C90
:1051000083FF02C00C94EC3560E08DEB92E00E94CE
:105110005DBE83E50E947F4189AF81110C94FD370C
:1051200082E50E947F4181110C94FD370C94EC358F
:1051300080E50E947F41811108C083E50E947F4184
:10514000811109C03FEF20E00AC00E94FD4081119B
:105150000C94EC35F2CF0E94ED40362F272F832F91
:10516000922F8F3F910519F010F08FEF90E0909300
:105170002E0C80932D0C0C94EC3580E50E947F4121
:10518000811106C010922E0C10922D0C0C94EC354F
:105190000E94ED40672B11F00C94EC35F3CF8CE4BA
:1051A0000E945041882319F00E941D4104C060E014
:1051B00070E080E090EC6D8F7E8F8F8F98A380E001
:1051C00090E0A0E4B0E489839A83AB83BC838D83B1
:1051D0009E83AF83B88780E090E0A0E2B1E4898746
:1051E0009A87AB87BC8788E50E947F41882379F046
:1051F00088E50E947F41882319F00E941D4103C069
:1052000060E070E0CB0169837A838B839C8389E5BE
:105210000E947F41882379F089E50E947F4188239D
:1052200019F00E941D4103C060E070E0CB016D8366
:105230007E838F8398878AE50E947F41882379F057
:105240008AE50E947F41882319F00E941D4103C016
:1052500060E070E0CB0169877A878B879C87198A29
:105260001A8A1B8A1C8A8091361281110C94EC35A3
:1052700000E020E0AE014F5E5F4FBE016F5F7F4FE9
:10528000CE014D960E942E950C94EC3510922A0476
:105290000C94EC3581E080932A040C94EC350E9448
:1052A0004CB70C94EC3583E50E945041882311F4EF
:1052B0000C94EC350E941D4120E030E04AE754E4B4
:1052C0000F94043E0F942143609330127093311277
:1052D00080933212909333120C94EC350E94AEB648
:1052E0000C94EC350E942AAB0E94E0B50C94EC358E
:1052F00060E080910819909109190E947BBE0C947E
:10530000EC350E9458B50C94EC3581E0809339154A
:10531000809338150C94EC350E945AB40C94EC35FB
:105320000E9454B20C94EC359CE5E92E92E1F92EE2
:105330000CEB12E024E0D22ED00ED8018D918D011D
:105340000E945041882349F00E941D410F9421433F
:10535000F7016083718382839383F4E0EF0EF11C85
:10536000D012EBCF0F94AF240C94EC35F4E0EF0E99
:10537000F11CD01611F40C94EC35D8018D918D01EF
:105380000E945041882391F30E941D41F7016083E0
:10539000718382839383EACF83E50E9450418823FF
:1053A000D9F00E941D41AB01BC014093741250938F
:1053B0007512609376127093771240936C1250932B
:1053C0006D1260936E1270936F1284E293E00F94EB
:1053D00021248AE00E94243D80E50E9450418823D8
:1053E00099F00E941D41AB01BC014093741250938F
:1053F0007512609376127093771287E093E00F94A2
:1054000021248AE00E94243D82E50E9450418823A5
:1054100099F00E941D41AB01BC0140937012509362
:105420007112609372127093731288EE92E00F946F
:1054300021248AE00E94243D84E50E945041882373
:1054400011F40C94EC350E941D41AB01BC0140935A
:105450006C1250936D1260936E1270936F128AECFF
:1054600092E00F9421248AE00E94243D0C94EC35B4
:1054700083E50E945041882351F00E941D416093B2
:10548000AE137093AF138093B0139093B11384E570
:105490000E945041882351F00E941D416093AA133D
:1054A0007093AB138093AC139093AD1382E40E947E
:1054B0005041882351F00E94F23C609395187093FC
:1054C0009618809397189093981888E50E945041F9
:1054D000882351F00E941D416093781270937912D5
:1054E00080937A1290937B1289E50E945041882321
:1054F00051F00E941D4160937C1270937D12809345
:105500007E1290937F128AE50E945041882351F0C9
:105510000E941D41609380127093811280938212C9
:105520009093831285E40E945041882311F40C94D7
:10553000EC350E941D416093841270938512809314
:105540008612909387120C94EC3584918F010F5F33
:105550001F4F882321F00E94243DF801F6CF83E5F8
:105560000E945041882321F00E940E4180936A02DC
:10557000E4E7F3E084918F010F5F1F4F882321F050
:105580000E94243DF801F6CF80916A02811103C088
:10559000E0E7F3E002C0ECE6F3E084918F010F5FF7
:1055A0001F4F882321F00E94243DF801F6CFE4E646
:1055B000F3E084918F010F5F1F4F882321F00E9439
:1055C000243DF801F6CF40E050E0BA0182E693E0D6
:1055D0000F94212440E050E0BA018FE593E00F944E
:1055E000212440E050E0BA018CE593E00F9421249F
:1055F000E4E5F3E084918F010F5F1F4F882321F0D2
:105600000E94243DF801F6CF40E050E06AE773E4E1
:1056100082E593E00F94212440E050E06AE773E4D0
:105620008FE493E00F94212440E050E06AE773E4B4
:105630008CE493E00F9421248AE00E94243D0C9492
:10564000EC3583E50E947F41882311F40C94EC35FE
:105650000E94ED4070933A02609339020C94EC354D
:105660008DED90E00F941C1381110C94EC3583E5C3
:105670000E947F41882311F40C94EC350091AF1205
:1056800010E00E94ED40000F111FF801E95CFD4F92
:10569000718360838091AF1290E08C01000F111F25
:1056A000000F111F98012D5C3D4F7901880F991F44
:1056B000FC01E95CFD4F60817181072E000C880BB5
:1056C000990B0F94A53D2AE037ED43E25CE30F947C
:1056D000043EF801EF56F34F20813181428153811E
:1056E0000F94043ED7016D937D938D939C931397F4
:1056F0000C94EC3580E50E945041882311F40C9401
:10570000EC350E94ED406B017C0183E50E947F41F6
:10571000882321F00E94ED408B0102C00FEF1FEFA4
:10572000C8010196039710F00C94EC35D7FE02C027
:105730000C94EC359C2DE4E8F3E08BE28E0F249181
:10574000921711F40C94EC3531968E13F8CF0C941B
:10575000003B80E50E945041882311F40C94EC3505
:105760000E94ED406B017C018B01672B09F080C02A
:1057700083E50E945041882341F00E94ED4087EA72
:1057800095E10E945C8F0C94EC35ECEAF3E3849194
:105790007F01BFEFEB1AFB0A882321F00E94243D12
:1057A000F701F5CF60E070E088EC93E00F943E24C1
:1057B0008091A91528E532E06901C81AD10887FD52
:1057C000D394CC0CDD1CCC0CDD1C0D2C000CEE0895
:1057D000FF088091A81528E830E04901881A91084F
:1057E00087FD9394880C991C880C991C092C000C3B
:1057F000AA08BB088091A7158F3FB9F090E0FC0183
:10580000EE0FFF1F8E0F9F1FFC01E65CFA4E018119
:10581000128133E0000F111F3A95E1F744E016952D
:1058200007954A95E1F70E5F1F4F98012F5F3F4F95
:10583000C901330FAA0BBB0B9C01AD012819390913
:105840004A095B09A4EBB0E00F94B841A7019601A7
:10585000281939094A095B090F949C41B90185EC63
:1058600093E00F943E248AE00E94243D0C94EC3592
:10587000EAE3FFE084918F010F5F1F4F882321F03F
:105880000E94243DF801F6CFB6018EEB93E00F9411
:105890003E24EFEAF3E084918F010F5F1F4F8823CE
:1058A00011F40C94EC350E94243DF801F4CF8AE504
:1058B0000E947F4181110C94423983E50E947F410F
:1058C00081110C9442390C94EC3583E50E947F41A0
:1058D000882319F00E94ED4002C064E071E07A8BE9
:1058E000698B80E50E947F41882339F00E94ED405A
:1058F0006938E3E17E0730F402C068EE73E07A8332
:10590000698304C088E893E19A838983BE016F5E4E
:105910007F4FCE0101960E9463E20C94EC3585E442
:105920000E947F41811110C080E50E945041882370
:1059300091F00E941D416093891370938A138093A4
:105940008B1390938C1307C00E94FD40882361F352
:10595000EAE3FFE072C089E40E945041882381F0AD
:105960000E941D412CEA35EC47E25EE30F94043EB1
:105970006093991370939A1380939B1390939C1345
:1059800084E40E945041882381F00E941D412CEA4A
:1059900035EC47E25EE30F94B44260939113709349
:1059A00092138093931390939413ECEAF3E384910E
:1059B0008F010F5F1F4F882321F00E94243DF801C3
:1059C000F6CF4091891350918A1360918B13709197
:1059D0008C1388ED93E00F9421242CEA35EC47E2F8
:1059E0005EE36091991370919A1380919B1390914B
:1059F0009C130F94B442AB01BC0184ED93E00F946F
:105A000004242CEA35EC47E25EE360919113709137
:105A1000921380919313909194130F94043EAB01D1
:105A2000BC0180ED93E00F9404248AE00E94243DA1
:105A30000C94EC350E94243DF80184918F010F5F96
:105A40001F4F8111F7CF01E613E0D8018D918D0131
:105A5000882319F00E94243DF8CF8AE00E94243D5B
:105A60000C94EC3580E50E945041882351F00E944F
:105A70001D416093A3127093A4128093A51290937A
:105A8000A61289E40E945041882381F00E941D41A2
:105A90002CEA35EC47E25EE30F94043E60939F12DC
:105AA0007093A0128093A1129093A21284E40E949A
:105AB0005041882381F00E941D412CEA35EC47E2D9
:105AC0005EE30F94B44260939B1270939C12809398
:105AD0009D1290939E12ECEAF3E384918F010F5F85
